
systick_test.elf:     file format elf32-littlearm

Sections:
Idx Name          Size      VMA       LMA       File off  Algn
  0 .isr_vector   000001c8  08000000  08000000  00010000  2**0
                  CONTENTS, ALLOC, LOAD, READONLY, DATA
  1 .text         0000ca64  080001d0  080001d0  000101d0  2**4
                  CONTENTS, ALLOC, LOAD, READONLY, CODE
  2 .rodata       00000720  0800cc38  0800cc38  0001cc38  2**3
                  CONTENTS, ALLOC, LOAD, READONLY, DATA
  3 .ARM.extab    00000000  0800d358  0800d358  000201f4  2**0
                  CONTENTS
  4 .ARM          00000008  0800d358  0800d358  0001d358  2**2
                  CONTENTS, ALLOC, LOAD, READONLY, DATA
  5 .preinit_array 00000000  0800d360  0800d360  000201f4  2**0
                  CONTENTS, ALLOC, LOAD, DATA
  6 .init_array   00000004  0800d360  0800d360  0001d360  2**2
                  CONTENTS, ALLOC, LOAD, DATA
  7 .fini_array   00000004  0800d364  0800d364  0001d364  2**2
                  CONTENTS, ALLOC, LOAD, DATA
  8 .data         000001f4  20000000  0800d368  00020000  2**2
                  CONTENTS, ALLOC, LOAD, DATA
  9 .bss          000007a4  200001f4  0800d55c  000201f4  2**2
                  ALLOC
 10 ._user_heap_stack 00000600  20000998  0800d55c  00020998  2**0
                  ALLOC
 11 .ARM.attributes 00000030  00000000  00000000  000201f4  2**0
                  CONTENTS, READONLY
 12 .debug_info   00017957  00000000  00000000  00020224  2**0
                  CONTENTS, READONLY, DEBUGGING
 13 .debug_abbrev 000034af  00000000  00000000  00037b7b  2**0
                  CONTENTS, READONLY, DEBUGGING
 14 .debug_aranges 000010a0  00000000  00000000  0003b030  2**3
                  CONTENTS, READONLY, DEBUGGING
 15 .debug_ranges 00000f20  00000000  00000000  0003c0d0  2**3
                  CONTENTS, READONLY, DEBUGGING
 16 .debug_macro  000178ef  00000000  00000000  0003cff0  2**0
                  CONTENTS, READONLY, DEBUGGING
 17 .debug_line   0000f84a  00000000  00000000  000548df  2**0
                  CONTENTS, READONLY, DEBUGGING
 18 .debug_str    000817f4  00000000  00000000  00064129  2**0
                  CONTENTS, READONLY, DEBUGGING
 19 .comment      0000007b  00000000  00000000  000e591d  2**0
                  CONTENTS, READONLY
 20 .debug_frame  000055dc  00000000  00000000  000e5998  2**2
                  CONTENTS, READONLY, DEBUGGING

Disassembly of section .text:

080001d0 <__do_global_dtors_aux>:
 80001d0:	b510      	push	{r4, lr}
 80001d2:	4c05      	ldr	r4, [pc, #20]	; (80001e8 <__do_global_dtors_aux+0x18>)
 80001d4:	7823      	ldrb	r3, [r4, #0]
 80001d6:	b933      	cbnz	r3, 80001e6 <__do_global_dtors_aux+0x16>
 80001d8:	4b04      	ldr	r3, [pc, #16]	; (80001ec <__do_global_dtors_aux+0x1c>)
 80001da:	b113      	cbz	r3, 80001e2 <__do_global_dtors_aux+0x12>
 80001dc:	4804      	ldr	r0, [pc, #16]	; (80001f0 <__do_global_dtors_aux+0x20>)
 80001de:	f3af 8000 	nop.w
 80001e2:	2301      	movs	r3, #1
 80001e4:	7023      	strb	r3, [r4, #0]
 80001e6:	bd10      	pop	{r4, pc}
 80001e8:	200001f4 	.word	0x200001f4
 80001ec:	00000000 	.word	0x00000000
 80001f0:	0800cc1c 	.word	0x0800cc1c

080001f4 <frame_dummy>:
 80001f4:	b508      	push	{r3, lr}
 80001f6:	4b03      	ldr	r3, [pc, #12]	; (8000204 <frame_dummy+0x10>)
 80001f8:	b11b      	cbz	r3, 8000202 <frame_dummy+0xe>
 80001fa:	4903      	ldr	r1, [pc, #12]	; (8000208 <frame_dummy+0x14>)
 80001fc:	4803      	ldr	r0, [pc, #12]	; (800020c <frame_dummy+0x18>)
 80001fe:	f3af 8000 	nop.w
 8000202:	bd08      	pop	{r3, pc}
 8000204:	00000000 	.word	0x00000000
 8000208:	200001f8 	.word	0x200001f8
 800020c:	0800cc1c 	.word	0x0800cc1c

08000210 <strlen>:
 8000210:	4603      	mov	r3, r0
 8000212:	f813 2b01 	ldrb.w	r2, [r3], #1
 8000216:	2a00      	cmp	r2, #0
 8000218:	d1fb      	bne.n	8000212 <strlen+0x2>
 800021a:	1a18      	subs	r0, r3, r0
 800021c:	3801      	subs	r0, #1
 800021e:	4770      	bx	lr

08000220 <memchr>:
 8000220:	f001 01ff 	and.w	r1, r1, #255	; 0xff
 8000224:	2a10      	cmp	r2, #16
 8000226:	db2b      	blt.n	8000280 <memchr+0x60>
 8000228:	f010 0f07 	tst.w	r0, #7
 800022c:	d008      	beq.n	8000240 <memchr+0x20>
 800022e:	f810 3b01 	ldrb.w	r3, [r0], #1
 8000232:	3a01      	subs	r2, #1
 8000234:	428b      	cmp	r3, r1
 8000236:	d02d      	beq.n	8000294 <memchr+0x74>
 8000238:	f010 0f07 	tst.w	r0, #7
 800023c:	b342      	cbz	r2, 8000290 <memchr+0x70>
 800023e:	d1f6      	bne.n	800022e <memchr+0xe>
 8000240:	b4f0      	push	{r4, r5, r6, r7}
 8000242:	ea41 2101 	orr.w	r1, r1, r1, lsl #8
 8000246:	ea41 4101 	orr.w	r1, r1, r1, lsl #16
 800024a:	f022 0407 	bic.w	r4, r2, #7
 800024e:	f07f 0700 	mvns.w	r7, #0
 8000252:	2300      	movs	r3, #0
 8000254:	e8f0 5602 	ldrd	r5, r6, [r0], #8
 8000258:	3c08      	subs	r4, #8
 800025a:	ea85 0501 	eor.w	r5, r5, r1
 800025e:	ea86 0601 	eor.w	r6, r6, r1
 8000262:	fa85 f547 	uadd8	r5, r5, r7
 8000266:	faa3 f587 	sel	r5, r3, r7
 800026a:	fa86 f647 	uadd8	r6, r6, r7
 800026e:	faa5 f687 	sel	r6, r5, r7
 8000272:	b98e      	cbnz	r6, 8000298 <memchr+0x78>
 8000274:	d1ee      	bne.n	8000254 <memchr+0x34>
 8000276:	bcf0      	pop	{r4, r5, r6, r7}
 8000278:	f001 01ff 	and.w	r1, r1, #255	; 0xff
 800027c:	f002 0207 	and.w	r2, r2, #7
 8000280:	b132      	cbz	r2, 8000290 <memchr+0x70>
 8000282:	f810 3b01 	ldrb.w	r3, [r0], #1
 8000286:	3a01      	subs	r2, #1
 8000288:	ea83 0301 	eor.w	r3, r3, r1
 800028c:	b113      	cbz	r3, 8000294 <memchr+0x74>
 800028e:	d1f8      	bne.n	8000282 <memchr+0x62>
 8000290:	2000      	movs	r0, #0
 8000292:	4770      	bx	lr
 8000294:	3801      	subs	r0, #1
 8000296:	4770      	bx	lr
 8000298:	2d00      	cmp	r5, #0
 800029a:	bf06      	itte	eq
 800029c:	4635      	moveq	r5, r6
 800029e:	3803      	subeq	r0, #3
 80002a0:	3807      	subne	r0, #7
 80002a2:	f015 0f01 	tst.w	r5, #1
 80002a6:	d107      	bne.n	80002b8 <memchr+0x98>
 80002a8:	3001      	adds	r0, #1
 80002aa:	f415 7f80 	tst.w	r5, #256	; 0x100
 80002ae:	bf02      	ittt	eq
 80002b0:	3001      	addeq	r0, #1
 80002b2:	f415 3fc0 	tsteq.w	r5, #98304	; 0x18000
 80002b6:	3001      	addeq	r0, #1
 80002b8:	bcf0      	pop	{r4, r5, r6, r7}
 80002ba:	3801      	subs	r0, #1
 80002bc:	4770      	bx	lr
 80002be:	bf00      	nop

080002c0 <__aeabi_drsub>:
 80002c0:	f081 4100 	eor.w	r1, r1, #2147483648	; 0x80000000
 80002c4:	e002      	b.n	80002cc <__adddf3>
 80002c6:	bf00      	nop

080002c8 <__aeabi_dsub>:
 80002c8:	f083 4300 	eor.w	r3, r3, #2147483648	; 0x80000000

080002cc <__adddf3>:
 80002cc:	b530      	push	{r4, r5, lr}
 80002ce:	ea4f 0441 	mov.w	r4, r1, lsl #1
 80002d2:	ea4f 0543 	mov.w	r5, r3, lsl #1
 80002d6:	ea94 0f05 	teq	r4, r5
 80002da:	bf08      	it	eq
 80002dc:	ea90 0f02 	teqeq	r0, r2
 80002e0:	bf1f      	itttt	ne
 80002e2:	ea54 0c00 	orrsne.w	ip, r4, r0
 80002e6:	ea55 0c02 	orrsne.w	ip, r5, r2
 80002ea:	ea7f 5c64 	mvnsne.w	ip, r4, asr #21
 80002ee:	ea7f 5c65 	mvnsne.w	ip, r5, asr #21
 80002f2:	f000 80e2 	beq.w	80004ba <__adddf3+0x1ee>
 80002f6:	ea4f 5454 	mov.w	r4, r4, lsr #21
 80002fa:	ebd4 5555 	rsbs	r5, r4, r5, lsr #21
 80002fe:	bfb8      	it	lt
 8000300:	426d      	neglt	r5, r5
 8000302:	dd0c      	ble.n	800031e <__adddf3+0x52>
 8000304:	442c      	add	r4, r5
 8000306:	ea80 0202 	eor.w	r2, r0, r2
 800030a:	ea81 0303 	eor.w	r3, r1, r3
 800030e:	ea82 0000 	eor.w	r0, r2, r0
 8000312:	ea83 0101 	eor.w	r1, r3, r1
 8000316:	ea80 0202 	eor.w	r2, r0, r2
 800031a:	ea81 0303 	eor.w	r3, r1, r3
 800031e:	2d36      	cmp	r5, #54	; 0x36
 8000320:	bf88      	it	hi
 8000322:	bd30      	pophi	{r4, r5, pc}
 8000324:	f011 4f00 	tst.w	r1, #2147483648	; 0x80000000
 8000328:	ea4f 3101 	mov.w	r1, r1, lsl #12
 800032c:	f44f 1c80 	mov.w	ip, #1048576	; 0x100000
 8000330:	ea4c 3111 	orr.w	r1, ip, r1, lsr #12
 8000334:	d002      	beq.n	800033c <__adddf3+0x70>
 8000336:	4240      	negs	r0, r0
 8000338:	eb61 0141 	sbc.w	r1, r1, r1, lsl #1
 800033c:	f013 4f00 	tst.w	r3, #2147483648	; 0x80000000
 8000340:	ea4f 3303 	mov.w	r3, r3, lsl #12
 8000344:	ea4c 3313 	orr.w	r3, ip, r3, lsr #12
 8000348:	d002      	beq.n	8000350 <__adddf3+0x84>
 800034a:	4252      	negs	r2, r2
 800034c:	eb63 0343 	sbc.w	r3, r3, r3, lsl #1
 8000350:	ea94 0f05 	teq	r4, r5
 8000354:	f000 80a7 	beq.w	80004a6 <__adddf3+0x1da>
 8000358:	f1a4 0401 	sub.w	r4, r4, #1
 800035c:	f1d5 0e20 	rsbs	lr, r5, #32
 8000360:	db0d      	blt.n	800037e <__adddf3+0xb2>
 8000362:	fa02 fc0e 	lsl.w	ip, r2, lr
 8000366:	fa22 f205 	lsr.w	r2, r2, r5
 800036a:	1880      	adds	r0, r0, r2
 800036c:	f141 0100 	adc.w	r1, r1, #0
 8000370:	fa03 f20e 	lsl.w	r2, r3, lr
 8000374:	1880      	adds	r0, r0, r2
 8000376:	fa43 f305 	asr.w	r3, r3, r5
 800037a:	4159      	adcs	r1, r3
 800037c:	e00e      	b.n	800039c <__adddf3+0xd0>
 800037e:	f1a5 0520 	sub.w	r5, r5, #32
 8000382:	f10e 0e20 	add.w	lr, lr, #32
 8000386:	2a01      	cmp	r2, #1
 8000388:	fa03 fc0e 	lsl.w	ip, r3, lr
 800038c:	bf28      	it	cs
 800038e:	f04c 0c02 	orrcs.w	ip, ip, #2
 8000392:	fa43 f305 	asr.w	r3, r3, r5
 8000396:	18c0      	adds	r0, r0, r3
 8000398:	eb51 71e3 	adcs.w	r1, r1, r3, asr #31
 800039c:	f001 4500 	and.w	r5, r1, #2147483648	; 0x80000000
 80003a0:	d507      	bpl.n	80003b2 <__adddf3+0xe6>
 80003a2:	f04f 0e00 	mov.w	lr, #0
 80003a6:	f1dc 0c00 	rsbs	ip, ip, #0
 80003aa:	eb7e 0000 	sbcs.w	r0, lr, r0
 80003ae:	eb6e 0101 	sbc.w	r1, lr, r1
 80003b2:	f5b1 1f80 	cmp.w	r1, #1048576	; 0x100000
 80003b6:	d31b      	bcc.n	80003f0 <__adddf3+0x124>
 80003b8:	f5b1 1f00 	cmp.w	r1, #2097152	; 0x200000
 80003bc:	d30c      	bcc.n	80003d8 <__adddf3+0x10c>
 80003be:	0849      	lsrs	r1, r1, #1
 80003c0:	ea5f 0030 	movs.w	r0, r0, rrx
 80003c4:	ea4f 0c3c 	mov.w	ip, ip, rrx
 80003c8:	f104 0401 	add.w	r4, r4, #1
 80003cc:	ea4f 5244 	mov.w	r2, r4, lsl #21
 80003d0:	f512 0f80 	cmn.w	r2, #4194304	; 0x400000
 80003d4:	f080 809a 	bcs.w	800050c <__adddf3+0x240>
 80003d8:	f1bc 4f00 	cmp.w	ip, #2147483648	; 0x80000000
 80003dc:	bf08      	it	eq
 80003de:	ea5f 0c50 	movseq.w	ip, r0, lsr #1
 80003e2:	f150 0000 	adcs.w	r0, r0, #0
 80003e6:	eb41 5104 	adc.w	r1, r1, r4, lsl #20
 80003ea:	ea41 0105 	orr.w	r1, r1, r5
 80003ee:	bd30      	pop	{r4, r5, pc}
 80003f0:	ea5f 0c4c 	movs.w	ip, ip, lsl #1
 80003f4:	4140      	adcs	r0, r0
 80003f6:	eb41 0101 	adc.w	r1, r1, r1
 80003fa:	f411 1f80 	tst.w	r1, #1048576	; 0x100000
 80003fe:	f1a4 0401 	sub.w	r4, r4, #1
 8000402:	d1e9      	bne.n	80003d8 <__adddf3+0x10c>
 8000404:	f091 0f00 	teq	r1, #0
 8000408:	bf04      	itt	eq
 800040a:	4601      	moveq	r1, r0
 800040c:	2000      	moveq	r0, #0
 800040e:	fab1 f381 	clz	r3, r1
 8000412:	bf08      	it	eq
 8000414:	3320      	addeq	r3, #32
 8000416:	f1a3 030b 	sub.w	r3, r3, #11
 800041a:	f1b3 0220 	subs.w	r2, r3, #32
 800041e:	da0c      	bge.n	800043a <__adddf3+0x16e>
 8000420:	320c      	adds	r2, #12
 8000422:	dd08      	ble.n	8000436 <__adddf3+0x16a>
 8000424:	f102 0c14 	add.w	ip, r2, #20
 8000428:	f1c2 020c 	rsb	r2, r2, #12
 800042c:	fa01 f00c 	lsl.w	r0, r1, ip
 8000430:	fa21 f102 	lsr.w	r1, r1, r2
 8000434:	e00c      	b.n	8000450 <__adddf3+0x184>
 8000436:	f102 0214 	add.w	r2, r2, #20
 800043a:	bfd8      	it	le
 800043c:	f1c2 0c20 	rsble	ip, r2, #32
 8000440:	fa01 f102 	lsl.w	r1, r1, r2
 8000444:	fa20 fc0c 	lsr.w	ip, r0, ip
 8000448:	bfdc      	itt	le
 800044a:	ea41 010c 	orrle.w	r1, r1, ip
 800044e:	4090      	lslle	r0, r2
 8000450:	1ae4      	subs	r4, r4, r3
 8000452:	bfa2      	ittt	ge
 8000454:	eb01 5104 	addge.w	r1, r1, r4, lsl #20
 8000458:	4329      	orrge	r1, r5
 800045a:	bd30      	popge	{r4, r5, pc}
 800045c:	ea6f 0404 	mvn.w	r4, r4
 8000460:	3c1f      	subs	r4, #31
 8000462:	da1c      	bge.n	800049e <__adddf3+0x1d2>
 8000464:	340c      	adds	r4, #12
 8000466:	dc0e      	bgt.n	8000486 <__adddf3+0x1ba>
 8000468:	f104 0414 	add.w	r4, r4, #20
 800046c:	f1c4 0220 	rsb	r2, r4, #32
 8000470:	fa20 f004 	lsr.w	r0, r0, r4
 8000474:	fa01 f302 	lsl.w	r3, r1, r2
 8000478:	ea40 0003 	orr.w	r0, r0, r3
 800047c:	fa21 f304 	lsr.w	r3, r1, r4
 8000480:	ea45 0103 	orr.w	r1, r5, r3
 8000484:	bd30      	pop	{r4, r5, pc}
 8000486:	f1c4 040c 	rsb	r4, r4, #12
 800048a:	f1c4 0220 	rsb	r2, r4, #32
 800048e:	fa20 f002 	lsr.w	r0, r0, r2
 8000492:	fa01 f304 	lsl.w	r3, r1, r4
 8000496:	ea40 0003 	orr.w	r0, r0, r3
 800049a:	4629      	mov	r1, r5
 800049c:	bd30      	pop	{r4, r5, pc}
 800049e:	fa21 f004 	lsr.w	r0, r1, r4
 80004a2:	4629      	mov	r1, r5
 80004a4:	bd30      	pop	{r4, r5, pc}
 80004a6:	f094 0f00 	teq	r4, #0
 80004aa:	f483 1380 	eor.w	r3, r3, #1048576	; 0x100000
 80004ae:	bf06      	itte	eq
 80004b0:	f481 1180 	eoreq.w	r1, r1, #1048576	; 0x100000
 80004b4:	3401      	addeq	r4, #1
 80004b6:	3d01      	subne	r5, #1
 80004b8:	e74e      	b.n	8000358 <__adddf3+0x8c>
 80004ba:	ea7f 5c64 	mvns.w	ip, r4, asr #21
 80004be:	bf18      	it	ne
 80004c0:	ea7f 5c65 	mvnsne.w	ip, r5, asr #21
 80004c4:	d029      	beq.n	800051a <__adddf3+0x24e>
 80004c6:	ea94 0f05 	teq	r4, r5
 80004ca:	bf08      	it	eq
 80004cc:	ea90 0f02 	teqeq	r0, r2
 80004d0:	d005      	beq.n	80004de <__adddf3+0x212>
 80004d2:	ea54 0c00 	orrs.w	ip, r4, r0
 80004d6:	bf04      	itt	eq
 80004d8:	4619      	moveq	r1, r3
 80004da:	4610      	moveq	r0, r2
 80004dc:	bd30      	pop	{r4, r5, pc}
 80004de:	ea91 0f03 	teq	r1, r3
 80004e2:	bf1e      	ittt	ne
 80004e4:	2100      	movne	r1, #0
 80004e6:	2000      	movne	r0, #0
 80004e8:	bd30      	popne	{r4, r5, pc}
 80004ea:	ea5f 5c54 	movs.w	ip, r4, lsr #21
 80004ee:	d105      	bne.n	80004fc <__adddf3+0x230>
 80004f0:	0040      	lsls	r0, r0, #1
 80004f2:	4149      	adcs	r1, r1
 80004f4:	bf28      	it	cs
 80004f6:	f041 4100 	orrcs.w	r1, r1, #2147483648	; 0x80000000
 80004fa:	bd30      	pop	{r4, r5, pc}
 80004fc:	f514 0480 	adds.w	r4, r4, #4194304	; 0x400000
 8000500:	bf3c      	itt	cc
 8000502:	f501 1180 	addcc.w	r1, r1, #1048576	; 0x100000
 8000506:	bd30      	popcc	{r4, r5, pc}
 8000508:	f001 4500 	and.w	r5, r1, #2147483648	; 0x80000000
 800050c:	f045 41fe 	orr.w	r1, r5, #2130706432	; 0x7f000000
 8000510:	f441 0170 	orr.w	r1, r1, #15728640	; 0xf00000
 8000514:	f04f 0000 	mov.w	r0, #0
 8000518:	bd30      	pop	{r4, r5, pc}
 800051a:	ea7f 5c64 	mvns.w	ip, r4, asr #21
 800051e:	bf1a      	itte	ne
 8000520:	4619      	movne	r1, r3
 8000522:	4610      	movne	r0, r2
 8000524:	ea7f 5c65 	mvnseq.w	ip, r5, asr #21
 8000528:	bf1c      	itt	ne
 800052a:	460b      	movne	r3, r1
 800052c:	4602      	movne	r2, r0
 800052e:	ea50 3401 	orrs.w	r4, r0, r1, lsl #12
 8000532:	bf06      	itte	eq
 8000534:	ea52 3503 	orrseq.w	r5, r2, r3, lsl #12
 8000538:	ea91 0f03 	teqeq	r1, r3
 800053c:	f441 2100 	orrne.w	r1, r1, #524288	; 0x80000
 8000540:	bd30      	pop	{r4, r5, pc}
 8000542:	bf00      	nop

08000544 <__aeabi_ui2d>:
 8000544:	f090 0f00 	teq	r0, #0
 8000548:	bf04      	itt	eq
 800054a:	2100      	moveq	r1, #0
 800054c:	4770      	bxeq	lr
 800054e:	b530      	push	{r4, r5, lr}
 8000550:	f44f 6480 	mov.w	r4, #1024	; 0x400
 8000554:	f104 0432 	add.w	r4, r4, #50	; 0x32
 8000558:	f04f 0500 	mov.w	r5, #0
 800055c:	f04f 0100 	mov.w	r1, #0
 8000560:	e750      	b.n	8000404 <__adddf3+0x138>
 8000562:	bf00      	nop

08000564 <__aeabi_i2d>:
 8000564:	f090 0f00 	teq	r0, #0
 8000568:	bf04      	itt	eq
 800056a:	2100      	moveq	r1, #0
 800056c:	4770      	bxeq	lr
 800056e:	b530      	push	{r4, r5, lr}
 8000570:	f44f 6480 	mov.w	r4, #1024	; 0x400
 8000574:	f104 0432 	add.w	r4, r4, #50	; 0x32
 8000578:	f010 4500 	ands.w	r5, r0, #2147483648	; 0x80000000
 800057c:	bf48      	it	mi
 800057e:	4240      	negmi	r0, r0
 8000580:	f04f 0100 	mov.w	r1, #0
 8000584:	e73e      	b.n	8000404 <__adddf3+0x138>
 8000586:	bf00      	nop

08000588 <__aeabi_f2d>:
 8000588:	0042      	lsls	r2, r0, #1
 800058a:	ea4f 01e2 	mov.w	r1, r2, asr #3
 800058e:	ea4f 0131 	mov.w	r1, r1, rrx
 8000592:	ea4f 7002 	mov.w	r0, r2, lsl #28
 8000596:	bf1f      	itttt	ne
 8000598:	f012 437f 	andsne.w	r3, r2, #4278190080	; 0xff000000
 800059c:	f093 4f7f 	teqne	r3, #4278190080	; 0xff000000
 80005a0:	f081 5160 	eorne.w	r1, r1, #939524096	; 0x38000000
 80005a4:	4770      	bxne	lr
 80005a6:	f032 427f 	bics.w	r2, r2, #4278190080	; 0xff000000
 80005aa:	bf08      	it	eq
 80005ac:	4770      	bxeq	lr
 80005ae:	f093 4f7f 	teq	r3, #4278190080	; 0xff000000
 80005b2:	bf04      	itt	eq
 80005b4:	f441 2100 	orreq.w	r1, r1, #524288	; 0x80000
 80005b8:	4770      	bxeq	lr
 80005ba:	b530      	push	{r4, r5, lr}
 80005bc:	f44f 7460 	mov.w	r4, #896	; 0x380
 80005c0:	f001 4500 	and.w	r5, r1, #2147483648	; 0x80000000
 80005c4:	f021 4100 	bic.w	r1, r1, #2147483648	; 0x80000000
 80005c8:	e71c      	b.n	8000404 <__adddf3+0x138>
 80005ca:	bf00      	nop

080005cc <__aeabi_ul2d>:
 80005cc:	ea50 0201 	orrs.w	r2, r0, r1
 80005d0:	bf08      	it	eq
 80005d2:	4770      	bxeq	lr
 80005d4:	b530      	push	{r4, r5, lr}
 80005d6:	f04f 0500 	mov.w	r5, #0
 80005da:	e00a      	b.n	80005f2 <__aeabi_l2d+0x16>

080005dc <__aeabi_l2d>:
 80005dc:	ea50 0201 	orrs.w	r2, r0, r1
 80005e0:	bf08      	it	eq
 80005e2:	4770      	bxeq	lr
 80005e4:	b530      	push	{r4, r5, lr}
 80005e6:	f011 4500 	ands.w	r5, r1, #2147483648	; 0x80000000
 80005ea:	d502      	bpl.n	80005f2 <__aeabi_l2d+0x16>
 80005ec:	4240      	negs	r0, r0
 80005ee:	eb61 0141 	sbc.w	r1, r1, r1, lsl #1
 80005f2:	f44f 6480 	mov.w	r4, #1024	; 0x400
 80005f6:	f104 0432 	add.w	r4, r4, #50	; 0x32
 80005fa:	ea5f 5c91 	movs.w	ip, r1, lsr #22
 80005fe:	f43f aed8 	beq.w	80003b2 <__adddf3+0xe6>
 8000602:	f04f 0203 	mov.w	r2, #3
 8000606:	ea5f 0cdc 	movs.w	ip, ip, lsr #3
 800060a:	bf18      	it	ne
 800060c:	3203      	addne	r2, #3
 800060e:	ea5f 0cdc 	movs.w	ip, ip, lsr #3
 8000612:	bf18      	it	ne
 8000614:	3203      	addne	r2, #3
 8000616:	eb02 02dc 	add.w	r2, r2, ip, lsr #3
 800061a:	f1c2 0320 	rsb	r3, r2, #32
 800061e:	fa00 fc03 	lsl.w	ip, r0, r3
 8000622:	fa20 f002 	lsr.w	r0, r0, r2
 8000626:	fa01 fe03 	lsl.w	lr, r1, r3
 800062a:	ea40 000e 	orr.w	r0, r0, lr
 800062e:	fa21 f102 	lsr.w	r1, r1, r2
 8000632:	4414      	add	r4, r2
 8000634:	e6bd      	b.n	80003b2 <__adddf3+0xe6>
 8000636:	bf00      	nop

08000638 <__aeabi_dmul>:
 8000638:	b570      	push	{r4, r5, r6, lr}
 800063a:	f04f 0cff 	mov.w	ip, #255	; 0xff
 800063e:	f44c 6ce0 	orr.w	ip, ip, #1792	; 0x700
 8000642:	ea1c 5411 	ands.w	r4, ip, r1, lsr #20
 8000646:	bf1d      	ittte	ne
 8000648:	ea1c 5513 	andsne.w	r5, ip, r3, lsr #20
 800064c:	ea94 0f0c 	teqne	r4, ip
 8000650:	ea95 0f0c 	teqne	r5, ip
 8000654:	f000 f8de 	bleq	8000814 <__aeabi_dmul+0x1dc>
 8000658:	442c      	add	r4, r5
 800065a:	ea81 0603 	eor.w	r6, r1, r3
 800065e:	ea21 514c 	bic.w	r1, r1, ip, lsl #21
 8000662:	ea23 534c 	bic.w	r3, r3, ip, lsl #21
 8000666:	ea50 3501 	orrs.w	r5, r0, r1, lsl #12
 800066a:	bf18      	it	ne
 800066c:	ea52 3503 	orrsne.w	r5, r2, r3, lsl #12
 8000670:	f441 1180 	orr.w	r1, r1, #1048576	; 0x100000
 8000674:	f443 1380 	orr.w	r3, r3, #1048576	; 0x100000
 8000678:	d038      	beq.n	80006ec <__aeabi_dmul+0xb4>
 800067a:	fba0 ce02 	umull	ip, lr, r0, r2
 800067e:	f04f 0500 	mov.w	r5, #0
 8000682:	fbe1 e502 	umlal	lr, r5, r1, r2
 8000686:	f006 4200 	and.w	r2, r6, #2147483648	; 0x80000000
 800068a:	fbe0 e503 	umlal	lr, r5, r0, r3
 800068e:	f04f 0600 	mov.w	r6, #0
 8000692:	fbe1 5603 	umlal	r5, r6, r1, r3
 8000696:	f09c 0f00 	teq	ip, #0
 800069a:	bf18      	it	ne
 800069c:	f04e 0e01 	orrne.w	lr, lr, #1
 80006a0:	f1a4 04ff 	sub.w	r4, r4, #255	; 0xff
 80006a4:	f5b6 7f00 	cmp.w	r6, #512	; 0x200
 80006a8:	f564 7440 	sbc.w	r4, r4, #768	; 0x300
 80006ac:	d204      	bcs.n	80006b8 <__aeabi_dmul+0x80>
 80006ae:	ea5f 0e4e 	movs.w	lr, lr, lsl #1
 80006b2:	416d      	adcs	r5, r5
 80006b4:	eb46 0606 	adc.w	r6, r6, r6
 80006b8:	ea42 21c6 	orr.w	r1, r2, r6, lsl #11
 80006bc:	ea41 5155 	orr.w	r1, r1, r5, lsr #21
 80006c0:	ea4f 20c5 	mov.w	r0, r5, lsl #11
 80006c4:	ea40 505e 	orr.w	r0, r0, lr, lsr #21
 80006c8:	ea4f 2ece 	mov.w	lr, lr, lsl #11
 80006cc:	f1b4 0cfd 	subs.w	ip, r4, #253	; 0xfd
 80006d0:	bf88      	it	hi
 80006d2:	f5bc 6fe0 	cmphi.w	ip, #1792	; 0x700
 80006d6:	d81e      	bhi.n	8000716 <__aeabi_dmul+0xde>
 80006d8:	f1be 4f00 	cmp.w	lr, #2147483648	; 0x80000000
 80006dc:	bf08      	it	eq
 80006de:	ea5f 0e50 	movseq.w	lr, r0, lsr #1
 80006e2:	f150 0000 	adcs.w	r0, r0, #0
 80006e6:	eb41 5104 	adc.w	r1, r1, r4, lsl #20
 80006ea:	bd70      	pop	{r4, r5, r6, pc}
 80006ec:	f006 4600 	and.w	r6, r6, #2147483648	; 0x80000000
 80006f0:	ea46 0101 	orr.w	r1, r6, r1
 80006f4:	ea40 0002 	orr.w	r0, r0, r2
 80006f8:	ea81 0103 	eor.w	r1, r1, r3
 80006fc:	ebb4 045c 	subs.w	r4, r4, ip, lsr #1
 8000700:	bfc2      	ittt	gt
 8000702:	ebd4 050c 	rsbsgt	r5, r4, ip
 8000706:	ea41 5104 	orrgt.w	r1, r1, r4, lsl #20
 800070a:	bd70      	popgt	{r4, r5, r6, pc}
 800070c:	f441 1180 	orr.w	r1, r1, #1048576	; 0x100000
 8000710:	f04f 0e00 	mov.w	lr, #0
 8000714:	3c01      	subs	r4, #1
 8000716:	f300 80ab 	bgt.w	8000870 <__aeabi_dmul+0x238>
 800071a:	f114 0f36 	cmn.w	r4, #54	; 0x36
 800071e:	bfde      	ittt	le
 8000720:	2000      	movle	r0, #0
 8000722:	f001 4100 	andle.w	r1, r1, #2147483648	; 0x80000000
 8000726:	bd70      	pople	{r4, r5, r6, pc}
 8000728:	f1c4 0400 	rsb	r4, r4, #0
 800072c:	3c20      	subs	r4, #32
 800072e:	da35      	bge.n	800079c <__aeabi_dmul+0x164>
 8000730:	340c      	adds	r4, #12
 8000732:	dc1b      	bgt.n	800076c <__aeabi_dmul+0x134>
 8000734:	f104 0414 	add.w	r4, r4, #20
 8000738:	f1c4 0520 	rsb	r5, r4, #32
 800073c:	fa00 f305 	lsl.w	r3, r0, r5
 8000740:	fa20 f004 	lsr.w	r0, r0, r4
 8000744:	fa01 f205 	lsl.w	r2, r1, r5
 8000748:	ea40 0002 	orr.w	r0, r0, r2
 800074c:	f001 4200 	and.w	r2, r1, #2147483648	; 0x80000000
 8000750:	f021 4100 	bic.w	r1, r1, #2147483648	; 0x80000000
 8000754:	eb10 70d3 	adds.w	r0, r0, r3, lsr #31
 8000758:	fa21 f604 	lsr.w	r6, r1, r4
 800075c:	eb42 0106 	adc.w	r1, r2, r6
 8000760:	ea5e 0e43 	orrs.w	lr, lr, r3, lsl #1
 8000764:	bf08      	it	eq
 8000766:	ea20 70d3 	biceq.w	r0, r0, r3, lsr #31
 800076a:	bd70      	pop	{r4, r5, r6, pc}
 800076c:	f1c4 040c 	rsb	r4, r4, #12
 8000770:	f1c4 0520 	rsb	r5, r4, #32
 8000774:	fa00 f304 	lsl.w	r3, r0, r4
 8000778:	fa20 f005 	lsr.w	r0, r0, r5
 800077c:	fa01 f204 	lsl.w	r2, r1, r4
 8000780:	ea40 0002 	orr.w	r0, r0, r2
 8000784:	f001 4100 	and.w	r1, r1, #2147483648	; 0x80000000
 8000788:	eb10 70d3 	adds.w	r0, r0, r3, lsr #31
 800078c:	f141 0100 	adc.w	r1, r1, #0
 8000790:	ea5e 0e43 	orrs.w	lr, lr, r3, lsl #1
 8000794:	bf08      	it	eq
 8000796:	ea20 70d3 	biceq.w	r0, r0, r3, lsr #31
 800079a:	bd70      	pop	{r4, r5, r6, pc}
 800079c:	f1c4 0520 	rsb	r5, r4, #32
 80007a0:	fa00 f205 	lsl.w	r2, r0, r5
 80007a4:	ea4e 0e02 	orr.w	lr, lr, r2
 80007a8:	fa20 f304 	lsr.w	r3, r0, r4
 80007ac:	fa01 f205 	lsl.w	r2, r1, r5
 80007b0:	ea43 0302 	orr.w	r3, r3, r2
 80007b4:	fa21 f004 	lsr.w	r0, r1, r4
 80007b8:	f001 4100 	and.w	r1, r1, #2147483648	; 0x80000000
 80007bc:	fa21 f204 	lsr.w	r2, r1, r4
 80007c0:	ea20 0002 	bic.w	r0, r0, r2
 80007c4:	eb00 70d3 	add.w	r0, r0, r3, lsr #31
 80007c8:	ea5e 0e43 	orrs.w	lr, lr, r3, lsl #1
 80007cc:	bf08      	it	eq
 80007ce:	ea20 70d3 	biceq.w	r0, r0, r3, lsr #31
 80007d2:	bd70      	pop	{r4, r5, r6, pc}
 80007d4:	f094 0f00 	teq	r4, #0
 80007d8:	d10f      	bne.n	80007fa <__aeabi_dmul+0x1c2>
 80007da:	f001 4600 	and.w	r6, r1, #2147483648	; 0x80000000
 80007de:	0040      	lsls	r0, r0, #1
 80007e0:	eb41 0101 	adc.w	r1, r1, r1
 80007e4:	f411 1f80 	tst.w	r1, #1048576	; 0x100000
 80007e8:	bf08      	it	eq
 80007ea:	3c01      	subeq	r4, #1
 80007ec:	d0f7      	beq.n	80007de <__aeabi_dmul+0x1a6>
 80007ee:	ea41 0106 	orr.w	r1, r1, r6
 80007f2:	f095 0f00 	teq	r5, #0
 80007f6:	bf18      	it	ne
 80007f8:	4770      	bxne	lr
 80007fa:	f003 4600 	and.w	r6, r3, #2147483648	; 0x80000000
 80007fe:	0052      	lsls	r2, r2, #1
 8000800:	eb43 0303 	adc.w	r3, r3, r3
 8000804:	f413 1f80 	tst.w	r3, #1048576	; 0x100000
 8000808:	bf08      	it	eq
 800080a:	3d01      	subeq	r5, #1
 800080c:	d0f7      	beq.n	80007fe <__aeabi_dmul+0x1c6>
 800080e:	ea43 0306 	orr.w	r3, r3, r6
 8000812:	4770      	bx	lr
 8000814:	ea94 0f0c 	teq	r4, ip
 8000818:	ea0c 5513 	and.w	r5, ip, r3, lsr #20
 800081c:	bf18      	it	ne
 800081e:	ea95 0f0c 	teqne	r5, ip
 8000822:	d00c      	beq.n	800083e <__aeabi_dmul+0x206>
 8000824:	ea50 0641 	orrs.w	r6, r0, r1, lsl #1
 8000828:	bf18      	it	ne
 800082a:	ea52 0643 	orrsne.w	r6, r2, r3, lsl #1
 800082e:	d1d1      	bne.n	80007d4 <__aeabi_dmul+0x19c>
 8000830:	ea81 0103 	eor.w	r1, r1, r3
 8000834:	f001 4100 	and.w	r1, r1, #2147483648	; 0x80000000
 8000838:	f04f 0000 	mov.w	r0, #0
 800083c:	bd70      	pop	{r4, r5, r6, pc}
 800083e:	ea50 0641 	orrs.w	r6, r0, r1, lsl #1
 8000842:	bf06      	itte	eq
 8000844:	4610      	moveq	r0, r2
 8000846:	4619      	moveq	r1, r3
 8000848:	ea52 0643 	orrsne.w	r6, r2, r3, lsl #1
 800084c:	d019      	beq.n	8000882 <__aeabi_dmul+0x24a>
 800084e:	ea94 0f0c 	teq	r4, ip
 8000852:	d102      	bne.n	800085a <__aeabi_dmul+0x222>
 8000854:	ea50 3601 	orrs.w	r6, r0, r1, lsl #12
 8000858:	d113      	bne.n	8000882 <__aeabi_dmul+0x24a>
 800085a:	ea95 0f0c 	teq	r5, ip
 800085e:	d105      	bne.n	800086c <__aeabi_dmul+0x234>
 8000860:	ea52 3603 	orrs.w	r6, r2, r3, lsl #12
 8000864:	bf1c      	itt	ne
 8000866:	4610      	movne	r0, r2
 8000868:	4619      	movne	r1, r3
 800086a:	d10a      	bne.n	8000882 <__aeabi_dmul+0x24a>
 800086c:	ea81 0103 	eor.w	r1, r1, r3
 8000870:	f001 4100 	and.w	r1, r1, #2147483648	; 0x80000000
 8000874:	f041 41fe 	orr.w	r1, r1, #2130706432	; 0x7f000000
 8000878:	f441 0170 	orr.w	r1, r1, #15728640	; 0xf00000
 800087c:	f04f 0000 	mov.w	r0, #0
 8000880:	bd70      	pop	{r4, r5, r6, pc}
 8000882:	f041 41fe 	orr.w	r1, r1, #2130706432	; 0x7f000000
 8000886:	f441 0178 	orr.w	r1, r1, #16252928	; 0xf80000
 800088a:	bd70      	pop	{r4, r5, r6, pc}

0800088c <__aeabi_ddiv>:
 800088c:	b570      	push	{r4, r5, r6, lr}
 800088e:	f04f 0cff 	mov.w	ip, #255	; 0xff
 8000892:	f44c 6ce0 	orr.w	ip, ip, #1792	; 0x700
 8000896:	ea1c 5411 	ands.w	r4, ip, r1, lsr #20
 800089a:	bf1d      	ittte	ne
 800089c:	ea1c 5513 	andsne.w	r5, ip, r3, lsr #20
 80008a0:	ea94 0f0c 	teqne	r4, ip
 80008a4:	ea95 0f0c 	teqne	r5, ip
 80008a8:	f000 f8a7 	bleq	80009fa <__aeabi_ddiv+0x16e>
 80008ac:	eba4 0405 	sub.w	r4, r4, r5
 80008b0:	ea81 0e03 	eor.w	lr, r1, r3
 80008b4:	ea52 3503 	orrs.w	r5, r2, r3, lsl #12
 80008b8:	ea4f 3101 	mov.w	r1, r1, lsl #12
 80008bc:	f000 8088 	beq.w	80009d0 <__aeabi_ddiv+0x144>
 80008c0:	ea4f 3303 	mov.w	r3, r3, lsl #12
 80008c4:	f04f 5580 	mov.w	r5, #268435456	; 0x10000000
 80008c8:	ea45 1313 	orr.w	r3, r5, r3, lsr #4
 80008cc:	ea43 6312 	orr.w	r3, r3, r2, lsr #24
 80008d0:	ea4f 2202 	mov.w	r2, r2, lsl #8
 80008d4:	ea45 1511 	orr.w	r5, r5, r1, lsr #4
 80008d8:	ea45 6510 	orr.w	r5, r5, r0, lsr #24
 80008dc:	ea4f 2600 	mov.w	r6, r0, lsl #8
 80008e0:	f00e 4100 	and.w	r1, lr, #2147483648	; 0x80000000
 80008e4:	429d      	cmp	r5, r3
 80008e6:	bf08      	it	eq
 80008e8:	4296      	cmpeq	r6, r2
 80008ea:	f144 04fd 	adc.w	r4, r4, #253	; 0xfd
 80008ee:	f504 7440 	add.w	r4, r4, #768	; 0x300
 80008f2:	d202      	bcs.n	80008fa <__aeabi_ddiv+0x6e>
 80008f4:	085b      	lsrs	r3, r3, #1
 80008f6:	ea4f 0232 	mov.w	r2, r2, rrx
 80008fa:	1ab6      	subs	r6, r6, r2
 80008fc:	eb65 0503 	sbc.w	r5, r5, r3
 8000900:	085b      	lsrs	r3, r3, #1
 8000902:	ea4f 0232 	mov.w	r2, r2, rrx
 8000906:	f44f 1080 	mov.w	r0, #1048576	; 0x100000
 800090a:	f44f 2c00 	mov.w	ip, #524288	; 0x80000
 800090e:	ebb6 0e02 	subs.w	lr, r6, r2
 8000912:	eb75 0e03 	sbcs.w	lr, r5, r3
 8000916:	bf22      	ittt	cs
 8000918:	1ab6      	subcs	r6, r6, r2
 800091a:	4675      	movcs	r5, lr
 800091c:	ea40 000c 	orrcs.w	r0, r0, ip
 8000920:	085b      	lsrs	r3, r3, #1
 8000922:	ea4f 0232 	mov.w	r2, r2, rrx
 8000926:	ebb6 0e02 	subs.w	lr, r6, r2
 800092a:	eb75 0e03 	sbcs.w	lr, r5, r3
 800092e:	bf22      	ittt	cs
 8000930:	1ab6      	subcs	r6, r6, r2
 8000932:	4675      	movcs	r5, lr
 8000934:	ea40 005c 	orrcs.w	r0, r0, ip, lsr #1
 8000938:	085b      	lsrs	r3, r3, #1
 800093a:	ea4f 0232 	mov.w	r2, r2, rrx
 800093e:	ebb6 0e02 	subs.w	lr, r6, r2
 8000942:	eb75 0e03 	sbcs.w	lr, r5, r3
 8000946:	bf22      	ittt	cs
 8000948:	1ab6      	subcs	r6, r6, r2
 800094a:	4675      	movcs	r5, lr
 800094c:	ea40 009c 	orrcs.w	r0, r0, ip, lsr #2
 8000950:	085b      	lsrs	r3, r3, #1
 8000952:	ea4f 0232 	mov.w	r2, r2, rrx
 8000956:	ebb6 0e02 	subs.w	lr, r6, r2
 800095a:	eb75 0e03 	sbcs.w	lr, r5, r3
 800095e:	bf22      	ittt	cs
 8000960:	1ab6      	subcs	r6, r6, r2
 8000962:	4675      	movcs	r5, lr
 8000964:	ea40 00dc 	orrcs.w	r0, r0, ip, lsr #3
 8000968:	ea55 0e06 	orrs.w	lr, r5, r6
 800096c:	d018      	beq.n	80009a0 <__aeabi_ddiv+0x114>
 800096e:	ea4f 1505 	mov.w	r5, r5, lsl #4
 8000972:	ea45 7516 	orr.w	r5, r5, r6, lsr #28
 8000976:	ea4f 1606 	mov.w	r6, r6, lsl #4
 800097a:	ea4f 03c3 	mov.w	r3, r3, lsl #3
 800097e:	ea43 7352 	orr.w	r3, r3, r2, lsr #29
 8000982:	ea4f 02c2 	mov.w	r2, r2, lsl #3
 8000986:	ea5f 1c1c 	movs.w	ip, ip, lsr #4
 800098a:	d1c0      	bne.n	800090e <__aeabi_ddiv+0x82>
 800098c:	f411 1f80 	tst.w	r1, #1048576	; 0x100000
 8000990:	d10b      	bne.n	80009aa <__aeabi_ddiv+0x11e>
 8000992:	ea41 0100 	orr.w	r1, r1, r0
 8000996:	f04f 0000 	mov.w	r0, #0
 800099a:	f04f 4c00 	mov.w	ip, #2147483648	; 0x80000000
 800099e:	e7b6      	b.n	800090e <__aeabi_ddiv+0x82>
 80009a0:	f411 1f80 	tst.w	r1, #1048576	; 0x100000
 80009a4:	bf04      	itt	eq
 80009a6:	4301      	orreq	r1, r0
 80009a8:	2000      	moveq	r0, #0
 80009aa:	f1b4 0cfd 	subs.w	ip, r4, #253	; 0xfd
 80009ae:	bf88      	it	hi
 80009b0:	f5bc 6fe0 	cmphi.w	ip, #1792	; 0x700
 80009b4:	f63f aeaf 	bhi.w	8000716 <__aeabi_dmul+0xde>
 80009b8:	ebb5 0c03 	subs.w	ip, r5, r3
 80009bc:	bf04      	itt	eq
 80009be:	ebb6 0c02 	subseq.w	ip, r6, r2
 80009c2:	ea5f 0c50 	movseq.w	ip, r0, lsr #1
 80009c6:	f150 0000 	adcs.w	r0, r0, #0
 80009ca:	eb41 5104 	adc.w	r1, r1, r4, lsl #20
 80009ce:	bd70      	pop	{r4, r5, r6, pc}
 80009d0:	f00e 4e00 	and.w	lr, lr, #2147483648	; 0x80000000
 80009d4:	ea4e 3111 	orr.w	r1, lr, r1, lsr #12
 80009d8:	eb14 045c 	adds.w	r4, r4, ip, lsr #1
 80009dc:	bfc2      	ittt	gt
 80009de:	ebd4 050c 	rsbsgt	r5, r4, ip
 80009e2:	ea41 5104 	orrgt.w	r1, r1, r4, lsl #20
 80009e6:	bd70      	popgt	{r4, r5, r6, pc}
 80009e8:	f441 1180 	orr.w	r1, r1, #1048576	; 0x100000
 80009ec:	f04f 0e00 	mov.w	lr, #0
 80009f0:	3c01      	subs	r4, #1
 80009f2:	e690      	b.n	8000716 <__aeabi_dmul+0xde>
 80009f4:	ea45 0e06 	orr.w	lr, r5, r6
 80009f8:	e68d      	b.n	8000716 <__aeabi_dmul+0xde>
 80009fa:	ea0c 5513 	and.w	r5, ip, r3, lsr #20
 80009fe:	ea94 0f0c 	teq	r4, ip
 8000a02:	bf08      	it	eq
 8000a04:	ea95 0f0c 	teqeq	r5, ip
 8000a08:	f43f af3b 	beq.w	8000882 <__aeabi_dmul+0x24a>
 8000a0c:	ea94 0f0c 	teq	r4, ip
 8000a10:	d10a      	bne.n	8000a28 <__aeabi_ddiv+0x19c>
 8000a12:	ea50 3401 	orrs.w	r4, r0, r1, lsl #12
 8000a16:	f47f af34 	bne.w	8000882 <__aeabi_dmul+0x24a>
 8000a1a:	ea95 0f0c 	teq	r5, ip
 8000a1e:	f47f af25 	bne.w	800086c <__aeabi_dmul+0x234>
 8000a22:	4610      	mov	r0, r2
 8000a24:	4619      	mov	r1, r3
 8000a26:	e72c      	b.n	8000882 <__aeabi_dmul+0x24a>
 8000a28:	ea95 0f0c 	teq	r5, ip
 8000a2c:	d106      	bne.n	8000a3c <__aeabi_ddiv+0x1b0>
 8000a2e:	ea52 3503 	orrs.w	r5, r2, r3, lsl #12
 8000a32:	f43f aefd 	beq.w	8000830 <__aeabi_dmul+0x1f8>
 8000a36:	4610      	mov	r0, r2
 8000a38:	4619      	mov	r1, r3
 8000a3a:	e722      	b.n	8000882 <__aeabi_dmul+0x24a>
 8000a3c:	ea50 0641 	orrs.w	r6, r0, r1, lsl #1
 8000a40:	bf18      	it	ne
 8000a42:	ea52 0643 	orrsne.w	r6, r2, r3, lsl #1
 8000a46:	f47f aec5 	bne.w	80007d4 <__aeabi_dmul+0x19c>
 8000a4a:	ea50 0441 	orrs.w	r4, r0, r1, lsl #1
 8000a4e:	f47f af0d 	bne.w	800086c <__aeabi_dmul+0x234>
 8000a52:	ea52 0543 	orrs.w	r5, r2, r3, lsl #1
 8000a56:	f47f aeeb 	bne.w	8000830 <__aeabi_dmul+0x1f8>
 8000a5a:	e712      	b.n	8000882 <__aeabi_dmul+0x24a>

08000a5c <__gedf2>:
 8000a5c:	f04f 3cff 	mov.w	ip, #4294967295
 8000a60:	e006      	b.n	8000a70 <__cmpdf2+0x4>
 8000a62:	bf00      	nop

08000a64 <__ledf2>:
 8000a64:	f04f 0c01 	mov.w	ip, #1
 8000a68:	e002      	b.n	8000a70 <__cmpdf2+0x4>
 8000a6a:	bf00      	nop

08000a6c <__cmpdf2>:
 8000a6c:	f04f 0c01 	mov.w	ip, #1
 8000a70:	f84d cd04 	str.w	ip, [sp, #-4]!
 8000a74:	ea4f 0c41 	mov.w	ip, r1, lsl #1
 8000a78:	ea7f 5c6c 	mvns.w	ip, ip, asr #21
 8000a7c:	ea4f 0c43 	mov.w	ip, r3, lsl #1
 8000a80:	bf18      	it	ne
 8000a82:	ea7f 5c6c 	mvnsne.w	ip, ip, asr #21
 8000a86:	d01b      	beq.n	8000ac0 <__cmpdf2+0x54>
 8000a88:	b001      	add	sp, #4
 8000a8a:	ea50 0c41 	orrs.w	ip, r0, r1, lsl #1
 8000a8e:	bf0c      	ite	eq
 8000a90:	ea52 0c43 	orrseq.w	ip, r2, r3, lsl #1
 8000a94:	ea91 0f03 	teqne	r1, r3
 8000a98:	bf02      	ittt	eq
 8000a9a:	ea90 0f02 	teqeq	r0, r2
 8000a9e:	2000      	moveq	r0, #0
 8000aa0:	4770      	bxeq	lr
 8000aa2:	f110 0f00 	cmn.w	r0, #0
 8000aa6:	ea91 0f03 	teq	r1, r3
 8000aaa:	bf58      	it	pl
 8000aac:	4299      	cmppl	r1, r3
 8000aae:	bf08      	it	eq
 8000ab0:	4290      	cmpeq	r0, r2
 8000ab2:	bf2c      	ite	cs
 8000ab4:	17d8      	asrcs	r0, r3, #31
 8000ab6:	ea6f 70e3 	mvncc.w	r0, r3, asr #31
 8000aba:	f040 0001 	orr.w	r0, r0, #1
 8000abe:	4770      	bx	lr
 8000ac0:	ea4f 0c41 	mov.w	ip, r1, lsl #1
 8000ac4:	ea7f 5c6c 	mvns.w	ip, ip, asr #21
 8000ac8:	d102      	bne.n	8000ad0 <__cmpdf2+0x64>
 8000aca:	ea50 3c01 	orrs.w	ip, r0, r1, lsl #12
 8000ace:	d107      	bne.n	8000ae0 <__cmpdf2+0x74>
 8000ad0:	ea4f 0c43 	mov.w	ip, r3, lsl #1
 8000ad4:	ea7f 5c6c 	mvns.w	ip, ip, asr #21
 8000ad8:	d1d6      	bne.n	8000a88 <__cmpdf2+0x1c>
 8000ada:	ea52 3c03 	orrs.w	ip, r2, r3, lsl #12
 8000ade:	d0d3      	beq.n	8000a88 <__cmpdf2+0x1c>
 8000ae0:	f85d 0b04 	ldr.w	r0, [sp], #4
 8000ae4:	4770      	bx	lr
 8000ae6:	bf00      	nop

08000ae8 <__aeabi_cdrcmple>:
 8000ae8:	4684      	mov	ip, r0
 8000aea:	4610      	mov	r0, r2
 8000aec:	4662      	mov	r2, ip
 8000aee:	468c      	mov	ip, r1
 8000af0:	4619      	mov	r1, r3
 8000af2:	4663      	mov	r3, ip
 8000af4:	e000      	b.n	8000af8 <__aeabi_cdcmpeq>
 8000af6:	bf00      	nop

08000af8 <__aeabi_cdcmpeq>:
 8000af8:	b501      	push	{r0, lr}
 8000afa:	f7ff ffb7 	bl	8000a6c <__cmpdf2>
 8000afe:	2800      	cmp	r0, #0
 8000b00:	bf48      	it	mi
 8000b02:	f110 0f00 	cmnmi.w	r0, #0
 8000b06:	bd01      	pop	{r0, pc}

08000b08 <__aeabi_dcmpeq>:
 8000b08:	f84d ed08 	str.w	lr, [sp, #-8]!
 8000b0c:	f7ff fff4 	bl	8000af8 <__aeabi_cdcmpeq>
 8000b10:	bf0c      	ite	eq
 8000b12:	2001      	moveq	r0, #1
 8000b14:	2000      	movne	r0, #0
 8000b16:	f85d fb08 	ldr.w	pc, [sp], #8
 8000b1a:	bf00      	nop

08000b1c <__aeabi_dcmplt>:
 8000b1c:	f84d ed08 	str.w	lr, [sp, #-8]!
 8000b20:	f7ff ffea 	bl	8000af8 <__aeabi_cdcmpeq>
 8000b24:	bf34      	ite	cc
 8000b26:	2001      	movcc	r0, #1
 8000b28:	2000      	movcs	r0, #0
 8000b2a:	f85d fb08 	ldr.w	pc, [sp], #8
 8000b2e:	bf00      	nop

08000b30 <__aeabi_dcmple>:
 8000b30:	f84d ed08 	str.w	lr, [sp, #-8]!
 8000b34:	f7ff ffe0 	bl	8000af8 <__aeabi_cdcmpeq>
 8000b38:	bf94      	ite	ls
 8000b3a:	2001      	movls	r0, #1
 8000b3c:	2000      	movhi	r0, #0
 8000b3e:	f85d fb08 	ldr.w	pc, [sp], #8
 8000b42:	bf00      	nop

08000b44 <__aeabi_dcmpge>:
 8000b44:	f84d ed08 	str.w	lr, [sp, #-8]!
 8000b48:	f7ff ffce 	bl	8000ae8 <__aeabi_cdrcmple>
 8000b4c:	bf94      	ite	ls
 8000b4e:	2001      	movls	r0, #1
 8000b50:	2000      	movhi	r0, #0
 8000b52:	f85d fb08 	ldr.w	pc, [sp], #8
 8000b56:	bf00      	nop

08000b58 <__aeabi_dcmpgt>:
 8000b58:	f84d ed08 	str.w	lr, [sp, #-8]!
 8000b5c:	f7ff ffc4 	bl	8000ae8 <__aeabi_cdrcmple>
 8000b60:	bf34      	ite	cc
 8000b62:	2001      	movcc	r0, #1
 8000b64:	2000      	movcs	r0, #0
 8000b66:	f85d fb08 	ldr.w	pc, [sp], #8
 8000b6a:	bf00      	nop

08000b6c <__aeabi_dcmpun>:
 8000b6c:	ea4f 0c41 	mov.w	ip, r1, lsl #1
 8000b70:	ea7f 5c6c 	mvns.w	ip, ip, asr #21
 8000b74:	d102      	bne.n	8000b7c <__aeabi_dcmpun+0x10>
 8000b76:	ea50 3c01 	orrs.w	ip, r0, r1, lsl #12
 8000b7a:	d10a      	bne.n	8000b92 <__aeabi_dcmpun+0x26>
 8000b7c:	ea4f 0c43 	mov.w	ip, r3, lsl #1
 8000b80:	ea7f 5c6c 	mvns.w	ip, ip, asr #21
 8000b84:	d102      	bne.n	8000b8c <__aeabi_dcmpun+0x20>
 8000b86:	ea52 3c03 	orrs.w	ip, r2, r3, lsl #12
 8000b8a:	d102      	bne.n	8000b92 <__aeabi_dcmpun+0x26>
 8000b8c:	f04f 0000 	mov.w	r0, #0
 8000b90:	4770      	bx	lr
 8000b92:	f04f 0001 	mov.w	r0, #1
 8000b96:	4770      	bx	lr

08000b98 <__aeabi_d2iz>:
 8000b98:	ea4f 0241 	mov.w	r2, r1, lsl #1
 8000b9c:	f512 1200 	adds.w	r2, r2, #2097152	; 0x200000
 8000ba0:	d215      	bcs.n	8000bce <__aeabi_d2iz+0x36>
 8000ba2:	d511      	bpl.n	8000bc8 <__aeabi_d2iz+0x30>
 8000ba4:	f46f 7378 	mvn.w	r3, #992	; 0x3e0
 8000ba8:	ebb3 5262 	subs.w	r2, r3, r2, asr #21
 8000bac:	d912      	bls.n	8000bd4 <__aeabi_d2iz+0x3c>
 8000bae:	ea4f 23c1 	mov.w	r3, r1, lsl #11
 8000bb2:	f043 4300 	orr.w	r3, r3, #2147483648	; 0x80000000
 8000bb6:	ea43 5350 	orr.w	r3, r3, r0, lsr #21
 8000bba:	f011 4f00 	tst.w	r1, #2147483648	; 0x80000000
 8000bbe:	fa23 f002 	lsr.w	r0, r3, r2
 8000bc2:	bf18      	it	ne
 8000bc4:	4240      	negne	r0, r0
 8000bc6:	4770      	bx	lr
 8000bc8:	f04f 0000 	mov.w	r0, #0
 8000bcc:	4770      	bx	lr
 8000bce:	ea50 3001 	orrs.w	r0, r0, r1, lsl #12
 8000bd2:	d105      	bne.n	8000be0 <__aeabi_d2iz+0x48>
 8000bd4:	f011 4000 	ands.w	r0, r1, #2147483648	; 0x80000000
 8000bd8:	bf08      	it	eq
 8000bda:	f06f 4000 	mvneq.w	r0, #2147483648	; 0x80000000
 8000bde:	4770      	bx	lr
 8000be0:	f04f 0000 	mov.w	r0, #0
 8000be4:	4770      	bx	lr
 8000be6:	bf00      	nop

08000be8 <__aeabi_d2uiz>:
 8000be8:	004a      	lsls	r2, r1, #1
 8000bea:	d211      	bcs.n	8000c10 <__aeabi_d2uiz+0x28>
 8000bec:	f512 1200 	adds.w	r2, r2, #2097152	; 0x200000
 8000bf0:	d211      	bcs.n	8000c16 <__aeabi_d2uiz+0x2e>
 8000bf2:	d50d      	bpl.n	8000c10 <__aeabi_d2uiz+0x28>
 8000bf4:	f46f 7378 	mvn.w	r3, #992	; 0x3e0
 8000bf8:	ebb3 5262 	subs.w	r2, r3, r2, asr #21
 8000bfc:	d40e      	bmi.n	8000c1c <__aeabi_d2uiz+0x34>
 8000bfe:	ea4f 23c1 	mov.w	r3, r1, lsl #11
 8000c02:	f043 4300 	orr.w	r3, r3, #2147483648	; 0x80000000
 8000c06:	ea43 5350 	orr.w	r3, r3, r0, lsr #21
 8000c0a:	fa23 f002 	lsr.w	r0, r3, r2
 8000c0e:	4770      	bx	lr
 8000c10:	f04f 0000 	mov.w	r0, #0
 8000c14:	4770      	bx	lr
 8000c16:	ea50 3001 	orrs.w	r0, r0, r1, lsl #12
 8000c1a:	d102      	bne.n	8000c22 <__aeabi_d2uiz+0x3a>
 8000c1c:	f04f 30ff 	mov.w	r0, #4294967295
 8000c20:	4770      	bx	lr
 8000c22:	f04f 0000 	mov.w	r0, #0
 8000c26:	4770      	bx	lr

08000c28 <__aeabi_d2f>:
 8000c28:	ea4f 0241 	mov.w	r2, r1, lsl #1
 8000c2c:	f1b2 43e0 	subs.w	r3, r2, #1879048192	; 0x70000000
 8000c30:	bf24      	itt	cs
 8000c32:	f5b3 1c00 	subscs.w	ip, r3, #2097152	; 0x200000
 8000c36:	f1dc 5cfe 	rsbscs	ip, ip, #532676608	; 0x1fc00000
 8000c3a:	d90d      	bls.n	8000c58 <__aeabi_d2f+0x30>
 8000c3c:	f001 4c00 	and.w	ip, r1, #2147483648	; 0x80000000
 8000c40:	ea4f 02c0 	mov.w	r2, r0, lsl #3
 8000c44:	ea4c 7050 	orr.w	r0, ip, r0, lsr #29
 8000c48:	f1b2 4f00 	cmp.w	r2, #2147483648	; 0x80000000
 8000c4c:	eb40 0083 	adc.w	r0, r0, r3, lsl #2
 8000c50:	bf08      	it	eq
 8000c52:	f020 0001 	biceq.w	r0, r0, #1
 8000c56:	4770      	bx	lr
 8000c58:	f011 4f80 	tst.w	r1, #1073741824	; 0x40000000
 8000c5c:	d121      	bne.n	8000ca2 <__aeabi_d2f+0x7a>
 8000c5e:	f113 7238 	adds.w	r2, r3, #48234496	; 0x2e00000
 8000c62:	bfbc      	itt	lt
 8000c64:	f001 4000 	andlt.w	r0, r1, #2147483648	; 0x80000000
 8000c68:	4770      	bxlt	lr
 8000c6a:	f441 1180 	orr.w	r1, r1, #1048576	; 0x100000
 8000c6e:	ea4f 5252 	mov.w	r2, r2, lsr #21
 8000c72:	f1c2 0218 	rsb	r2, r2, #24
 8000c76:	f1c2 0c20 	rsb	ip, r2, #32
 8000c7a:	fa10 f30c 	lsls.w	r3, r0, ip
 8000c7e:	fa20 f002 	lsr.w	r0, r0, r2
 8000c82:	bf18      	it	ne
 8000c84:	f040 0001 	orrne.w	r0, r0, #1
 8000c88:	ea4f 23c1 	mov.w	r3, r1, lsl #11
 8000c8c:	ea4f 23d3 	mov.w	r3, r3, lsr #11
 8000c90:	fa03 fc0c 	lsl.w	ip, r3, ip
 8000c94:	ea40 000c 	orr.w	r0, r0, ip
 8000c98:	fa23 f302 	lsr.w	r3, r3, r2
 8000c9c:	ea4f 0343 	mov.w	r3, r3, lsl #1
 8000ca0:	e7cc      	b.n	8000c3c <__aeabi_d2f+0x14>
 8000ca2:	ea7f 5362 	mvns.w	r3, r2, asr #21
 8000ca6:	d107      	bne.n	8000cb8 <__aeabi_d2f+0x90>
 8000ca8:	ea50 3301 	orrs.w	r3, r0, r1, lsl #12
 8000cac:	bf1e      	ittt	ne
 8000cae:	f04f 40fe 	movne.w	r0, #2130706432	; 0x7f000000
 8000cb2:	f440 0040 	orrne.w	r0, r0, #12582912	; 0xc00000
 8000cb6:	4770      	bxne	lr
 8000cb8:	f001 4000 	and.w	r0, r1, #2147483648	; 0x80000000
 8000cbc:	f040 40fe 	orr.w	r0, r0, #2130706432	; 0x7f000000
 8000cc0:	f440 0000 	orr.w	r0, r0, #8388608	; 0x800000
 8000cc4:	4770      	bx	lr
 8000cc6:	bf00      	nop

08000cc8 <__aeabi_uldivmod>:
 8000cc8:	b953      	cbnz	r3, 8000ce0 <__aeabi_uldivmod+0x18>
 8000cca:	b94a      	cbnz	r2, 8000ce0 <__aeabi_uldivmod+0x18>
 8000ccc:	2900      	cmp	r1, #0
 8000cce:	bf08      	it	eq
 8000cd0:	2800      	cmpeq	r0, #0
 8000cd2:	bf1c      	itt	ne
 8000cd4:	f04f 31ff 	movne.w	r1, #4294967295
 8000cd8:	f04f 30ff 	movne.w	r0, #4294967295
 8000cdc:	f000 b972 	b.w	8000fc4 <__aeabi_idiv0>
 8000ce0:	f1ad 0c08 	sub.w	ip, sp, #8
 8000ce4:	e96d ce04 	strd	ip, lr, [sp, #-16]!
 8000ce8:	f000 f806 	bl	8000cf8 <__udivmoddi4>
 8000cec:	f8dd e004 	ldr.w	lr, [sp, #4]
 8000cf0:	e9dd 2302 	ldrd	r2, r3, [sp, #8]
 8000cf4:	b004      	add	sp, #16
 8000cf6:	4770      	bx	lr

08000cf8 <__udivmoddi4>:
 8000cf8:	e92d 47f0 	stmdb	sp!, {r4, r5, r6, r7, r8, r9, sl, lr}
 8000cfc:	9e08      	ldr	r6, [sp, #32]
 8000cfe:	4604      	mov	r4, r0
 8000d00:	4688      	mov	r8, r1
 8000d02:	2b00      	cmp	r3, #0
 8000d04:	d14b      	bne.n	8000d9e <__udivmoddi4+0xa6>
 8000d06:	428a      	cmp	r2, r1
 8000d08:	4615      	mov	r5, r2
 8000d0a:	d967      	bls.n	8000ddc <__udivmoddi4+0xe4>
 8000d0c:	fab2 f282 	clz	r2, r2
 8000d10:	b14a      	cbz	r2, 8000d26 <__udivmoddi4+0x2e>
 8000d12:	f1c2 0720 	rsb	r7, r2, #32
 8000d16:	fa01 f302 	lsl.w	r3, r1, r2
 8000d1a:	fa20 f707 	lsr.w	r7, r0, r7
 8000d1e:	4095      	lsls	r5, r2
 8000d20:	ea47 0803 	orr.w	r8, r7, r3
 8000d24:	4094      	lsls	r4, r2
 8000d26:	ea4f 4e15 	mov.w	lr, r5, lsr #16
 8000d2a:	0c23      	lsrs	r3, r4, #16
 8000d2c:	fbb8 f7fe 	udiv	r7, r8, lr
 8000d30:	fa1f fc85 	uxth.w	ip, r5
 8000d34:	fb0e 8817 	mls	r8, lr, r7, r8
 8000d38:	ea43 4308 	orr.w	r3, r3, r8, lsl #16
 8000d3c:	fb07 f10c 	mul.w	r1, r7, ip
 8000d40:	4299      	cmp	r1, r3
 8000d42:	d909      	bls.n	8000d58 <__udivmoddi4+0x60>
 8000d44:	18eb      	adds	r3, r5, r3
 8000d46:	f107 30ff 	add.w	r0, r7, #4294967295
 8000d4a:	f080 811b 	bcs.w	8000f84 <__udivmoddi4+0x28c>
 8000d4e:	4299      	cmp	r1, r3
 8000d50:	f240 8118 	bls.w	8000f84 <__udivmoddi4+0x28c>
 8000d54:	3f02      	subs	r7, #2
 8000d56:	442b      	add	r3, r5
 8000d58:	1a5b      	subs	r3, r3, r1
 8000d5a:	b2a4      	uxth	r4, r4
 8000d5c:	fbb3 f0fe 	udiv	r0, r3, lr
 8000d60:	fb0e 3310 	mls	r3, lr, r0, r3
 8000d64:	ea44 4403 	orr.w	r4, r4, r3, lsl #16
 8000d68:	fb00 fc0c 	mul.w	ip, r0, ip
 8000d6c:	45a4      	cmp	ip, r4
 8000d6e:	d909      	bls.n	8000d84 <__udivmoddi4+0x8c>
 8000d70:	192c      	adds	r4, r5, r4
 8000d72:	f100 33ff 	add.w	r3, r0, #4294967295
 8000d76:	f080 8107 	bcs.w	8000f88 <__udivmoddi4+0x290>
 8000d7a:	45a4      	cmp	ip, r4
 8000d7c:	f240 8104 	bls.w	8000f88 <__udivmoddi4+0x290>
 8000d80:	3802      	subs	r0, #2
 8000d82:	442c      	add	r4, r5
 8000d84:	ea40 4007 	orr.w	r0, r0, r7, lsl #16
 8000d88:	eba4 040c 	sub.w	r4, r4, ip
 8000d8c:	2700      	movs	r7, #0
 8000d8e:	b11e      	cbz	r6, 8000d98 <__udivmoddi4+0xa0>
 8000d90:	40d4      	lsrs	r4, r2
 8000d92:	2300      	movs	r3, #0
 8000d94:	e9c6 4300 	strd	r4, r3, [r6]
 8000d98:	4639      	mov	r1, r7
 8000d9a:	e8bd 87f0 	ldmia.w	sp!, {r4, r5, r6, r7, r8, r9, sl, pc}
 8000d9e:	428b      	cmp	r3, r1
 8000da0:	d909      	bls.n	8000db6 <__udivmoddi4+0xbe>
 8000da2:	2e00      	cmp	r6, #0
 8000da4:	f000 80eb 	beq.w	8000f7e <__udivmoddi4+0x286>
 8000da8:	2700      	movs	r7, #0
 8000daa:	e9c6 0100 	strd	r0, r1, [r6]
 8000dae:	4638      	mov	r0, r7
 8000db0:	4639      	mov	r1, r7
 8000db2:	e8bd 87f0 	ldmia.w	sp!, {r4, r5, r6, r7, r8, r9, sl, pc}
 8000db6:	fab3 f783 	clz	r7, r3
 8000dba:	2f00      	cmp	r7, #0
 8000dbc:	d147      	bne.n	8000e4e <__udivmoddi4+0x156>
 8000dbe:	428b      	cmp	r3, r1
 8000dc0:	d302      	bcc.n	8000dc8 <__udivmoddi4+0xd0>
 8000dc2:	4282      	cmp	r2, r0
 8000dc4:	f200 80fa 	bhi.w	8000fbc <__udivmoddi4+0x2c4>
 8000dc8:	1a84      	subs	r4, r0, r2
 8000dca:	eb61 0303 	sbc.w	r3, r1, r3
 8000dce:	2001      	movs	r0, #1
 8000dd0:	4698      	mov	r8, r3
 8000dd2:	2e00      	cmp	r6, #0
 8000dd4:	d0e0      	beq.n	8000d98 <__udivmoddi4+0xa0>
 8000dd6:	e9c6 4800 	strd	r4, r8, [r6]
 8000dda:	e7dd      	b.n	8000d98 <__udivmoddi4+0xa0>
 8000ddc:	b902      	cbnz	r2, 8000de0 <__udivmoddi4+0xe8>
 8000dde:	deff      	udf	#255	; 0xff
 8000de0:	fab2 f282 	clz	r2, r2
 8000de4:	2a00      	cmp	r2, #0
 8000de6:	f040 808f 	bne.w	8000f08 <__udivmoddi4+0x210>
 8000dea:	1b49      	subs	r1, r1, r5
 8000dec:	ea4f 4e15 	mov.w	lr, r5, lsr #16
 8000df0:	fa1f f885 	uxth.w	r8, r5
 8000df4:	2701      	movs	r7, #1
 8000df6:	fbb1 fcfe 	udiv	ip, r1, lr
 8000dfa:	0c23      	lsrs	r3, r4, #16
 8000dfc:	fb0e 111c 	mls	r1, lr, ip, r1
 8000e00:	ea43 4301 	orr.w	r3, r3, r1, lsl #16
 8000e04:	fb08 f10c 	mul.w	r1, r8, ip
 8000e08:	4299      	cmp	r1, r3
 8000e0a:	d907      	bls.n	8000e1c <__udivmoddi4+0x124>
 8000e0c:	18eb      	adds	r3, r5, r3
 8000e0e:	f10c 30ff 	add.w	r0, ip, #4294967295
 8000e12:	d202      	bcs.n	8000e1a <__udivmoddi4+0x122>
 8000e14:	4299      	cmp	r1, r3
 8000e16:	f200 80cd 	bhi.w	8000fb4 <__udivmoddi4+0x2bc>
 8000e1a:	4684      	mov	ip, r0
 8000e1c:	1a59      	subs	r1, r3, r1
 8000e1e:	b2a3      	uxth	r3, r4
 8000e20:	fbb1 f0fe 	udiv	r0, r1, lr
 8000e24:	fb0e 1410 	mls	r4, lr, r0, r1
 8000e28:	ea43 4404 	orr.w	r4, r3, r4, lsl #16
 8000e2c:	fb08 f800 	mul.w	r8, r8, r0
 8000e30:	45a0      	cmp	r8, r4
 8000e32:	d907      	bls.n	8000e44 <__udivmoddi4+0x14c>
 8000e34:	192c      	adds	r4, r5, r4
 8000e36:	f100 33ff 	add.w	r3, r0, #4294967295
 8000e3a:	d202      	bcs.n	8000e42 <__udivmoddi4+0x14a>
 8000e3c:	45a0      	cmp	r8, r4
 8000e3e:	f200 80b6 	bhi.w	8000fae <__udivmoddi4+0x2b6>
 8000e42:	4618      	mov	r0, r3
 8000e44:	eba4 0408 	sub.w	r4, r4, r8
 8000e48:	ea40 400c 	orr.w	r0, r0, ip, lsl #16
 8000e4c:	e79f      	b.n	8000d8e <__udivmoddi4+0x96>
 8000e4e:	f1c7 0c20 	rsb	ip, r7, #32
 8000e52:	40bb      	lsls	r3, r7
 8000e54:	fa22 fe0c 	lsr.w	lr, r2, ip
 8000e58:	ea4e 0e03 	orr.w	lr, lr, r3
 8000e5c:	fa01 f407 	lsl.w	r4, r1, r7
 8000e60:	fa20 f50c 	lsr.w	r5, r0, ip
 8000e64:	fa21 f30c 	lsr.w	r3, r1, ip
 8000e68:	ea4f 481e 	mov.w	r8, lr, lsr #16
 8000e6c:	4325      	orrs	r5, r4
 8000e6e:	fbb3 f9f8 	udiv	r9, r3, r8
 8000e72:	0c2c      	lsrs	r4, r5, #16
 8000e74:	fb08 3319 	mls	r3, r8, r9, r3
 8000e78:	fa1f fa8e 	uxth.w	sl, lr
 8000e7c:	ea44 4303 	orr.w	r3, r4, r3, lsl #16
 8000e80:	fb09 f40a 	mul.w	r4, r9, sl
 8000e84:	429c      	cmp	r4, r3
 8000e86:	fa02 f207 	lsl.w	r2, r2, r7
 8000e8a:	fa00 f107 	lsl.w	r1, r0, r7
 8000e8e:	d90b      	bls.n	8000ea8 <__udivmoddi4+0x1b0>
 8000e90:	eb1e 0303 	adds.w	r3, lr, r3
 8000e94:	f109 30ff 	add.w	r0, r9, #4294967295
 8000e98:	f080 8087 	bcs.w	8000faa <__udivmoddi4+0x2b2>
 8000e9c:	429c      	cmp	r4, r3
 8000e9e:	f240 8084 	bls.w	8000faa <__udivmoddi4+0x2b2>
 8000ea2:	f1a9 0902 	sub.w	r9, r9, #2
 8000ea6:	4473      	add	r3, lr
 8000ea8:	1b1b      	subs	r3, r3, r4
 8000eaa:	b2ad      	uxth	r5, r5
 8000eac:	fbb3 f0f8 	udiv	r0, r3, r8
 8000eb0:	fb08 3310 	mls	r3, r8, r0, r3
 8000eb4:	ea45 4403 	orr.w	r4, r5, r3, lsl #16
 8000eb8:	fb00 fa0a 	mul.w	sl, r0, sl
 8000ebc:	45a2      	cmp	sl, r4
 8000ebe:	d908      	bls.n	8000ed2 <__udivmoddi4+0x1da>
 8000ec0:	eb1e 0404 	adds.w	r4, lr, r4
 8000ec4:	f100 33ff 	add.w	r3, r0, #4294967295
 8000ec8:	d26b      	bcs.n	8000fa2 <__udivmoddi4+0x2aa>
 8000eca:	45a2      	cmp	sl, r4
 8000ecc:	d969      	bls.n	8000fa2 <__udivmoddi4+0x2aa>
 8000ece:	3802      	subs	r0, #2
 8000ed0:	4474      	add	r4, lr
 8000ed2:	ea40 4009 	orr.w	r0, r0, r9, lsl #16
 8000ed6:	fba0 8902 	umull	r8, r9, r0, r2
 8000eda:	eba4 040a 	sub.w	r4, r4, sl
 8000ede:	454c      	cmp	r4, r9
 8000ee0:	46c2      	mov	sl, r8
 8000ee2:	464b      	mov	r3, r9
 8000ee4:	d354      	bcc.n	8000f90 <__udivmoddi4+0x298>
 8000ee6:	d051      	beq.n	8000f8c <__udivmoddi4+0x294>
 8000ee8:	2e00      	cmp	r6, #0
 8000eea:	d069      	beq.n	8000fc0 <__udivmoddi4+0x2c8>
 8000eec:	ebb1 050a 	subs.w	r5, r1, sl
 8000ef0:	eb64 0403 	sbc.w	r4, r4, r3
 8000ef4:	fa04 fc0c 	lsl.w	ip, r4, ip
 8000ef8:	40fd      	lsrs	r5, r7
 8000efa:	40fc      	lsrs	r4, r7
 8000efc:	ea4c 0505 	orr.w	r5, ip, r5
 8000f00:	e9c6 5400 	strd	r5, r4, [r6]
 8000f04:	2700      	movs	r7, #0
 8000f06:	e747      	b.n	8000d98 <__udivmoddi4+0xa0>
 8000f08:	f1c2 0320 	rsb	r3, r2, #32
 8000f0c:	fa20 f703 	lsr.w	r7, r0, r3
 8000f10:	4095      	lsls	r5, r2
 8000f12:	fa01 f002 	lsl.w	r0, r1, r2
 8000f16:	fa21 f303 	lsr.w	r3, r1, r3
 8000f1a:	ea4f 4e15 	mov.w	lr, r5, lsr #16
 8000f1e:	4338      	orrs	r0, r7
 8000f20:	0c01      	lsrs	r1, r0, #16
 8000f22:	fbb3 f7fe 	udiv	r7, r3, lr
 8000f26:	fa1f f885 	uxth.w	r8, r5
 8000f2a:	fb0e 3317 	mls	r3, lr, r7, r3
 8000f2e:	ea41 4103 	orr.w	r1, r1, r3, lsl #16
 8000f32:	fb07 f308 	mul.w	r3, r7, r8
 8000f36:	428b      	cmp	r3, r1
 8000f38:	fa04 f402 	lsl.w	r4, r4, r2
 8000f3c:	d907      	bls.n	8000f4e <__udivmoddi4+0x256>
 8000f3e:	1869      	adds	r1, r5, r1
 8000f40:	f107 3cff 	add.w	ip, r7, #4294967295
 8000f44:	d22f      	bcs.n	8000fa6 <__udivmoddi4+0x2ae>
 8000f46:	428b      	cmp	r3, r1
 8000f48:	d92d      	bls.n	8000fa6 <__udivmoddi4+0x2ae>
 8000f4a:	3f02      	subs	r7, #2
 8000f4c:	4429      	add	r1, r5
 8000f4e:	1acb      	subs	r3, r1, r3
 8000f50:	b281      	uxth	r1, r0
 8000f52:	fbb3 f0fe 	udiv	r0, r3, lr
 8000f56:	fb0e 3310 	mls	r3, lr, r0, r3
 8000f5a:	ea41 4103 	orr.w	r1, r1, r3, lsl #16
 8000f5e:	fb00 f308 	mul.w	r3, r0, r8
 8000f62:	428b      	cmp	r3, r1
 8000f64:	d907      	bls.n	8000f76 <__udivmoddi4+0x27e>
 8000f66:	1869      	adds	r1, r5, r1
 8000f68:	f100 3cff 	add.w	ip, r0, #4294967295
 8000f6c:	d217      	bcs.n	8000f9e <__udivmoddi4+0x2a6>
 8000f6e:	428b      	cmp	r3, r1
 8000f70:	d915      	bls.n	8000f9e <__udivmoddi4+0x2a6>
 8000f72:	3802      	subs	r0, #2
 8000f74:	4429      	add	r1, r5
 8000f76:	1ac9      	subs	r1, r1, r3
 8000f78:	ea40 4707 	orr.w	r7, r0, r7, lsl #16
 8000f7c:	e73b      	b.n	8000df6 <__udivmoddi4+0xfe>
 8000f7e:	4637      	mov	r7, r6
 8000f80:	4630      	mov	r0, r6
 8000f82:	e709      	b.n	8000d98 <__udivmoddi4+0xa0>
 8000f84:	4607      	mov	r7, r0
 8000f86:	e6e7      	b.n	8000d58 <__udivmoddi4+0x60>
 8000f88:	4618      	mov	r0, r3
 8000f8a:	e6fb      	b.n	8000d84 <__udivmoddi4+0x8c>
 8000f8c:	4541      	cmp	r1, r8
 8000f8e:	d2ab      	bcs.n	8000ee8 <__udivmoddi4+0x1f0>
 8000f90:	ebb8 0a02 	subs.w	sl, r8, r2
 8000f94:	eb69 020e 	sbc.w	r2, r9, lr
 8000f98:	3801      	subs	r0, #1
 8000f9a:	4613      	mov	r3, r2
 8000f9c:	e7a4      	b.n	8000ee8 <__udivmoddi4+0x1f0>
 8000f9e:	4660      	mov	r0, ip
 8000fa0:	e7e9      	b.n	8000f76 <__udivmoddi4+0x27e>
 8000fa2:	4618      	mov	r0, r3
 8000fa4:	e795      	b.n	8000ed2 <__udivmoddi4+0x1da>
 8000fa6:	4667      	mov	r7, ip
 8000fa8:	e7d1      	b.n	8000f4e <__udivmoddi4+0x256>
 8000faa:	4681      	mov	r9, r0
 8000fac:	e77c      	b.n	8000ea8 <__udivmoddi4+0x1b0>
 8000fae:	3802      	subs	r0, #2
 8000fb0:	442c      	add	r4, r5
 8000fb2:	e747      	b.n	8000e44 <__udivmoddi4+0x14c>
 8000fb4:	f1ac 0c02 	sub.w	ip, ip, #2
 8000fb8:	442b      	add	r3, r5
 8000fba:	e72f      	b.n	8000e1c <__udivmoddi4+0x124>
 8000fbc:	4638      	mov	r0, r7
 8000fbe:	e708      	b.n	8000dd2 <__udivmoddi4+0xda>
 8000fc0:	4637      	mov	r7, r6
 8000fc2:	e6e9      	b.n	8000d98 <__udivmoddi4+0xa0>

08000fc4 <__aeabi_idiv0>:
 8000fc4:	4770      	bx	lr
 8000fc6:	bf00      	nop

08000fc8 <MX_USART1_UART_Init>:
	
	return ans;
}

void MX_USART1_UART_Init(void)
{
 8000fc8:	b580      	push	{r7, lr}
 8000fca:	af00      	add	r7, sp, #0
  /* USER CODE END USART1_Init 0 */

  /* USER CODE BEGIN USART1_Init 1 */

  /* USER CODE END USART1_Init 1 */
  huart1.Instance = USART1;
 8000fcc:	4b11      	ldr	r3, [pc, #68]	; (8001014 <MX_USART1_UART_Init+0x4c>)
 8000fce:	4a12      	ldr	r2, [pc, #72]	; (8001018 <MX_USART1_UART_Init+0x50>)
 8000fd0:	601a      	str	r2, [r3, #0]
  huart1.Init.BaudRate = 9600;
 8000fd2:	4b10      	ldr	r3, [pc, #64]	; (8001014 <MX_USART1_UART_Init+0x4c>)
 8000fd4:	f44f 5216 	mov.w	r2, #9600	; 0x2580
 8000fd8:	605a      	str	r2, [r3, #4]
  huart1.Init.WordLength = UART_WORDLENGTH_8B;
 8000fda:	4b0e      	ldr	r3, [pc, #56]	; (8001014 <MX_USART1_UART_Init+0x4c>)
 8000fdc:	2200      	movs	r2, #0
 8000fde:	609a      	str	r2, [r3, #8]
  huart1.Init.StopBits = UART_STOPBITS_1;
 8000fe0:	4b0c      	ldr	r3, [pc, #48]	; (8001014 <MX_USART1_UART_Init+0x4c>)
 8000fe2:	2200      	movs	r2, #0
 8000fe4:	60da      	str	r2, [r3, #12]
  huart1.Init.Parity = UART_PARITY_NONE;
 8000fe6:	4b0b      	ldr	r3, [pc, #44]	; (8001014 <MX_USART1_UART_Init+0x4c>)
 8000fe8:	2200      	movs	r2, #0
 8000fea:	611a      	str	r2, [r3, #16]
  huart1.Init.Mode = UART_MODE_TX_RX;
 8000fec:	4b09      	ldr	r3, [pc, #36]	; (8001014 <MX_USART1_UART_Init+0x4c>)
 8000fee:	220c      	movs	r2, #12
 8000ff0:	615a      	str	r2, [r3, #20]
  huart1.Init.HwFlowCtl = UART_HWCONTROL_NONE;
 8000ff2:	4b08      	ldr	r3, [pc, #32]	; (8001014 <MX_USART1_UART_Init+0x4c>)
 8000ff4:	2200      	movs	r2, #0
 8000ff6:	619a      	str	r2, [r3, #24]
  huart1.Init.OverSampling = UART_OVERSAMPLING_16;
 8000ff8:	4b06      	ldr	r3, [pc, #24]	; (8001014 <MX_USART1_UART_Init+0x4c>)
 8000ffa:	2200      	movs	r2, #0
 8000ffc:	61da      	str	r2, [r3, #28]
  if (HAL_UART_Init(&huart1) != HAL_OK)
 8000ffe:	4805      	ldr	r0, [pc, #20]	; (8001014 <MX_USART1_UART_Init+0x4c>)
 8001000:	f004 ffb2 	bl	8005f68 <HAL_UART_Init>
 8001004:	4603      	mov	r3, r0
 8001006:	2b00      	cmp	r3, #0
 8001008:	d001      	beq.n	800100e <MX_USART1_UART_Init+0x46>
  {
    Error_Handler();
 800100a:	f001 fdce 	bl	8002baa <Error_Handler>
  }
  /* USER CODE BEGIN USART1_Init 2 */

  /* USER CODE END USART1_Init 2 */

}
 800100e:	bf00      	nop
 8001010:	bd80      	pop	{r7, pc}
 8001012:	bf00      	nop
 8001014:	20000278 	.word	0x20000278
 8001018:	40011000 	.word	0x40011000

0800101c <setTo360>:
int8_t engineSteering = 1;



int16_t setTo360(int16_t degree)
{
 800101c:	b480      	push	{r7}
 800101e:	b083      	sub	sp, #12
 8001020:	af00      	add	r7, sp, #0
 8001022:	4603      	mov	r3, r0
 8001024:	80fb      	strh	r3, [r7, #6]
	if(degree < 0)
 8001026:	f9b7 3006 	ldrsh.w	r3, [r7, #6]
 800102a:	2b00      	cmp	r3, #0
 800102c:	da04      	bge.n	8001038 <setTo360+0x1c>
	{
		degree = degree + 360;
 800102e:	88fb      	ldrh	r3, [r7, #6]
 8001030:	f503 73b4 	add.w	r3, r3, #360	; 0x168
 8001034:	b29b      	uxth	r3, r3
 8001036:	80fb      	strh	r3, [r7, #6]
	}

	return degree;
 8001038:	f9b7 3006 	ldrsh.w	r3, [r7, #6]
}
 800103c:	4618      	mov	r0, r3
 800103e:	370c      	adds	r7, #12
 8001040:	46bd      	mov	sp, r7
 8001042:	f85d 7b04 	ldr.w	r7, [sp], #4
 8001046:	4770      	bx	lr

08001048 <degreeToPercentage>:

float degreeToPercentage(int16_t degree)
{
 8001048:	b590      	push	{r4, r7, lr}
 800104a:	b085      	sub	sp, #20
 800104c:	af00      	add	r7, sp, #0
 800104e:	4603      	mov	r3, r0
 8001050:	80fb      	strh	r3, [r7, #6]
	float degreeF = (float)degree;
 8001052:	f9b7 3006 	ldrsh.w	r3, [r7, #6]
 8001056:	ee07 3a90 	vmov	s15, r3
 800105a:	eef8 7ae7 	vcvt.f32.s32	s15, s15
 800105e:	edc7 7a03 	vstr	s15, [r7, #12]
	float percentage = degreeF * (100.0 / 180.0);
 8001062:	68f8      	ldr	r0, [r7, #12]
 8001064:	f7ff fa90 	bl	8000588 <__aeabi_f2d>
 8001068:	a30b      	add	r3, pc, #44	; (adr r3, 8001098 <degreeToPercentage+0x50>)
 800106a:	e9d3 2300 	ldrd	r2, r3, [r3]
 800106e:	f7ff fae3 	bl	8000638 <__aeabi_dmul>
 8001072:	4603      	mov	r3, r0
 8001074:	460c      	mov	r4, r1
 8001076:	4618      	mov	r0, r3
 8001078:	4621      	mov	r1, r4
 800107a:	f7ff fdd5 	bl	8000c28 <__aeabi_d2f>
 800107e:	4603      	mov	r3, r0
 8001080:	60bb      	str	r3, [r7, #8]
//	}

//	debugCharPrint(" degreegTo% = ");
//	debugFloatPrint(percentage);
//	debugPrintEnter();
	return percentage;
 8001082:	68bb      	ldr	r3, [r7, #8]
 8001084:	ee07 3a90 	vmov	s15, r3
}
 8001088:	eeb0 0a67 	vmov.f32	s0, s15
 800108c:	3714      	adds	r7, #20
 800108e:	46bd      	mov	sp, r7
 8001090:	bd90      	pop	{r4, r7, pc}
 8001092:	bf00      	nop
 8001094:	f3af 8000 	nop.w
 8001098:	71c71c72 	.word	0x71c71c72
 800109c:	3fe1c71c 	.word	0x3fe1c71c

080010a0 <determineError>:

int16_t determineError(int16_t setpointAngle, int16_t orientationAngle)
{
 80010a0:	b5b0      	push	{r4, r5, r7, lr}
 80010a2:	b084      	sub	sp, #16
 80010a4:	af00      	add	r7, sp, #0
 80010a6:	4603      	mov	r3, r0
 80010a8:	460a      	mov	r2, r1
 80010aa:	80fb      	strh	r3, [r7, #6]
 80010ac:	4613      	mov	r3, r2
 80010ae:	80bb      	strh	r3, [r7, #4]
	int16_t errorAngle = 0;
 80010b0:	2300      	movs	r3, #0
 80010b2:	81fb      	strh	r3, [r7, #14]
	int16_t angle1	= 0;
 80010b4:	2300      	movs	r3, #0
 80010b6:	81bb      	strh	r3, [r7, #12]
	int16_t angle2 = 0;
 80010b8:	2300      	movs	r3, #0
 80010ba:	817b      	strh	r3, [r7, #10]
	errorAngle = setTo360(setpointAngle) - setTo360(orientationAngle);
 80010bc:	f9b7 3006 	ldrsh.w	r3, [r7, #6]
 80010c0:	4618      	mov	r0, r3
 80010c2:	f7ff ffab 	bl	800101c <setTo360>
 80010c6:	4603      	mov	r3, r0
 80010c8:	b29c      	uxth	r4, r3
 80010ca:	f9b7 3004 	ldrsh.w	r3, [r7, #4]
 80010ce:	4618      	mov	r0, r3
 80010d0:	f7ff ffa4 	bl	800101c <setTo360>
 80010d4:	4603      	mov	r3, r0
 80010d6:	b29b      	uxth	r3, r3
 80010d8:	1ae3      	subs	r3, r4, r3
 80010da:	b29b      	uxth	r3, r3
 80010dc:	81fb      	strh	r3, [r7, #14]
//	debugPrintEnter();
//	debugCharPrint(" heading = ");
//	debugIntPrint(setTo360(orientationAngle));
//	debugPrintEnter();

	if(errorAngle < -180 || errorAngle > 180)
 80010de:	f9b7 300e 	ldrsh.w	r3, [r7, #14]
 80010e2:	f113 0fb4 	cmn.w	r3, #180	; 0xb4
 80010e6:	db03      	blt.n	80010f0 <determineError+0x50>
 80010e8:	f9b7 300e 	ldrsh.w	r3, [r7, #14]
 80010ec:	2bb4      	cmp	r3, #180	; 0xb4
 80010ee:	dd46      	ble.n	800117e <determineError+0xde>
	{
		angle1 = errorAngle + 360;
 80010f0:	89fb      	ldrh	r3, [r7, #14]
 80010f2:	f503 73b4 	add.w	r3, r3, #360	; 0x168
 80010f6:	b29b      	uxth	r3, r3
 80010f8:	81bb      	strh	r3, [r7, #12]
		angle2 = errorAngle - 360;
 80010fa:	89fb      	ldrh	r3, [r7, #14]
 80010fc:	f5a3 73b4 	sub.w	r3, r3, #360	; 0x168
 8001100:	b29b      	uxth	r3, r3
 8001102:	817b      	strh	r3, [r7, #10]

		if(pow(angle1,2) > pow(angle2,2))
 8001104:	f9b7 300c 	ldrsh.w	r3, [r7, #12]
 8001108:	4618      	mov	r0, r3
 800110a:	f7ff fa2b 	bl	8000564 <__aeabi_i2d>
 800110e:	4603      	mov	r3, r0
 8001110:	460c      	mov	r4, r1
 8001112:	ed9f 1b23 	vldr	d1, [pc, #140]	; 80011a0 <determineError+0x100>
 8001116:	ec44 3b10 	vmov	d0, r3, r4
 800111a:	f009 f8ff 	bl	800a31c <pow>
 800111e:	ec55 4b10 	vmov	r4, r5, d0
 8001122:	f9b7 300a 	ldrsh.w	r3, [r7, #10]
 8001126:	4618      	mov	r0, r3
 8001128:	f7ff fa1c 	bl	8000564 <__aeabi_i2d>
 800112c:	4602      	mov	r2, r0
 800112e:	460b      	mov	r3, r1
 8001130:	ed9f 1b1b 	vldr	d1, [pc, #108]	; 80011a0 <determineError+0x100>
 8001134:	ec43 2b10 	vmov	d0, r2, r3
 8001138:	f009 f8f0 	bl	800a31c <pow>
 800113c:	ec53 2b10 	vmov	r2, r3, d0
 8001140:	4620      	mov	r0, r4
 8001142:	4629      	mov	r1, r5
 8001144:	f7ff fd08 	bl	8000b58 <__aeabi_dcmpgt>
 8001148:	4603      	mov	r3, r0
 800114a:	2b00      	cmp	r3, #0
 800114c:	d00b      	beq.n	8001166 <determineError+0xc6>
		{
//			debugCharPrint(" Errorangle = ");
//			debugFloatPrint(angle2);
//			debugPrintEnter();
			payload.errorAngle = angle2;
 800114e:	f9b7 300a 	ldrsh.w	r3, [r7, #10]
 8001152:	ee07 3a90 	vmov	s15, r3
 8001156:	eef8 7ae7 	vcvt.f32.s32	s15, s15
 800115a:	4b13      	ldr	r3, [pc, #76]	; (80011a8 <determineError+0x108>)
 800115c:	edc3 7a07 	vstr	s15, [r3, #28]
			return angle2;
 8001160:	f9b7 300a 	ldrsh.w	r3, [r7, #10]
 8001164:	e016      	b.n	8001194 <determineError+0xf4>
		else
		{
//			debugCharPrint(" Errorangle = ");
//			debugFloatPrint(angle1);
//			debugPrintEnter();
			payload.errorAngle = angle1;
 8001166:	f9b7 300c 	ldrsh.w	r3, [r7, #12]
 800116a:	ee07 3a90 	vmov	s15, r3
 800116e:	eef8 7ae7 	vcvt.f32.s32	s15, s15
 8001172:	4b0d      	ldr	r3, [pc, #52]	; (80011a8 <determineError+0x108>)
 8001174:	edc3 7a07 	vstr	s15, [r3, #28]
			return angle1;
 8001178:	f9b7 300c 	ldrsh.w	r3, [r7, #12]
 800117c:	e00a      	b.n	8001194 <determineError+0xf4>
	else
	{
//		debugCharPrint(" Errorangle = ");
//		debugFloatPrint(errorAngle);
//		debugPrintEnter();
		payload.errorAngle = errorAngle;
 800117e:	f9b7 300e 	ldrsh.w	r3, [r7, #14]
 8001182:	ee07 3a90 	vmov	s15, r3
 8001186:	eef8 7ae7 	vcvt.f32.s32	s15, s15
 800118a:	4b07      	ldr	r3, [pc, #28]	; (80011a8 <determineError+0x108>)
 800118c:	edc3 7a07 	vstr	s15, [r3, #28]
		return errorAngle;
 8001190:	f9b7 300e 	ldrsh.w	r3, [r7, #14]
	}
}
 8001194:	4618      	mov	r0, r3
 8001196:	3710      	adds	r7, #16
 8001198:	46bd      	mov	sp, r7
 800119a:	bdb0      	pop	{r4, r5, r7, pc}
 800119c:	f3af 8000 	nop.w
 80011a0:	00000000 	.word	0x00000000
 80011a4:	40000000 	.word	0x40000000
 80011a8:	2000061c 	.word	0x2000061c

080011ac <calculatePID>:

void calculatePID(float bearing, char* cog)
{
 80011ac:	b580      	push	{r7, lr}
 80011ae:	b088      	sub	sp, #32
 80011b0:	af00      	add	r7, sp, #0
 80011b2:	ed87 0a01 	vstr	s0, [r7, #4]
 80011b6:	6038      	str	r0, [r7, #0]
	static float newError = 0;
	static float ITerm = 0;
	float DTerm = 0;
 80011b8:	f04f 0300 	mov.w	r3, #0
 80011bc:	61fb      	str	r3, [r7, #28]
	float PTerm = 0;
 80011be:	f04f 0300 	mov.w	r3, #0
 80011c2:	61bb      	str	r3, [r7, #24]
	float totalGain = 0;
 80011c4:	f04f 0300 	mov.w	r3, #0
 80011c8:	617b      	str	r3, [r7, #20]

	int16_t setPoint = (int16_t)bearing;
 80011ca:	edd7 7a01 	vldr	s15, [r7, #4]
 80011ce:	eefd 7ae7 	vcvt.s32.f32	s15, s15
 80011d2:	ee17 3a90 	vmov	r3, s15
 80011d6:	827b      	strh	r3, [r7, #18]
    int16_t	orientatie = atoi(cog);
 80011d8:	6838      	ldr	r0, [r7, #0]
 80011da:	f005 fc1a 	bl	8006a12 <atoi>
 80011de:	4603      	mov	r3, r0
 80011e0:	823b      	strh	r3, [r7, #16]

	payload.bearing = setTo360(setPoint);
 80011e2:	f9b7 3012 	ldrsh.w	r3, [r7, #18]
 80011e6:	4618      	mov	r0, r3
 80011e8:	f7ff ff18 	bl	800101c <setTo360>
 80011ec:	4603      	mov	r3, r0
 80011ee:	461a      	mov	r2, r3
 80011f0:	4b9b      	ldr	r3, [pc, #620]	; (8001460 <calculatePID+0x2b4>)
 80011f2:	805a      	strh	r2, [r3, #2]
	payload.cog = setTo360(orientatie);
 80011f4:	f9b7 3010 	ldrsh.w	r3, [r7, #16]
 80011f8:	4618      	mov	r0, r3
 80011fa:	f7ff ff0f 	bl	800101c <setTo360>
 80011fe:	4603      	mov	r3, r0
 8001200:	461a      	mov	r2, r3
 8001202:	4b97      	ldr	r3, [pc, #604]	; (8001460 <calculatePID+0x2b4>)
 8001204:	809a      	strh	r2, [r3, #4]

    newError = degreeToPercentage(determineError(setPoint, orientatie));  				// with bearing and cog
 8001206:	f9b7 2010 	ldrsh.w	r2, [r7, #16]
 800120a:	f9b7 3012 	ldrsh.w	r3, [r7, #18]
 800120e:	4611      	mov	r1, r2
 8001210:	4618      	mov	r0, r3
 8001212:	f7ff ff45 	bl	80010a0 <determineError>
 8001216:	4603      	mov	r3, r0
 8001218:	4618      	mov	r0, r3
 800121a:	f7ff ff15 	bl	8001048 <degreeToPercentage>
 800121e:	eef0 7a40 	vmov.f32	s15, s0
 8001222:	4b90      	ldr	r3, [pc, #576]	; (8001464 <calculatePID+0x2b8>)
 8001224:	edc3 7a00 	vstr	s15, [r3]
	//newError = degreeToPercentage(determineError(setpointTest, orientatieTest));

    extern float newTime;
	extern float lastTime;
	float sampleTimeF = newTime - lastTime;
 8001228:	4b8f      	ldr	r3, [pc, #572]	; (8001468 <calculatePID+0x2bc>)
 800122a:	ed93 7a00 	vldr	s14, [r3]
 800122e:	4b8f      	ldr	r3, [pc, #572]	; (800146c <calculatePID+0x2c0>)
 8001230:	edd3 7a00 	vldr	s15, [r3]
 8001234:	ee77 7a67 	vsub.f32	s15, s14, s15
 8001238:	edc7 7a03 	vstr	s15, [r7, #12]
	payload.SampleTime = sampleTimeF;
 800123c:	4a88      	ldr	r2, [pc, #544]	; (8001460 <calculatePID+0x2b4>)
 800123e:	68fb      	ldr	r3, [r7, #12]
 8001240:	6313      	str	r3, [r2, #48]	; 0x30

	PTerm =  	Kp*(newError * sampleTimeF);
 8001242:	4b88      	ldr	r3, [pc, #544]	; (8001464 <calculatePID+0x2b8>)
 8001244:	ed93 7a00 	vldr	s14, [r3]
 8001248:	edd7 7a03 	vldr	s15, [r7, #12]
 800124c:	ee27 7a27 	vmul.f32	s14, s14, s15
 8001250:	4b87      	ldr	r3, [pc, #540]	; (8001470 <calculatePID+0x2c4>)
 8001252:	edd3 7a00 	vldr	s15, [r3]
 8001256:	ee67 7a27 	vmul.f32	s15, s14, s15
 800125a:	edc7 7a06 	vstr	s15, [r7, #24]
	DTerm = 	Kd*((lastError - newError) / sampleTimeF);
 800125e:	4b85      	ldr	r3, [pc, #532]	; (8001474 <calculatePID+0x2c8>)
 8001260:	ed93 7a00 	vldr	s14, [r3]
 8001264:	4b7f      	ldr	r3, [pc, #508]	; (8001464 <calculatePID+0x2b8>)
 8001266:	edd3 7a00 	vldr	s15, [r3]
 800126a:	ee77 6a67 	vsub.f32	s13, s14, s15
 800126e:	edd7 7a03 	vldr	s15, [r7, #12]
 8001272:	ee86 7aa7 	vdiv.f32	s14, s13, s15
 8001276:	4b80      	ldr	r3, [pc, #512]	; (8001478 <calculatePID+0x2cc>)
 8001278:	edd3 7a00 	vldr	s15, [r3]
 800127c:	ee67 7a27 	vmul.f32	s15, s14, s15
 8001280:	edc7 7a07 	vstr	s15, [r7, #28]
	ITerm += 	Ki*((KiSet*newError) * sampleTimeF);
 8001284:	4b7d      	ldr	r3, [pc, #500]	; (800147c <calculatePID+0x2d0>)
 8001286:	ed93 7a00 	vldr	s14, [r3]
 800128a:	4b76      	ldr	r3, [pc, #472]	; (8001464 <calculatePID+0x2b8>)
 800128c:	edd3 7a00 	vldr	s15, [r3]
 8001290:	ee27 7a27 	vmul.f32	s14, s14, s15
 8001294:	edd7 7a03 	vldr	s15, [r7, #12]
 8001298:	ee27 7a27 	vmul.f32	s14, s14, s15
 800129c:	4b78      	ldr	r3, [pc, #480]	; (8001480 <calculatePID+0x2d4>)
 800129e:	edd3 7a00 	vldr	s15, [r3]
 80012a2:	ee27 7a27 	vmul.f32	s14, s14, s15
 80012a6:	4b77      	ldr	r3, [pc, #476]	; (8001484 <calculatePID+0x2d8>)
 80012a8:	edd3 7a00 	vldr	s15, [r3]
 80012ac:	ee77 7a27 	vadd.f32	s15, s14, s15
 80012b0:	4b74      	ldr	r3, [pc, #464]	; (8001484 <calculatePID+0x2d8>)
 80012b2:	edc3 7a00 	vstr	s15, [r3]


	if ((lastError - newError) > 150 || (lastError - newError) < -150)
 80012b6:	4b6f      	ldr	r3, [pc, #444]	; (8001474 <calculatePID+0x2c8>)
 80012b8:	ed93 7a00 	vldr	s14, [r3]
 80012bc:	4b69      	ldr	r3, [pc, #420]	; (8001464 <calculatePID+0x2b8>)
 80012be:	edd3 7a00 	vldr	s15, [r3]
 80012c2:	ee77 7a67 	vsub.f32	s15, s14, s15
 80012c6:	ed9f 7a70 	vldr	s14, [pc, #448]	; 8001488 <calculatePID+0x2dc>
 80012ca:	eef4 7ac7 	vcmpe.f32	s15, s14
 80012ce:	eef1 fa10 	vmrs	APSR_nzcv, fpscr
 80012d2:	dc0e      	bgt.n	80012f2 <calculatePID+0x146>
 80012d4:	4b67      	ldr	r3, [pc, #412]	; (8001474 <calculatePID+0x2c8>)
 80012d6:	ed93 7a00 	vldr	s14, [r3]
 80012da:	4b62      	ldr	r3, [pc, #392]	; (8001464 <calculatePID+0x2b8>)
 80012dc:	edd3 7a00 	vldr	s15, [r3]
 80012e0:	ee77 7a67 	vsub.f32	s15, s14, s15
 80012e4:	ed9f 7a69 	vldr	s14, [pc, #420]	; 800148c <calculatePID+0x2e0>
 80012e8:	eef4 7ac7 	vcmpe.f32	s15, s14
 80012ec:	eef1 fa10 	vmrs	APSR_nzcv, fpscr
 80012f0:	d502      	bpl.n	80012f8 <calculatePID+0x14c>
	{
		DTerm = 0;
 80012f2:	f04f 0300 	mov.w	r3, #0
 80012f6:	61fb      	str	r3, [r7, #28]
	}

	if(DTerm > maxDTerm)
 80012f8:	edd7 7a07 	vldr	s15, [r7, #28]
 80012fc:	eeb3 7a09 	vmov.f32	s14, #57	; 0x41c80000  25.0
 8001300:	eef4 7ac7 	vcmpe.f32	s15, s14
 8001304:	eef1 fa10 	vmrs	APSR_nzcv, fpscr
 8001308:	dd02      	ble.n	8001310 <calculatePID+0x164>
	{
		DTerm = maxDTerm;
 800130a:	4b61      	ldr	r3, [pc, #388]	; (8001490 <calculatePID+0x2e4>)
 800130c:	61fb      	str	r3, [r7, #28]
 800130e:	e00a      	b.n	8001326 <calculatePID+0x17a>
	}
	else if(DTerm < minDTerm)
 8001310:	edd7 7a07 	vldr	s15, [r7, #28]
 8001314:	eebb 7a09 	vmov.f32	s14, #185	; 0xc1c80000 -25.0
 8001318:	eef4 7ac7 	vcmpe.f32	s15, s14
 800131c:	eef1 fa10 	vmrs	APSR_nzcv, fpscr
 8001320:	d501      	bpl.n	8001326 <calculatePID+0x17a>
	{
		DTerm = minDTerm;
 8001322:	4b5c      	ldr	r3, [pc, #368]	; (8001494 <calculatePID+0x2e8>)
 8001324:	61fb      	str	r3, [r7, #28]
	}

	if(PTerm > maxPTerm)
 8001326:	edd7 7a06 	vldr	s15, [r7, #24]
 800132a:	ed9f 7a5b 	vldr	s14, [pc, #364]	; 8001498 <calculatePID+0x2ec>
 800132e:	eef4 7ac7 	vcmpe.f32	s15, s14
 8001332:	eef1 fa10 	vmrs	APSR_nzcv, fpscr
 8001336:	dd02      	ble.n	800133e <calculatePID+0x192>
	{
		PTerm = maxPTerm;
 8001338:	4b58      	ldr	r3, [pc, #352]	; (800149c <calculatePID+0x2f0>)
 800133a:	61bb      	str	r3, [r7, #24]
 800133c:	e00a      	b.n	8001354 <calculatePID+0x1a8>
	}
	else if(PTerm < minPTerm)
 800133e:	edd7 7a06 	vldr	s15, [r7, #24]
 8001342:	ed9f 7a57 	vldr	s14, [pc, #348]	; 80014a0 <calculatePID+0x2f4>
 8001346:	eef4 7ac7 	vcmpe.f32	s15, s14
 800134a:	eef1 fa10 	vmrs	APSR_nzcv, fpscr
 800134e:	d501      	bpl.n	8001354 <calculatePID+0x1a8>
	{
		PTerm = minPTerm;
 8001350:	4b54      	ldr	r3, [pc, #336]	; (80014a4 <calculatePID+0x2f8>)
 8001352:	61bb      	str	r3, [r7, #24]
	}

	if(ITerm > maxITerm)
 8001354:	4b4b      	ldr	r3, [pc, #300]	; (8001484 <calculatePID+0x2d8>)
 8001356:	edd3 7a00 	vldr	s15, [r3]
 800135a:	ed9f 7a4b 	vldr	s14, [pc, #300]	; 8001488 <calculatePID+0x2dc>
 800135e:	eef4 7ac7 	vcmpe.f32	s15, s14
 8001362:	eef1 fa10 	vmrs	APSR_nzcv, fpscr
 8001366:	dd03      	ble.n	8001370 <calculatePID+0x1c4>
	{
		ITerm = maxITerm;
 8001368:	4b46      	ldr	r3, [pc, #280]	; (8001484 <calculatePID+0x2d8>)
 800136a:	4a4f      	ldr	r2, [pc, #316]	; (80014a8 <calculatePID+0x2fc>)
 800136c:	601a      	str	r2, [r3, #0]
 800136e:	e00c      	b.n	800138a <calculatePID+0x1de>
	}
	else if(ITerm < minITerm)
 8001370:	4b44      	ldr	r3, [pc, #272]	; (8001484 <calculatePID+0x2d8>)
 8001372:	edd3 7a00 	vldr	s15, [r3]
 8001376:	ed9f 7a45 	vldr	s14, [pc, #276]	; 800148c <calculatePID+0x2e0>
 800137a:	eef4 7ac7 	vcmpe.f32	s15, s14
 800137e:	eef1 fa10 	vmrs	APSR_nzcv, fpscr
 8001382:	d502      	bpl.n	800138a <calculatePID+0x1de>
	{
		ITerm = minITerm;
 8001384:	4b3f      	ldr	r3, [pc, #252]	; (8001484 <calculatePID+0x2d8>)
 8001386:	4a49      	ldr	r2, [pc, #292]	; (80014ac <calculatePID+0x300>)
 8001388:	601a      	str	r2, [r3, #0]
	}

	totalGain = PTerm + DTerm + ITerm;
 800138a:	ed97 7a06 	vldr	s14, [r7, #24]
 800138e:	edd7 7a07 	vldr	s15, [r7, #28]
 8001392:	ee37 7a27 	vadd.f32	s14, s14, s15
 8001396:	4b3b      	ldr	r3, [pc, #236]	; (8001484 <calculatePID+0x2d8>)
 8001398:	edd3 7a00 	vldr	s15, [r3]
 800139c:	ee77 7a27 	vadd.f32	s15, s14, s15
 80013a0:	edc7 7a05 	vstr	s15, [r7, #20]
		if(invertSteering == 1)
		{
			totalGain = totalGain*-1;
		}

	payload.PIDperc = totalGain;
 80013a4:	4a2e      	ldr	r2, [pc, #184]	; (8001460 <calculatePID+0x2b4>)
 80013a6:	697b      	ldr	r3, [r7, #20]
 80013a8:	6213      	str	r3, [r2, #32]

	if((totalGain > 100) && (lastError > 0) && (newError > 0))
 80013aa:	edd7 7a05 	vldr	s15, [r7, #20]
 80013ae:	ed9f 7a40 	vldr	s14, [pc, #256]	; 80014b0 <calculatePID+0x304>
 80013b2:	eef4 7ac7 	vcmpe.f32	s15, s14
 80013b6:	eef1 fa10 	vmrs	APSR_nzcv, fpscr
 80013ba:	dd14      	ble.n	80013e6 <calculatePID+0x23a>
 80013bc:	4b2d      	ldr	r3, [pc, #180]	; (8001474 <calculatePID+0x2c8>)
 80013be:	edd3 7a00 	vldr	s15, [r3]
 80013c2:	eef5 7ac0 	vcmpe.f32	s15, #0.0
 80013c6:	eef1 fa10 	vmrs	APSR_nzcv, fpscr
 80013ca:	dd0c      	ble.n	80013e6 <calculatePID+0x23a>
 80013cc:	4b25      	ldr	r3, [pc, #148]	; (8001464 <calculatePID+0x2b8>)
 80013ce:	edd3 7a00 	vldr	s15, [r3]
 80013d2:	eef5 7ac0 	vcmpe.f32	s15, #0.0
 80013d6:	eef1 fa10 	vmrs	APSR_nzcv, fpscr
 80013da:	dd04      	ble.n	80013e6 <calculatePID+0x23a>
	{
		KiSet = 0.0;
 80013dc:	4b27      	ldr	r3, [pc, #156]	; (800147c <calculatePID+0x2d0>)
 80013de:	f04f 0200 	mov.w	r2, #0
 80013e2:	601a      	str	r2, [r3, #0]
 80013e4:	e021      	b.n	800142a <calculatePID+0x27e>
	}
	else if((totalGain < -100) && (lastError < 0) && (newError < 0))
 80013e6:	edd7 7a05 	vldr	s15, [r7, #20]
 80013ea:	ed9f 7a32 	vldr	s14, [pc, #200]	; 80014b4 <calculatePID+0x308>
 80013ee:	eef4 7ac7 	vcmpe.f32	s15, s14
 80013f2:	eef1 fa10 	vmrs	APSR_nzcv, fpscr
 80013f6:	d514      	bpl.n	8001422 <calculatePID+0x276>
 80013f8:	4b1e      	ldr	r3, [pc, #120]	; (8001474 <calculatePID+0x2c8>)
 80013fa:	edd3 7a00 	vldr	s15, [r3]
 80013fe:	eef5 7ac0 	vcmpe.f32	s15, #0.0
 8001402:	eef1 fa10 	vmrs	APSR_nzcv, fpscr
 8001406:	d50c      	bpl.n	8001422 <calculatePID+0x276>
 8001408:	4b16      	ldr	r3, [pc, #88]	; (8001464 <calculatePID+0x2b8>)
 800140a:	edd3 7a00 	vldr	s15, [r3]
 800140e:	eef5 7ac0 	vcmpe.f32	s15, #0.0
 8001412:	eef1 fa10 	vmrs	APSR_nzcv, fpscr
 8001416:	d504      	bpl.n	8001422 <calculatePID+0x276>
	{
		KiSet = 0.0;
 8001418:	4b18      	ldr	r3, [pc, #96]	; (800147c <calculatePID+0x2d0>)
 800141a:	f04f 0200 	mov.w	r2, #0
 800141e:	601a      	str	r2, [r3, #0]
 8001420:	e003      	b.n	800142a <calculatePID+0x27e>
	}
	else
	{
		KiSet = 1.0;
 8001422:	4b16      	ldr	r3, [pc, #88]	; (800147c <calculatePID+0x2d0>)
 8001424:	f04f 527e 	mov.w	r2, #1065353216	; 0x3f800000
 8001428:	601a      	str	r2, [r3, #0]
	}


	payload.PTerm = PTerm;
 800142a:	4a0d      	ldr	r2, [pc, #52]	; (8001460 <calculatePID+0x2b4>)
 800142c:	69bb      	ldr	r3, [r7, #24]
 800142e:	6113      	str	r3, [r2, #16]
	payload.ITerm = ITerm;
 8001430:	4b14      	ldr	r3, [pc, #80]	; (8001484 <calculatePID+0x2d8>)
 8001432:	681b      	ldr	r3, [r3, #0]
 8001434:	4a0a      	ldr	r2, [pc, #40]	; (8001460 <calculatePID+0x2b4>)
 8001436:	6153      	str	r3, [r2, #20]
	payload.DTerm = DTerm;
 8001438:	4a09      	ldr	r2, [pc, #36]	; (8001460 <calculatePID+0x2b4>)
 800143a:	69fb      	ldr	r3, [r7, #28]
 800143c:	6193      	str	r3, [r2, #24]

	percentageToPWMvoid(totalGain);
 800143e:	ed97 0a05 	vldr	s0, [r7, #20]
 8001442:	f000 f839 	bl	80014b8 <percentageToPWMvoid>
	lastTime = newTime;
 8001446:	4b08      	ldr	r3, [pc, #32]	; (8001468 <calculatePID+0x2bc>)
 8001448:	681b      	ldr	r3, [r3, #0]
 800144a:	4a08      	ldr	r2, [pc, #32]	; (800146c <calculatePID+0x2c0>)
 800144c:	6013      	str	r3, [r2, #0]
	lastError = newError;
 800144e:	4b05      	ldr	r3, [pc, #20]	; (8001464 <calculatePID+0x2b8>)
 8001450:	681b      	ldr	r3, [r3, #0]
 8001452:	4a08      	ldr	r2, [pc, #32]	; (8001474 <calculatePID+0x2c8>)
 8001454:	6013      	str	r3, [r2, #0]
//	debugIntPrint(test);
//	debugPrintEnter();
	/*
	 * --------------------------------------------------------------------------------
	 */
}
 8001456:	bf00      	nop
 8001458:	3720      	adds	r7, #32
 800145a:	46bd      	mov	sp, r7
 800145c:	bd80      	pop	{r7, pc}
 800145e:	bf00      	nop
 8001460:	2000061c 	.word	0x2000061c
 8001464:	20000214 	.word	0x20000214
 8001468:	20000260 	.word	0x20000260
 800146c:	20000264 	.word	0x20000264
 8001470:	20000000 	.word	0x20000000
 8001474:	20000210 	.word	0x20000210
 8001478:	2000000c 	.word	0x2000000c
 800147c:	20000004 	.word	0x20000004
 8001480:	20000008 	.word	0x20000008
 8001484:	20000218 	.word	0x20000218
 8001488:	43160000 	.word	0x43160000
 800148c:	c3160000 	.word	0xc3160000
 8001490:	41c80000 	.word	0x41c80000
 8001494:	c1c80000 	.word	0xc1c80000
 8001498:	43fa0000 	.word	0x43fa0000
 800149c:	43fa0000 	.word	0x43fa0000
 80014a0:	c3fa0000 	.word	0xc3fa0000
 80014a4:	c3fa0000 	.word	0xc3fa0000
 80014a8:	43160000 	.word	0x43160000
 80014ac:	c3160000 	.word	0xc3160000
 80014b0:	42c80000 	.word	0x42c80000
 80014b4:	c2c80000 	.word	0xc2c80000

080014b8 <percentageToPWMvoid>:


void percentageToPWMvoid(float PIDPercentage) //negative percentage to the left, positive to the right
{
 80014b8:	e92d 43b0 	stmdb	sp!, {r4, r5, r7, r8, r9, lr}
 80014bc:	b084      	sub	sp, #16
 80014be:	af00      	add	r7, sp, #0
 80014c0:	ed87 0a01 	vstr	s0, [r7, #4]
	float PWMTimeF;
	PWMTimeF = (PIDPercentage * (0.00025*PWMPeriod)) + (0.075*PWMPeriod); //0.075% of total PWMPeriod is idle state servo&ESC
 80014c4:	6878      	ldr	r0, [r7, #4]
 80014c6:	f7ff f85f 	bl	8000588 <__aeabi_f2d>
 80014ca:	f04f 0200 	mov.w	r2, #0
 80014ce:	4b96      	ldr	r3, [pc, #600]	; (8001728 <percentageToPWMvoid+0x270>)
 80014d0:	f7ff f8b2 	bl	8000638 <__aeabi_dmul>
 80014d4:	4603      	mov	r3, r0
 80014d6:	460c      	mov	r4, r1
 80014d8:	4618      	mov	r0, r3
 80014da:	4621      	mov	r1, r4
 80014dc:	a390      	add	r3, pc, #576	; (adr r3, 8001720 <percentageToPWMvoid+0x268>)
 80014de:	e9d3 2300 	ldrd	r2, r3, [r3]
 80014e2:	f7fe fef3 	bl	80002cc <__adddf3>
 80014e6:	4603      	mov	r3, r0
 80014e8:	460c      	mov	r4, r1
 80014ea:	4618      	mov	r0, r3
 80014ec:	4621      	mov	r1, r4
 80014ee:	f7ff fb9b 	bl	8000c28 <__aeabi_d2f>
 80014f2:	4603      	mov	r3, r0
 80014f4:	60fb      	str	r3, [r7, #12]

	if(engineSteering == 1)
 80014f6:	4b8d      	ldr	r3, [pc, #564]	; (800172c <percentageToPWMvoid+0x274>)
 80014f8:	f993 3000 	ldrsb.w	r3, [r3]
 80014fc:	2b01      	cmp	r3, #1
 80014fe:	f040 80dd 	bne.w	80016bc <percentageToPWMvoid+0x204>
	{
		//engineMode(forwardHalfThrottle);

		if(PIDPercentage > 100)
 8001502:	edd7 7a01 	vldr	s15, [r7, #4]
 8001506:	ed9f 7a8a 	vldr	s14, [pc, #552]	; 8001730 <percentageToPWMvoid+0x278>
 800150a:	eef4 7ac7 	vcmpe.f32	s15, s14
 800150e:	eef1 fa10 	vmrs	APSR_nzcv, fpscr
 8001512:	dd02      	ble.n	800151a <percentageToPWMvoid+0x62>
		{
			PIDPercentage = 100;
 8001514:	4b87      	ldr	r3, [pc, #540]	; (8001734 <percentageToPWMvoid+0x27c>)
 8001516:	607b      	str	r3, [r7, #4]
 8001518:	e00a      	b.n	8001530 <percentageToPWMvoid+0x78>
		}

		else if (PIDPercentage < -100)
 800151a:	edd7 7a01 	vldr	s15, [r7, #4]
 800151e:	ed9f 7a86 	vldr	s14, [pc, #536]	; 8001738 <percentageToPWMvoid+0x280>
 8001522:	eef4 7ac7 	vcmpe.f32	s15, s14
 8001526:	eef1 fa10 	vmrs	APSR_nzcv, fpscr
 800152a:	d501      	bpl.n	8001530 <percentageToPWMvoid+0x78>
		{
			PIDPercentage = -100;
 800152c:	4b83      	ldr	r3, [pc, #524]	; (800173c <percentageToPWMvoid+0x284>)
 800152e:	607b      	str	r3, [r7, #4]
		}

		if(PIDPercentage <= 0) //links sturen
 8001530:	edd7 7a01 	vldr	s15, [r7, #4]
 8001534:	eef5 7ac0 	vcmpe.f32	s15, #0.0
 8001538:	eef1 fa10 	vmrs	APSR_nzcv, fpscr
 800153c:	d85b      	bhi.n	80015f6 <percentageToPWMvoid+0x13e>
		{
			rightEngine = PWMPeriod*enginePowerLimit.enginePowerLimitRight;
 800153e:	4b80      	ldr	r3, [pc, #512]	; (8001740 <percentageToPWMvoid+0x288>)
 8001540:	689b      	ldr	r3, [r3, #8]
 8001542:	4618      	mov	r0, r3
 8001544:	f7ff f820 	bl	8000588 <__aeabi_f2d>
 8001548:	f04f 0200 	mov.w	r2, #0
 800154c:	4b7d      	ldr	r3, [pc, #500]	; (8001744 <percentageToPWMvoid+0x28c>)
 800154e:	f7ff f873 	bl	8000638 <__aeabi_dmul>
 8001552:	4603      	mov	r3, r0
 8001554:	460c      	mov	r4, r1
 8001556:	461a      	mov	r2, r3
 8001558:	4623      	mov	r3, r4
 800155a:	4c7b      	ldr	r4, [pc, #492]	; (8001748 <percentageToPWMvoid+0x290>)
 800155c:	4610      	mov	r0, r2
 800155e:	4619      	mov	r1, r3
 8001560:	f7ff fb42 	bl	8000be8 <__aeabi_d2uiz>
 8001564:	4603      	mov	r3, r0
 8001566:	63a3      	str	r3, [r4, #56]	; 0x38
			leftEngine = (PWMPeriod*enginePowerLimit.enginePowerLimitLeft) + (fabs(PIDPercentage)*enginePowerLimit.engineDivideFactorLeft); //
 8001568:	4b75      	ldr	r3, [pc, #468]	; (8001740 <percentageToPWMvoid+0x288>)
 800156a:	681b      	ldr	r3, [r3, #0]
 800156c:	4618      	mov	r0, r3
 800156e:	f7ff f80b 	bl	8000588 <__aeabi_f2d>
 8001572:	f04f 0200 	mov.w	r2, #0
 8001576:	4b73      	ldr	r3, [pc, #460]	; (8001744 <percentageToPWMvoid+0x28c>)
 8001578:	f7ff f85e 	bl	8000638 <__aeabi_dmul>
 800157c:	4603      	mov	r3, r0
 800157e:	460c      	mov	r4, r1
 8001580:	4625      	mov	r5, r4
 8001582:	461c      	mov	r4, r3
 8001584:	edd7 7a01 	vldr	s15, [r7, #4]
 8001588:	eef0 7ae7 	vabs.f32	s15, s15
 800158c:	ee17 0a90 	vmov	r0, s15
 8001590:	f7fe fffa 	bl	8000588 <__aeabi_f2d>
 8001594:	4680      	mov	r8, r0
 8001596:	4689      	mov	r9, r1
 8001598:	4b69      	ldr	r3, [pc, #420]	; (8001740 <percentageToPWMvoid+0x288>)
 800159a:	685b      	ldr	r3, [r3, #4]
 800159c:	4618      	mov	r0, r3
 800159e:	f7fe fff3 	bl	8000588 <__aeabi_f2d>
 80015a2:	4602      	mov	r2, r0
 80015a4:	460b      	mov	r3, r1
 80015a6:	4640      	mov	r0, r8
 80015a8:	4649      	mov	r1, r9
 80015aa:	f7ff f845 	bl	8000638 <__aeabi_dmul>
 80015ae:	4602      	mov	r2, r0
 80015b0:	460b      	mov	r3, r1
 80015b2:	4620      	mov	r0, r4
 80015b4:	4629      	mov	r1, r5
 80015b6:	f7fe fe89 	bl	80002cc <__adddf3>
 80015ba:	4603      	mov	r3, r0
 80015bc:	460c      	mov	r4, r1
 80015be:	461a      	mov	r2, r3
 80015c0:	4623      	mov	r3, r4
 80015c2:	4c61      	ldr	r4, [pc, #388]	; (8001748 <percentageToPWMvoid+0x290>)
 80015c4:	4610      	mov	r0, r2
 80015c6:	4619      	mov	r1, r3
 80015c8:	f7ff fb0e 	bl	8000be8 <__aeabi_d2uiz>
 80015cc:	4603      	mov	r3, r0
 80015ce:	6363      	str	r3, [r4, #52]	; 0x34
			payload.MotorL = leftEngine;
 80015d0:	4b5d      	ldr	r3, [pc, #372]	; (8001748 <percentageToPWMvoid+0x290>)
 80015d2:	6b5b      	ldr	r3, [r3, #52]	; 0x34
 80015d4:	ee07 3a90 	vmov	s15, r3
 80015d8:	eef8 7a67 	vcvt.f32.u32	s15, s15
 80015dc:	4b5b      	ldr	r3, [pc, #364]	; (800174c <percentageToPWMvoid+0x294>)
 80015de:	edc3 7a09 	vstr	s15, [r3, #36]	; 0x24
			payload.MotorR = rightEngine;
 80015e2:	4b59      	ldr	r3, [pc, #356]	; (8001748 <percentageToPWMvoid+0x290>)
 80015e4:	6b9b      	ldr	r3, [r3, #56]	; 0x38
 80015e6:	ee07 3a90 	vmov	s15, r3
 80015ea:	eef8 7a67 	vcvt.f32.u32	s15, s15
 80015ee:	4b57      	ldr	r3, [pc, #348]	; (800174c <percentageToPWMvoid+0x294>)
 80015f0:	edc3 7a0a 	vstr	s15, [r3, #40]	; 0x28
 80015f4:	e065      	b.n	80016c2 <percentageToPWMvoid+0x20a>
//			debugCharPrint(" RightEngine = ");
//			debugIntPrint(rightEngine);
//			debugPrintEnter();
		}

		else if(PIDPercentage > 0) //rechts sturen
 80015f6:	edd7 7a01 	vldr	s15, [r7, #4]
 80015fa:	eef5 7ac0 	vcmpe.f32	s15, #0.0
 80015fe:	eef1 fa10 	vmrs	APSR_nzcv, fpscr
 8001602:	dd5e      	ble.n	80016c2 <percentageToPWMvoid+0x20a>
		{
			leftEngine = PWMPeriod*enginePowerLimit.enginePowerLimitLeft;
 8001604:	4b4e      	ldr	r3, [pc, #312]	; (8001740 <percentageToPWMvoid+0x288>)
 8001606:	681b      	ldr	r3, [r3, #0]
 8001608:	4618      	mov	r0, r3
 800160a:	f7fe ffbd 	bl	8000588 <__aeabi_f2d>
 800160e:	f04f 0200 	mov.w	r2, #0
 8001612:	4b4c      	ldr	r3, [pc, #304]	; (8001744 <percentageToPWMvoid+0x28c>)
 8001614:	f7ff f810 	bl	8000638 <__aeabi_dmul>
 8001618:	4603      	mov	r3, r0
 800161a:	460c      	mov	r4, r1
 800161c:	461a      	mov	r2, r3
 800161e:	4623      	mov	r3, r4
 8001620:	4c49      	ldr	r4, [pc, #292]	; (8001748 <percentageToPWMvoid+0x290>)
 8001622:	4610      	mov	r0, r2
 8001624:	4619      	mov	r1, r3
 8001626:	f7ff fadf 	bl	8000be8 <__aeabi_d2uiz>
 800162a:	4603      	mov	r3, r0
 800162c:	6363      	str	r3, [r4, #52]	; 0x34
			rightEngine = (PWMPeriod*enginePowerLimit.enginePowerLimitRight) + (fabs(PIDPercentage)*enginePowerLimit.engineDivideFactorRight); //
 800162e:	4b44      	ldr	r3, [pc, #272]	; (8001740 <percentageToPWMvoid+0x288>)
 8001630:	689b      	ldr	r3, [r3, #8]
 8001632:	4618      	mov	r0, r3
 8001634:	f7fe ffa8 	bl	8000588 <__aeabi_f2d>
 8001638:	f04f 0200 	mov.w	r2, #0
 800163c:	4b41      	ldr	r3, [pc, #260]	; (8001744 <percentageToPWMvoid+0x28c>)
 800163e:	f7fe fffb 	bl	8000638 <__aeabi_dmul>
 8001642:	4603      	mov	r3, r0
 8001644:	460c      	mov	r4, r1
 8001646:	4625      	mov	r5, r4
 8001648:	461c      	mov	r4, r3
 800164a:	edd7 7a01 	vldr	s15, [r7, #4]
 800164e:	eef0 7ae7 	vabs.f32	s15, s15
 8001652:	ee17 0a90 	vmov	r0, s15
 8001656:	f7fe ff97 	bl	8000588 <__aeabi_f2d>
 800165a:	4680      	mov	r8, r0
 800165c:	4689      	mov	r9, r1
 800165e:	4b38      	ldr	r3, [pc, #224]	; (8001740 <percentageToPWMvoid+0x288>)
 8001660:	68db      	ldr	r3, [r3, #12]
 8001662:	4618      	mov	r0, r3
 8001664:	f7fe ff90 	bl	8000588 <__aeabi_f2d>
 8001668:	4602      	mov	r2, r0
 800166a:	460b      	mov	r3, r1
 800166c:	4640      	mov	r0, r8
 800166e:	4649      	mov	r1, r9
 8001670:	f7fe ffe2 	bl	8000638 <__aeabi_dmul>
 8001674:	4602      	mov	r2, r0
 8001676:	460b      	mov	r3, r1
 8001678:	4620      	mov	r0, r4
 800167a:	4629      	mov	r1, r5
 800167c:	f7fe fe26 	bl	80002cc <__adddf3>
 8001680:	4603      	mov	r3, r0
 8001682:	460c      	mov	r4, r1
 8001684:	461a      	mov	r2, r3
 8001686:	4623      	mov	r3, r4
 8001688:	4c2f      	ldr	r4, [pc, #188]	; (8001748 <percentageToPWMvoid+0x290>)
 800168a:	4610      	mov	r0, r2
 800168c:	4619      	mov	r1, r3
 800168e:	f7ff faab 	bl	8000be8 <__aeabi_d2uiz>
 8001692:	4603      	mov	r3, r0
 8001694:	63a3      	str	r3, [r4, #56]	; 0x38
			payload.MotorL = leftEngine;
 8001696:	4b2c      	ldr	r3, [pc, #176]	; (8001748 <percentageToPWMvoid+0x290>)
 8001698:	6b5b      	ldr	r3, [r3, #52]	; 0x34
 800169a:	ee07 3a90 	vmov	s15, r3
 800169e:	eef8 7a67 	vcvt.f32.u32	s15, s15
 80016a2:	4b2a      	ldr	r3, [pc, #168]	; (800174c <percentageToPWMvoid+0x294>)
 80016a4:	edc3 7a09 	vstr	s15, [r3, #36]	; 0x24
			payload.MotorR = rightEngine;
 80016a8:	4b27      	ldr	r3, [pc, #156]	; (8001748 <percentageToPWMvoid+0x290>)
 80016aa:	6b9b      	ldr	r3, [r3, #56]	; 0x38
 80016ac:	ee07 3a90 	vmov	s15, r3
 80016b0:	eef8 7a67 	vcvt.f32.u32	s15, s15
 80016b4:	4b25      	ldr	r3, [pc, #148]	; (800174c <percentageToPWMvoid+0x294>)
 80016b6:	edc3 7a0a 	vstr	s15, [r3, #40]	; 0x28
 80016ba:	e002      	b.n	80016c2 <percentageToPWMvoid+0x20a>
//			debugPrintEnter();
		}
	}
	else
	{
		engineMode(forwardHalfThrottle);
 80016bc:	2001      	movs	r0, #1
 80016be:	f000 f847 	bl	8001750 <engineMode>
//		debugCharPrint(" RightEngine = ");
//		debugIntPrint(rightEngine);
//		debugPrintEnter();
	}

	uint16_t PWMTimeI = (uint16_t)PWMTimeF; 					//Debug
 80016c2:	edd7 7a03 	vldr	s15, [r7, #12]
 80016c6:	eefc 7ae7 	vcvt.u32.f32	s15, s15
 80016ca:	ee17 3a90 	vmov	r3, s15
 80016ce:	817b      	strh	r3, [r7, #10]

	if(PWMTimeI > 200)
 80016d0:	897b      	ldrh	r3, [r7, #10]
 80016d2:	2bc8      	cmp	r3, #200	; 0xc8
 80016d4:	d909      	bls.n	80016ea <percentageToPWMvoid+0x232>
	{
		PWMTimeI = 200;
 80016d6:	23c8      	movs	r3, #200	; 0xc8
 80016d8:	817b      	strh	r3, [r7, #10]
		servo = PWMTimeI;
 80016da:	4a1b      	ldr	r2, [pc, #108]	; (8001748 <percentageToPWMvoid+0x290>)
 80016dc:	897b      	ldrh	r3, [r7, #10]
 80016de:	63d3      	str	r3, [r2, #60]	; 0x3c
		payload.Servo = PWMTimeI;
 80016e0:	f9b7 200a 	ldrsh.w	r2, [r7, #10]
 80016e4:	4b19      	ldr	r3, [pc, #100]	; (800174c <percentageToPWMvoid+0x294>)
 80016e6:	859a      	strh	r2, [r3, #44]	; 0x2c
		servo = PWMTimeI; 										//Servo
		payload.Servo = PWMTimeI;
	}


}
 80016e8:	e013      	b.n	8001712 <percentageToPWMvoid+0x25a>
	else if(PWMTimeI < 100)
 80016ea:	897b      	ldrh	r3, [r7, #10]
 80016ec:	2b63      	cmp	r3, #99	; 0x63
 80016ee:	d809      	bhi.n	8001704 <percentageToPWMvoid+0x24c>
		PWMTimeI = 100;
 80016f0:	2364      	movs	r3, #100	; 0x64
 80016f2:	817b      	strh	r3, [r7, #10]
		servo = PWMTimeI;
 80016f4:	4a14      	ldr	r2, [pc, #80]	; (8001748 <percentageToPWMvoid+0x290>)
 80016f6:	897b      	ldrh	r3, [r7, #10]
 80016f8:	63d3      	str	r3, [r2, #60]	; 0x3c
		payload.Servo = PWMTimeI;
 80016fa:	f9b7 200a 	ldrsh.w	r2, [r7, #10]
 80016fe:	4b13      	ldr	r3, [pc, #76]	; (800174c <percentageToPWMvoid+0x294>)
 8001700:	859a      	strh	r2, [r3, #44]	; 0x2c
}
 8001702:	e006      	b.n	8001712 <percentageToPWMvoid+0x25a>
		servo = PWMTimeI; 										//Servo
 8001704:	4a10      	ldr	r2, [pc, #64]	; (8001748 <percentageToPWMvoid+0x290>)
 8001706:	897b      	ldrh	r3, [r7, #10]
 8001708:	63d3      	str	r3, [r2, #60]	; 0x3c
		payload.Servo = PWMTimeI;
 800170a:	f9b7 200a 	ldrsh.w	r2, [r7, #10]
 800170e:	4b0f      	ldr	r3, [pc, #60]	; (800174c <percentageToPWMvoid+0x294>)
 8001710:	859a      	strh	r2, [r3, #44]	; 0x2c
}
 8001712:	bf00      	nop
 8001714:	3710      	adds	r7, #16
 8001716:	46bd      	mov	sp, r7
 8001718:	e8bd 83b0 	ldmia.w	sp!, {r4, r5, r7, r8, r9, pc}
 800171c:	f3af 8000 	nop.w
 8001720:	00000000 	.word	0x00000000
 8001724:	4062c000 	.word	0x4062c000
 8001728:	3fe00000 	.word	0x3fe00000
 800172c:	20000010 	.word	0x20000010
 8001730:	42c80000 	.word	0x42c80000
 8001734:	42c80000 	.word	0x42c80000
 8001738:	c2c80000 	.word	0xc2c80000
 800173c:	c2c80000 	.word	0xc2c80000
 8001740:	2000066c 	.word	0x2000066c
 8001744:	409f4000 	.word	0x409f4000
 8001748:	40000c00 	.word	0x40000c00
 800174c:	2000061c 	.word	0x2000061c

08001750 <engineMode>:
	int16_t PWMTimeI = (int16_t)PWMTimeF;
	return PWMTimeI;
}

void engineMode(uint8_t engineMode)
{
 8001750:	b590      	push	{r4, r7, lr}
 8001752:	b083      	sub	sp, #12
 8001754:	af00      	add	r7, sp, #0
 8001756:	4603      	mov	r3, r0
 8001758:	71fb      	strb	r3, [r7, #7]
	switch(engineMode)
 800175a:	79fb      	ldrb	r3, [r7, #7]
 800175c:	2b05      	cmp	r3, #5
 800175e:	d85d      	bhi.n	800181c <engineMode+0xcc>
 8001760:	a201      	add	r2, pc, #4	; (adr r2, 8001768 <engineMode+0x18>)
 8001762:	f852 f023 	ldr.w	pc, [r2, r3, lsl #2]
 8001766:	bf00      	nop
 8001768:	08001781 	.word	0x08001781
 800176c:	080017d7 	.word	0x080017d7
 8001770:	080017e5 	.word	0x080017e5
 8001774:	080017f3 	.word	0x080017f3
 8001778:	0800180f 	.word	0x0800180f
 800177c:	08001801 	.word	0x08001801
	{
		case forward:
			{
				rightEngine= PWMPeriod*enginePowerLimit.enginePowerLimitRight; //links
 8001780:	4b28      	ldr	r3, [pc, #160]	; (8001824 <engineMode+0xd4>)
 8001782:	689b      	ldr	r3, [r3, #8]
 8001784:	4618      	mov	r0, r3
 8001786:	f7fe feff 	bl	8000588 <__aeabi_f2d>
 800178a:	f04f 0200 	mov.w	r2, #0
 800178e:	4b26      	ldr	r3, [pc, #152]	; (8001828 <engineMode+0xd8>)
 8001790:	f7fe ff52 	bl	8000638 <__aeabi_dmul>
 8001794:	4603      	mov	r3, r0
 8001796:	460c      	mov	r4, r1
 8001798:	461a      	mov	r2, r3
 800179a:	4623      	mov	r3, r4
 800179c:	4c23      	ldr	r4, [pc, #140]	; (800182c <engineMode+0xdc>)
 800179e:	4610      	mov	r0, r2
 80017a0:	4619      	mov	r1, r3
 80017a2:	f7ff fa21 	bl	8000be8 <__aeabi_d2uiz>
 80017a6:	4603      	mov	r3, r0
 80017a8:	63a3      	str	r3, [r4, #56]	; 0x38
				leftEngine= PWMPeriod*enginePowerLimit.enginePowerLimitLeft; //rechts
 80017aa:	4b1e      	ldr	r3, [pc, #120]	; (8001824 <engineMode+0xd4>)
 80017ac:	681b      	ldr	r3, [r3, #0]
 80017ae:	4618      	mov	r0, r3
 80017b0:	f7fe feea 	bl	8000588 <__aeabi_f2d>
 80017b4:	f04f 0200 	mov.w	r2, #0
 80017b8:	4b1b      	ldr	r3, [pc, #108]	; (8001828 <engineMode+0xd8>)
 80017ba:	f7fe ff3d 	bl	8000638 <__aeabi_dmul>
 80017be:	4603      	mov	r3, r0
 80017c0:	460c      	mov	r4, r1
 80017c2:	461a      	mov	r2, r3
 80017c4:	4623      	mov	r3, r4
 80017c6:	4c19      	ldr	r4, [pc, #100]	; (800182c <engineMode+0xdc>)
 80017c8:	4610      	mov	r0, r2
 80017ca:	4619      	mov	r1, r3
 80017cc:	f7ff fa0c 	bl	8000be8 <__aeabi_d2uiz>
 80017d0:	4603      	mov	r3, r0
 80017d2:	6363      	str	r3, [r4, #52]	; 0x34
			}
		break;
 80017d4:	e022      	b.n	800181c <engineMode+0xcc>
		case forwardHalfThrottle:
			{
				rightEngine= PWMPeriod*0.0625; //links
 80017d6:	4b15      	ldr	r3, [pc, #84]	; (800182c <engineMode+0xdc>)
 80017d8:	227d      	movs	r2, #125	; 0x7d
 80017da:	639a      	str	r2, [r3, #56]	; 0x38
				leftEngine= PWMPeriod*0.0625; //rechts
 80017dc:	4b13      	ldr	r3, [pc, #76]	; (800182c <engineMode+0xdc>)
 80017de:	227d      	movs	r2, #125	; 0x7d
 80017e0:	635a      	str	r2, [r3, #52]	; 0x34
			}
		break;
 80017e2:	e01b      	b.n	800181c <engineMode+0xcc>
		case off:
		{
				rightEngine= PWMPeriod*0.075;
 80017e4:	4b11      	ldr	r3, [pc, #68]	; (800182c <engineMode+0xdc>)
 80017e6:	2296      	movs	r2, #150	; 0x96
 80017e8:	639a      	str	r2, [r3, #56]	; 0x38
				leftEngine= PWMPeriod*0.075;
 80017ea:	4b10      	ldr	r3, [pc, #64]	; (800182c <engineMode+0xdc>)
 80017ec:	2296      	movs	r2, #150	; 0x96
 80017ee:	635a      	str	r2, [r3, #52]	; 0x34
		}
		break;
 80017f0:	e014      	b.n	800181c <engineMode+0xcc>
		case backward:
		{
				rightEngine= PWMPeriod*0.1;
 80017f2:	4b0e      	ldr	r3, [pc, #56]	; (800182c <engineMode+0xdc>)
 80017f4:	22c8      	movs	r2, #200	; 0xc8
 80017f6:	639a      	str	r2, [r3, #56]	; 0x38
				leftEngine= PWMPeriod*0.1;
 80017f8:	4b0c      	ldr	r3, [pc, #48]	; (800182c <engineMode+0xdc>)
 80017fa:	22c8      	movs	r2, #200	; 0xc8
 80017fc:	635a      	str	r2, [r3, #52]	; 0x34
		}
				break;
 80017fe:	e00d      	b.n	800181c <engineMode+0xcc>
		case leftTurn:								//Debug case
		{
			rightEngine= PWMPeriod*0.075;
 8001800:	4b0a      	ldr	r3, [pc, #40]	; (800182c <engineMode+0xdc>)
 8001802:	2296      	movs	r2, #150	; 0x96
 8001804:	639a      	str	r2, [r3, #56]	; 0x38
			leftEngine= PWMPeriod*0.1;
 8001806:	4b09      	ldr	r3, [pc, #36]	; (800182c <engineMode+0xdc>)
 8001808:	22c8      	movs	r2, #200	; 0xc8
 800180a:	635a      	str	r2, [r3, #52]	; 0x34
		}
		break;
 800180c:	e006      	b.n	800181c <engineMode+0xcc>
		case rightTurn:								//Debug case
		{
			rightEngine= PWMPeriod*0.1;
 800180e:	4b07      	ldr	r3, [pc, #28]	; (800182c <engineMode+0xdc>)
 8001810:	22c8      	movs	r2, #200	; 0xc8
 8001812:	639a      	str	r2, [r3, #56]	; 0x38
			leftEngine= PWMPeriod*0.075;
 8001814:	4b05      	ldr	r3, [pc, #20]	; (800182c <engineMode+0xdc>)
 8001816:	2296      	movs	r2, #150	; 0x96
 8001818:	635a      	str	r2, [r3, #52]	; 0x34
		}
		break;
 800181a:	bf00      	nop
	}
}
 800181c:	bf00      	nop
 800181e:	370c      	adds	r7, #12
 8001820:	46bd      	mov	sp, r7
 8001822:	bd90      	pop	{r4, r7, pc}
 8001824:	2000066c 	.word	0x2000066c
 8001828:	409f4000 	.word	0x409f4000
 800182c:	40000c00 	.word	0x40000c00

08001830 <defineEnginePower>:

void defineEnginePower(int8_t percentageRight, int8_t percentageLeft)
{
 8001830:	b590      	push	{r4, r7, lr}
 8001832:	b083      	sub	sp, #12
 8001834:	af00      	add	r7, sp, #0
 8001836:	4603      	mov	r3, r0
 8001838:	460a      	mov	r2, r1
 800183a:	71fb      	strb	r3, [r7, #7]
 800183c:	4613      	mov	r3, r2
 800183e:	71bb      	strb	r3, [r7, #6]
	enginePowerLimit.enginePowerLimitRight = (percentageRight * -0.00025) + 0.075;
 8001840:	f997 3007 	ldrsb.w	r3, [r7, #7]
 8001844:	4618      	mov	r0, r3
 8001846:	f7fe fe8d 	bl	8000564 <__aeabi_i2d>
 800184a:	a343      	add	r3, pc, #268	; (adr r3, 8001958 <defineEnginePower+0x128>)
 800184c:	e9d3 2300 	ldrd	r2, r3, [r3]
 8001850:	f7fe fef2 	bl	8000638 <__aeabi_dmul>
 8001854:	4603      	mov	r3, r0
 8001856:	460c      	mov	r4, r1
 8001858:	4618      	mov	r0, r3
 800185a:	4621      	mov	r1, r4
 800185c:	f04f 3233 	mov.w	r2, #858993459	; 0x33333333
 8001860:	4b3f      	ldr	r3, [pc, #252]	; (8001960 <defineEnginePower+0x130>)
 8001862:	f7fe fd33 	bl	80002cc <__adddf3>
 8001866:	4603      	mov	r3, r0
 8001868:	460c      	mov	r4, r1
 800186a:	4618      	mov	r0, r3
 800186c:	4621      	mov	r1, r4
 800186e:	f7ff f9db 	bl	8000c28 <__aeabi_d2f>
 8001872:	4602      	mov	r2, r0
 8001874:	4b3b      	ldr	r3, [pc, #236]	; (8001964 <defineEnginePower+0x134>)
 8001876:	609a      	str	r2, [r3, #8]
	enginePowerLimit.engineDivideFactorRight = (150-(enginePowerLimit.enginePowerLimitRight*PWMPeriod))/100;
 8001878:	4b3a      	ldr	r3, [pc, #232]	; (8001964 <defineEnginePower+0x134>)
 800187a:	689b      	ldr	r3, [r3, #8]
 800187c:	4618      	mov	r0, r3
 800187e:	f7fe fe83 	bl	8000588 <__aeabi_f2d>
 8001882:	f04f 0200 	mov.w	r2, #0
 8001886:	4b38      	ldr	r3, [pc, #224]	; (8001968 <defineEnginePower+0x138>)
 8001888:	f7fe fed6 	bl	8000638 <__aeabi_dmul>
 800188c:	4603      	mov	r3, r0
 800188e:	460c      	mov	r4, r1
 8001890:	461a      	mov	r2, r3
 8001892:	4623      	mov	r3, r4
 8001894:	a12e      	add	r1, pc, #184	; (adr r1, 8001950 <defineEnginePower+0x120>)
 8001896:	e9d1 0100 	ldrd	r0, r1, [r1]
 800189a:	f7fe fd15 	bl	80002c8 <__aeabi_dsub>
 800189e:	4603      	mov	r3, r0
 80018a0:	460c      	mov	r4, r1
 80018a2:	4618      	mov	r0, r3
 80018a4:	4621      	mov	r1, r4
 80018a6:	f04f 0200 	mov.w	r2, #0
 80018aa:	4b30      	ldr	r3, [pc, #192]	; (800196c <defineEnginePower+0x13c>)
 80018ac:	f7fe ffee 	bl	800088c <__aeabi_ddiv>
 80018b0:	4603      	mov	r3, r0
 80018b2:	460c      	mov	r4, r1
 80018b4:	4618      	mov	r0, r3
 80018b6:	4621      	mov	r1, r4
 80018b8:	f7ff f9b6 	bl	8000c28 <__aeabi_d2f>
 80018bc:	4602      	mov	r2, r0
 80018be:	4b29      	ldr	r3, [pc, #164]	; (8001964 <defineEnginePower+0x134>)
 80018c0:	60da      	str	r2, [r3, #12]

	enginePowerLimit.enginePowerLimitLeft = (percentageLeft * -0.00025) + 0.075;
 80018c2:	f997 3006 	ldrsb.w	r3, [r7, #6]
 80018c6:	4618      	mov	r0, r3
 80018c8:	f7fe fe4c 	bl	8000564 <__aeabi_i2d>
 80018cc:	a322      	add	r3, pc, #136	; (adr r3, 8001958 <defineEnginePower+0x128>)
 80018ce:	e9d3 2300 	ldrd	r2, r3, [r3]
 80018d2:	f7fe feb1 	bl	8000638 <__aeabi_dmul>
 80018d6:	4603      	mov	r3, r0
 80018d8:	460c      	mov	r4, r1
 80018da:	4618      	mov	r0, r3
 80018dc:	4621      	mov	r1, r4
 80018de:	f04f 3233 	mov.w	r2, #858993459	; 0x33333333
 80018e2:	4b1f      	ldr	r3, [pc, #124]	; (8001960 <defineEnginePower+0x130>)
 80018e4:	f7fe fcf2 	bl	80002cc <__adddf3>
 80018e8:	4603      	mov	r3, r0
 80018ea:	460c      	mov	r4, r1
 80018ec:	4618      	mov	r0, r3
 80018ee:	4621      	mov	r1, r4
 80018f0:	f7ff f99a 	bl	8000c28 <__aeabi_d2f>
 80018f4:	4602      	mov	r2, r0
 80018f6:	4b1b      	ldr	r3, [pc, #108]	; (8001964 <defineEnginePower+0x134>)
 80018f8:	601a      	str	r2, [r3, #0]
	enginePowerLimit.engineDivideFactorLeft = (150-(enginePowerLimit.enginePowerLimitLeft*PWMPeriod))/100;
 80018fa:	4b1a      	ldr	r3, [pc, #104]	; (8001964 <defineEnginePower+0x134>)
 80018fc:	681b      	ldr	r3, [r3, #0]
 80018fe:	4618      	mov	r0, r3
 8001900:	f7fe fe42 	bl	8000588 <__aeabi_f2d>
 8001904:	f04f 0200 	mov.w	r2, #0
 8001908:	4b17      	ldr	r3, [pc, #92]	; (8001968 <defineEnginePower+0x138>)
 800190a:	f7fe fe95 	bl	8000638 <__aeabi_dmul>
 800190e:	4603      	mov	r3, r0
 8001910:	460c      	mov	r4, r1
 8001912:	461a      	mov	r2, r3
 8001914:	4623      	mov	r3, r4
 8001916:	a10e      	add	r1, pc, #56	; (adr r1, 8001950 <defineEnginePower+0x120>)
 8001918:	e9d1 0100 	ldrd	r0, r1, [r1]
 800191c:	f7fe fcd4 	bl	80002c8 <__aeabi_dsub>
 8001920:	4603      	mov	r3, r0
 8001922:	460c      	mov	r4, r1
 8001924:	4618      	mov	r0, r3
 8001926:	4621      	mov	r1, r4
 8001928:	f04f 0200 	mov.w	r2, #0
 800192c:	4b0f      	ldr	r3, [pc, #60]	; (800196c <defineEnginePower+0x13c>)
 800192e:	f7fe ffad 	bl	800088c <__aeabi_ddiv>
 8001932:	4603      	mov	r3, r0
 8001934:	460c      	mov	r4, r1
 8001936:	4618      	mov	r0, r3
 8001938:	4621      	mov	r1, r4
 800193a:	f7ff f975 	bl	8000c28 <__aeabi_d2f>
 800193e:	4602      	mov	r2, r0
 8001940:	4b08      	ldr	r3, [pc, #32]	; (8001964 <defineEnginePower+0x134>)
 8001942:	605a      	str	r2, [r3, #4]
}
 8001944:	bf00      	nop
 8001946:	370c      	adds	r7, #12
 8001948:	46bd      	mov	sp, r7
 800194a:	bd90      	pop	{r4, r7, pc}
 800194c:	f3af 8000 	nop.w
 8001950:	00000000 	.word	0x00000000
 8001954:	4062c000 	.word	0x4062c000
 8001958:	d2f1a9fc 	.word	0xd2f1a9fc
 800195c:	bf30624d 	.word	0xbf30624d
 8001960:	3fb33333 	.word	0x3fb33333
 8001964:	2000066c 	.word	0x2000066c
 8001968:	409f4000 	.word	0x409f4000
 800196c:	40590000 	.word	0x40590000

08001970 <initEngine>:

void initEngine()
{
 8001970:	b580      	push	{r7, lr}
 8001972:	af00      	add	r7, sp, #0
	defineEnginePower(70, 100);
 8001974:	2164      	movs	r1, #100	; 0x64
 8001976:	2046      	movs	r0, #70	; 0x46
 8001978:	f7ff ff5a 	bl	8001830 <defineEnginePower>
	rightEngine = 150; //links
 800197c:	4b12      	ldr	r3, [pc, #72]	; (80019c8 <initEngine+0x58>)
 800197e:	2296      	movs	r2, #150	; 0x96
 8001980:	639a      	str	r2, [r3, #56]	; 0x38
	leftEngine = 150; //rechts
 8001982:	4b11      	ldr	r3, [pc, #68]	; (80019c8 <initEngine+0x58>)
 8001984:	2296      	movs	r2, #150	; 0x96
 8001986:	635a      	str	r2, [r3, #52]	; 0x34
	servo = 150; //Servo
 8001988:	4b0f      	ldr	r3, [pc, #60]	; (80019c8 <initEngine+0x58>)
 800198a:	2296      	movs	r2, #150	; 0x96
 800198c:	63da      	str	r2, [r3, #60]	; 0x3c
	payload.MotorL = leftEngine;
 800198e:	4b0e      	ldr	r3, [pc, #56]	; (80019c8 <initEngine+0x58>)
 8001990:	6b5b      	ldr	r3, [r3, #52]	; 0x34
 8001992:	ee07 3a90 	vmov	s15, r3
 8001996:	eef8 7a67 	vcvt.f32.u32	s15, s15
 800199a:	4b0c      	ldr	r3, [pc, #48]	; (80019cc <initEngine+0x5c>)
 800199c:	edc3 7a09 	vstr	s15, [r3, #36]	; 0x24
	payload.MotorR = rightEngine;
 80019a0:	4b09      	ldr	r3, [pc, #36]	; (80019c8 <initEngine+0x58>)
 80019a2:	6b9b      	ldr	r3, [r3, #56]	; 0x38
 80019a4:	ee07 3a90 	vmov	s15, r3
 80019a8:	eef8 7a67 	vcvt.f32.u32	s15, s15
 80019ac:	4b07      	ldr	r3, [pc, #28]	; (80019cc <initEngine+0x5c>)
 80019ae:	edc3 7a0a 	vstr	s15, [r3, #40]	; 0x28
	payload.Servo = servo;
 80019b2:	4b05      	ldr	r3, [pc, #20]	; (80019c8 <initEngine+0x58>)
 80019b4:	6bdb      	ldr	r3, [r3, #60]	; 0x3c
 80019b6:	b21a      	sxth	r2, r3
 80019b8:	4b04      	ldr	r3, [pc, #16]	; (80019cc <initEngine+0x5c>)
 80019ba:	859a      	strh	r2, [r3, #44]	; 0x2c
	HAL_Delay(2000);
 80019bc:	f44f 60fa 	mov.w	r0, #2000	; 0x7d0
 80019c0:	f002 f93c 	bl	8003c3c <HAL_Delay>
}
 80019c4:	bf00      	nop
 80019c6:	bd80      	pop	{r7, pc}
 80019c8:	40000c00 	.word	0x40000c00
 80019cc:	2000061c 	.word	0x2000061c

080019d0 <MX_TIM5_Init>:
 */

#include "PID_init.h"

void MX_TIM5_Init(void)
{
 80019d0:	b580      	push	{r7, lr}
 80019d2:	b08e      	sub	sp, #56	; 0x38
 80019d4:	af00      	add	r7, sp, #0

  /* USER CODE BEGIN TIM5_Init 0 */

  /* USER CODE END TIM5_Init 0 */

  TIM_ClockConfigTypeDef sClockSourceConfig = {0};
 80019d6:	f107 0328 	add.w	r3, r7, #40	; 0x28
 80019da:	2200      	movs	r2, #0
 80019dc:	601a      	str	r2, [r3, #0]
 80019de:	605a      	str	r2, [r3, #4]
 80019e0:	609a      	str	r2, [r3, #8]
 80019e2:	60da      	str	r2, [r3, #12]
  TIM_MasterConfigTypeDef sMasterConfig = {0};
 80019e4:	f107 0320 	add.w	r3, r7, #32
 80019e8:	2200      	movs	r2, #0
 80019ea:	601a      	str	r2, [r3, #0]
 80019ec:	605a      	str	r2, [r3, #4]
  TIM_OC_InitTypeDef sConfigOC = {0};
 80019ee:	1d3b      	adds	r3, r7, #4
 80019f0:	2200      	movs	r2, #0
 80019f2:	601a      	str	r2, [r3, #0]
 80019f4:	605a      	str	r2, [r3, #4]
 80019f6:	609a      	str	r2, [r3, #8]
 80019f8:	60da      	str	r2, [r3, #12]
 80019fa:	611a      	str	r2, [r3, #16]
 80019fc:	615a      	str	r2, [r3, #20]
 80019fe:	619a      	str	r2, [r3, #24]

  /* USER CODE BEGIN TIM5_Init 1 */

  /* USER CODE END TIM5_Init 1 */
  htim5.Instance = TIM5;
 8001a00:	4b3b      	ldr	r3, [pc, #236]	; (8001af0 <MX_TIM5_Init+0x120>)
 8001a02:	4a3c      	ldr	r2, [pc, #240]	; (8001af4 <MX_TIM5_Init+0x124>)
 8001a04:	601a      	str	r2, [r3, #0]
  htim5.Init.Prescaler = 1000;
 8001a06:	4b3a      	ldr	r3, [pc, #232]	; (8001af0 <MX_TIM5_Init+0x120>)
 8001a08:	f44f 727a 	mov.w	r2, #1000	; 0x3e8
 8001a0c:	605a      	str	r2, [r3, #4]
  htim5.Init.CounterMode = TIM_COUNTERMODE_UP;
 8001a0e:	4b38      	ldr	r3, [pc, #224]	; (8001af0 <MX_TIM5_Init+0x120>)
 8001a10:	2200      	movs	r2, #0
 8001a12:	609a      	str	r2, [r3, #8]
  htim5.Init.Period = 1998;
 8001a14:	4b36      	ldr	r3, [pc, #216]	; (8001af0 <MX_TIM5_Init+0x120>)
 8001a16:	f240 72ce 	movw	r2, #1998	; 0x7ce
 8001a1a:	60da      	str	r2, [r3, #12]
  htim5.Init.ClockDivision = TIM_CLOCKDIVISION_DIV1;
 8001a1c:	4b34      	ldr	r3, [pc, #208]	; (8001af0 <MX_TIM5_Init+0x120>)
 8001a1e:	2200      	movs	r2, #0
 8001a20:	611a      	str	r2, [r3, #16]
  htim5.Init.AutoReloadPreload = TIM_AUTORELOAD_PRELOAD_ENABLE;
 8001a22:	4b33      	ldr	r3, [pc, #204]	; (8001af0 <MX_TIM5_Init+0x120>)
 8001a24:	2280      	movs	r2, #128	; 0x80
 8001a26:	619a      	str	r2, [r3, #24]
  if (HAL_TIM_Base_Init(&htim5) != HAL_OK)
 8001a28:	4831      	ldr	r0, [pc, #196]	; (8001af0 <MX_TIM5_Init+0x120>)
 8001a2a:	f003 fbf3 	bl	8005214 <HAL_TIM_Base_Init>
 8001a2e:	4603      	mov	r3, r0
 8001a30:	2b00      	cmp	r3, #0
 8001a32:	d001      	beq.n	8001a38 <MX_TIM5_Init+0x68>
  {
    Error_Handler();
 8001a34:	f001 f8b9 	bl	8002baa <Error_Handler>
  }
  sClockSourceConfig.ClockSource = TIM_CLOCKSOURCE_INTERNAL;
 8001a38:	f44f 5380 	mov.w	r3, #4096	; 0x1000
 8001a3c:	62bb      	str	r3, [r7, #40]	; 0x28
  if (HAL_TIM_ConfigClockSource(&htim5, &sClockSourceConfig) != HAL_OK)
 8001a3e:	f107 0328 	add.w	r3, r7, #40	; 0x28
 8001a42:	4619      	mov	r1, r3
 8001a44:	482a      	ldr	r0, [pc, #168]	; (8001af0 <MX_TIM5_Init+0x120>)
 8001a46:	f003 fe8d 	bl	8005764 <HAL_TIM_ConfigClockSource>
 8001a4a:	4603      	mov	r3, r0
 8001a4c:	2b00      	cmp	r3, #0
 8001a4e:	d001      	beq.n	8001a54 <MX_TIM5_Init+0x84>
  {
    Error_Handler();
 8001a50:	f001 f8ab 	bl	8002baa <Error_Handler>
  }
  if (HAL_TIM_PWM_Init(&htim5) != HAL_OK)
 8001a54:	4826      	ldr	r0, [pc, #152]	; (8001af0 <MX_TIM5_Init+0x120>)
 8001a56:	f003 fc50 	bl	80052fa <HAL_TIM_PWM_Init>
 8001a5a:	4603      	mov	r3, r0
 8001a5c:	2b00      	cmp	r3, #0
 8001a5e:	d001      	beq.n	8001a64 <MX_TIM5_Init+0x94>
  {
    Error_Handler();
 8001a60:	f001 f8a3 	bl	8002baa <Error_Handler>
  }
  sMasterConfig.MasterOutputTrigger = TIM_TRGO_RESET;
 8001a64:	2300      	movs	r3, #0
 8001a66:	623b      	str	r3, [r7, #32]
  sMasterConfig.MasterSlaveMode = TIM_MASTERSLAVEMODE_DISABLE;
 8001a68:	2300      	movs	r3, #0
 8001a6a:	627b      	str	r3, [r7, #36]	; 0x24
  if (HAL_TIMEx_MasterConfigSynchronization(&htim5, &sMasterConfig) != HAL_OK)
 8001a6c:	f107 0320 	add.w	r3, r7, #32
 8001a70:	4619      	mov	r1, r3
 8001a72:	481f      	ldr	r0, [pc, #124]	; (8001af0 <MX_TIM5_Init+0x120>)
 8001a74:	f004 fa0a 	bl	8005e8c <HAL_TIMEx_MasterConfigSynchronization>
 8001a78:	4603      	mov	r3, r0
 8001a7a:	2b00      	cmp	r3, #0
 8001a7c:	d001      	beq.n	8001a82 <MX_TIM5_Init+0xb2>
  {
    Error_Handler();
 8001a7e:	f001 f894 	bl	8002baa <Error_Handler>
  }
  sConfigOC.OCMode = TIM_OCMODE_PWM1;
 8001a82:	2360      	movs	r3, #96	; 0x60
 8001a84:	607b      	str	r3, [r7, #4]
  sConfigOC.Pulse = 500;
 8001a86:	f44f 73fa 	mov.w	r3, #500	; 0x1f4
 8001a8a:	60bb      	str	r3, [r7, #8]
  sConfigOC.OCPolarity = TIM_OCPOLARITY_HIGH;
 8001a8c:	2300      	movs	r3, #0
 8001a8e:	60fb      	str	r3, [r7, #12]
  sConfigOC.OCFastMode = TIM_OCFAST_DISABLE;
 8001a90:	2300      	movs	r3, #0
 8001a92:	617b      	str	r3, [r7, #20]
  if (HAL_TIM_PWM_ConfigChannel(&htim5, &sConfigOC, TIM_CHANNEL_1) != HAL_OK)
 8001a94:	1d3b      	adds	r3, r7, #4
 8001a96:	2200      	movs	r2, #0
 8001a98:	4619      	mov	r1, r3
 8001a9a:	4815      	ldr	r0, [pc, #84]	; (8001af0 <MX_TIM5_Init+0x120>)
 8001a9c:	f003 fd9c 	bl	80055d8 <HAL_TIM_PWM_ConfigChannel>
 8001aa0:	4603      	mov	r3, r0
 8001aa2:	2b00      	cmp	r3, #0
 8001aa4:	d001      	beq.n	8001aaa <MX_TIM5_Init+0xda>
  {
    Error_Handler();
 8001aa6:	f001 f880 	bl	8002baa <Error_Handler>
  }
  sConfigOC.Pulse = 250;
 8001aaa:	23fa      	movs	r3, #250	; 0xfa
 8001aac:	60bb      	str	r3, [r7, #8]
  if (HAL_TIM_PWM_ConfigChannel(&htim5, &sConfigOC, TIM_CHANNEL_2) != HAL_OK)
 8001aae:	1d3b      	adds	r3, r7, #4
 8001ab0:	2204      	movs	r2, #4
 8001ab2:	4619      	mov	r1, r3
 8001ab4:	480e      	ldr	r0, [pc, #56]	; (8001af0 <MX_TIM5_Init+0x120>)
 8001ab6:	f003 fd8f 	bl	80055d8 <HAL_TIM_PWM_ConfigChannel>
 8001aba:	4603      	mov	r3, r0
 8001abc:	2b00      	cmp	r3, #0
 8001abe:	d001      	beq.n	8001ac4 <MX_TIM5_Init+0xf4>
  {
    Error_Handler();
 8001ac0:	f001 f873 	bl	8002baa <Error_Handler>
  }
  sConfigOC.Pulse = 1000;
 8001ac4:	f44f 737a 	mov.w	r3, #1000	; 0x3e8
 8001ac8:	60bb      	str	r3, [r7, #8]
  if (HAL_TIM_PWM_ConfigChannel(&htim5, &sConfigOC, TIM_CHANNEL_3) != HAL_OK)
 8001aca:	1d3b      	adds	r3, r7, #4
 8001acc:	2208      	movs	r2, #8
 8001ace:	4619      	mov	r1, r3
 8001ad0:	4807      	ldr	r0, [pc, #28]	; (8001af0 <MX_TIM5_Init+0x120>)
 8001ad2:	f003 fd81 	bl	80055d8 <HAL_TIM_PWM_ConfigChannel>
 8001ad6:	4603      	mov	r3, r0
 8001ad8:	2b00      	cmp	r3, #0
 8001ada:	d001      	beq.n	8001ae0 <MX_TIM5_Init+0x110>
  {
    Error_Handler();
 8001adc:	f001 f865 	bl	8002baa <Error_Handler>
  }
  /* USER CODE BEGIN TIM5_Init 2 */

  /* USER CODE END TIM5_Init 2 */
  HAL_TIM_MspPostInit(&htim5);
 8001ae0:	4803      	ldr	r0, [pc, #12]	; (8001af0 <MX_TIM5_Init+0x120>)
 8001ae2:	f001 fde1 	bl	80036a8 <HAL_TIM_MspPostInit>

}
 8001ae6:	bf00      	nop
 8001ae8:	3738      	adds	r7, #56	; 0x38
 8001aea:	46bd      	mov	sp, r7
 8001aec:	bd80      	pop	{r7, pc}
 8001aee:	bf00      	nop
 8001af0:	20000748 	.word	0x20000748
 8001af4:	40000c00 	.word	0x40000c00

08001af8 <PID_init>:

void PID_init(void) {
 8001af8:	b580      	push	{r7, lr}
 8001afa:	af00      	add	r7, sp, #0
	MX_TIM5_Init();
 8001afc:	f7ff ff68 	bl	80019d0 <MX_TIM5_Init>

	HAL_TIM_PWM_Start(&htim5, TIM_CHANNEL_1); //Rechts
 8001b00:	2100      	movs	r1, #0
 8001b02:	480a      	ldr	r0, [pc, #40]	; (8001b2c <PID_init+0x34>)
 8001b04:	f003 fc2e 	bl	8005364 <HAL_TIM_PWM_Start>
	HAL_TIM_PWM_Start(&htim5, TIM_CHANNEL_2); //Links
 8001b08:	2104      	movs	r1, #4
 8001b0a:	4808      	ldr	r0, [pc, #32]	; (8001b2c <PID_init+0x34>)
 8001b0c:	f003 fc2a 	bl	8005364 <HAL_TIM_PWM_Start>
	HAL_TIM_PWM_Start(&htim5, TIM_CHANNEL_3); //Servo
 8001b10:	2108      	movs	r1, #8
 8001b12:	4806      	ldr	r0, [pc, #24]	; (8001b2c <PID_init+0x34>)
 8001b14:	f003 fc26 	bl	8005364 <HAL_TIM_PWM_Start>

	//TIM5->CCR1= 0;
	TIM5->CCR2 = 1000;
 8001b18:	4b05      	ldr	r3, [pc, #20]	; (8001b30 <PID_init+0x38>)
 8001b1a:	f44f 727a 	mov.w	r2, #1000	; 0x3e8
 8001b1e:	639a      	str	r2, [r3, #56]	; 0x38
	TIM5->CCR3 = 1000;
 8001b20:	4b03      	ldr	r3, [pc, #12]	; (8001b30 <PID_init+0x38>)
 8001b22:	f44f 727a 	mov.w	r2, #1000	; 0x3e8
 8001b26:	63da      	str	r2, [r3, #60]	; 0x3c
}
 8001b28:	bf00      	nop
 8001b2a:	bd80      	pop	{r7, pc}
 8001b2c:	20000748 	.word	0x20000748
 8001b30:	40000c00 	.word	0x40000c00

08001b34 <SX1278_hw_init>:

//////////////////////////////////
// logic
//////////////////////////////////

__weak void SX1278_hw_init(SX1278_hw_t * hw) {
 8001b34:	b580      	push	{r7, lr}
 8001b36:	b082      	sub	sp, #8
 8001b38:	af00      	add	r7, sp, #0
 8001b3a:	6078      	str	r0, [r7, #4]
	SX1278_hw_SetNSS(hw, 1);
 8001b3c:	2101      	movs	r1, #1
 8001b3e:	6878      	ldr	r0, [r7, #4]
 8001b40:	f000 f80d 	bl	8001b5e <SX1278_hw_SetNSS>
	HAL_GPIO_WritePin(hw->reset.port, hw->reset.pin, GPIO_PIN_SET);
 8001b44:	687b      	ldr	r3, [r7, #4]
 8001b46:	6858      	ldr	r0, [r3, #4]
 8001b48:	687b      	ldr	r3, [r7, #4]
 8001b4a:	681b      	ldr	r3, [r3, #0]
 8001b4c:	b29b      	uxth	r3, r3
 8001b4e:	2201      	movs	r2, #1
 8001b50:	4619      	mov	r1, r3
 8001b52:	f002 fb29 	bl	80041a8 <HAL_GPIO_WritePin>
}
 8001b56:	bf00      	nop
 8001b58:	3708      	adds	r7, #8
 8001b5a:	46bd      	mov	sp, r7
 8001b5c:	bd80      	pop	{r7, pc}

08001b5e <SX1278_hw_SetNSS>:

__weak void SX1278_hw_SetNSS(SX1278_hw_t * hw, int value) {
 8001b5e:	b580      	push	{r7, lr}
 8001b60:	b082      	sub	sp, #8
 8001b62:	af00      	add	r7, sp, #0
 8001b64:	6078      	str	r0, [r7, #4]
 8001b66:	6039      	str	r1, [r7, #0]
	HAL_GPIO_WritePin(hw->nss.port, hw->nss.pin,
 8001b68:	687b      	ldr	r3, [r7, #4]
 8001b6a:	6958      	ldr	r0, [r3, #20]
 8001b6c:	687b      	ldr	r3, [r7, #4]
 8001b6e:	691b      	ldr	r3, [r3, #16]
 8001b70:	b299      	uxth	r1, r3
 8001b72:	683b      	ldr	r3, [r7, #0]
 8001b74:	2b01      	cmp	r3, #1
 8001b76:	bf0c      	ite	eq
 8001b78:	2301      	moveq	r3, #1
 8001b7a:	2300      	movne	r3, #0
 8001b7c:	b2db      	uxtb	r3, r3
 8001b7e:	461a      	mov	r2, r3
 8001b80:	f002 fb12 	bl	80041a8 <HAL_GPIO_WritePin>
			(value == 1) ? GPIO_PIN_SET : GPIO_PIN_RESET);
}
 8001b84:	bf00      	nop
 8001b86:	3708      	adds	r7, #8
 8001b88:	46bd      	mov	sp, r7
 8001b8a:	bd80      	pop	{r7, pc}

08001b8c <SX1278_hw_Reset>:

__weak void SX1278_hw_Reset(SX1278_hw_t * hw) {
 8001b8c:	b580      	push	{r7, lr}
 8001b8e:	b082      	sub	sp, #8
 8001b90:	af00      	add	r7, sp, #0
 8001b92:	6078      	str	r0, [r7, #4]
	SX1278_hw_SetNSS(hw, 1);
 8001b94:	2101      	movs	r1, #1
 8001b96:	6878      	ldr	r0, [r7, #4]
 8001b98:	f7ff ffe1 	bl	8001b5e <SX1278_hw_SetNSS>
	HAL_GPIO_WritePin(hw->reset.port, hw->reset.pin, GPIO_PIN_RESET);
 8001b9c:	687b      	ldr	r3, [r7, #4]
 8001b9e:	6858      	ldr	r0, [r3, #4]
 8001ba0:	687b      	ldr	r3, [r7, #4]
 8001ba2:	681b      	ldr	r3, [r3, #0]
 8001ba4:	b29b      	uxth	r3, r3
 8001ba6:	2200      	movs	r2, #0
 8001ba8:	4619      	mov	r1, r3
 8001baa:	f002 fafd 	bl	80041a8 <HAL_GPIO_WritePin>

	SX1278_hw_DelayMs(1);
 8001bae:	2001      	movs	r0, #1
 8001bb0:	f000 f855 	bl	8001c5e <SX1278_hw_DelayMs>

	HAL_GPIO_WritePin(hw->reset.port, hw->reset.pin, GPIO_PIN_SET);
 8001bb4:	687b      	ldr	r3, [r7, #4]
 8001bb6:	6858      	ldr	r0, [r3, #4]
 8001bb8:	687b      	ldr	r3, [r7, #4]
 8001bba:	681b      	ldr	r3, [r3, #0]
 8001bbc:	b29b      	uxth	r3, r3
 8001bbe:	2201      	movs	r2, #1
 8001bc0:	4619      	mov	r1, r3
 8001bc2:	f002 faf1 	bl	80041a8 <HAL_GPIO_WritePin>

	SX1278_hw_DelayMs(100);
 8001bc6:	2064      	movs	r0, #100	; 0x64
 8001bc8:	f000 f849 	bl	8001c5e <SX1278_hw_DelayMs>
}
 8001bcc:	bf00      	nop
 8001bce:	3708      	adds	r7, #8
 8001bd0:	46bd      	mov	sp, r7
 8001bd2:	bd80      	pop	{r7, pc}

08001bd4 <SX1278_hw_SPICommand>:

__weak void SX1278_hw_SPICommand(SX1278_hw_t * hw, uint8_t cmd) {
 8001bd4:	b580      	push	{r7, lr}
 8001bd6:	b082      	sub	sp, #8
 8001bd8:	af00      	add	r7, sp, #0
 8001bda:	6078      	str	r0, [r7, #4]
 8001bdc:	460b      	mov	r3, r1
 8001bde:	70fb      	strb	r3, [r7, #3]
	SX1278_hw_SetNSS(hw, 0);
 8001be0:	2100      	movs	r1, #0
 8001be2:	6878      	ldr	r0, [r7, #4]
 8001be4:	f7ff ffbb 	bl	8001b5e <SX1278_hw_SetNSS>
	HAL_SPI_Transmit(hw->spi, &cmd, 1, 1000);
 8001be8:	687b      	ldr	r3, [r7, #4]
 8001bea:	6998      	ldr	r0, [r3, #24]
 8001bec:	1cf9      	adds	r1, r7, #3
 8001bee:	f44f 737a 	mov.w	r3, #1000	; 0x3e8
 8001bf2:	2201      	movs	r2, #1
 8001bf4:	f002 ff7e 	bl	8004af4 <HAL_SPI_Transmit>
	while (HAL_SPI_GetState(hw->spi) != HAL_SPI_STATE_READY)
 8001bf8:	bf00      	nop
 8001bfa:	687b      	ldr	r3, [r7, #4]
 8001bfc:	699b      	ldr	r3, [r3, #24]
 8001bfe:	4618      	mov	r0, r3
 8001c00:	f003 fa4e 	bl	80050a0 <HAL_SPI_GetState>
 8001c04:	4603      	mov	r3, r0
 8001c06:	2b01      	cmp	r3, #1
 8001c08:	d1f7      	bne.n	8001bfa <SX1278_hw_SPICommand+0x26>
		;
}
 8001c0a:	bf00      	nop
 8001c0c:	3708      	adds	r7, #8
 8001c0e:	46bd      	mov	sp, r7
 8001c10:	bd80      	pop	{r7, pc}

08001c12 <SX1278_hw_SPIReadByte>:

__weak uint8_t SX1278_hw_SPIReadByte(SX1278_hw_t * hw) {
 8001c12:	b580      	push	{r7, lr}
 8001c14:	b086      	sub	sp, #24
 8001c16:	af02      	add	r7, sp, #8
 8001c18:	6078      	str	r0, [r7, #4]
	uint8_t txByte = 0x00;
 8001c1a:	2300      	movs	r3, #0
 8001c1c:	73fb      	strb	r3, [r7, #15]
	uint8_t rxByte = 0x00;
 8001c1e:	2300      	movs	r3, #0
 8001c20:	73bb      	strb	r3, [r7, #14]

	SX1278_hw_SetNSS(hw, 0);
 8001c22:	2100      	movs	r1, #0
 8001c24:	6878      	ldr	r0, [r7, #4]
 8001c26:	f7ff ff9a 	bl	8001b5e <SX1278_hw_SetNSS>
	HAL_SPI_TransmitReceive(hw->spi, &txByte, &rxByte, 1, 1000);
 8001c2a:	687b      	ldr	r3, [r7, #4]
 8001c2c:	6998      	ldr	r0, [r3, #24]
 8001c2e:	f107 020e 	add.w	r2, r7, #14
 8001c32:	f107 010f 	add.w	r1, r7, #15
 8001c36:	f44f 737a 	mov.w	r3, #1000	; 0x3e8
 8001c3a:	9300      	str	r3, [sp, #0]
 8001c3c:	2301      	movs	r3, #1
 8001c3e:	f003 f88d 	bl	8004d5c <HAL_SPI_TransmitReceive>
	while (HAL_SPI_GetState(hw->spi) != HAL_SPI_STATE_READY)
 8001c42:	bf00      	nop
 8001c44:	687b      	ldr	r3, [r7, #4]
 8001c46:	699b      	ldr	r3, [r3, #24]
 8001c48:	4618      	mov	r0, r3
 8001c4a:	f003 fa29 	bl	80050a0 <HAL_SPI_GetState>
 8001c4e:	4603      	mov	r3, r0
 8001c50:	2b01      	cmp	r3, #1
 8001c52:	d1f7      	bne.n	8001c44 <SX1278_hw_SPIReadByte+0x32>
		;
	return rxByte;
 8001c54:	7bbb      	ldrb	r3, [r7, #14]
}
 8001c56:	4618      	mov	r0, r3
 8001c58:	3710      	adds	r7, #16
 8001c5a:	46bd      	mov	sp, r7
 8001c5c:	bd80      	pop	{r7, pc}

08001c5e <SX1278_hw_DelayMs>:

__weak void SX1278_hw_DelayMs(uint32_t msec) {
 8001c5e:	b580      	push	{r7, lr}
 8001c60:	b082      	sub	sp, #8
 8001c62:	af00      	add	r7, sp, #0
 8001c64:	6078      	str	r0, [r7, #4]
	HAL_Delay(msec);
 8001c66:	6878      	ldr	r0, [r7, #4]
 8001c68:	f001 ffe8 	bl	8003c3c <HAL_Delay>
}
 8001c6c:	bf00      	nop
 8001c6e:	3708      	adds	r7, #8
 8001c70:	46bd      	mov	sp, r7
 8001c72:	bd80      	pop	{r7, pc}

08001c74 <SX1278_hw_GetDIO0>:

__weak int SX1278_hw_GetDIO0(SX1278_hw_t * hw) {
 8001c74:	b580      	push	{r7, lr}
 8001c76:	b082      	sub	sp, #8
 8001c78:	af00      	add	r7, sp, #0
 8001c7a:	6078      	str	r0, [r7, #4]
	return (HAL_GPIO_ReadPin(hw->dio0.port, hw->dio0.pin) == GPIO_PIN_SET);
 8001c7c:	687b      	ldr	r3, [r7, #4]
 8001c7e:	68da      	ldr	r2, [r3, #12]
 8001c80:	687b      	ldr	r3, [r7, #4]
 8001c82:	689b      	ldr	r3, [r3, #8]
 8001c84:	b29b      	uxth	r3, r3
 8001c86:	4619      	mov	r1, r3
 8001c88:	4610      	mov	r0, r2
 8001c8a:	f002 fa75 	bl	8004178 <HAL_GPIO_ReadPin>
 8001c8e:	4603      	mov	r3, r0
 8001c90:	2b01      	cmp	r3, #1
 8001c92:	bf0c      	ite	eq
 8001c94:	2301      	moveq	r3, #1
 8001c96:	2300      	movne	r3, #0
 8001c98:	b2db      	uxtb	r3, r3
}
 8001c9a:	4618      	mov	r0, r3
 8001c9c:	3708      	adds	r7, #8
 8001c9e:	46bd      	mov	sp, r7
 8001ca0:	bd80      	pop	{r7, pc}

08001ca2 <SX1278_SPIRead>:

//////////////////////////////////
// logic
//////////////////////////////////

uint8_t SX1278_SPIRead(SX1278_t * module, uint8_t addr) {
 8001ca2:	b580      	push	{r7, lr}
 8001ca4:	b084      	sub	sp, #16
 8001ca6:	af00      	add	r7, sp, #0
 8001ca8:	6078      	str	r0, [r7, #4]
 8001caa:	460b      	mov	r3, r1
 8001cac:	70fb      	strb	r3, [r7, #3]
	uint8_t tmp;
	SX1278_hw_SPICommand(module->hw, addr);
 8001cae:	687b      	ldr	r3, [r7, #4]
 8001cb0:	681b      	ldr	r3, [r3, #0]
 8001cb2:	78fa      	ldrb	r2, [r7, #3]
 8001cb4:	4611      	mov	r1, r2
 8001cb6:	4618      	mov	r0, r3
 8001cb8:	f7ff ff8c 	bl	8001bd4 <SX1278_hw_SPICommand>
	tmp = SX1278_hw_SPIReadByte(module->hw);
 8001cbc:	687b      	ldr	r3, [r7, #4]
 8001cbe:	681b      	ldr	r3, [r3, #0]
 8001cc0:	4618      	mov	r0, r3
 8001cc2:	f7ff ffa6 	bl	8001c12 <SX1278_hw_SPIReadByte>
 8001cc6:	4603      	mov	r3, r0
 8001cc8:	73fb      	strb	r3, [r7, #15]
	SX1278_hw_SetNSS(module->hw, 1);
 8001cca:	687b      	ldr	r3, [r7, #4]
 8001ccc:	681b      	ldr	r3, [r3, #0]
 8001cce:	2101      	movs	r1, #1
 8001cd0:	4618      	mov	r0, r3
 8001cd2:	f7ff ff44 	bl	8001b5e <SX1278_hw_SetNSS>
	return tmp;
 8001cd6:	7bfb      	ldrb	r3, [r7, #15]
}
 8001cd8:	4618      	mov	r0, r3
 8001cda:	3710      	adds	r7, #16
 8001cdc:	46bd      	mov	sp, r7
 8001cde:	bd80      	pop	{r7, pc}

08001ce0 <SX1278_SPIWrite>:

void SX1278_SPIWrite(SX1278_t * module, uint8_t addr, uint8_t cmd) {
 8001ce0:	b580      	push	{r7, lr}
 8001ce2:	b082      	sub	sp, #8
 8001ce4:	af00      	add	r7, sp, #0
 8001ce6:	6078      	str	r0, [r7, #4]
 8001ce8:	460b      	mov	r3, r1
 8001cea:	70fb      	strb	r3, [r7, #3]
 8001cec:	4613      	mov	r3, r2
 8001cee:	70bb      	strb	r3, [r7, #2]
	SX1278_hw_SetNSS(module->hw, 0);
 8001cf0:	687b      	ldr	r3, [r7, #4]
 8001cf2:	681b      	ldr	r3, [r3, #0]
 8001cf4:	2100      	movs	r1, #0
 8001cf6:	4618      	mov	r0, r3
 8001cf8:	f7ff ff31 	bl	8001b5e <SX1278_hw_SetNSS>
	SX1278_hw_SPICommand(module->hw, addr | 0x80);
 8001cfc:	687b      	ldr	r3, [r7, #4]
 8001cfe:	681a      	ldr	r2, [r3, #0]
 8001d00:	78fb      	ldrb	r3, [r7, #3]
 8001d02:	f063 037f 	orn	r3, r3, #127	; 0x7f
 8001d06:	b2db      	uxtb	r3, r3
 8001d08:	4619      	mov	r1, r3
 8001d0a:	4610      	mov	r0, r2
 8001d0c:	f7ff ff62 	bl	8001bd4 <SX1278_hw_SPICommand>
	SX1278_hw_SPICommand(module->hw, cmd);
 8001d10:	687b      	ldr	r3, [r7, #4]
 8001d12:	681b      	ldr	r3, [r3, #0]
 8001d14:	78ba      	ldrb	r2, [r7, #2]
 8001d16:	4611      	mov	r1, r2
 8001d18:	4618      	mov	r0, r3
 8001d1a:	f7ff ff5b 	bl	8001bd4 <SX1278_hw_SPICommand>
	SX1278_hw_SetNSS(module->hw, 1);
 8001d1e:	687b      	ldr	r3, [r7, #4]
 8001d20:	681b      	ldr	r3, [r3, #0]
 8001d22:	2101      	movs	r1, #1
 8001d24:	4618      	mov	r0, r3
 8001d26:	f7ff ff1a 	bl	8001b5e <SX1278_hw_SetNSS>
}
 8001d2a:	bf00      	nop
 8001d2c:	3708      	adds	r7, #8
 8001d2e:	46bd      	mov	sp, r7
 8001d30:	bd80      	pop	{r7, pc}

08001d32 <SX1278_SPIBurstWrite>:
		SX1278_hw_SetNSS(module->hw, 1);
	}
}

void SX1278_SPIBurstWrite(SX1278_t * module, uint8_t addr, uint8_t* txBuf,
		uint8_t length) {
 8001d32:	b580      	push	{r7, lr}
 8001d34:	b086      	sub	sp, #24
 8001d36:	af00      	add	r7, sp, #0
 8001d38:	60f8      	str	r0, [r7, #12]
 8001d3a:	607a      	str	r2, [r7, #4]
 8001d3c:	461a      	mov	r2, r3
 8001d3e:	460b      	mov	r3, r1
 8001d40:	72fb      	strb	r3, [r7, #11]
 8001d42:	4613      	mov	r3, r2
 8001d44:	72bb      	strb	r3, [r7, #10]
	unsigned char i;
	if (length <= 1) {
 8001d46:	7abb      	ldrb	r3, [r7, #10]
 8001d48:	2b01      	cmp	r3, #1
 8001d4a:	d929      	bls.n	8001da0 <SX1278_SPIBurstWrite+0x6e>
		return;
	} else {
		SX1278_hw_SetNSS(module->hw, 0);
 8001d4c:	68fb      	ldr	r3, [r7, #12]
 8001d4e:	681b      	ldr	r3, [r3, #0]
 8001d50:	2100      	movs	r1, #0
 8001d52:	4618      	mov	r0, r3
 8001d54:	f7ff ff03 	bl	8001b5e <SX1278_hw_SetNSS>
		SX1278_hw_SPICommand(module->hw, addr | 0x80);
 8001d58:	68fb      	ldr	r3, [r7, #12]
 8001d5a:	681a      	ldr	r2, [r3, #0]
 8001d5c:	7afb      	ldrb	r3, [r7, #11]
 8001d5e:	f063 037f 	orn	r3, r3, #127	; 0x7f
 8001d62:	b2db      	uxtb	r3, r3
 8001d64:	4619      	mov	r1, r3
 8001d66:	4610      	mov	r0, r2
 8001d68:	f7ff ff34 	bl	8001bd4 <SX1278_hw_SPICommand>
		for (i = 0; i < length; i++) {
 8001d6c:	2300      	movs	r3, #0
 8001d6e:	75fb      	strb	r3, [r7, #23]
 8001d70:	e00b      	b.n	8001d8a <SX1278_SPIBurstWrite+0x58>
			SX1278_hw_SPICommand(module->hw, *(txBuf + i));
 8001d72:	68fb      	ldr	r3, [r7, #12]
 8001d74:	6818      	ldr	r0, [r3, #0]
 8001d76:	7dfb      	ldrb	r3, [r7, #23]
 8001d78:	687a      	ldr	r2, [r7, #4]
 8001d7a:	4413      	add	r3, r2
 8001d7c:	781b      	ldrb	r3, [r3, #0]
 8001d7e:	4619      	mov	r1, r3
 8001d80:	f7ff ff28 	bl	8001bd4 <SX1278_hw_SPICommand>
		for (i = 0; i < length; i++) {
 8001d84:	7dfb      	ldrb	r3, [r7, #23]
 8001d86:	3301      	adds	r3, #1
 8001d88:	75fb      	strb	r3, [r7, #23]
 8001d8a:	7dfa      	ldrb	r2, [r7, #23]
 8001d8c:	7abb      	ldrb	r3, [r7, #10]
 8001d8e:	429a      	cmp	r2, r3
 8001d90:	d3ef      	bcc.n	8001d72 <SX1278_SPIBurstWrite+0x40>
		}
		SX1278_hw_SetNSS(module->hw, 1);
 8001d92:	68fb      	ldr	r3, [r7, #12]
 8001d94:	681b      	ldr	r3, [r3, #0]
 8001d96:	2101      	movs	r1, #1
 8001d98:	4618      	mov	r0, r3
 8001d9a:	f7ff fee0 	bl	8001b5e <SX1278_hw_SetNSS>
 8001d9e:	e000      	b.n	8001da2 <SX1278_SPIBurstWrite+0x70>
		return;
 8001da0:	bf00      	nop
	}
}
 8001da2:	3718      	adds	r7, #24
 8001da4:	46bd      	mov	sp, r7
 8001da6:	bd80      	pop	{r7, pc}

08001da8 <SX1278_defaultConfig>:

void SX1278_defaultConfig(SX1278_t * module) {
 8001da8:	b580      	push	{r7, lr}
 8001daa:	b084      	sub	sp, #16
 8001dac:	af02      	add	r7, sp, #8
 8001dae:	6078      	str	r0, [r7, #4]
	SX1278_config(module, module->frequency, module->power, module->LoRa_Rate,
 8001db0:	687b      	ldr	r3, [r7, #4]
 8001db2:	7919      	ldrb	r1, [r3, #4]
 8001db4:	687b      	ldr	r3, [r7, #4]
 8001db6:	795a      	ldrb	r2, [r3, #5]
 8001db8:	687b      	ldr	r3, [r7, #4]
 8001dba:	7998      	ldrb	r0, [r3, #6]
 8001dbc:	687b      	ldr	r3, [r7, #4]
 8001dbe:	79db      	ldrb	r3, [r3, #7]
 8001dc0:	9300      	str	r3, [sp, #0]
 8001dc2:	4603      	mov	r3, r0
 8001dc4:	6878      	ldr	r0, [r7, #4]
 8001dc6:	f000 f805 	bl	8001dd4 <SX1278_config>
			module->LoRa_BW);
}
 8001dca:	bf00      	nop
 8001dcc:	3708      	adds	r7, #8
 8001dce:	46bd      	mov	sp, r7
 8001dd0:	bd80      	pop	{r7, pc}
	...

08001dd4 <SX1278_config>:

void SX1278_config(SX1278_t * module, uint8_t frequency, uint8_t power,
		uint8_t LoRa_Rate, uint8_t LoRa_BW) {
 8001dd4:	b580      	push	{r7, lr}
 8001dd6:	b084      	sub	sp, #16
 8001dd8:	af00      	add	r7, sp, #0
 8001dda:	6078      	str	r0, [r7, #4]
 8001ddc:	4608      	mov	r0, r1
 8001dde:	4611      	mov	r1, r2
 8001de0:	461a      	mov	r2, r3
 8001de2:	4603      	mov	r3, r0
 8001de4:	70fb      	strb	r3, [r7, #3]
 8001de6:	460b      	mov	r3, r1
 8001de8:	70bb      	strb	r3, [r7, #2]
 8001dea:	4613      	mov	r3, r2
 8001dec:	707b      	strb	r3, [r7, #1]
	SX1278_sleep(module); //Change modem mode Must in Sleep mode
 8001dee:	6878      	ldr	r0, [r7, #4]
 8001df0:	f000 f8aa 	bl	8001f48 <SX1278_sleep>
	SX1278_hw_DelayMs(15);
 8001df4:	200f      	movs	r0, #15
 8001df6:	f7ff ff32 	bl	8001c5e <SX1278_hw_DelayMs>

	SX1278_entryLoRa(module);
 8001dfa:	6878      	ldr	r0, [r7, #4]
 8001dfc:	f000 f8b4 	bl	8001f68 <SX1278_entryLoRa>
	//SX1278_SPIWrite(module, 0x5904); //?? Change digital regulator form 1.6V to 1.47V: see errata note

	SX1278_SPIBurstWrite(module, LR_RegFrMsb,
			(uint8_t*) SX1278_Frequency[frequency], 3); //setting  frequency parameter
 8001e00:	78fa      	ldrb	r2, [r7, #3]
 8001e02:	4613      	mov	r3, r2
 8001e04:	005b      	lsls	r3, r3, #1
 8001e06:	4413      	add	r3, r2
 8001e08:	4a43      	ldr	r2, [pc, #268]	; (8001f18 <SX1278_config+0x144>)
 8001e0a:	441a      	add	r2, r3
	SX1278_SPIBurstWrite(module, LR_RegFrMsb,
 8001e0c:	2303      	movs	r3, #3
 8001e0e:	2106      	movs	r1, #6
 8001e10:	6878      	ldr	r0, [r7, #4]
 8001e12:	f7ff ff8e 	bl	8001d32 <SX1278_SPIBurstWrite>

	//setting base parameter
	SX1278_SPIWrite(module, LR_RegPaConfig, SX1278_Power[power]); //Setting output power parameter
 8001e16:	78bb      	ldrb	r3, [r7, #2]
 8001e18:	4a40      	ldr	r2, [pc, #256]	; (8001f1c <SX1278_config+0x148>)
 8001e1a:	5cd3      	ldrb	r3, [r2, r3]
 8001e1c:	461a      	mov	r2, r3
 8001e1e:	2109      	movs	r1, #9
 8001e20:	6878      	ldr	r0, [r7, #4]
 8001e22:	f7ff ff5d 	bl	8001ce0 <SX1278_SPIWrite>

	SX1278_SPIWrite(module, LR_RegOcp, 0x0B);			//RegOcp,Close Ocp
 8001e26:	220b      	movs	r2, #11
 8001e28:	210b      	movs	r1, #11
 8001e2a:	6878      	ldr	r0, [r7, #4]
 8001e2c:	f7ff ff58 	bl	8001ce0 <SX1278_SPIWrite>
	SX1278_SPIWrite(module, LR_RegLna, 0x23);		//RegLNA,High & LNA Enable
 8001e30:	2223      	movs	r2, #35	; 0x23
 8001e32:	210c      	movs	r1, #12
 8001e34:	6878      	ldr	r0, [r7, #4]
 8001e36:	f7ff ff53 	bl	8001ce0 <SX1278_SPIWrite>
	if (SX1278_SpreadFactor[LoRa_Rate] == 6) {	//SFactor=6
 8001e3a:	787b      	ldrb	r3, [r7, #1]
 8001e3c:	4a38      	ldr	r2, [pc, #224]	; (8001f20 <SX1278_config+0x14c>)
 8001e3e:	5cd3      	ldrb	r3, [r2, r3]
 8001e40:	2b06      	cmp	r3, #6
 8001e42:	d131      	bne.n	8001ea8 <SX1278_config+0xd4>
		uint8_t tmp;
		SX1278_SPIWrite(module,
		LR_RegModemConfig1,
				((SX1278_LoRaBandwidth[LoRa_BW] << 4) + (SX1278_CR << 1) + 0x01)); //Implicit Enable CRC Enable(0x02) & Error Coding rate 4/5(0x01), 4/6(0x02), 4/7(0x03), 4/8(0x04)
 8001e44:	7e3b      	ldrb	r3, [r7, #24]
 8001e46:	4a37      	ldr	r2, [pc, #220]	; (8001f24 <SX1278_config+0x150>)
 8001e48:	5cd3      	ldrb	r3, [r2, r3]
 8001e4a:	011b      	lsls	r3, r3, #4
 8001e4c:	b2db      	uxtb	r3, r3
		SX1278_SPIWrite(module,
 8001e4e:	3309      	adds	r3, #9
 8001e50:	b2db      	uxtb	r3, r3
 8001e52:	461a      	mov	r2, r3
 8001e54:	211d      	movs	r1, #29
 8001e56:	6878      	ldr	r0, [r7, #4]
 8001e58:	f7ff ff42 	bl	8001ce0 <SX1278_SPIWrite>

		SX1278_SPIWrite(module,
		LR_RegModemConfig2,
				((SX1278_SpreadFactor[LoRa_Rate] << 4) + (SX1278_CRC << 2)
 8001e5c:	787b      	ldrb	r3, [r7, #1]
 8001e5e:	4a30      	ldr	r2, [pc, #192]	; (8001f20 <SX1278_config+0x14c>)
 8001e60:	5cd3      	ldrb	r3, [r2, r3]
 8001e62:	011b      	lsls	r3, r3, #4
 8001e64:	b2db      	uxtb	r3, r3
		SX1278_SPIWrite(module,
 8001e66:	3307      	adds	r3, #7
 8001e68:	b2db      	uxtb	r3, r3
 8001e6a:	461a      	mov	r2, r3
 8001e6c:	211e      	movs	r1, #30
 8001e6e:	6878      	ldr	r0, [r7, #4]
 8001e70:	f7ff ff36 	bl	8001ce0 <SX1278_SPIWrite>
						+ 0x03));

		tmp = SX1278_SPIRead(module, 0x31);
 8001e74:	2131      	movs	r1, #49	; 0x31
 8001e76:	6878      	ldr	r0, [r7, #4]
 8001e78:	f7ff ff13 	bl	8001ca2 <SX1278_SPIRead>
 8001e7c:	4603      	mov	r3, r0
 8001e7e:	73fb      	strb	r3, [r7, #15]
		tmp &= 0xF8;
 8001e80:	7bfb      	ldrb	r3, [r7, #15]
 8001e82:	f023 0307 	bic.w	r3, r3, #7
 8001e86:	73fb      	strb	r3, [r7, #15]
		tmp |= 0x05;
 8001e88:	7bfb      	ldrb	r3, [r7, #15]
 8001e8a:	f043 0305 	orr.w	r3, r3, #5
 8001e8e:	73fb      	strb	r3, [r7, #15]
		SX1278_SPIWrite(module, 0x31, tmp);
 8001e90:	7bfb      	ldrb	r3, [r7, #15]
 8001e92:	461a      	mov	r2, r3
 8001e94:	2131      	movs	r1, #49	; 0x31
 8001e96:	6878      	ldr	r0, [r7, #4]
 8001e98:	f7ff ff22 	bl	8001ce0 <SX1278_SPIWrite>
		SX1278_SPIWrite(module, 0x37, 0x0C);
 8001e9c:	220c      	movs	r2, #12
 8001e9e:	2137      	movs	r1, #55	; 0x37
 8001ea0:	6878      	ldr	r0, [r7, #4]
 8001ea2:	f7ff ff1d 	bl	8001ce0 <SX1278_SPIWrite>
 8001ea6:	e017      	b.n	8001ed8 <SX1278_config+0x104>
	} else {
		SX1278_SPIWrite(module,
		LR_RegModemConfig1,
				((SX1278_LoRaBandwidth[LoRa_BW] << 4) + (SX1278_CR << 1) + 0x02)); //Explicit Enable CRC Enable(0x02) & Error Coding rate 4/5(0x01), 4/6(0x02), 4/7(0x03), 4/8(0x04)
 8001ea8:	7e3b      	ldrb	r3, [r7, #24]
 8001eaa:	4a1e      	ldr	r2, [pc, #120]	; (8001f24 <SX1278_config+0x150>)
 8001eac:	5cd3      	ldrb	r3, [r2, r3]
 8001eae:	011b      	lsls	r3, r3, #4
 8001eb0:	b2db      	uxtb	r3, r3
		SX1278_SPIWrite(module,
 8001eb2:	330a      	adds	r3, #10
 8001eb4:	b2db      	uxtb	r3, r3
 8001eb6:	461a      	mov	r2, r3
 8001eb8:	211d      	movs	r1, #29
 8001eba:	6878      	ldr	r0, [r7, #4]
 8001ebc:	f7ff ff10 	bl	8001ce0 <SX1278_SPIWrite>

		SX1278_SPIWrite(module,
		LR_RegModemConfig2,
				((SX1278_SpreadFactor[LoRa_Rate] << 4) + (SX1278_CRC << 2)
 8001ec0:	787b      	ldrb	r3, [r7, #1]
 8001ec2:	4a17      	ldr	r2, [pc, #92]	; (8001f20 <SX1278_config+0x14c>)
 8001ec4:	5cd3      	ldrb	r3, [r2, r3]
 8001ec6:	011b      	lsls	r3, r3, #4
 8001ec8:	b2db      	uxtb	r3, r3
		SX1278_SPIWrite(module,
 8001eca:	3307      	adds	r3, #7
 8001ecc:	b2db      	uxtb	r3, r3
 8001ece:	461a      	mov	r2, r3
 8001ed0:	211e      	movs	r1, #30
 8001ed2:	6878      	ldr	r0, [r7, #4]
 8001ed4:	f7ff ff04 	bl	8001ce0 <SX1278_SPIWrite>
						+ 0x03)); //SFactor &  LNA gain set by the internal AGC loop
	}

	SX1278_SPIWrite(module, LR_RegSymbTimeoutLsb, 0xFF); //RegSymbTimeoutLsb Timeout = 0x3FF(Max)
 8001ed8:	22ff      	movs	r2, #255	; 0xff
 8001eda:	211f      	movs	r1, #31
 8001edc:	6878      	ldr	r0, [r7, #4]
 8001ede:	f7ff feff 	bl	8001ce0 <SX1278_SPIWrite>
	SX1278_SPIWrite(module, LR_RegPreambleMsb, 0x00); //RegPreambleMsb
 8001ee2:	2200      	movs	r2, #0
 8001ee4:	2120      	movs	r1, #32
 8001ee6:	6878      	ldr	r0, [r7, #4]
 8001ee8:	f7ff fefa 	bl	8001ce0 <SX1278_SPIWrite>
	SX1278_SPIWrite(module, LR_RegPreambleLsb, 12); //RegPreambleLsb 8+4=12byte Preamble
 8001eec:	220c      	movs	r2, #12
 8001eee:	2121      	movs	r1, #33	; 0x21
 8001ef0:	6878      	ldr	r0, [r7, #4]
 8001ef2:	f7ff fef5 	bl	8001ce0 <SX1278_SPIWrite>
	SX1278_SPIWrite(module, REG_LR_DIOMAPPING2, 0x01); //RegDioMapping2 DIO5=00, DIO4=01
 8001ef6:	2201      	movs	r2, #1
 8001ef8:	2141      	movs	r1, #65	; 0x41
 8001efa:	6878      	ldr	r0, [r7, #4]
 8001efc:	f7ff fef0 	bl	8001ce0 <SX1278_SPIWrite>
	module->readBytes = 0;
 8001f00:	687b      	ldr	r3, [r7, #4]
 8001f02:	2200      	movs	r2, #0
 8001f04:	f883 210a 	strb.w	r2, [r3, #266]	; 0x10a
	SX1278_standby(module); //Entry standby mode
 8001f08:	6878      	ldr	r0, [r7, #4]
 8001f0a:	f000 f80d 	bl	8001f28 <SX1278_standby>
}
 8001f0e:	bf00      	nop
 8001f10:	3710      	adds	r7, #16
 8001f12:	46bd      	mov	sp, r7
 8001f14:	bd80      	pop	{r7, pc}
 8001f16:	bf00      	nop
 8001f18:	0800cdf8 	.word	0x0800cdf8
 8001f1c:	0800ce14 	.word	0x0800ce14
 8001f20:	0800ce18 	.word	0x0800ce18
 8001f24:	0800ce20 	.word	0x0800ce20

08001f28 <SX1278_standby>:

void SX1278_standby(SX1278_t * module) {
 8001f28:	b580      	push	{r7, lr}
 8001f2a:	b082      	sub	sp, #8
 8001f2c:	af00      	add	r7, sp, #0
 8001f2e:	6078      	str	r0, [r7, #4]
	SX1278_SPIWrite(module, LR_RegOpMode, 0x09);
 8001f30:	2209      	movs	r2, #9
 8001f32:	2101      	movs	r1, #1
 8001f34:	6878      	ldr	r0, [r7, #4]
 8001f36:	f7ff fed3 	bl	8001ce0 <SX1278_SPIWrite>
	module->status = STANDBY;
 8001f3a:	687b      	ldr	r3, [r7, #4]
 8001f3c:	2201      	movs	r2, #1
 8001f3e:	725a      	strb	r2, [r3, #9]
}
 8001f40:	bf00      	nop
 8001f42:	3708      	adds	r7, #8
 8001f44:	46bd      	mov	sp, r7
 8001f46:	bd80      	pop	{r7, pc}

08001f48 <SX1278_sleep>:

void SX1278_sleep(SX1278_t * module) {
 8001f48:	b580      	push	{r7, lr}
 8001f4a:	b082      	sub	sp, #8
 8001f4c:	af00      	add	r7, sp, #0
 8001f4e:	6078      	str	r0, [r7, #4]
	SX1278_SPIWrite(module, LR_RegOpMode, 0x08);
 8001f50:	2208      	movs	r2, #8
 8001f52:	2101      	movs	r1, #1
 8001f54:	6878      	ldr	r0, [r7, #4]
 8001f56:	f7ff fec3 	bl	8001ce0 <SX1278_SPIWrite>
	module->status = SLEEP;
 8001f5a:	687b      	ldr	r3, [r7, #4]
 8001f5c:	2200      	movs	r2, #0
 8001f5e:	725a      	strb	r2, [r3, #9]
}
 8001f60:	bf00      	nop
 8001f62:	3708      	adds	r7, #8
 8001f64:	46bd      	mov	sp, r7
 8001f66:	bd80      	pop	{r7, pc}

08001f68 <SX1278_entryLoRa>:

void SX1278_entryLoRa(SX1278_t * module) {
 8001f68:	b580      	push	{r7, lr}
 8001f6a:	b082      	sub	sp, #8
 8001f6c:	af00      	add	r7, sp, #0
 8001f6e:	6078      	str	r0, [r7, #4]
	SX1278_SPIWrite(module, LR_RegOpMode, 0x88);
 8001f70:	2288      	movs	r2, #136	; 0x88
 8001f72:	2101      	movs	r1, #1
 8001f74:	6878      	ldr	r0, [r7, #4]
 8001f76:	f7ff feb3 	bl	8001ce0 <SX1278_SPIWrite>
}
 8001f7a:	bf00      	nop
 8001f7c:	3708      	adds	r7, #8
 8001f7e:	46bd      	mov	sp, r7
 8001f80:	bd80      	pop	{r7, pc}

08001f82 <SX1278_clearLoRaIrq>:

void SX1278_clearLoRaIrq(SX1278_t * module) {
 8001f82:	b580      	push	{r7, lr}
 8001f84:	b082      	sub	sp, #8
 8001f86:	af00      	add	r7, sp, #0
 8001f88:	6078      	str	r0, [r7, #4]
	SX1278_SPIWrite(module, LR_RegIrqFlags, 0xFF);
 8001f8a:	22ff      	movs	r2, #255	; 0xff
 8001f8c:	2112      	movs	r1, #18
 8001f8e:	6878      	ldr	r0, [r7, #4]
 8001f90:	f7ff fea6 	bl	8001ce0 <SX1278_SPIWrite>
}
 8001f94:	bf00      	nop
 8001f96:	3708      	adds	r7, #8
 8001f98:	46bd      	mov	sp, r7
 8001f9a:	bd80      	pop	{r7, pc}

08001f9c <SX1278_LoRaEntryTx>:
		SX1278_clearLoRaIrq(module);
	}
	return module->readBytes;
}

int SX1278_LoRaEntryTx(SX1278_t * module, uint8_t length, uint32_t timeout) {
 8001f9c:	b580      	push	{r7, lr}
 8001f9e:	b086      	sub	sp, #24
 8001fa0:	af00      	add	r7, sp, #0
 8001fa2:	60f8      	str	r0, [r7, #12]
 8001fa4:	460b      	mov	r3, r1
 8001fa6:	607a      	str	r2, [r7, #4]
 8001fa8:	72fb      	strb	r3, [r7, #11]
	uint8_t addr;
	uint8_t temp;

	module->packetLength = length;
 8001faa:	68fb      	ldr	r3, [r7, #12]
 8001fac:	7afa      	ldrb	r2, [r7, #11]
 8001fae:	721a      	strb	r2, [r3, #8]

	SX1278_defaultConfig(module); //setting base parameter
 8001fb0:	68f8      	ldr	r0, [r7, #12]
 8001fb2:	f7ff fef9 	bl	8001da8 <SX1278_defaultConfig>
	SX1278_SPIWrite(module, REG_LR_PADAC, 0x87);	//Tx for 20dBm
 8001fb6:	2287      	movs	r2, #135	; 0x87
 8001fb8:	214d      	movs	r1, #77	; 0x4d
 8001fba:	68f8      	ldr	r0, [r7, #12]
 8001fbc:	f7ff fe90 	bl	8001ce0 <SX1278_SPIWrite>
	SX1278_SPIWrite(module, LR_RegHopPeriod, 0x00); //RegHopPeriod NO FHSS
 8001fc0:	2200      	movs	r2, #0
 8001fc2:	2124      	movs	r1, #36	; 0x24
 8001fc4:	68f8      	ldr	r0, [r7, #12]
 8001fc6:	f7ff fe8b 	bl	8001ce0 <SX1278_SPIWrite>
	SX1278_SPIWrite(module, REG_LR_DIOMAPPING1, 0x41); //DIO0=01, DIO1=00,DIO2=00, DIO3=01
 8001fca:	2241      	movs	r2, #65	; 0x41
 8001fcc:	2140      	movs	r1, #64	; 0x40
 8001fce:	68f8      	ldr	r0, [r7, #12]
 8001fd0:	f7ff fe86 	bl	8001ce0 <SX1278_SPIWrite>
	SX1278_clearLoRaIrq(module);
 8001fd4:	68f8      	ldr	r0, [r7, #12]
 8001fd6:	f7ff ffd4 	bl	8001f82 <SX1278_clearLoRaIrq>
	SX1278_SPIWrite(module, LR_RegIrqFlagsMask, 0xF7); //Open TxDone interrupt
 8001fda:	22f7      	movs	r2, #247	; 0xf7
 8001fdc:	2111      	movs	r1, #17
 8001fde:	68f8      	ldr	r0, [r7, #12]
 8001fe0:	f7ff fe7e 	bl	8001ce0 <SX1278_SPIWrite>
	SX1278_SPIWrite(module, LR_RegPayloadLength, length); //RegPayloadLength 21byte
 8001fe4:	7afb      	ldrb	r3, [r7, #11]
 8001fe6:	461a      	mov	r2, r3
 8001fe8:	2122      	movs	r1, #34	; 0x22
 8001fea:	68f8      	ldr	r0, [r7, #12]
 8001fec:	f7ff fe78 	bl	8001ce0 <SX1278_SPIWrite>
	addr = SX1278_SPIRead(module, LR_RegFifoTxBaseAddr); //RegFiFoTxBaseAddr
 8001ff0:	210e      	movs	r1, #14
 8001ff2:	68f8      	ldr	r0, [r7, #12]
 8001ff4:	f7ff fe55 	bl	8001ca2 <SX1278_SPIRead>
 8001ff8:	4603      	mov	r3, r0
 8001ffa:	75fb      	strb	r3, [r7, #23]
	SX1278_SPIWrite(module, LR_RegFifoAddrPtr, addr); //RegFifoAddrPtr
 8001ffc:	7dfb      	ldrb	r3, [r7, #23]
 8001ffe:	461a      	mov	r2, r3
 8002000:	210d      	movs	r1, #13
 8002002:	68f8      	ldr	r0, [r7, #12]
 8002004:	f7ff fe6c 	bl	8001ce0 <SX1278_SPIWrite>

	while (1) {
		temp = SX1278_SPIRead(module, LR_RegPayloadLength);
 8002008:	2122      	movs	r1, #34	; 0x22
 800200a:	68f8      	ldr	r0, [r7, #12]
 800200c:	f7ff fe49 	bl	8001ca2 <SX1278_SPIRead>
 8002010:	4603      	mov	r3, r0
 8002012:	75bb      	strb	r3, [r7, #22]
		if (temp == length) {
 8002014:	7dba      	ldrb	r2, [r7, #22]
 8002016:	7afb      	ldrb	r3, [r7, #11]
 8002018:	429a      	cmp	r2, r3
 800201a:	d104      	bne.n	8002026 <SX1278_LoRaEntryTx+0x8a>
			module->status = TX;
 800201c:	68fb      	ldr	r3, [r7, #12]
 800201e:	2202      	movs	r2, #2
 8002020:	725a      	strb	r2, [r3, #9]
			return 1;
 8002022:	2301      	movs	r3, #1
 8002024:	e00e      	b.n	8002044 <SX1278_LoRaEntryTx+0xa8>
		}

		if (--timeout == 0) {
 8002026:	687b      	ldr	r3, [r7, #4]
 8002028:	3b01      	subs	r3, #1
 800202a:	607b      	str	r3, [r7, #4]
 800202c:	687b      	ldr	r3, [r7, #4]
 800202e:	2b00      	cmp	r3, #0
 8002030:	d1ea      	bne.n	8002008 <SX1278_LoRaEntryTx+0x6c>
			SX1278_hw_Reset(module->hw);
 8002032:	68fb      	ldr	r3, [r7, #12]
 8002034:	681b      	ldr	r3, [r3, #0]
 8002036:	4618      	mov	r0, r3
 8002038:	f7ff fda8 	bl	8001b8c <SX1278_hw_Reset>
			SX1278_defaultConfig(module);
 800203c:	68f8      	ldr	r0, [r7, #12]
 800203e:	f7ff feb3 	bl	8001da8 <SX1278_defaultConfig>
			return 0;
 8002042:	2300      	movs	r3, #0
		}
	}
}
 8002044:	4618      	mov	r0, r3
 8002046:	3718      	adds	r7, #24
 8002048:	46bd      	mov	sp, r7
 800204a:	bd80      	pop	{r7, pc}

0800204c <SX1278_LoRaTxPacket>:

int SX1278_LoRaTxPacket(SX1278_t * module, uint8_t* txBuffer, uint8_t length,
		uint32_t timeout) {
 800204c:	b580      	push	{r7, lr}
 800204e:	b084      	sub	sp, #16
 8002050:	af00      	add	r7, sp, #0
 8002052:	60f8      	str	r0, [r7, #12]
 8002054:	60b9      	str	r1, [r7, #8]
 8002056:	603b      	str	r3, [r7, #0]
 8002058:	4613      	mov	r3, r2
 800205a:	71fb      	strb	r3, [r7, #7]
	SX1278_SPIBurstWrite(module, 0x00, txBuffer, length);
 800205c:	79fb      	ldrb	r3, [r7, #7]
 800205e:	68ba      	ldr	r2, [r7, #8]
 8002060:	2100      	movs	r1, #0
 8002062:	68f8      	ldr	r0, [r7, #12]
 8002064:	f7ff fe65 	bl	8001d32 <SX1278_SPIBurstWrite>
	SX1278_SPIWrite(module, LR_RegOpMode, 0x8b);	//Tx Mode
 8002068:	228b      	movs	r2, #139	; 0x8b
 800206a:	2101      	movs	r1, #1
 800206c:	68f8      	ldr	r0, [r7, #12]
 800206e:	f7ff fe37 	bl	8001ce0 <SX1278_SPIWrite>
	while (1) {
		if (SX1278_hw_GetDIO0(module->hw)) { //if(Get_NIRQ()) //Packet send over
 8002072:	68fb      	ldr	r3, [r7, #12]
 8002074:	681b      	ldr	r3, [r3, #0]
 8002076:	4618      	mov	r0, r3
 8002078:	f7ff fdfc 	bl	8001c74 <SX1278_hw_GetDIO0>
 800207c:	4603      	mov	r3, r0
 800207e:	2b00      	cmp	r3, #0
 8002080:	d00b      	beq.n	800209a <SX1278_LoRaTxPacket+0x4e>
			SX1278_SPIRead(module, LR_RegIrqFlags);
 8002082:	2112      	movs	r1, #18
 8002084:	68f8      	ldr	r0, [r7, #12]
 8002086:	f7ff fe0c 	bl	8001ca2 <SX1278_SPIRead>
			SX1278_clearLoRaIrq(module); //Clear irq
 800208a:	68f8      	ldr	r0, [r7, #12]
 800208c:	f7ff ff79 	bl	8001f82 <SX1278_clearLoRaIrq>
			SX1278_standby(module); //Entry Standby mode
 8002090:	68f8      	ldr	r0, [r7, #12]
 8002092:	f7ff ff49 	bl	8001f28 <SX1278_standby>
			return 1;
 8002096:	2301      	movs	r3, #1
 8002098:	e013      	b.n	80020c2 <SX1278_LoRaTxPacket+0x76>
		}

		if (--timeout == 0) {
 800209a:	683b      	ldr	r3, [r7, #0]
 800209c:	3b01      	subs	r3, #1
 800209e:	603b      	str	r3, [r7, #0]
 80020a0:	683b      	ldr	r3, [r7, #0]
 80020a2:	2b00      	cmp	r3, #0
 80020a4:	d109      	bne.n	80020ba <SX1278_LoRaTxPacket+0x6e>
			SX1278_hw_Reset(module->hw);
 80020a6:	68fb      	ldr	r3, [r7, #12]
 80020a8:	681b      	ldr	r3, [r3, #0]
 80020aa:	4618      	mov	r0, r3
 80020ac:	f7ff fd6e 	bl	8001b8c <SX1278_hw_Reset>
			SX1278_defaultConfig(module);
 80020b0:	68f8      	ldr	r0, [r7, #12]
 80020b2:	f7ff fe79 	bl	8001da8 <SX1278_defaultConfig>
			return 0;
 80020b6:	2300      	movs	r3, #0
 80020b8:	e003      	b.n	80020c2 <SX1278_LoRaTxPacket+0x76>
		}
		SX1278_hw_DelayMs(1);
 80020ba:	2001      	movs	r0, #1
 80020bc:	f7ff fdcf 	bl	8001c5e <SX1278_hw_DelayMs>
		if (SX1278_hw_GetDIO0(module->hw)) { //if(Get_NIRQ()) //Packet send over
 80020c0:	e7d7      	b.n	8002072 <SX1278_LoRaTxPacket+0x26>
	}
}
 80020c2:	4618      	mov	r0, r3
 80020c4:	3710      	adds	r7, #16
 80020c6:	46bd      	mov	sp, r7
 80020c8:	bd80      	pop	{r7, pc}

080020ca <SX1278_begin>:

void SX1278_begin(SX1278_t * module, uint8_t frequency, uint8_t power,
		uint8_t LoRa_Rate, uint8_t LoRa_BW, uint8_t packetLength) {
 80020ca:	b580      	push	{r7, lr}
 80020cc:	b082      	sub	sp, #8
 80020ce:	af00      	add	r7, sp, #0
 80020d0:	6078      	str	r0, [r7, #4]
 80020d2:	4608      	mov	r0, r1
 80020d4:	4611      	mov	r1, r2
 80020d6:	461a      	mov	r2, r3
 80020d8:	4603      	mov	r3, r0
 80020da:	70fb      	strb	r3, [r7, #3]
 80020dc:	460b      	mov	r3, r1
 80020de:	70bb      	strb	r3, [r7, #2]
 80020e0:	4613      	mov	r3, r2
 80020e2:	707b      	strb	r3, [r7, #1]
	SX1278_hw_init(module->hw);
 80020e4:	687b      	ldr	r3, [r7, #4]
 80020e6:	681b      	ldr	r3, [r3, #0]
 80020e8:	4618      	mov	r0, r3
 80020ea:	f7ff fd23 	bl	8001b34 <SX1278_hw_init>
	module->frequency = frequency;
 80020ee:	687b      	ldr	r3, [r7, #4]
 80020f0:	78fa      	ldrb	r2, [r7, #3]
 80020f2:	711a      	strb	r2, [r3, #4]
	module->power = power;
 80020f4:	687b      	ldr	r3, [r7, #4]
 80020f6:	78ba      	ldrb	r2, [r7, #2]
 80020f8:	715a      	strb	r2, [r3, #5]
	module->LoRa_Rate = LoRa_Rate;
 80020fa:	687b      	ldr	r3, [r7, #4]
 80020fc:	787a      	ldrb	r2, [r7, #1]
 80020fe:	719a      	strb	r2, [r3, #6]
	module->LoRa_BW = LoRa_BW;
 8002100:	687b      	ldr	r3, [r7, #4]
 8002102:	7c3a      	ldrb	r2, [r7, #16]
 8002104:	71da      	strb	r2, [r3, #7]
	module->packetLength = packetLength;
 8002106:	687b      	ldr	r3, [r7, #4]
 8002108:	7d3a      	ldrb	r2, [r7, #20]
 800210a:	721a      	strb	r2, [r3, #8]
	SX1278_defaultConfig(module);
 800210c:	6878      	ldr	r0, [r7, #4]
 800210e:	f7ff fe4b 	bl	8001da8 <SX1278_defaultConfig>
}
 8002112:	bf00      	nop
 8002114:	3708      	adds	r7, #8
 8002116:	46bd      	mov	sp, r7
 8002118:	bd80      	pop	{r7, pc}
	...

0800211c <MX_USART6_UART_Init>:
  * @brief USART6 Initialization Function
  * @param None
  * @retval None
  */
void MX_USART6_UART_Init(void)
{
 800211c:	b580      	push	{r7, lr}
 800211e:	af00      	add	r7, sp, #0
  /* USER CODE END USART6_Init 0 */

  /* USER CODE BEGIN USART6_Init 1 */

  /* USER CODE END USART6_Init 1 */
  huart6.Instance = USART6;
 8002120:	4b11      	ldr	r3, [pc, #68]	; (8002168 <MX_USART6_UART_Init+0x4c>)
 8002122:	4a12      	ldr	r2, [pc, #72]	; (800216c <MX_USART6_UART_Init+0x50>)
 8002124:	601a      	str	r2, [r3, #0]
  huart6.Init.BaudRate = 9600;
 8002126:	4b10      	ldr	r3, [pc, #64]	; (8002168 <MX_USART6_UART_Init+0x4c>)
 8002128:	f44f 5216 	mov.w	r2, #9600	; 0x2580
 800212c:	605a      	str	r2, [r3, #4]
  huart6.Init.WordLength = UART_WORDLENGTH_8B;
 800212e:	4b0e      	ldr	r3, [pc, #56]	; (8002168 <MX_USART6_UART_Init+0x4c>)
 8002130:	2200      	movs	r2, #0
 8002132:	609a      	str	r2, [r3, #8]
  huart6.Init.StopBits = UART_STOPBITS_1;
 8002134:	4b0c      	ldr	r3, [pc, #48]	; (8002168 <MX_USART6_UART_Init+0x4c>)
 8002136:	2200      	movs	r2, #0
 8002138:	60da      	str	r2, [r3, #12]
  huart6.Init.Parity = UART_PARITY_NONE;
 800213a:	4b0b      	ldr	r3, [pc, #44]	; (8002168 <MX_USART6_UART_Init+0x4c>)
 800213c:	2200      	movs	r2, #0
 800213e:	611a      	str	r2, [r3, #16]
  huart6.Init.Mode = UART_MODE_TX_RX;
 8002140:	4b09      	ldr	r3, [pc, #36]	; (8002168 <MX_USART6_UART_Init+0x4c>)
 8002142:	220c      	movs	r2, #12
 8002144:	615a      	str	r2, [r3, #20]
  huart6.Init.HwFlowCtl = UART_HWCONTROL_NONE;
 8002146:	4b08      	ldr	r3, [pc, #32]	; (8002168 <MX_USART6_UART_Init+0x4c>)
 8002148:	2200      	movs	r2, #0
 800214a:	619a      	str	r2, [r3, #24]
  huart6.Init.OverSampling = UART_OVERSAMPLING_16;
 800214c:	4b06      	ldr	r3, [pc, #24]	; (8002168 <MX_USART6_UART_Init+0x4c>)
 800214e:	2200      	movs	r2, #0
 8002150:	61da      	str	r2, [r3, #28]
  if (HAL_UART_Init(&huart6) != HAL_OK)
 8002152:	4805      	ldr	r0, [pc, #20]	; (8002168 <MX_USART6_UART_Init+0x4c>)
 8002154:	f003 ff08 	bl	8005f68 <HAL_UART_Init>
 8002158:	4603      	mov	r3, r0
 800215a:	2b00      	cmp	r3, #0
 800215c:	d001      	beq.n	8002162 <MX_USART6_UART_Init+0x46>
  {
    Error_Handler();
 800215e:	f000 fd24 	bl	8002baa <Error_Handler>
  }
  /* USER CODE BEGIN USART6_Init 2 */

  /* USER CODE END USART6_Init 2 */

}
 8002162:	bf00      	nop
 8002164:	bd80      	pop	{r7, pc}
 8002166:	bf00      	nop
 8002168:	200005dc 	.word	0x200005dc
 800216c:	40011400 	.word	0x40011400

08002170 <debugCharPrint>:

void debugCharPrint(char sendMessage[])
{
 8002170:	b580      	push	{r7, lr}
 8002172:	b084      	sub	sp, #16
 8002174:	af00      	add	r7, sp, #0
 8002176:	6078      	str	r0, [r7, #4]
	char newline[2] = "\r\n";
 8002178:	f640 230d 	movw	r3, #2573	; 0xa0d
 800217c:	81bb      	strh	r3, [r7, #12]
	HAL_UART_Transmit(&huart6, (uint8_t*) sendMessage, strlen(sendMessage), HAL_MAX_DELAY);
 800217e:	6878      	ldr	r0, [r7, #4]
 8002180:	f7fe f846 	bl	8000210 <strlen>
 8002184:	4603      	mov	r3, r0
 8002186:	b29a      	uxth	r2, r3
 8002188:	f04f 33ff 	mov.w	r3, #4294967295
 800218c:	6879      	ldr	r1, [r7, #4]
 800218e:	480b      	ldr	r0, [pc, #44]	; (80021bc <debugCharPrint+0x4c>)
 8002190:	f003 ff37 	bl	8006002 <HAL_UART_Transmit>
	HAL_UART_Transmit(&huart6, (uint8_t*) newline, 2, HAL_MAX_DELAY);
 8002194:	f107 010c 	add.w	r1, r7, #12
 8002198:	f04f 33ff 	mov.w	r3, #4294967295
 800219c:	2202      	movs	r2, #2
 800219e:	4807      	ldr	r0, [pc, #28]	; (80021bc <debugCharPrint+0x4c>)
 80021a0:	f003 ff2f 	bl	8006002 <HAL_UART_Transmit>
	HAL_UART_Transmit(&huart6, (uint8_t*) newline, 2, HAL_MAX_DELAY);
 80021a4:	f107 010c 	add.w	r1, r7, #12
 80021a8:	f04f 33ff 	mov.w	r3, #4294967295
 80021ac:	2202      	movs	r2, #2
 80021ae:	4803      	ldr	r0, [pc, #12]	; (80021bc <debugCharPrint+0x4c>)
 80021b0:	f003 ff27 	bl	8006002 <HAL_UART_Transmit>
}
 80021b4:	bf00      	nop
 80021b6:	3710      	adds	r7, #16
 80021b8:	46bd      	mov	sp, r7
 80021ba:	bd80      	pop	{r7, pc}
 80021bc:	200005dc 	.word	0x200005dc

080021c0 <getGnssData>:




RMC getGnssData(RMC data, Route *route)
{
 80021c0:	b084      	sub	sp, #16
 80021c2:	b5b0      	push	{r4, r5, r7, lr}
 80021c4:	b0a6      	sub	sp, #152	; 0x98
 80021c6:	af00      	add	r7, sp, #0
 80021c8:	6078      	str	r0, [r7, #4]
 80021ca:	f107 00ac 	add.w	r0, r7, #172	; 0xac
 80021ce:	e880 000e 	stmia.w	r0, {r1, r2, r3}
	char in[144] = {0};
 80021d2:	f107 0308 	add.w	r3, r7, #8
 80021d6:	2290      	movs	r2, #144	; 0x90
 80021d8:	2100      	movs	r1, #0
 80021da:	4618      	mov	r0, r3
 80021dc:	f004 fc5b 	bl	8006a96 <memset>
  	getRawRMC(in);
 80021e0:	f107 0308 	add.w	r3, r7, #8
 80021e4:	4618      	mov	r0, r3
 80021e6:	f000 fd11 	bl	8002c0c <getRawRMC>

	//debugCharPrint(in);
  	//if(in[0] == '$')
  //	{
  		data = parseRMC(in);
 80021ea:	f107 03ac 	add.w	r3, r7, #172	; 0xac
 80021ee:	f107 0208 	add.w	r2, r7, #8
 80021f2:	4611      	mov	r1, r2
 80021f4:	4618      	mov	r0, r3
 80021f6:	f000 fd1b 	bl	8002c30 <parseRMC>
  //	}
	data.bearing = getBearing(data.latConv, data.lonConv, route->currentLocation->lat, route->currentLocation->lon);
 80021fa:	edd7 7a37 	vldr	s15, [r7, #220]	; 0xdc
 80021fe:	ed97 7a38 	vldr	s14, [r7, #224]	; 0xe0
 8002202:	f8d7 30ec 	ldr.w	r3, [r7, #236]	; 0xec
 8002206:	681b      	ldr	r3, [r3, #0]
 8002208:	edd3 6a00 	vldr	s13, [r3]
 800220c:	f8d7 30ec 	ldr.w	r3, [r7, #236]	; 0xec
 8002210:	681b      	ldr	r3, [r3, #0]
 8002212:	ed93 6a01 	vldr	s12, [r3, #4]
 8002216:	eef0 1a46 	vmov.f32	s3, s12
 800221a:	eeb0 1a66 	vmov.f32	s2, s13
 800221e:	eef0 0a47 	vmov.f32	s1, s14
 8002222:	eeb0 0a67 	vmov.f32	s0, s15
 8002226:	f000 fe4f 	bl	8002ec8 <getBearing>
 800222a:	eef0 7a40 	vmov.f32	s15, s0
 800222e:	edc7 7a39 	vstr	s15, [r7, #228]	; 0xe4
	data.haversineDist = getDistance(data.latConv, data.lonConv, route->currentLocation->lat, route->currentLocation->lon);
 8002232:	edd7 7a37 	vldr	s15, [r7, #220]	; 0xdc
 8002236:	ed97 7a38 	vldr	s14, [r7, #224]	; 0xe0
 800223a:	f8d7 30ec 	ldr.w	r3, [r7, #236]	; 0xec
 800223e:	681b      	ldr	r3, [r3, #0]
 8002240:	edd3 6a00 	vldr	s13, [r3]
 8002244:	f8d7 30ec 	ldr.w	r3, [r7, #236]	; 0xec
 8002248:	681b      	ldr	r3, [r3, #0]
 800224a:	ed93 6a01 	vldr	s12, [r3, #4]
 800224e:	eef0 1a46 	vmov.f32	s3, s12
 8002252:	eeb0 1a66 	vmov.f32	s2, s13
 8002256:	eef0 0a47 	vmov.f32	s1, s14
 800225a:	eeb0 0a67 	vmov.f32	s0, s15
 800225e:	f000 ffa3 	bl	80031a8 <getDistance>
 8002262:	eef0 7a40 	vmov.f32	s15, s0
 8002266:	edc7 7a3a 	vstr	s15, [r7, #232]	; 0xe8
	payload.lat = data.latConv;
 800226a:	f8d7 30dc 	ldr.w	r3, [r7, #220]	; 0xdc
 800226e:	4a12      	ldr	r2, [pc, #72]	; (80022b8 <getGnssData+0xf8>)
 8002270:	6093      	str	r3, [r2, #8]
	payload.lon = data.lonConv;
 8002272:	f8d7 30e0 	ldr.w	r3, [r7, #224]	; 0xe0
 8002276:	4a10      	ldr	r2, [pc, #64]	; (80022b8 <getGnssData+0xf8>)
 8002278:	60d3      	str	r3, [r2, #12]
	payload.distance = data.haversineDist;
 800227a:	edd7 7a3a 	vldr	s15, [r7, #232]	; 0xe8
 800227e:	eefd 7ae7 	vcvt.s32.f32	s15, s15
 8002282:	ee17 3a90 	vmov	r3, s15
 8002286:	b21a      	sxth	r2, r3
 8002288:	4b0b      	ldr	r3, [pc, #44]	; (80022b8 <getGnssData+0xf8>)
 800228a:	801a      	strh	r2, [r3, #0]
	return data;
 800228c:	687b      	ldr	r3, [r7, #4]
 800228e:	461d      	mov	r5, r3
 8002290:	f107 04ac 	add.w	r4, r7, #172	; 0xac
 8002294:	cc0f      	ldmia	r4!, {r0, r1, r2, r3}
 8002296:	c50f      	stmia	r5!, {r0, r1, r2, r3}
 8002298:	cc0f      	ldmia	r4!, {r0, r1, r2, r3}
 800229a:	c50f      	stmia	r5!, {r0, r1, r2, r3}
 800229c:	cc0f      	ldmia	r4!, {r0, r1, r2, r3}
 800229e:	c50f      	stmia	r5!, {r0, r1, r2, r3}
 80022a0:	e894 000f 	ldmia.w	r4, {r0, r1, r2, r3}
 80022a4:	e885 000f 	stmia.w	r5, {r0, r1, r2, r3}
}
 80022a8:	6878      	ldr	r0, [r7, #4]
 80022aa:	3798      	adds	r7, #152	; 0x98
 80022ac:	46bd      	mov	sp, r7
 80022ae:	e8bd 40b0 	ldmia.w	sp!, {r4, r5, r7, lr}
 80022b2:	b004      	add	sp, #16
 80022b4:	4770      	bx	lr
 80022b6:	bf00      	nop
 80022b8:	2000061c 	.word	0x2000061c

080022bc <initLora>:
/* USER CODE BEGIN 0 */



void initLora(void)
{
 80022bc:	b580      	push	{r7, lr}
 80022be:	b082      	sub	sp, #8
 80022c0:	af02      	add	r7, sp, #8
	SX1278_hw.dio0.port = DIO0_GPIO_Port;
 80022c2:	4b16      	ldr	r3, [pc, #88]	; (800231c <initLora+0x60>)
 80022c4:	4a16      	ldr	r2, [pc, #88]	; (8002320 <initLora+0x64>)
 80022c6:	60da      	str	r2, [r3, #12]
	SX1278_hw.dio0.pin = DIO0_Pin;
 80022c8:	4b14      	ldr	r3, [pc, #80]	; (800231c <initLora+0x60>)
 80022ca:	f44f 7200 	mov.w	r2, #512	; 0x200
 80022ce:	609a      	str	r2, [r3, #8]
	SX1278_hw.nss.port = NSS_GPIO_Port;
 80022d0:	4b12      	ldr	r3, [pc, #72]	; (800231c <initLora+0x60>)
 80022d2:	4a14      	ldr	r2, [pc, #80]	; (8002324 <initLora+0x68>)
 80022d4:	615a      	str	r2, [r3, #20]
	SX1278_hw.nss.pin = NSS_Pin;
 80022d6:	4b11      	ldr	r3, [pc, #68]	; (800231c <initLora+0x60>)
 80022d8:	2210      	movs	r2, #16
 80022da:	611a      	str	r2, [r3, #16]
	SX1278_hw.reset.port = RESET_LORA_GPIO_Port;
 80022dc:	4b0f      	ldr	r3, [pc, #60]	; (800231c <initLora+0x60>)
 80022de:	4a10      	ldr	r2, [pc, #64]	; (8002320 <initLora+0x64>)
 80022e0:	605a      	str	r2, [r3, #4]
	SX1278_hw.reset.pin = RESET_LORA_Pin;
 80022e2:	4b0e      	ldr	r3, [pc, #56]	; (800231c <initLora+0x60>)
 80022e4:	2210      	movs	r2, #16
 80022e6:	601a      	str	r2, [r3, #0]
	SX1278_hw.spi = &hspi1;
 80022e8:	4b0c      	ldr	r3, [pc, #48]	; (800231c <initLora+0x60>)
 80022ea:	4a0f      	ldr	r2, [pc, #60]	; (8002328 <initLora+0x6c>)
 80022ec:	619a      	str	r2, [r3, #24]

	SX1278.hw = &SX1278_hw;
 80022ee:	4b0f      	ldr	r3, [pc, #60]	; (800232c <initLora+0x70>)
 80022f0:	4a0a      	ldr	r2, [pc, #40]	; (800231c <initLora+0x60>)
 80022f2:	601a      	str	r2, [r3, #0]

	debugCharPrint("Configuring LoRa module\r\n");
 80022f4:	480e      	ldr	r0, [pc, #56]	; (8002330 <initLora+0x74>)
 80022f6:	f7ff ff3b 	bl	8002170 <debugCharPrint>
	SX1278_begin(&SX1278, SX1278_868_5MHZ, SX1278_POWER_17DBM, SX1278_LORA_SF_7, SX1278_LORA_BW_125KHZ,100);
 80022fa:	2364      	movs	r3, #100	; 0x64
 80022fc:	9301      	str	r3, [sp, #4]
 80022fe:	2307      	movs	r3, #7
 8002300:	9300      	str	r3, [sp, #0]
 8002302:	2301      	movs	r3, #1
 8002304:	2201      	movs	r2, #1
 8002306:	2103      	movs	r1, #3
 8002308:	4808      	ldr	r0, [pc, #32]	; (800232c <initLora+0x70>)
 800230a:	f7ff fede 	bl	80020ca <SX1278_begin>
	debugCharPrint("Done configuring LoRaModule\r\n");
 800230e:	4809      	ldr	r0, [pc, #36]	; (8002334 <initLora+0x78>)
 8002310:	f7ff ff2e 	bl	8002170 <debugCharPrint>
}
 8002314:	bf00      	nop
 8002316:	46bd      	mov	sp, r7
 8002318:	bd80      	pop	{r7, pc}
 800231a:	bf00      	nop
 800231c:	2000092c 	.word	0x2000092c
 8002320:	40020800 	.word	0x40020800
 8002324:	40020000 	.word	0x40020000
 8002328:	200007c8 	.word	0x200007c8
 800232c:	20000820 	.word	0x20000820
 8002330:	0800cc38 	.word	0x0800cc38
 8002334:	0800cc54 	.word	0x0800cc54

08002338 <sendString>:
	}
	return 0;
}

void sendString(char message[])
{
 8002338:	b580      	push	{r7, lr}
 800233a:	b082      	sub	sp, #8
 800233c:	af00      	add	r7, sp, #0
 800233e:	6078      	str	r0, [r7, #4]
			//debugCharPrint("Master ...");
			//HAL_Delay(2500);
			//debugCharPrint("Sending package...");

			message_length = sprintf(buffer, message);
 8002340:	6879      	ldr	r1, [r7, #4]
 8002342:	4818      	ldr	r0, [pc, #96]	; (80023a4 <sendString+0x6c>)
 8002344:	f005 f8c4 	bl	80074d0 <siprintf>
 8002348:	4602      	mov	r2, r0
 800234a:	4b17      	ldr	r3, [pc, #92]	; (80023a8 <sendString+0x70>)
 800234c:	601a      	str	r2, [r3, #0]
			HAL_GPIO_WritePin(GPIOA, GPIO_PIN_11, GPIO_PIN_SET);
 800234e:	2201      	movs	r2, #1
 8002350:	f44f 6100 	mov.w	r1, #2048	; 0x800
 8002354:	4815      	ldr	r0, [pc, #84]	; (80023ac <sendString+0x74>)
 8002356:	f001 ff27 	bl	80041a8 <HAL_GPIO_WritePin>
			ret = SX1278_LoRaEntryTx(&SX1278, message_length, timeOut);
 800235a:	4b13      	ldr	r3, [pc, #76]	; (80023a8 <sendString+0x70>)
 800235c:	681b      	ldr	r3, [r3, #0]
 800235e:	b2db      	uxtb	r3, r3
 8002360:	f44f 62fa 	mov.w	r2, #2000	; 0x7d0
 8002364:	4619      	mov	r1, r3
 8002366:	4812      	ldr	r0, [pc, #72]	; (80023b0 <sendString+0x78>)
 8002368:	f7ff fe18 	bl	8001f9c <SX1278_LoRaEntryTx>
 800236c:	4602      	mov	r2, r0
 800236e:	4b11      	ldr	r3, [pc, #68]	; (80023b4 <sendString+0x7c>)
 8002370:	601a      	str	r2, [r3, #0]
//			debugCharPrint("Entry: ");
//			debugCharPrint("Sending ");
//			debugCharPrint(buffer);

			ret = SX1278_LoRaTxPacket(&SX1278, (uint8_t *) buffer, message_length, timeOut);
 8002372:	4b0d      	ldr	r3, [pc, #52]	; (80023a8 <sendString+0x70>)
 8002374:	681b      	ldr	r3, [r3, #0]
 8002376:	b2da      	uxtb	r2, r3
 8002378:	f44f 63fa 	mov.w	r3, #2000	; 0x7d0
 800237c:	4909      	ldr	r1, [pc, #36]	; (80023a4 <sendString+0x6c>)
 800237e:	480c      	ldr	r0, [pc, #48]	; (80023b0 <sendString+0x78>)
 8002380:	f7ff fe64 	bl	800204c <SX1278_LoRaTxPacket>
 8002384:	4602      	mov	r2, r0
 8002386:	4b0b      	ldr	r3, [pc, #44]	; (80023b4 <sendString+0x7c>)
 8002388:	601a      	str	r2, [r3, #0]


			if (ret)
 800238a:	4b0a      	ldr	r3, [pc, #40]	; (80023b4 <sendString+0x7c>)
 800238c:	681b      	ldr	r3, [r3, #0]
 800238e:	2b00      	cmp	r3, #0
 8002390:	d004      	beq.n	800239c <sendString+0x64>
			{
				//debugCharPrint("Transmission successful...");
				HAL_GPIO_TogglePin(LED_D1_GPIO_Port, LED_D1_Pin);
 8002392:	f44f 5180 	mov.w	r1, #4096	; 0x1000
 8002396:	4808      	ldr	r0, [pc, #32]	; (80023b8 <sendString+0x80>)
 8002398:	f001 ff1f 	bl	80041da <HAL_GPIO_TogglePin>
			else
			{
				//debugCharPrint("Transmission failed...");

			}
}
 800239c:	bf00      	nop
 800239e:	3708      	adds	r7, #8
 80023a0:	46bd      	mov	sp, r7
 80023a2:	bd80      	pop	{r7, pc}
 80023a4:	2000044c 	.word	0x2000044c
 80023a8:	200002b8 	.word	0x200002b8
 80023ac:	40020000 	.word	0x40020000
 80023b0:	20000820 	.word	0x20000820
 80023b4:	2000067c 	.word	0x2000067c
 80023b8:	40020400 	.word	0x40020400

080023bc <payload2string>:

void payload2string(payloadTag *payload)
{
 80023bc:	b590      	push	{r4, r7, lr}
 80023be:	b089      	sub	sp, #36	; 0x24
 80023c0:	af00      	add	r7, sp, #0
 80023c2:	6078      	str	r0, [r7, #4]
	char tmpstr[20];
	memset(&payloadString[0], 0, sizeof(payloadString));
 80023c4:	22c8      	movs	r2, #200	; 0xc8
 80023c6:	2100      	movs	r1, #0
 80023c8:	4895      	ldr	r0, [pc, #596]	; (8002620 <payload2string+0x264>)
 80023ca:	f004 fb64 	bl	8006a96 <memset>

	sprintf(tmpstr, "%d ", payload->distance);
 80023ce:	687b      	ldr	r3, [r7, #4]
 80023d0:	f9b3 3000 	ldrsh.w	r3, [r3]
 80023d4:	461a      	mov	r2, r3
 80023d6:	f107 030c 	add.w	r3, r7, #12
 80023da:	4992      	ldr	r1, [pc, #584]	; (8002624 <payload2string+0x268>)
 80023dc:	4618      	mov	r0, r3
 80023de:	f005 f877 	bl	80074d0 <siprintf>
	strcat(payloadString, tmpstr);
 80023e2:	f107 030c 	add.w	r3, r7, #12
 80023e6:	4619      	mov	r1, r3
 80023e8:	488d      	ldr	r0, [pc, #564]	; (8002620 <payload2string+0x264>)
 80023ea:	f005 f891 	bl	8007510 <strcat>
	sprintf(tmpstr, "%d ", payload->bearing);
 80023ee:	687b      	ldr	r3, [r7, #4]
 80023f0:	f9b3 3002 	ldrsh.w	r3, [r3, #2]
 80023f4:	461a      	mov	r2, r3
 80023f6:	f107 030c 	add.w	r3, r7, #12
 80023fa:	498a      	ldr	r1, [pc, #552]	; (8002624 <payload2string+0x268>)
 80023fc:	4618      	mov	r0, r3
 80023fe:	f005 f867 	bl	80074d0 <siprintf>
	strcat(payloadString, tmpstr);
 8002402:	f107 030c 	add.w	r3, r7, #12
 8002406:	4619      	mov	r1, r3
 8002408:	4885      	ldr	r0, [pc, #532]	; (8002620 <payload2string+0x264>)
 800240a:	f005 f881 	bl	8007510 <strcat>
	sprintf(tmpstr, "%d ", payload->cog);
 800240e:	687b      	ldr	r3, [r7, #4]
 8002410:	f9b3 3004 	ldrsh.w	r3, [r3, #4]
 8002414:	461a      	mov	r2, r3
 8002416:	f107 030c 	add.w	r3, r7, #12
 800241a:	4982      	ldr	r1, [pc, #520]	; (8002624 <payload2string+0x268>)
 800241c:	4618      	mov	r0, r3
 800241e:	f005 f857 	bl	80074d0 <siprintf>
	strcat(payloadString, tmpstr);
 8002422:	f107 030c 	add.w	r3, r7, #12
 8002426:	4619      	mov	r1, r3
 8002428:	487d      	ldr	r0, [pc, #500]	; (8002620 <payload2string+0x264>)
 800242a:	f005 f871 	bl	8007510 <strcat>

	sprintf(tmpstr, "%.09f ", payload->lat);
 800242e:	687b      	ldr	r3, [r7, #4]
 8002430:	689b      	ldr	r3, [r3, #8]
 8002432:	4618      	mov	r0, r3
 8002434:	f7fe f8a8 	bl	8000588 <__aeabi_f2d>
 8002438:	4603      	mov	r3, r0
 800243a:	460c      	mov	r4, r1
 800243c:	f107 000c 	add.w	r0, r7, #12
 8002440:	461a      	mov	r2, r3
 8002442:	4623      	mov	r3, r4
 8002444:	4978      	ldr	r1, [pc, #480]	; (8002628 <payload2string+0x26c>)
 8002446:	f005 f843 	bl	80074d0 <siprintf>
	strcat(payloadString, tmpstr);
 800244a:	f107 030c 	add.w	r3, r7, #12
 800244e:	4619      	mov	r1, r3
 8002450:	4873      	ldr	r0, [pc, #460]	; (8002620 <payload2string+0x264>)
 8002452:	f005 f85d 	bl	8007510 <strcat>
	sprintf(tmpstr, "%.09f ", payload->lon);
 8002456:	687b      	ldr	r3, [r7, #4]
 8002458:	68db      	ldr	r3, [r3, #12]
 800245a:	4618      	mov	r0, r3
 800245c:	f7fe f894 	bl	8000588 <__aeabi_f2d>
 8002460:	4603      	mov	r3, r0
 8002462:	460c      	mov	r4, r1
 8002464:	f107 000c 	add.w	r0, r7, #12
 8002468:	461a      	mov	r2, r3
 800246a:	4623      	mov	r3, r4
 800246c:	496e      	ldr	r1, [pc, #440]	; (8002628 <payload2string+0x26c>)
 800246e:	f005 f82f 	bl	80074d0 <siprintf>
	strcat(payloadString, tmpstr);
 8002472:	f107 030c 	add.w	r3, r7, #12
 8002476:	4619      	mov	r1, r3
 8002478:	4869      	ldr	r0, [pc, #420]	; (8002620 <payload2string+0x264>)
 800247a:	f005 f849 	bl	8007510 <strcat>

	sprintf(tmpstr, "%.03f ", payload->PTerm);
 800247e:	687b      	ldr	r3, [r7, #4]
 8002480:	691b      	ldr	r3, [r3, #16]
 8002482:	4618      	mov	r0, r3
 8002484:	f7fe f880 	bl	8000588 <__aeabi_f2d>
 8002488:	4603      	mov	r3, r0
 800248a:	460c      	mov	r4, r1
 800248c:	f107 000c 	add.w	r0, r7, #12
 8002490:	461a      	mov	r2, r3
 8002492:	4623      	mov	r3, r4
 8002494:	4965      	ldr	r1, [pc, #404]	; (800262c <payload2string+0x270>)
 8002496:	f005 f81b 	bl	80074d0 <siprintf>
	strcat(payloadString, tmpstr);
 800249a:	f107 030c 	add.w	r3, r7, #12
 800249e:	4619      	mov	r1, r3
 80024a0:	485f      	ldr	r0, [pc, #380]	; (8002620 <payload2string+0x264>)
 80024a2:	f005 f835 	bl	8007510 <strcat>
	sprintf(tmpstr, "%.03f ", payload->ITerm);
 80024a6:	687b      	ldr	r3, [r7, #4]
 80024a8:	695b      	ldr	r3, [r3, #20]
 80024aa:	4618      	mov	r0, r3
 80024ac:	f7fe f86c 	bl	8000588 <__aeabi_f2d>
 80024b0:	4603      	mov	r3, r0
 80024b2:	460c      	mov	r4, r1
 80024b4:	f107 000c 	add.w	r0, r7, #12
 80024b8:	461a      	mov	r2, r3
 80024ba:	4623      	mov	r3, r4
 80024bc:	495b      	ldr	r1, [pc, #364]	; (800262c <payload2string+0x270>)
 80024be:	f005 f807 	bl	80074d0 <siprintf>
	strcat(payloadString, tmpstr);
 80024c2:	f107 030c 	add.w	r3, r7, #12
 80024c6:	4619      	mov	r1, r3
 80024c8:	4855      	ldr	r0, [pc, #340]	; (8002620 <payload2string+0x264>)
 80024ca:	f005 f821 	bl	8007510 <strcat>
	sprintf(tmpstr, "%.03f ", payload->DTerm);
 80024ce:	687b      	ldr	r3, [r7, #4]
 80024d0:	699b      	ldr	r3, [r3, #24]
 80024d2:	4618      	mov	r0, r3
 80024d4:	f7fe f858 	bl	8000588 <__aeabi_f2d>
 80024d8:	4603      	mov	r3, r0
 80024da:	460c      	mov	r4, r1
 80024dc:	f107 000c 	add.w	r0, r7, #12
 80024e0:	461a      	mov	r2, r3
 80024e2:	4623      	mov	r3, r4
 80024e4:	4951      	ldr	r1, [pc, #324]	; (800262c <payload2string+0x270>)
 80024e6:	f004 fff3 	bl	80074d0 <siprintf>
	strcat(payloadString, tmpstr);
 80024ea:	f107 030c 	add.w	r3, r7, #12
 80024ee:	4619      	mov	r1, r3
 80024f0:	484b      	ldr	r0, [pc, #300]	; (8002620 <payload2string+0x264>)
 80024f2:	f005 f80d 	bl	8007510 <strcat>
	sprintf(tmpstr, "%.03f ", payload->errorAngle);
 80024f6:	687b      	ldr	r3, [r7, #4]
 80024f8:	69db      	ldr	r3, [r3, #28]
 80024fa:	4618      	mov	r0, r3
 80024fc:	f7fe f844 	bl	8000588 <__aeabi_f2d>
 8002500:	4603      	mov	r3, r0
 8002502:	460c      	mov	r4, r1
 8002504:	f107 000c 	add.w	r0, r7, #12
 8002508:	461a      	mov	r2, r3
 800250a:	4623      	mov	r3, r4
 800250c:	4947      	ldr	r1, [pc, #284]	; (800262c <payload2string+0x270>)
 800250e:	f004 ffdf 	bl	80074d0 <siprintf>
	strcat(payloadString, tmpstr);
 8002512:	f107 030c 	add.w	r3, r7, #12
 8002516:	4619      	mov	r1, r3
 8002518:	4841      	ldr	r0, [pc, #260]	; (8002620 <payload2string+0x264>)
 800251a:	f004 fff9 	bl	8007510 <strcat>
	sprintf(tmpstr, "%.03f ", payload->PIDperc);
 800251e:	687b      	ldr	r3, [r7, #4]
 8002520:	6a1b      	ldr	r3, [r3, #32]
 8002522:	4618      	mov	r0, r3
 8002524:	f7fe f830 	bl	8000588 <__aeabi_f2d>
 8002528:	4603      	mov	r3, r0
 800252a:	460c      	mov	r4, r1
 800252c:	f107 000c 	add.w	r0, r7, #12
 8002530:	461a      	mov	r2, r3
 8002532:	4623      	mov	r3, r4
 8002534:	493d      	ldr	r1, [pc, #244]	; (800262c <payload2string+0x270>)
 8002536:	f004 ffcb 	bl	80074d0 <siprintf>
	strcat(payloadString, tmpstr);
 800253a:	f107 030c 	add.w	r3, r7, #12
 800253e:	4619      	mov	r1, r3
 8002540:	4837      	ldr	r0, [pc, #220]	; (8002620 <payload2string+0x264>)
 8002542:	f004 ffe5 	bl	8007510 <strcat>
	sprintf(tmpstr, "%.03f ", payload->MotorL);
 8002546:	687b      	ldr	r3, [r7, #4]
 8002548:	6a5b      	ldr	r3, [r3, #36]	; 0x24
 800254a:	4618      	mov	r0, r3
 800254c:	f7fe f81c 	bl	8000588 <__aeabi_f2d>
 8002550:	4603      	mov	r3, r0
 8002552:	460c      	mov	r4, r1
 8002554:	f107 000c 	add.w	r0, r7, #12
 8002558:	461a      	mov	r2, r3
 800255a:	4623      	mov	r3, r4
 800255c:	4933      	ldr	r1, [pc, #204]	; (800262c <payload2string+0x270>)
 800255e:	f004 ffb7 	bl	80074d0 <siprintf>
	strcat(payloadString, tmpstr);
 8002562:	f107 030c 	add.w	r3, r7, #12
 8002566:	4619      	mov	r1, r3
 8002568:	482d      	ldr	r0, [pc, #180]	; (8002620 <payload2string+0x264>)
 800256a:	f004 ffd1 	bl	8007510 <strcat>
	sprintf(tmpstr, "%.03f ", payload->MotorR);
 800256e:	687b      	ldr	r3, [r7, #4]
 8002570:	6a9b      	ldr	r3, [r3, #40]	; 0x28
 8002572:	4618      	mov	r0, r3
 8002574:	f7fe f808 	bl	8000588 <__aeabi_f2d>
 8002578:	4603      	mov	r3, r0
 800257a:	460c      	mov	r4, r1
 800257c:	f107 000c 	add.w	r0, r7, #12
 8002580:	461a      	mov	r2, r3
 8002582:	4623      	mov	r3, r4
 8002584:	4929      	ldr	r1, [pc, #164]	; (800262c <payload2string+0x270>)
 8002586:	f004 ffa3 	bl	80074d0 <siprintf>
	strcat(payloadString, tmpstr);
 800258a:	f107 030c 	add.w	r3, r7, #12
 800258e:	4619      	mov	r1, r3
 8002590:	4823      	ldr	r0, [pc, #140]	; (8002620 <payload2string+0x264>)
 8002592:	f004 ffbd 	bl	8007510 <strcat>
	sprintf(tmpstr, "%d ", payload->Servo);
 8002596:	687b      	ldr	r3, [r7, #4]
 8002598:	f9b3 302c 	ldrsh.w	r3, [r3, #44]	; 0x2c
 800259c:	461a      	mov	r2, r3
 800259e:	f107 030c 	add.w	r3, r7, #12
 80025a2:	4920      	ldr	r1, [pc, #128]	; (8002624 <payload2string+0x268>)
 80025a4:	4618      	mov	r0, r3
 80025a6:	f004 ff93 	bl	80074d0 <siprintf>
	strcat(payloadString, tmpstr);
 80025aa:	f107 030c 	add.w	r3, r7, #12
 80025ae:	4619      	mov	r1, r3
 80025b0:	481b      	ldr	r0, [pc, #108]	; (8002620 <payload2string+0x264>)
 80025b2:	f004 ffad 	bl	8007510 <strcat>
	sprintf(tmpstr, "%.03f ", payload->SampleTime);
 80025b6:	687b      	ldr	r3, [r7, #4]
 80025b8:	6b1b      	ldr	r3, [r3, #48]	; 0x30
 80025ba:	4618      	mov	r0, r3
 80025bc:	f7fd ffe4 	bl	8000588 <__aeabi_f2d>
 80025c0:	4603      	mov	r3, r0
 80025c2:	460c      	mov	r4, r1
 80025c4:	f107 000c 	add.w	r0, r7, #12
 80025c8:	461a      	mov	r2, r3
 80025ca:	4623      	mov	r3, r4
 80025cc:	4917      	ldr	r1, [pc, #92]	; (800262c <payload2string+0x270>)
 80025ce:	f004 ff7f 	bl	80074d0 <siprintf>
	strcat(payloadString, tmpstr);
 80025d2:	f107 030c 	add.w	r3, r7, #12
 80025d6:	4619      	mov	r1, r3
 80025d8:	4811      	ldr	r0, [pc, #68]	; (8002620 <payload2string+0x264>)
 80025da:	f004 ff99 	bl	8007510 <strcat>
	sprintf(tmpstr, "%d ", payload->destination);
 80025de:	687b      	ldr	r3, [r7, #4]
 80025e0:	6b5a      	ldr	r2, [r3, #52]	; 0x34
 80025e2:	f107 030c 	add.w	r3, r7, #12
 80025e6:	490f      	ldr	r1, [pc, #60]	; (8002624 <payload2string+0x268>)
 80025e8:	4618      	mov	r0, r3
 80025ea:	f004 ff71 	bl	80074d0 <siprintf>
	strcat(payloadString, tmpstr);
 80025ee:	f107 030c 	add.w	r3, r7, #12
 80025f2:	4619      	mov	r1, r3
 80025f4:	480a      	ldr	r0, [pc, #40]	; (8002620 <payload2string+0x264>)
 80025f6:	f004 ff8b 	bl	8007510 <strcat>
	sprintf(tmpstr, "%d ", payload->arrived_spots);
 80025fa:	687b      	ldr	r3, [r7, #4]
 80025fc:	6b9a      	ldr	r2, [r3, #56]	; 0x38
 80025fe:	f107 030c 	add.w	r3, r7, #12
 8002602:	4908      	ldr	r1, [pc, #32]	; (8002624 <payload2string+0x268>)
 8002604:	4618      	mov	r0, r3
 8002606:	f004 ff63 	bl	80074d0 <siprintf>
	strcat(payloadString, tmpstr);
 800260a:	f107 030c 	add.w	r3, r7, #12
 800260e:	4619      	mov	r1, r3
 8002610:	4803      	ldr	r0, [pc, #12]	; (8002620 <payload2string+0x264>)
 8002612:	f004 ff7d 	bl	8007510 <strcat>
}
 8002616:	bf00      	nop
 8002618:	3724      	adds	r7, #36	; 0x24
 800261a:	46bd      	mov	sp, r7
 800261c:	bd90      	pop	{r4, r7, pc}
 800261e:	bf00      	nop
 8002620:	20000384 	.word	0x20000384
 8002624:	0800cda8 	.word	0x0800cda8
 8002628:	0800cdac 	.word	0x0800cdac
 800262c:	0800cdb4 	.word	0x0800cdb4

08002630 <main>:
/**
  * @brief  The application entry point.
  * @retval int
  */
int main(void)
{
 8002630:	b580      	push	{r7, lr}
 8002632:	af00      	add	r7, sp, #0
  /* USER CODE BEGIN 1 */
    list = createList();
 8002634:	f001 fa1c 	bl	8003a70 <createList>
 8002638:	4602      	mov	r2, r0
 800263a:	4b22      	ldr	r3, [pc, #136]	; (80026c4 <main+0x94>)
 800263c:	601a      	str	r2, [r3, #0]
	addTask(list, 125, 2, GNSS);
 800263e:	4b21      	ldr	r3, [pc, #132]	; (80026c4 <main+0x94>)
 8002640:	6818      	ldr	r0, [r3, #0]
 8002642:	4b21      	ldr	r3, [pc, #132]	; (80026c8 <main+0x98>)
 8002644:	2202      	movs	r2, #2
 8002646:	217d      	movs	r1, #125	; 0x7d
 8002648:	f001 fa25 	bl	8003a96 <addTask>
	addTask(list, 125, 3, PID);
 800264c:	4b1d      	ldr	r3, [pc, #116]	; (80026c4 <main+0x94>)
 800264e:	6818      	ldr	r0, [r3, #0]
 8002650:	4b1e      	ldr	r3, [pc, #120]	; (80026cc <main+0x9c>)
 8002652:	2203      	movs	r2, #3
 8002654:	217d      	movs	r1, #125	; 0x7d
 8002656:	f001 fa1e 	bl	8003a96 <addTask>
	addTask(list, 1000, 1, loraSend); //1500
 800265a:	4b1a      	ldr	r3, [pc, #104]	; (80026c4 <main+0x94>)
 800265c:	6818      	ldr	r0, [r3, #0]
 800265e:	4b1c      	ldr	r3, [pc, #112]	; (80026d0 <main+0xa0>)
 8002660:	2201      	movs	r2, #1
 8002662:	f44f 717a 	mov.w	r1, #1000	; 0x3e8
 8002666:	f001 fa16 	bl	8003a96 <addTask>
	//addTask(list, 1100, 3, loraReceive);

	addTask(list, 1, 10, sleep);
 800266a:	4b16      	ldr	r3, [pc, #88]	; (80026c4 <main+0x94>)
 800266c:	6818      	ldr	r0, [r3, #0]
 800266e:	4b19      	ldr	r3, [pc, #100]	; (80026d4 <main+0xa4>)
 8002670:	220a      	movs	r2, #10
 8002672:	2101      	movs	r1, #1
 8002674:	f001 fa0f 	bl	8003a96 <addTask>

  /* USER CODE END 1 */


	/* USER CODE BEGIN 2 */
	route = createRoute();
 8002678:	f000 feca 	bl	8003410 <createRoute>
 800267c:	4602      	mov	r2, r0
 800267e:	4b16      	ldr	r3, [pc, #88]	; (80026d8 <main+0xa8>)
 8002680:	601a      	str	r2, [r3, #0]

  addLocation(route, 52.017858, 4.422356); //einde kippenhok
 8002682:	4b15      	ldr	r3, [pc, #84]	; (80026d8 <main+0xa8>)
 8002684:	681b      	ldr	r3, [r3, #0]
 8002686:	eddf 0a15 	vldr	s1, [pc, #84]	; 80026dc <main+0xac>
 800268a:	ed9f 0a15 	vldr	s0, [pc, #84]	; 80026e0 <main+0xb0>
 800268e:	4618      	mov	r0, r3
 8002690:	f000 fed1 	bl	8003436 <addLocation>
//	addLocation(route, 52.035254, 4.402910);

  /* MCU Configuration--------------------------------------------------------*/

  /* Reset of all peripherals, Initializes the Flash interface and the Systick. */
  HAL_Init();
 8002694:	f001 fa60 	bl	8003b58 <HAL_Init>
  /* USER CODE BEGIN Init */

  /* USER CODE END Init */

  /* Configure the system clock */
  SystemClock_Config();
 8002698:	f000 f824 	bl	80026e4 <SystemClock_Config>
  /* USER CODE BEGIN SysInit */

  /* USER CODE END SysInit */

  /* Initialize all configured peripherals */
  MX_GPIO_Init();
 800269c:	f000 f88c 	bl	80027b8 <MX_GPIO_Init>
  MX_USART2_UART_Init();
 80026a0:	f000 fa8a 	bl	8002bb8 <MX_USART2_UART_Init>
  MX_USART6_UART_Init();
 80026a4:	f7ff fd3a 	bl	800211c <MX_USART6_UART_Init>
  MX_USART1_UART_Init();
 80026a8:	f7fe fc8e 	bl	8000fc8 <MX_USART1_UART_Init>

  MX_SPI1_Init();
 80026ac:	f000 f93e 	bl	800292c <MX_SPI1_Init>


  /* USER CODE BEGIN 2 */
  PID_init();
 80026b0:	f7ff fa22 	bl	8001af8 <PID_init>
  initLora();
 80026b4:	f7ff fe02 	bl	80022bc <initLora>
  initEngine();
 80026b8:	f7ff f95a 	bl	8001970 <initEngine>
  MX_TIM11_Init();
 80026bc:	f000 f90a 	bl	80028d4 <MX_TIM11_Init>
  /* USER CODE END 2 */

  /* Infinite loop */
  /* USER CODE BEGIN WHILE */
  while (1)
 80026c0:	e7fe      	b.n	80026c0 <main+0x90>
 80026c2:	bf00      	nop
 80026c4:	20000948 	.word	0x20000948
 80026c8:	08002999 	.word	0x08002999
 80026cc:	08002b05 	.word	0x08002b05
 80026d0:	08002a91 	.word	0x08002a91
 80026d4:	08002b9d 	.word	0x08002b9d
 80026d8:	2000098c 	.word	0x2000098c
 80026dc:	408d83f1 	.word	0x408d83f1
 80026e0:	42501249 	.word	0x42501249

080026e4 <SystemClock_Config>:
  * @retval None
  */


void SystemClock_Config(void)
{
 80026e4:	b580      	push	{r7, lr}
 80026e6:	b094      	sub	sp, #80	; 0x50
 80026e8:	af00      	add	r7, sp, #0
  RCC_OscInitTypeDef RCC_OscInitStruct = {0};
 80026ea:	f107 031c 	add.w	r3, r7, #28
 80026ee:	2234      	movs	r2, #52	; 0x34
 80026f0:	2100      	movs	r1, #0
 80026f2:	4618      	mov	r0, r3
 80026f4:	f004 f9cf 	bl	8006a96 <memset>
  RCC_ClkInitTypeDef RCC_ClkInitStruct = {0};
 80026f8:	f107 0308 	add.w	r3, r7, #8
 80026fc:	2200      	movs	r2, #0
 80026fe:	601a      	str	r2, [r3, #0]
 8002700:	605a      	str	r2, [r3, #4]
 8002702:	609a      	str	r2, [r3, #8]
 8002704:	60da      	str	r2, [r3, #12]
 8002706:	611a      	str	r2, [r3, #16]

  /** Configure the main internal regulator output voltage
  */
  __HAL_RCC_PWR_CLK_ENABLE();
 8002708:	2300      	movs	r3, #0
 800270a:	607b      	str	r3, [r7, #4]
 800270c:	4b28      	ldr	r3, [pc, #160]	; (80027b0 <SystemClock_Config+0xcc>)
 800270e:	6c1b      	ldr	r3, [r3, #64]	; 0x40
 8002710:	4a27      	ldr	r2, [pc, #156]	; (80027b0 <SystemClock_Config+0xcc>)
 8002712:	f043 5380 	orr.w	r3, r3, #268435456	; 0x10000000
 8002716:	6413      	str	r3, [r2, #64]	; 0x40
 8002718:	4b25      	ldr	r3, [pc, #148]	; (80027b0 <SystemClock_Config+0xcc>)
 800271a:	6c1b      	ldr	r3, [r3, #64]	; 0x40
 800271c:	f003 5380 	and.w	r3, r3, #268435456	; 0x10000000
 8002720:	607b      	str	r3, [r7, #4]
 8002722:	687b      	ldr	r3, [r7, #4]
  __HAL_PWR_VOLTAGESCALING_CONFIG(PWR_REGULATOR_VOLTAGE_SCALE1);
 8002724:	2300      	movs	r3, #0
 8002726:	603b      	str	r3, [r7, #0]
 8002728:	4b22      	ldr	r3, [pc, #136]	; (80027b4 <SystemClock_Config+0xd0>)
 800272a:	681b      	ldr	r3, [r3, #0]
 800272c:	4a21      	ldr	r2, [pc, #132]	; (80027b4 <SystemClock_Config+0xd0>)
 800272e:	f443 4340 	orr.w	r3, r3, #49152	; 0xc000
 8002732:	6013      	str	r3, [r2, #0]
 8002734:	4b1f      	ldr	r3, [pc, #124]	; (80027b4 <SystemClock_Config+0xd0>)
 8002736:	681b      	ldr	r3, [r3, #0]
 8002738:	f403 4340 	and.w	r3, r3, #49152	; 0xc000
 800273c:	603b      	str	r3, [r7, #0]
 800273e:	683b      	ldr	r3, [r7, #0]
  /** Initializes the CPU, AHB and APB busses clocks
  */
  RCC_OscInitStruct.OscillatorType = RCC_OSCILLATORTYPE_HSI;
 8002740:	2302      	movs	r3, #2
 8002742:	61fb      	str	r3, [r7, #28]
  RCC_OscInitStruct.HSIState = RCC_HSI_ON;
 8002744:	2301      	movs	r3, #1
 8002746:	62bb      	str	r3, [r7, #40]	; 0x28
  RCC_OscInitStruct.HSICalibrationValue = RCC_HSICALIBRATION_DEFAULT;
 8002748:	2310      	movs	r3, #16
 800274a:	62fb      	str	r3, [r7, #44]	; 0x2c
  RCC_OscInitStruct.PLL.PLLState = RCC_PLL_ON;
 800274c:	2302      	movs	r3, #2
 800274e:	637b      	str	r3, [r7, #52]	; 0x34
  RCC_OscInitStruct.PLL.PLLSource = RCC_PLLSOURCE_HSI;
 8002750:	2300      	movs	r3, #0
 8002752:	63bb      	str	r3, [r7, #56]	; 0x38
  RCC_OscInitStruct.PLL.PLLM = 8;
 8002754:	2308      	movs	r3, #8
 8002756:	63fb      	str	r3, [r7, #60]	; 0x3c
  RCC_OscInitStruct.PLL.PLLN = 100;
 8002758:	2364      	movs	r3, #100	; 0x64
 800275a:	643b      	str	r3, [r7, #64]	; 0x40
  RCC_OscInitStruct.PLL.PLLP = RCC_PLLP_DIV2;
 800275c:	2302      	movs	r3, #2
 800275e:	647b      	str	r3, [r7, #68]	; 0x44
  RCC_OscInitStruct.PLL.PLLQ = 4;
 8002760:	2304      	movs	r3, #4
 8002762:	64bb      	str	r3, [r7, #72]	; 0x48
  RCC_OscInitStruct.PLL.PLLR = 2;
 8002764:	2302      	movs	r3, #2
 8002766:	64fb      	str	r3, [r7, #76]	; 0x4c
  if (HAL_RCC_OscConfig(&RCC_OscInitStruct) != HAL_OK)
 8002768:	f107 031c 	add.w	r3, r7, #28
 800276c:	4618      	mov	r0, r3
 800276e:	f001 ff1b 	bl	80045a8 <HAL_RCC_OscConfig>
 8002772:	4603      	mov	r3, r0
 8002774:	2b00      	cmp	r3, #0
 8002776:	d001      	beq.n	800277c <SystemClock_Config+0x98>
  {
    Error_Handler();
 8002778:	f000 fa17 	bl	8002baa <Error_Handler>
  }
  /** Initializes the CPU, AHB and APB busses clocks
  */
  RCC_ClkInitStruct.ClockType = RCC_CLOCKTYPE_HCLK|RCC_CLOCKTYPE_SYSCLK
 800277c:	230f      	movs	r3, #15
 800277e:	60bb      	str	r3, [r7, #8]
                              |RCC_CLOCKTYPE_PCLK1|RCC_CLOCKTYPE_PCLK2;
  RCC_ClkInitStruct.SYSCLKSource = RCC_SYSCLKSOURCE_PLLCLK;
 8002780:	2302      	movs	r3, #2
 8002782:	60fb      	str	r3, [r7, #12]
  RCC_ClkInitStruct.AHBCLKDivider = RCC_SYSCLK_DIV1;
 8002784:	2300      	movs	r3, #0
 8002786:	613b      	str	r3, [r7, #16]
  RCC_ClkInitStruct.APB1CLKDivider = RCC_HCLK_DIV2;
 8002788:	f44f 5380 	mov.w	r3, #4096	; 0x1000
 800278c:	617b      	str	r3, [r7, #20]
  RCC_ClkInitStruct.APB2CLKDivider = RCC_HCLK_DIV1;
 800278e:	2300      	movs	r3, #0
 8002790:	61bb      	str	r3, [r7, #24]

  if (HAL_RCC_ClockConfig(&RCC_ClkInitStruct, FLASH_LATENCY_3) != HAL_OK)
 8002792:	f107 0308 	add.w	r3, r7, #8
 8002796:	2103      	movs	r1, #3
 8002798:	4618      	mov	r0, r3
 800279a:	f001 fd39 	bl	8004210 <HAL_RCC_ClockConfig>
 800279e:	4603      	mov	r3, r0
 80027a0:	2b00      	cmp	r3, #0
 80027a2:	d001      	beq.n	80027a8 <SystemClock_Config+0xc4>
  {
    Error_Handler();
 80027a4:	f000 fa01 	bl	8002baa <Error_Handler>
  }
}
 80027a8:	bf00      	nop
 80027aa:	3750      	adds	r7, #80	; 0x50
 80027ac:	46bd      	mov	sp, r7
 80027ae:	bd80      	pop	{r7, pc}
 80027b0:	40023800 	.word	0x40023800
 80027b4:	40007000 	.word	0x40007000

080027b8 <MX_GPIO_Init>:
  * @brief GPIO Initialization Function
  * @param None
  * @retval None
  */
static void MX_GPIO_Init(void)
{
 80027b8:	b580      	push	{r7, lr}
 80027ba:	b088      	sub	sp, #32
 80027bc:	af00      	add	r7, sp, #0
  GPIO_InitTypeDef GPIO_InitStruct = {0};
 80027be:	f107 030c 	add.w	r3, r7, #12
 80027c2:	2200      	movs	r2, #0
 80027c4:	601a      	str	r2, [r3, #0]
 80027c6:	605a      	str	r2, [r3, #4]
 80027c8:	609a      	str	r2, [r3, #8]
 80027ca:	60da      	str	r2, [r3, #12]
 80027cc:	611a      	str	r2, [r3, #16]

  /* GPIO Ports Clock Enable */
  __HAL_RCC_GPIOA_CLK_ENABLE();
 80027ce:	2300      	movs	r3, #0
 80027d0:	60bb      	str	r3, [r7, #8]
 80027d2:	4b3c      	ldr	r3, [pc, #240]	; (80028c4 <MX_GPIO_Init+0x10c>)
 80027d4:	6b1b      	ldr	r3, [r3, #48]	; 0x30
 80027d6:	4a3b      	ldr	r2, [pc, #236]	; (80028c4 <MX_GPIO_Init+0x10c>)
 80027d8:	f043 0301 	orr.w	r3, r3, #1
 80027dc:	6313      	str	r3, [r2, #48]	; 0x30
 80027de:	4b39      	ldr	r3, [pc, #228]	; (80028c4 <MX_GPIO_Init+0x10c>)
 80027e0:	6b1b      	ldr	r3, [r3, #48]	; 0x30
 80027e2:	f003 0301 	and.w	r3, r3, #1
 80027e6:	60bb      	str	r3, [r7, #8]
 80027e8:	68bb      	ldr	r3, [r7, #8]
  __HAL_RCC_GPIOC_CLK_ENABLE();
 80027ea:	2300      	movs	r3, #0
 80027ec:	607b      	str	r3, [r7, #4]
 80027ee:	4b35      	ldr	r3, [pc, #212]	; (80028c4 <MX_GPIO_Init+0x10c>)
 80027f0:	6b1b      	ldr	r3, [r3, #48]	; 0x30
 80027f2:	4a34      	ldr	r2, [pc, #208]	; (80028c4 <MX_GPIO_Init+0x10c>)
 80027f4:	f043 0304 	orr.w	r3, r3, #4
 80027f8:	6313      	str	r3, [r2, #48]	; 0x30
 80027fa:	4b32      	ldr	r3, [pc, #200]	; (80028c4 <MX_GPIO_Init+0x10c>)
 80027fc:	6b1b      	ldr	r3, [r3, #48]	; 0x30
 80027fe:	f003 0304 	and.w	r3, r3, #4
 8002802:	607b      	str	r3, [r7, #4]
 8002804:	687b      	ldr	r3, [r7, #4]
  __HAL_RCC_GPIOB_CLK_ENABLE();
 8002806:	2300      	movs	r3, #0
 8002808:	603b      	str	r3, [r7, #0]
 800280a:	4b2e      	ldr	r3, [pc, #184]	; (80028c4 <MX_GPIO_Init+0x10c>)
 800280c:	6b1b      	ldr	r3, [r3, #48]	; 0x30
 800280e:	4a2d      	ldr	r2, [pc, #180]	; (80028c4 <MX_GPIO_Init+0x10c>)
 8002810:	f043 0302 	orr.w	r3, r3, #2
 8002814:	6313      	str	r3, [r2, #48]	; 0x30
 8002816:	4b2b      	ldr	r3, [pc, #172]	; (80028c4 <MX_GPIO_Init+0x10c>)
 8002818:	6b1b      	ldr	r3, [r3, #48]	; 0x30
 800281a:	f003 0302 	and.w	r3, r3, #2
 800281e:	603b      	str	r3, [r7, #0]
 8002820:	683b      	ldr	r3, [r7, #0]

  /*Configure GPIO pin Output Level */
  HAL_GPIO_WritePin(GPIOA, NSS_Pin|GPIO_PIN_11, GPIO_PIN_RESET);
 8002822:	2200      	movs	r2, #0
 8002824:	f44f 6101 	mov.w	r1, #2064	; 0x810
 8002828:	4827      	ldr	r0, [pc, #156]	; (80028c8 <MX_GPIO_Init+0x110>)
 800282a:	f001 fcbd 	bl	80041a8 <HAL_GPIO_WritePin>

  /*Configure GPIO pin Output Level */
  HAL_GPIO_WritePin(GPIOC, RESET_LORA_Pin|GPIO_PIN_8, GPIO_PIN_RESET);
 800282e:	2200      	movs	r2, #0
 8002830:	f44f 7188 	mov.w	r1, #272	; 0x110
 8002834:	4825      	ldr	r0, [pc, #148]	; (80028cc <MX_GPIO_Init+0x114>)
 8002836:	f001 fcb7 	bl	80041a8 <HAL_GPIO_WritePin>

  /*Configure GPIO pin Output Level */
  HAL_GPIO_WritePin(GPIOB, LED_D1_Pin|GPIO_PIN_15|task3_Pin|task2_Pin
 800283a:	2200      	movs	r2, #0
 800283c:	f249 21c0 	movw	r1, #37568	; 0x92c0
 8002840:	4823      	ldr	r0, [pc, #140]	; (80028d0 <MX_GPIO_Init+0x118>)
 8002842:	f001 fcb1 	bl	80041a8 <HAL_GPIO_WritePin>
                          |ONEWIRE_DEBUG_Pin, GPIO_PIN_RESET);

  /*Configure GPIO pins : NSS_Pin PA11 */
  GPIO_InitStruct.Pin = NSS_Pin|GPIO_PIN_11;
 8002846:	f44f 6301 	mov.w	r3, #2064	; 0x810
 800284a:	60fb      	str	r3, [r7, #12]
  GPIO_InitStruct.Mode = GPIO_MODE_OUTPUT_PP;
 800284c:	2301      	movs	r3, #1
 800284e:	613b      	str	r3, [r7, #16]
  GPIO_InitStruct.Pull = GPIO_NOPULL;
 8002850:	2300      	movs	r3, #0
 8002852:	617b      	str	r3, [r7, #20]
  GPIO_InitStruct.Speed = GPIO_SPEED_FREQ_LOW;
 8002854:	2300      	movs	r3, #0
 8002856:	61bb      	str	r3, [r7, #24]
  HAL_GPIO_Init(GPIOA, &GPIO_InitStruct);
 8002858:	f107 030c 	add.w	r3, r7, #12
 800285c:	4619      	mov	r1, r3
 800285e:	481a      	ldr	r0, [pc, #104]	; (80028c8 <MX_GPIO_Init+0x110>)
 8002860:	f001 fb18 	bl	8003e94 <HAL_GPIO_Init>

  /*Configure GPIO pins : RESET_LORA_Pin PC8 */
  GPIO_InitStruct.Pin = RESET_LORA_Pin|GPIO_PIN_8;
 8002864:	f44f 7388 	mov.w	r3, #272	; 0x110
 8002868:	60fb      	str	r3, [r7, #12]
  GPIO_InitStruct.Mode = GPIO_MODE_OUTPUT_PP;
 800286a:	2301      	movs	r3, #1
 800286c:	613b      	str	r3, [r7, #16]
  GPIO_InitStruct.Pull = GPIO_NOPULL;
 800286e:	2300      	movs	r3, #0
 8002870:	617b      	str	r3, [r7, #20]
  GPIO_InitStruct.Speed = GPIO_SPEED_FREQ_LOW;
 8002872:	2300      	movs	r3, #0
 8002874:	61bb      	str	r3, [r7, #24]
  HAL_GPIO_Init(GPIOC, &GPIO_InitStruct);
 8002876:	f107 030c 	add.w	r3, r7, #12
 800287a:	4619      	mov	r1, r3
 800287c:	4813      	ldr	r0, [pc, #76]	; (80028cc <MX_GPIO_Init+0x114>)
 800287e:	f001 fb09 	bl	8003e94 <HAL_GPIO_Init>

  /*Configure GPIO pins : LED_D1_Pin PB15 task3_Pin task2_Pin
                           ONEWIRE_DEBUG_Pin */
  GPIO_InitStruct.Pin = LED_D1_Pin|GPIO_PIN_15|task3_Pin|task2_Pin
 8002882:	f249 23c0 	movw	r3, #37568	; 0x92c0
 8002886:	60fb      	str	r3, [r7, #12]
                          |ONEWIRE_DEBUG_Pin;
  GPIO_InitStruct.Mode = GPIO_MODE_OUTPUT_PP;
 8002888:	2301      	movs	r3, #1
 800288a:	613b      	str	r3, [r7, #16]
  GPIO_InitStruct.Pull = GPIO_NOPULL;
 800288c:	2300      	movs	r3, #0
 800288e:	617b      	str	r3, [r7, #20]
  GPIO_InitStruct.Speed = GPIO_SPEED_FREQ_LOW;
 8002890:	2300      	movs	r3, #0
 8002892:	61bb      	str	r3, [r7, #24]
  HAL_GPIO_Init(GPIOB, &GPIO_InitStruct);
 8002894:	f107 030c 	add.w	r3, r7, #12
 8002898:	4619      	mov	r1, r3
 800289a:	480d      	ldr	r0, [pc, #52]	; (80028d0 <MX_GPIO_Init+0x118>)
 800289c:	f001 fafa 	bl	8003e94 <HAL_GPIO_Init>

  /*Configure GPIO pin : DIO0_Pin */
  GPIO_InitStruct.Pin = DIO0_Pin;
 80028a0:	f44f 7300 	mov.w	r3, #512	; 0x200
 80028a4:	60fb      	str	r3, [r7, #12]
  GPIO_InitStruct.Mode = GPIO_MODE_INPUT;
 80028a6:	2300      	movs	r3, #0
 80028a8:	613b      	str	r3, [r7, #16]
  GPIO_InitStruct.Pull = GPIO_NOPULL;
 80028aa:	2300      	movs	r3, #0
 80028ac:	617b      	str	r3, [r7, #20]
  HAL_GPIO_Init(DIO0_GPIO_Port, &GPIO_InitStruct);
 80028ae:	f107 030c 	add.w	r3, r7, #12
 80028b2:	4619      	mov	r1, r3
 80028b4:	4805      	ldr	r0, [pc, #20]	; (80028cc <MX_GPIO_Init+0x114>)
 80028b6:	f001 faed 	bl	8003e94 <HAL_GPIO_Init>

}
 80028ba:	bf00      	nop
 80028bc:	3720      	adds	r7, #32
 80028be:	46bd      	mov	sp, r7
 80028c0:	bd80      	pop	{r7, pc}
 80028c2:	bf00      	nop
 80028c4:	40023800 	.word	0x40023800
 80028c8:	40020000 	.word	0x40020000
 80028cc:	40020800 	.word	0x40020800
 80028d0:	40020400 	.word	0x40020400

080028d4 <MX_TIM11_Init>:

static void MX_TIM11_Init(void)
{
 80028d4:	b580      	push	{r7, lr}
 80028d6:	af00      	add	r7, sp, #0
  /* USER CODE END TIM11_Init 0 */

  /* USER CODE BEGIN TIM11_Init 1 */

  /* USER CODE END TIM11_Init 1 */
  htim11.Instance = TIM11;
 80028d8:	4b12      	ldr	r3, [pc, #72]	; (8002924 <MX_TIM11_Init+0x50>)
 80028da:	4a13      	ldr	r2, [pc, #76]	; (8002928 <MX_TIM11_Init+0x54>)
 80028dc:	601a      	str	r2, [r3, #0]
  htim11.Init.Prescaler = 2;
 80028de:	4b11      	ldr	r3, [pc, #68]	; (8002924 <MX_TIM11_Init+0x50>)
 80028e0:	2202      	movs	r2, #2
 80028e2:	605a      	str	r2, [r3, #4]
  htim11.Init.CounterMode = TIM_COUNTERMODE_UP;
 80028e4:	4b0f      	ldr	r3, [pc, #60]	; (8002924 <MX_TIM11_Init+0x50>)
 80028e6:	2200      	movs	r2, #0
 80028e8:	609a      	str	r2, [r3, #8]
  htim11.Init.Period = 33705; //33332
 80028ea:	4b0e      	ldr	r3, [pc, #56]	; (8002924 <MX_TIM11_Init+0x50>)
 80028ec:	f248 32a9 	movw	r2, #33705	; 0x83a9
 80028f0:	60da      	str	r2, [r3, #12]
  htim11.Init.ClockDivision = TIM_CLOCKDIVISION_DIV1;
 80028f2:	4b0c      	ldr	r3, [pc, #48]	; (8002924 <MX_TIM11_Init+0x50>)
 80028f4:	2200      	movs	r2, #0
 80028f6:	611a      	str	r2, [r3, #16]
  htim11.Init.AutoReloadPreload = TIM_AUTORELOAD_PRELOAD_ENABLE;
 80028f8:	4b0a      	ldr	r3, [pc, #40]	; (8002924 <MX_TIM11_Init+0x50>)
 80028fa:	2280      	movs	r2, #128	; 0x80
 80028fc:	619a      	str	r2, [r3, #24]
  if (HAL_TIM_Base_Init(&htim11) != HAL_OK)
 80028fe:	4809      	ldr	r0, [pc, #36]	; (8002924 <MX_TIM11_Init+0x50>)
 8002900:	f002 fc88 	bl	8005214 <HAL_TIM_Base_Init>
 8002904:	4603      	mov	r3, r0
 8002906:	2b00      	cmp	r3, #0
 8002908:	d001      	beq.n	800290e <MX_TIM11_Init+0x3a>
  {
    Error_Handler();
 800290a:	f000 f94e 	bl	8002baa <Error_Handler>
  }
  /* USER CODE BEGIN TIM11_Init 2 */
  TIM11->EGR = 1;
 800290e:	4b06      	ldr	r3, [pc, #24]	; (8002928 <MX_TIM11_Init+0x54>)
 8002910:	2201      	movs	r2, #1
 8002912:	615a      	str	r2, [r3, #20]
  HAL_TIM_Base_Start(&htim11);
 8002914:	4803      	ldr	r0, [pc, #12]	; (8002924 <MX_TIM11_Init+0x50>)
 8002916:	f002 fca8 	bl	800526a <HAL_TIM_Base_Start>
  HAL_TIM_Base_Start_IT(&htim11);
 800291a:	4802      	ldr	r0, [pc, #8]	; (8002924 <MX_TIM11_Init+0x50>)
 800291c:	f002 fcc9 	bl	80052b2 <HAL_TIM_Base_Start_IT>

  /* USER CODE END TIM11_Init 2 */

}
 8002920:	bf00      	nop
 8002922:	bd80      	pop	{r7, pc}
 8002924:	2000094c 	.word	0x2000094c
 8002928:	40014800 	.word	0x40014800

0800292c <MX_SPI1_Init>:

void MX_SPI1_Init(void)
{
 800292c:	b580      	push	{r7, lr}
 800292e:	af00      	add	r7, sp, #0

  /* USER CODE BEGIN SPI1_Init 1 */

  /* USER CODE END SPI1_Init 1 */
  /* SPI1 parameter configuration*/
  hspi1.Instance = SPI1;
 8002930:	4b17      	ldr	r3, [pc, #92]	; (8002990 <MX_SPI1_Init+0x64>)
 8002932:	4a18      	ldr	r2, [pc, #96]	; (8002994 <MX_SPI1_Init+0x68>)
 8002934:	601a      	str	r2, [r3, #0]
  hspi1.Init.Mode = SPI_MODE_MASTER;
 8002936:	4b16      	ldr	r3, [pc, #88]	; (8002990 <MX_SPI1_Init+0x64>)
 8002938:	f44f 7282 	mov.w	r2, #260	; 0x104
 800293c:	605a      	str	r2, [r3, #4]
  hspi1.Init.Direction = SPI_DIRECTION_2LINES;
 800293e:	4b14      	ldr	r3, [pc, #80]	; (8002990 <MX_SPI1_Init+0x64>)
 8002940:	2200      	movs	r2, #0
 8002942:	609a      	str	r2, [r3, #8]
  hspi1.Init.DataSize = SPI_DATASIZE_8BIT;
 8002944:	4b12      	ldr	r3, [pc, #72]	; (8002990 <MX_SPI1_Init+0x64>)
 8002946:	2200      	movs	r2, #0
 8002948:	60da      	str	r2, [r3, #12]
  hspi1.Init.CLKPolarity = SPI_POLARITY_LOW;
 800294a:	4b11      	ldr	r3, [pc, #68]	; (8002990 <MX_SPI1_Init+0x64>)
 800294c:	2200      	movs	r2, #0
 800294e:	611a      	str	r2, [r3, #16]
  hspi1.Init.CLKPhase = SPI_PHASE_1EDGE;
 8002950:	4b0f      	ldr	r3, [pc, #60]	; (8002990 <MX_SPI1_Init+0x64>)
 8002952:	2200      	movs	r2, #0
 8002954:	615a      	str	r2, [r3, #20]
  hspi1.Init.NSS = SPI_NSS_SOFT;
 8002956:	4b0e      	ldr	r3, [pc, #56]	; (8002990 <MX_SPI1_Init+0x64>)
 8002958:	f44f 7200 	mov.w	r2, #512	; 0x200
 800295c:	619a      	str	r2, [r3, #24]
  hspi1.Init.BaudRatePrescaler = SPI_BAUDRATEPRESCALER_4;
 800295e:	4b0c      	ldr	r3, [pc, #48]	; (8002990 <MX_SPI1_Init+0x64>)
 8002960:	2208      	movs	r2, #8
 8002962:	61da      	str	r2, [r3, #28]
  hspi1.Init.FirstBit = SPI_FIRSTBIT_MSB;
 8002964:	4b0a      	ldr	r3, [pc, #40]	; (8002990 <MX_SPI1_Init+0x64>)
 8002966:	2200      	movs	r2, #0
 8002968:	621a      	str	r2, [r3, #32]
  hspi1.Init.TIMode = SPI_TIMODE_DISABLE;
 800296a:	4b09      	ldr	r3, [pc, #36]	; (8002990 <MX_SPI1_Init+0x64>)
 800296c:	2200      	movs	r2, #0
 800296e:	625a      	str	r2, [r3, #36]	; 0x24
  hspi1.Init.CRCCalculation = SPI_CRCCALCULATION_DISABLE;
 8002970:	4b07      	ldr	r3, [pc, #28]	; (8002990 <MX_SPI1_Init+0x64>)
 8002972:	2200      	movs	r2, #0
 8002974:	629a      	str	r2, [r3, #40]	; 0x28
  hspi1.Init.CRCPolynomial = 15;
 8002976:	4b06      	ldr	r3, [pc, #24]	; (8002990 <MX_SPI1_Init+0x64>)
 8002978:	220f      	movs	r2, #15
 800297a:	62da      	str	r2, [r3, #44]	; 0x2c
  if (HAL_SPI_Init(&hspi1) != HAL_OK)
 800297c:	4804      	ldr	r0, [pc, #16]	; (8002990 <MX_SPI1_Init+0x64>)
 800297e:	f002 f855 	bl	8004a2c <HAL_SPI_Init>
 8002982:	4603      	mov	r3, r0
 8002984:	2b00      	cmp	r3, #0
 8002986:	d001      	beq.n	800298c <MX_SPI1_Init+0x60>
  {
    Error_Handler();
 8002988:	f000 f90f 	bl	8002baa <Error_Handler>
  }
  /* USER CODE BEGIN SPI1_Init 2 */

  /* USER CODE END SPI1_Init 2 */

}
 800298c:	bf00      	nop
 800298e:	bd80      	pop	{r7, pc}
 8002990:	200007c8 	.word	0x200007c8
 8002994:	40013000 	.word	0x40013000

08002998 <GNSS>:

/* USER CODE BEGIN 4 */
void GNSS(void)
{
 8002998:	b5f0      	push	{r4, r5, r6, r7, lr}
 800299a:	b0a1      	sub	sp, #132	; 0x84
 800299c:	af0e      	add	r7, sp, #56	; 0x38
//	HAL_TIM_Base_Stop_IT(&htim11);
	HAL_GPIO_WritePin(GPIOC, GPIO_PIN_8, GPIO_PIN_SET);
 800299e:	2201      	movs	r2, #1
 80029a0:	f44f 7180 	mov.w	r1, #256	; 0x100
 80029a4:	4834      	ldr	r0, [pc, #208]	; (8002a78 <GNSS+0xe0>)
 80029a6:	f001 fbff 	bl	80041a8 <HAL_GPIO_WritePin>
//	HAL_GPIO_TogglePin(ONEWIRE_DEBUG_GPIO_Port, ONEWIRE_DEBUG_Pin);
	new = getGnssData(new, route);
 80029aa:	4b34      	ldr	r3, [pc, #208]	; (8002a7c <GNSS+0xe4>)
 80029ac:	681b      	ldr	r3, [r3, #0]
 80029ae:	4a34      	ldr	r2, [pc, #208]	; (8002a80 <GNSS+0xe8>)
 80029b0:	607a      	str	r2, [r7, #4]
 80029b2:	f107 0c08 	add.w	ip, r7, #8
 80029b6:	4e32      	ldr	r6, [pc, #200]	; (8002a80 <GNSS+0xe8>)
 80029b8:	930d      	str	r3, [sp, #52]	; 0x34
 80029ba:	466d      	mov	r5, sp
 80029bc:	f106 040c 	add.w	r4, r6, #12
 80029c0:	cc0f      	ldmia	r4!, {r0, r1, r2, r3}
 80029c2:	c50f      	stmia	r5!, {r0, r1, r2, r3}
 80029c4:	cc0f      	ldmia	r4!, {r0, r1, r2, r3}
 80029c6:	c50f      	stmia	r5!, {r0, r1, r2, r3}
 80029c8:	cc0f      	ldmia	r4!, {r0, r1, r2, r3}
 80029ca:	c50f      	stmia	r5!, {r0, r1, r2, r3}
 80029cc:	6823      	ldr	r3, [r4, #0]
 80029ce:	602b      	str	r3, [r5, #0]
 80029d0:	e896 000e 	ldmia.w	r6, {r1, r2, r3}
 80029d4:	4660      	mov	r0, ip
 80029d6:	f7ff fbf3 	bl	80021c0 <getGnssData>
 80029da:	687d      	ldr	r5, [r7, #4]
 80029dc:	f107 0408 	add.w	r4, r7, #8
 80029e0:	cc0f      	ldmia	r4!, {r0, r1, r2, r3}
 80029e2:	c50f      	stmia	r5!, {r0, r1, r2, r3}
 80029e4:	cc0f      	ldmia	r4!, {r0, r1, r2, r3}
 80029e6:	c50f      	stmia	r5!, {r0, r1, r2, r3}
 80029e8:	cc0f      	ldmia	r4!, {r0, r1, r2, r3}
 80029ea:	c50f      	stmia	r5!, {r0, r1, r2, r3}
 80029ec:	e894 000f 	ldmia.w	r4, {r0, r1, r2, r3}
 80029f0:	e885 000f 	stmia.w	r5, {r0, r1, r2, r3}
	if(new.haversineDist <= 2)
 80029f4:	4b22      	ldr	r3, [pc, #136]	; (8002a80 <GNSS+0xe8>)
 80029f6:	edd3 7a0f 	vldr	s15, [r3, #60]	; 0x3c
 80029fa:	eeb0 7a00 	vmov.f32	s14, #0	; 0x40000000  2.0
 80029fe:	eef4 7ac7 	vcmpe.f32	s15, s14
 8002a02:	eef1 fa10 	vmrs	APSR_nzcv, fpscr
 8002a06:	d816      	bhi.n	8002a36 <GNSS+0x9e>
	{
	engineMode(off);
 8002a08:	2002      	movs	r0, #2
 8002a0a:	f7fe fea1 	bl	8001750 <engineMode>
	HAL_Delay(5000);
 8002a0e:	f241 3088 	movw	r0, #5000	; 0x1388
 8002a12:	f001 f913 	bl	8003c3c <HAL_Delay>
	flag = arrived(route);
 8002a16:	4b19      	ldr	r3, [pc, #100]	; (8002a7c <GNSS+0xe4>)
 8002a18:	681b      	ldr	r3, [r3, #0]
 8002a1a:	4618      	mov	r0, r3
 8002a1c:	f000 fd38 	bl	8003490 <arrived>
 8002a20:	4603      	mov	r3, r0
 8002a22:	461a      	mov	r2, r3
 8002a24:	4b17      	ldr	r3, [pc, #92]	; (8002a84 <GNSS+0xec>)
 8002a26:	601a      	str	r2, [r3, #0]
	//HAL_Delay(10000);

	  if(flag == 1)
 8002a28:	4b16      	ldr	r3, [pc, #88]	; (8002a84 <GNSS+0xec>)
 8002a2a:	681b      	ldr	r3, [r3, #0]
 8002a2c:	2b01      	cmp	r3, #1
 8002a2e:	d102      	bne.n	8002a36 <GNSS+0x9e>
	  {
		  payload.destination = 1;
 8002a30:	4b15      	ldr	r3, [pc, #84]	; (8002a88 <GNSS+0xf0>)
 8002a32:	2201      	movs	r2, #1
 8002a34:	635a      	str	r2, [r3, #52]	; 0x34
	//					  debugPrintEnter();
	  }
	}
//	HAL_GPIO_TogglePin(ONEWIRE_DEBUG_GPIO_Port, ONEWIRE_DEBUG_Pin);

	newTime += 0.210;
 8002a36:	4b15      	ldr	r3, [pc, #84]	; (8002a8c <GNSS+0xf4>)
 8002a38:	681b      	ldr	r3, [r3, #0]
 8002a3a:	4618      	mov	r0, r3
 8002a3c:	f7fd fda4 	bl	8000588 <__aeabi_f2d>
 8002a40:	a30b      	add	r3, pc, #44	; (adr r3, 8002a70 <GNSS+0xd8>)
 8002a42:	e9d3 2300 	ldrd	r2, r3, [r3]
 8002a46:	f7fd fc41 	bl	80002cc <__adddf3>
 8002a4a:	4603      	mov	r3, r0
 8002a4c:	460c      	mov	r4, r1
 8002a4e:	4618      	mov	r0, r3
 8002a50:	4621      	mov	r1, r4
 8002a52:	f7fe f8e9 	bl	8000c28 <__aeabi_d2f>
 8002a56:	4602      	mov	r2, r0
 8002a58:	4b0c      	ldr	r3, [pc, #48]	; (8002a8c <GNSS+0xf4>)
 8002a5a:	601a      	str	r2, [r3, #0]
	HAL_GPIO_WritePin(GPIOC, GPIO_PIN_8, GPIO_PIN_RESET);
 8002a5c:	2200      	movs	r2, #0
 8002a5e:	f44f 7180 	mov.w	r1, #256	; 0x100
 8002a62:	4805      	ldr	r0, [pc, #20]	; (8002a78 <GNSS+0xe0>)
 8002a64:	f001 fba0 	bl	80041a8 <HAL_GPIO_WritePin>
//	HAL_TIM_Base_Start_IT(&htim11);

}
 8002a68:	bf00      	nop
 8002a6a:	374c      	adds	r7, #76	; 0x4c
 8002a6c:	46bd      	mov	sp, r7
 8002a6e:	bdf0      	pop	{r4, r5, r6, r7, pc}
 8002a70:	ae147ae1 	.word	0xae147ae1
 8002a74:	3fcae147 	.word	0x3fcae147
 8002a78:	40020800 	.word	0x40020800
 8002a7c:	2000098c 	.word	0x2000098c
 8002a80:	20000220 	.word	0x20000220
 8002a84:	2000021c 	.word	0x2000021c
 8002a88:	2000061c 	.word	0x2000061c
 8002a8c:	20000260 	.word	0x20000260

08002a90 <loraSend>:

void loraSend(void)
{
 8002a90:	b598      	push	{r3, r4, r7, lr}
 8002a92:	af00      	add	r7, sp, #0

	//HAL_TIM_Base_Stop_IT(&htim11);

	HAL_GPIO_TogglePin(task3_GPIO_Port, task3_Pin);
 8002a94:	2140      	movs	r1, #64	; 0x40
 8002a96:	4816      	ldr	r0, [pc, #88]	; (8002af0 <loraSend+0x60>)
 8002a98:	f001 fb9f 	bl	80041da <HAL_GPIO_TogglePin>
	payload2string(&payload); //convert the payload struct to a string. both are global
 8002a9c:	4815      	ldr	r0, [pc, #84]	; (8002af4 <loraSend+0x64>)
 8002a9e:	f7ff fc8d 	bl	80023bc <payload2string>


	sendString(payloadString); //send the payload over lora
 8002aa2:	4815      	ldr	r0, [pc, #84]	; (8002af8 <loraSend+0x68>)
 8002aa4:	f7ff fc48 	bl	8002338 <sendString>
	HAL_GPIO_TogglePin(task3_GPIO_Port, task3_Pin);
 8002aa8:	2140      	movs	r1, #64	; 0x40
 8002aaa:	4811      	ldr	r0, [pc, #68]	; (8002af0 <loraSend+0x60>)
 8002aac:	f001 fb95 	bl	80041da <HAL_GPIO_TogglePin>
	newTime += 0.262;
 8002ab0:	4b12      	ldr	r3, [pc, #72]	; (8002afc <loraSend+0x6c>)
 8002ab2:	681b      	ldr	r3, [r3, #0]
 8002ab4:	4618      	mov	r0, r3
 8002ab6:	f7fd fd67 	bl	8000588 <__aeabi_f2d>
 8002aba:	a30b      	add	r3, pc, #44	; (adr r3, 8002ae8 <loraSend+0x58>)
 8002abc:	e9d3 2300 	ldrd	r2, r3, [r3]
 8002ac0:	f7fd fc04 	bl	80002cc <__adddf3>
 8002ac4:	4603      	mov	r3, r0
 8002ac6:	460c      	mov	r4, r1
 8002ac8:	4618      	mov	r0, r3
 8002aca:	4621      	mov	r1, r4
 8002acc:	f7fe f8ac 	bl	8000c28 <__aeabi_d2f>
 8002ad0:	4602      	mov	r2, r0
 8002ad2:	4b0a      	ldr	r3, [pc, #40]	; (8002afc <loraSend+0x6c>)
 8002ad4:	601a      	str	r2, [r3, #0]

	HAL_GPIO_WritePin(GPIOA, GPIO_PIN_11, GPIO_PIN_RESET);
 8002ad6:	2200      	movs	r2, #0
 8002ad8:	f44f 6100 	mov.w	r1, #2048	; 0x800
 8002adc:	4808      	ldr	r0, [pc, #32]	; (8002b00 <loraSend+0x70>)
 8002ade:	f001 fb63 	bl	80041a8 <HAL_GPIO_WritePin>
	//HAL_GPIO_TogglePin(ONEWIRE_DEBUG_GPIO_Port, ONEWIRE_DEBUG_Pin);
	//HAL_TIM_Base_Start_IT(&htim11);

}
 8002ae2:	bf00      	nop
 8002ae4:	bd98      	pop	{r3, r4, r7, pc}
 8002ae6:	bf00      	nop
 8002ae8:	a5e353f8 	.word	0xa5e353f8
 8002aec:	3fd0c49b 	.word	0x3fd0c49b
 8002af0:	40020400 	.word	0x40020400
 8002af4:	2000061c 	.word	0x2000061c
 8002af8:	20000384 	.word	0x20000384
 8002afc:	20000260 	.word	0x20000260
 8002b00:	40020000 	.word	0x40020000

08002b04 <PID>:

	//HAL_GPIO_TogglePin(ONEWIRE_DEBUG_GPIO_Port, ONEWIRE_DEBUG_Pin);
}

void PID(void)
{
 8002b04:	b580      	push	{r7, lr}
 8002b06:	b082      	sub	sp, #8
 8002b08:	af00      	add	r7, sp, #0
	HAL_GPIO_TogglePin(task2_GPIO_Port, task2_Pin);
 8002b0a:	2180      	movs	r1, #128	; 0x80
 8002b0c:	481e      	ldr	r0, [pc, #120]	; (8002b88 <PID+0x84>)
 8002b0e:	f001 fb64 	bl	80041da <HAL_GPIO_TogglePin>

	int16_t	debugCog = atoi(new.cog);
 8002b12:	481e      	ldr	r0, [pc, #120]	; (8002b8c <PID+0x88>)
 8002b14:	f003 ff7d 	bl	8006a12 <atoi>
 8002b18:	4603      	mov	r3, r0
 8002b1a:	80fb      	strh	r3, [r7, #6]
	payload.cog = debugCog;
 8002b1c:	4a1c      	ldr	r2, [pc, #112]	; (8002b90 <PID+0x8c>)
 8002b1e:	88fb      	ldrh	r3, [r7, #6]
 8002b20:	8093      	strh	r3, [r2, #4]

	//debugCog = 0;

	if(debugCog != 0)
 8002b22:	f9b7 3006 	ldrsh.w	r3, [r7, #6]
 8002b26:	2b00      	cmp	r3, #0
 8002b28:	d008      	beq.n	8002b3c <PID+0x38>
	{
		calculatePID(new.bearing, new.cog);
 8002b2a:	4b1a      	ldr	r3, [pc, #104]	; (8002b94 <PID+0x90>)
 8002b2c:	edd3 7a0e 	vldr	s15, [r3, #56]	; 0x38
 8002b30:	4816      	ldr	r0, [pc, #88]	; (8002b8c <PID+0x88>)
 8002b32:	eeb0 0a67 	vmov.f32	s0, s15
 8002b36:	f7fe fb39 	bl	80011ac <calculatePID>
 8002b3a:	e01c      	b.n	8002b76 <PID+0x72>
	}
	else
	{
		engineMode(forward);
 8002b3c:	2000      	movs	r0, #0
 8002b3e:	f7fe fe07 	bl	8001750 <engineMode>
		servo = 150;
 8002b42:	4b15      	ldr	r3, [pc, #84]	; (8002b98 <PID+0x94>)
 8002b44:	2296      	movs	r2, #150	; 0x96
 8002b46:	63da      	str	r2, [r3, #60]	; 0x3c
		payload.Servo = servo;
 8002b48:	4b13      	ldr	r3, [pc, #76]	; (8002b98 <PID+0x94>)
 8002b4a:	6bdb      	ldr	r3, [r3, #60]	; 0x3c
 8002b4c:	b21a      	sxth	r2, r3
 8002b4e:	4b10      	ldr	r3, [pc, #64]	; (8002b90 <PID+0x8c>)
 8002b50:	859a      	strh	r2, [r3, #44]	; 0x2c
		payload.MotorL = leftEngine;
 8002b52:	4b11      	ldr	r3, [pc, #68]	; (8002b98 <PID+0x94>)
 8002b54:	6b5b      	ldr	r3, [r3, #52]	; 0x34
 8002b56:	ee07 3a90 	vmov	s15, r3
 8002b5a:	eef8 7a67 	vcvt.f32.u32	s15, s15
 8002b5e:	4b0c      	ldr	r3, [pc, #48]	; (8002b90 <PID+0x8c>)
 8002b60:	edc3 7a09 	vstr	s15, [r3, #36]	; 0x24
		payload.MotorR = rightEngine;
 8002b64:	4b0c      	ldr	r3, [pc, #48]	; (8002b98 <PID+0x94>)
 8002b66:	6b9b      	ldr	r3, [r3, #56]	; 0x38
 8002b68:	ee07 3a90 	vmov	s15, r3
 8002b6c:	eef8 7a67 	vcvt.f32.u32	s15, s15
 8002b70:	4b07      	ldr	r3, [pc, #28]	; (8002b90 <PID+0x8c>)
 8002b72:	edc3 7a0a 	vstr	s15, [r3, #40]	; 0x28
	}
	HAL_GPIO_TogglePin(task2_GPIO_Port, task2_Pin);
 8002b76:	2180      	movs	r1, #128	; 0x80
 8002b78:	4803      	ldr	r0, [pc, #12]	; (8002b88 <PID+0x84>)
 8002b7a:	f001 fb2e 	bl	80041da <HAL_GPIO_TogglePin>
	//HAL_GPIO_TogglePin(ONEWIRE_DEBUG_GPIO_Port, ONEWIRE_DEBUG_Pin);
}
 8002b7e:	bf00      	nop
 8002b80:	3708      	adds	r7, #8
 8002b82:	46bd      	mov	sp, r7
 8002b84:	bd80      	pop	{r7, pc}
 8002b86:	bf00      	nop
 8002b88:	40020400 	.word	0x40020400
 8002b8c:	20000248 	.word	0x20000248
 8002b90:	2000061c 	.word	0x2000061c
 8002b94:	20000220 	.word	0x20000220
 8002b98:	40000c00 	.word	0x40000c00

08002b9c <sleep>:

void sleep(void)
{
 8002b9c:	b480      	push	{r7}
 8002b9e:	af00      	add	r7, sp, #0
	//HAL_GPIO_TogglePin(ONEWIRE_DEBUG_GPIO_Port, ONEWIRE_DEBUG_Pin);

}
 8002ba0:	bf00      	nop
 8002ba2:	46bd      	mov	sp, r7
 8002ba4:	f85d 7b04 	ldr.w	r7, [sp], #4
 8002ba8:	4770      	bx	lr

08002baa <Error_Handler>:
/**
  * @brief  This function is executed in case of error occurrence.
  * @retval None
  */
void Error_Handler(void)
{
 8002baa:	b480      	push	{r7}
 8002bac:	af00      	add	r7, sp, #0
  /* USER CODE BEGIN Error_Handler_Debug */
  /* User can add his own implementation to report the HAL error return state */

  /* USER CODE END Error_Handler_Debug */
}
 8002bae:	bf00      	nop
 8002bb0:	46bd      	mov	sp, r7
 8002bb2:	f85d 7b04 	ldr.w	r7, [sp], #4
 8002bb6:	4770      	bx	lr

08002bb8 <MX_USART2_UART_Init>:
  * @brief USART2 Initialization Function
  * @param None
  * @retval None
  */
void MX_USART2_UART_Init(void)
{
 8002bb8:	b580      	push	{r7, lr}
 8002bba:	af00      	add	r7, sp, #0
  /* USER CODE END USART2_Init 0 */

  /* USER CODE BEGIN USART2_Init 1 */

  /* USER CODE END USART2_Init 1 */
  huart2.Instance = USART2;
