
LoRaBeun.elf:     file format elf32-littlearm

Sections:
Idx Name          Size      VMA       LMA       File off  Algn
  0 .isr_vector   000001c8  08000000  08000000  00010000  2**0
                  CONTENTS, ALLOC, LOAD, READONLY, DATA
  1 .text         00006174  080001d0  080001d0  000101d0  2**4
                  CONTENTS, ALLOC, LOAD, READONLY, CODE
  2 .rodata       000003f0  08006348  08006348  00016348  2**3
                  CONTENTS, ALLOC, LOAD, READONLY, DATA
  3 .ARM.extab    00000000  08006738  08006738  000201e0  2**0
                  CONTENTS
  4 .ARM          00000008  08006738  08006738  00016738  2**2
                  CONTENTS, ALLOC, LOAD, READONLY, DATA
  5 .preinit_array 00000000  08006740  08006740  000201e0  2**0
                  CONTENTS, ALLOC, LOAD, DATA
  6 .init_array   00000004  08006740  08006740  00016740  2**2
                  CONTENTS, ALLOC, LOAD, DATA
  7 .fini_array   00000004  08006744  08006744  00016744  2**2
                  CONTENTS, ALLOC, LOAD, DATA
  8 .data         000001e0  20000000  08006748  00020000  2**2
                  CONTENTS, ALLOC, LOAD, DATA
  9 .bss          000002e8  200001e0  08006928  000201e0  2**2
                  ALLOC
 10 ._user_heap_stack 00000600  200004c8  08006928  000204c8  2**0
                  ALLOC
 11 .ARM.attributes 00000030  00000000  00000000  000201e0  2**0
                  CONTENTS, READONLY
 12 .debug_info   0000ad4d  00000000  00000000  00020210  2**0
                  CONTENTS, READONLY, DEBUGGING
 13 .debug_abbrev 00001be0  00000000  00000000  0002af5d  2**0
                  CONTENTS, READONLY, DEBUGGING
 14 .debug_aranges 00000980  00000000  00000000  0002cb40  2**3
                  CONTENTS, READONLY, DEBUGGING
 15 .debug_ranges 00000898  00000000  00000000  0002d4c0  2**3
                  CONTENTS, READONLY, DEBUGGING
 16 .debug_macro  00014e5d  00000000  00000000  0002dd58  2**0
                  CONTENTS, READONLY, DEBUGGING
 17 .debug_line   00008512  00000000  00000000  00042bb5  2**0
                  CONTENTS, READONLY, DEBUGGING
 18 .debug_str    00078f09  00000000  00000000  0004b0c7  2**0
                  CONTENTS, READONLY, DEBUGGING
 19 .comment      0000007b  00000000  00000000  000c3fd0  2**0
                  CONTENTS, READONLY
 20 .debug_frame  00003090  00000000  00000000  000c404c  2**2
                  CONTENTS, READONLY, DEBUGGING

Disassembly of section .text:

080001d0 <__do_global_dtors_aux>:
 80001d0:	b510      	push	{r4, lr}
 80001d2:	4c05      	ldr	r4, [pc, #20]	; (80001e8 <__do_global_dtors_aux+0x18>)
 80001d4:	7823      	ldrb	r3, [r4, #0]
 80001d6:	b933      	cbnz	r3, 80001e6 <__do_global_dtors_aux+0x16>
 80001d8:	4b04      	ldr	r3, [pc, #16]	; (80001ec <__do_global_dtors_aux+0x1c>)
 80001da:	b113      	cbz	r3, 80001e2 <__do_global_dtors_aux+0x12>
 80001dc:	4804      	ldr	r0, [pc, #16]	; (80001f0 <__do_global_dtors_aux+0x20>)
 80001de:	f3af 8000 	nop.w
 80001e2:	2301      	movs	r3, #1
 80001e4:	7023      	strb	r3, [r4, #0]
 80001e6:	bd10      	pop	{r4, pc}
 80001e8:	200001e0 	.word	0x200001e0
 80001ec:	00000000 	.word	0x00000000
 80001f0:	0800632c 	.word	0x0800632c

080001f4 <frame_dummy>:
 80001f4:	b508      	push	{r3, lr}
 80001f6:	4b03      	ldr	r3, [pc, #12]	; (8000204 <frame_dummy+0x10>)
 80001f8:	b11b      	cbz	r3, 8000202 <frame_dummy+0xe>
 80001fa:	4903      	ldr	r1, [pc, #12]	; (8000208 <frame_dummy+0x14>)
 80001fc:	4803      	ldr	r0, [pc, #12]	; (800020c <frame_dummy+0x18>)
 80001fe:	f3af 8000 	nop.w
 8000202:	bd08      	pop	{r3, pc}
 8000204:	00000000 	.word	0x00000000
 8000208:	200001e4 	.word	0x200001e4
 800020c:	0800632c 	.word	0x0800632c

08000210 <strlen>:
 8000210:	4603      	mov	r3, r0
 8000212:	f813 2b01 	ldrb.w	r2, [r3], #1
 8000216:	2a00      	cmp	r2, #0
 8000218:	d1fb      	bne.n	8000212 <strlen+0x2>
 800021a:	1a18      	subs	r0, r3, r0
 800021c:	3801      	subs	r0, #1
 800021e:	4770      	bx	lr

08000220 <memchr>:
 8000220:	f001 01ff 	and.w	r1, r1, #255	; 0xff
 8000224:	2a10      	cmp	r2, #16
 8000226:	db2b      	blt.n	8000280 <memchr+0x60>
 8000228:	f010 0f07 	tst.w	r0, #7
 800022c:	d008      	beq.n	8000240 <memchr+0x20>
 800022e:	f810 3b01 	ldrb.w	r3, [r0], #1
 8000232:	3a01      	subs	r2, #1
 8000234:	428b      	cmp	r3, r1
 8000236:	d02d      	beq.n	8000294 <memchr+0x74>
 8000238:	f010 0f07 	tst.w	r0, #7
 800023c:	b342      	cbz	r2, 8000290 <memchr+0x70>
 800023e:	d1f6      	bne.n	800022e <memchr+0xe>
 8000240:	b4f0      	push	{r4, r5, r6, r7}
 8000242:	ea41 2101 	orr.w	r1, r1, r1, lsl #8
 8000246:	ea41 4101 	orr.w	r1, r1, r1, lsl #16
 800024a:	f022 0407 	bic.w	r4, r2, #7
 800024e:	f07f 0700 	mvns.w	r7, #0
 8000252:	2300      	movs	r3, #0
 8000254:	e8f0 5602 	ldrd	r5, r6, [r0], #8
 8000258:	3c08      	subs	r4, #8
 800025a:	ea85 0501 	eor.w	r5, r5, r1
 800025e:	ea86 0601 	eor.w	r6, r6, r1
 8000262:	fa85 f547 	uadd8	r5, r5, r7
 8000266:	faa3 f587 	sel	r5, r3, r7
 800026a:	fa86 f647 	uadd8	r6, r6, r7
 800026e:	faa5 f687 	sel	r6, r5, r7
 8000272:	b98e      	cbnz	r6, 8000298 <memchr+0x78>
 8000274:	d1ee      	bne.n	8000254 <memchr+0x34>
 8000276:	bcf0      	pop	{r4, r5, r6, r7}
 8000278:	f001 01ff 	and.w	r1, r1, #255	; 0xff
 800027c:	f002 0207 	and.w	r2, r2, #7
 8000280:	b132      	cbz	r2, 8000290 <memchr+0x70>
 8000282:	f810 3b01 	ldrb.w	r3, [r0], #1
 8000286:	3a01      	subs	r2, #1
 8000288:	ea83 0301 	eor.w	r3, r3, r1
 800028c:	b113      	cbz	r3, 8000294 <memchr+0x74>
 800028e:	d1f8      	bne.n	8000282 <memchr+0x62>
 8000290:	2000      	movs	r0, #0
 8000292:	4770      	bx	lr
 8000294:	3801      	subs	r0, #1
 8000296:	4770      	bx	lr
 8000298:	2d00      	cmp	r5, #0
 800029a:	bf06      	itte	eq
 800029c:	4635      	moveq	r5, r6
 800029e:	3803      	subeq	r0, #3
 80002a0:	3807      	subne	r0, #7
 80002a2:	f015 0f01 	tst.w	r5, #1
 80002a6:	d107      	bne.n	80002b8 <memchr+0x98>
 80002a8:	3001      	adds	r0, #1
 80002aa:	f415 7f80 	tst.w	r5, #256	; 0x100
 80002ae:	bf02      	ittt	eq
 80002b0:	3001      	addeq	r0, #1
 80002b2:	f415 3fc0 	tsteq.w	r5, #98304	; 0x18000
 80002b6:	3001      	addeq	r0, #1
 80002b8:	bcf0      	pop	{r4, r5, r6, r7}
 80002ba:	3801      	subs	r0, #1
 80002bc:	4770      	bx	lr
 80002be:	bf00      	nop

080002c0 <__aeabi_drsub>:
 80002c0:	f081 4100 	eor.w	r1, r1, #2147483648	; 0x80000000
 80002c4:	e002      	b.n	80002cc <__adddf3>
 80002c6:	bf00      	nop

080002c8 <__aeabi_dsub>:
 80002c8:	f083 4300 	eor.w	r3, r3, #2147483648	; 0x80000000

080002cc <__adddf3>:
 80002cc:	b530      	push	{r4, r5, lr}
 80002ce:	ea4f 0441 	mov.w	r4, r1, lsl #1
 80002d2:	ea4f 0543 	mov.w	r5, r3, lsl #1
 80002d6:	ea94 0f05 	teq	r4, r5
 80002da:	bf08      	it	eq
 80002dc:	ea90 0f02 	teqeq	r0, r2
 80002e0:	bf1f      	itttt	ne
 80002e2:	ea54 0c00 	orrsne.w	ip, r4, r0
 80002e6:	ea55 0c02 	orrsne.w	ip, r5, r2
 80002ea:	ea7f 5c64 	mvnsne.w	ip, r4, asr #21
 80002ee:	ea7f 5c65 	mvnsne.w	ip, r5, asr #21
 80002f2:	f000 80e2 	beq.w	80004ba <__adddf3+0x1ee>
 80002f6:	ea4f 5454 	mov.w	r4, r4, lsr #21
 80002fa:	ebd4 5555 	rsbs	r5, r4, r5, lsr #21
 80002fe:	bfb8      	it	lt
 8000300:	426d      	neglt	r5, r5
 8000302:	dd0c      	ble.n	800031e <__adddf3+0x52>
 8000304:	442c      	add	r4, r5
 8000306:	ea80 0202 	eor.w	r2, r0, r2
 800030a:	ea81 0303 	eor.w	r3, r1, r3
 800030e:	ea82 0000 	eor.w	r0, r2, r0
 8000312:	ea83 0101 	eor.w	r1, r3, r1
 8000316:	ea80 0202 	eor.w	r2, r0, r2
 800031a:	ea81 0303 	eor.w	r3, r1, r3
 800031e:	2d36      	cmp	r5, #54	; 0x36
 8000320:	bf88      	it	hi
 8000322:	bd30      	pophi	{r4, r5, pc}
 8000324:	f011 4f00 	tst.w	r1, #2147483648	; 0x80000000
 8000328:	ea4f 3101 	mov.w	r1, r1, lsl #12
 800032c:	f44f 1c80 	mov.w	ip, #1048576	; 0x100000
 8000330:	ea4c 3111 	orr.w	r1, ip, r1, lsr #12
 8000334:	d002      	beq.n	800033c <__adddf3+0x70>
 8000336:	4240      	negs	r0, r0
 8000338:	eb61 0141 	sbc.w	r1, r1, r1, lsl #1
 800033c:	f013 4f00 	tst.w	r3, #2147483648	; 0x80000000
 8000340:	ea4f 3303 	mov.w	r3, r3, lsl #12
 8000344:	ea4c 3313 	orr.w	r3, ip, r3, lsr #12
 8000348:	d002      	beq.n	8000350 <__adddf3+0x84>
 800034a:	4252      	negs	r2, r2
 800034c:	eb63 0343 	sbc.w	r3, r3, r3, lsl #1
 8000350:	ea94 0f05 	teq	r4, r5
 8000354:	f000 80a7 	beq.w	80004a6 <__adddf3+0x1da>
 8000358:	f1a4 0401 	sub.w	r4, r4, #1
 800035c:	f1d5 0e20 	rsbs	lr, r5, #32
 8000360:	db0d      	blt.n	800037e <__adddf3+0xb2>
 8000362:	fa02 fc0e 	lsl.w	ip, r2, lr
 8000366:	fa22 f205 	lsr.w	r2, r2, r5
 800036a:	1880      	adds	r0, r0, r2
 800036c:	f141 0100 	adc.w	r1, r1, #0
 8000370:	fa03 f20e 	lsl.w	r2, r3, lr
 8000374:	1880      	adds	r0, r0, r2
 8000376:	fa43 f305 	asr.w	r3, r3, r5
 800037a:	4159      	adcs	r1, r3
 800037c:	e00e      	b.n	800039c <__adddf3+0xd0>
 800037e:	f1a5 0520 	sub.w	r5, r5, #32
 8000382:	f10e 0e20 	add.w	lr, lr, #32
 8000386:	2a01      	cmp	r2, #1
 8000388:	fa03 fc0e 	lsl.w	ip, r3, lr
 800038c:	bf28      	it	cs
 800038e:	f04c 0c02 	orrcs.w	ip, ip, #2
 8000392:	fa43 f305 	asr.w	r3, r3, r5
 8000396:	18c0      	adds	r0, r0, r3
 8000398:	eb51 71e3 	adcs.w	r1, r1, r3, asr #31
 800039c:	f001 4500 	and.w	r5, r1, #2147483648	; 0x80000000
 80003a0:	d507      	bpl.n	80003b2 <__adddf3+0xe6>
 80003a2:	f04f 0e00 	mov.w	lr, #0
 80003a6:	f1dc 0c00 	rsbs	ip, ip, #0
 80003aa:	eb7e 0000 	sbcs.w	r0, lr, r0
 80003ae:	eb6e 0101 	sbc.w	r1, lr, r1
 80003b2:	f5b1 1f80 	cmp.w	r1, #1048576	; 0x100000
 80003b6:	d31b      	bcc.n	80003f0 <__adddf3+0x124>
 80003b8:	f5b1 1f00 	cmp.w	r1, #2097152	; 0x200000
 80003bc:	d30c      	bcc.n	80003d8 <__adddf3+0x10c>
 80003be:	0849      	lsrs	r1, r1, #1
 80003c0:	ea5f 0030 	movs.w	r0, r0, rrx
 80003c4:	ea4f 0c3c 	mov.w	ip, ip, rrx
 80003c8:	f104 0401 	add.w	r4, r4, #1
 80003cc:	ea4f 5244 	mov.w	r2, r4, lsl #21
 80003d0:	f512 0f80 	cmn.w	r2, #4194304	; 0x400000
 80003d4:	f080 809a 	bcs.w	800050c <__adddf3+0x240>
 80003d8:	f1bc 4f00 	cmp.w	ip, #2147483648	; 0x80000000
 80003dc:	bf08      	it	eq
 80003de:	ea5f 0c50 	movseq.w	ip, r0, lsr #1
 80003e2:	f150 0000 	adcs.w	r0, r0, #0
 80003e6:	eb41 5104 	adc.w	r1, r1, r4, lsl #20
 80003ea:	ea41 0105 	orr.w	r1, r1, r5
 80003ee:	bd30      	pop	{r4, r5, pc}
 80003f0:	ea5f 0c4c 	movs.w	ip, ip, lsl #1
 80003f4:	4140      	adcs	r0, r0
 80003f6:	eb41 0101 	adc.w	r1, r1, r1
 80003fa:	f411 1f80 	tst.w	r1, #1048576	; 0x100000
 80003fe:	f1a4 0401 	sub.w	r4, r4, #1
 8000402:	d1e9      	bne.n	80003d8 <__adddf3+0x10c>
 8000404:	f091 0f00 	teq	r1, #0
 8000408:	bf04      	itt	eq
 800040a:	4601      	moveq	r1, r0
 800040c:	2000      	moveq	r0, #0
 800040e:	fab1 f381 	clz	r3, r1
 8000412:	bf08      	it	eq
 8000414:	3320      	addeq	r3, #32
 8000416:	f1a3 030b 	sub.w	r3, r3, #11
 800041a:	f1b3 0220 	subs.w	r2, r3, #32
 800041e:	da0c      	bge.n	800043a <__adddf3+0x16e>
 8000420:	320c      	adds	r2, #12
 8000422:	dd08      	ble.n	8000436 <__adddf3+0x16a>
 8000424:	f102 0c14 	add.w	ip, r2, #20
 8000428:	f1c2 020c 	rsb	r2, r2, #12
 800042c:	fa01 f00c 	lsl.w	r0, r1, ip
 8000430:	fa21 f102 	lsr.w	r1, r1, r2
 8000434:	e00c      	b.n	8000450 <__adddf3+0x184>
 8000436:	f102 0214 	add.w	r2, r2, #20
 800043a:	bfd8      	it	le
 800043c:	f1c2 0c20 	rsble	ip, r2, #32
 8000440:	fa01 f102 	lsl.w	r1, r1, r2
 8000444:	fa20 fc0c 	lsr.w	ip, r0, ip
 8000448:	bfdc      	itt	le
 800044a:	ea41 010c 	orrle.w	r1, r1, ip
 800044e:	4090      	lslle	r0, r2
 8000450:	1ae4      	subs	r4, r4, r3
 8000452:	bfa2      	ittt	ge
 8000454:	eb01 5104 	addge.w	r1, r1, r4, lsl #20
 8000458:	4329      	orrge	r1, r5
 800045a:	bd30      	popge	{r4, r5, pc}
 800045c:	ea6f 0404 	mvn.w	r4, r4
 8000460:	3c1f      	subs	r4, #31
 8000462:	da1c      	bge.n	800049e <__adddf3+0x1d2>
 8000464:	340c      	adds	r4, #12
 8000466:	dc0e      	bgt.n	8000486 <__adddf3+0x1ba>
 8000468:	f104 0414 	add.w	r4, r4, #20
 800046c:	f1c4 0220 	rsb	r2, r4, #32
 8000470:	fa20 f004 	lsr.w	r0, r0, r4
 8000474:	fa01 f302 	lsl.w	r3, r1, r2
 8000478:	ea40 0003 	orr.w	r0, r0, r3
 800047c:	fa21 f304 	lsr.w	r3, r1, r4
 8000480:	ea45 0103 	orr.w	r1, r5, r3
 8000484:	bd30      	pop	{r4, r5, pc}
 8000486:	f1c4 040c 	rsb	r4, r4, #12
 800048a:	f1c4 0220 	rsb	r2, r4, #32
 800048e:	fa20 f002 	lsr.w	r0, r0, r2
 8000492:	fa01 f304 	lsl.w	r3, r1, r4
 8000496:	ea40 0003 	orr.w	r0, r0, r3
 800049a:	4629      	mov	r1, r5
 800049c:	bd30      	pop	{r4, r5, pc}
 800049e:	fa21 f004 	lsr.w	r0, r1, r4
 80004a2:	4629      	mov	r1, r5
 80004a4:	bd30      	pop	{r4, r5, pc}
 80004a6:	f094 0f00 	teq	r4, #0
 80004aa:	f483 1380 	eor.w	r3, r3, #1048576	; 0x100000
 80004ae:	bf06      	itte	eq
 80004b0:	f481 1180 	eoreq.w	r1, r1, #1048576	; 0x100000
 80004b4:	3401      	addeq	r4, #1
 80004b6:	3d01      	subne	r5, #1
 80004b8:	e74e      	b.n	8000358 <__adddf3+0x8c>
 80004ba:	ea7f 5c64 	mvns.w	ip, r4, asr #21
 80004be:	bf18      	it	ne
 80004c0:	ea7f 5c65 	mvnsne.w	ip, r5, asr #21
 80004c4:	d029      	beq.n	800051a <__adddf3+0x24e>
 80004c6:	ea94 0f05 	teq	r4, r5
 80004ca:	bf08      	it	eq
 80004cc:	ea90 0f02 	teqeq	r0, r2
 80004d0:	d005      	beq.n	80004de <__adddf3+0x212>
 80004d2:	ea54 0c00 	orrs.w	ip, r4, r0
 80004d6:	bf04      	itt	eq
 80004d8:	4619      	moveq	r1, r3
 80004da:	4610      	moveq	r0, r2
 80004dc:	bd30      	pop	{r4, r5, pc}
 80004de:	ea91 0f03 	teq	r1, r3
 80004e2:	bf1e      	ittt	ne
 80004e4:	2100      	movne	r1, #0
 80004e6:	2000      	movne	r0, #0
 80004e8:	bd30      	popne	{r4, r5, pc}
 80004ea:	ea5f 5c54 	movs.w	ip, r4, lsr #21
 80004ee:	d105      	bne.n	80004fc <__adddf3+0x230>
 80004f0:	0040      	lsls	r0, r0, #1
 80004f2:	4149      	adcs	r1, r1
 80004f4:	bf28      	it	cs
 80004f6:	f041 4100 	orrcs.w	r1, r1, #2147483648	; 0x80000000
 80004fa:	bd30      	pop	{r4, r5, pc}
 80004fc:	f514 0480 	adds.w	r4, r4, #4194304	; 0x400000
 8000500:	bf3c      	itt	cc
 8000502:	f501 1180 	addcc.w	r1, r1, #1048576	; 0x100000
 8000506:	bd30      	popcc	{r4, r5, pc}
 8000508:	f001 4500 	and.w	r5, r1, #2147483648	; 0x80000000
 800050c:	f045 41fe 	orr.w	r1, r5, #2130706432	; 0x7f000000
 8000510:	f441 0170 	orr.w	r1, r1, #15728640	; 0xf00000
 8000514:	f04f 0000 	mov.w	r0, #0
 8000518:	bd30      	pop	{r4, r5, pc}
 800051a:	ea7f 5c64 	mvns.w	ip, r4, asr #21
 800051e:	bf1a      	itte	ne
 8000520:	4619      	movne	r1, r3
 8000522:	4610      	movne	r0, r2
 8000524:	ea7f 5c65 	mvnseq.w	ip, r5, asr #21
 8000528:	bf1c      	itt	ne
 800052a:	460b      	movne	r3, r1
 800052c:	4602      	movne	r2, r0
 800052e:	ea50 3401 	orrs.w	r4, r0, r1, lsl #12
 8000532:	bf06      	itte	eq
 8000534:	ea52 3503 	orrseq.w	r5, r2, r3, lsl #12
 8000538:	ea91 0f03 	teqeq	r1, r3
 800053c:	f441 2100 	orrne.w	r1, r1, #524288	; 0x80000
 8000540:	bd30      	pop	{r4, r5, pc}
 8000542:	bf00      	nop

08000544 <__aeabi_ui2d>:
 8000544:	f090 0f00 	teq	r0, #0
 8000548:	bf04      	itt	eq
 800054a:	2100      	moveq	r1, #0
 800054c:	4770      	bxeq	lr
 800054e:	b530      	push	{r4, r5, lr}
 8000550:	f44f 6480 	mov.w	r4, #1024	; 0x400
 8000554:	f104 0432 	add.w	r4, r4, #50	; 0x32
 8000558:	f04f 0500 	mov.w	r5, #0
 800055c:	f04f 0100 	mov.w	r1, #0
 8000560:	e750      	b.n	8000404 <__adddf3+0x138>
 8000562:	bf00      	nop

08000564 <__aeabi_i2d>:
 8000564:	f090 0f00 	teq	r0, #0
 8000568:	bf04      	itt	eq
 800056a:	2100      	moveq	r1, #0
 800056c:	4770      	bxeq	lr
 800056e:	b530      	push	{r4, r5, lr}
 8000570:	f44f 6480 	mov.w	r4, #1024	; 0x400
 8000574:	f104 0432 	add.w	r4, r4, #50	; 0x32
 8000578:	f010 4500 	ands.w	r5, r0, #2147483648	; 0x80000000
 800057c:	bf48      	it	mi
 800057e:	4240      	negmi	r0, r0
 8000580:	f04f 0100 	mov.w	r1, #0
 8000584:	e73e      	b.n	8000404 <__adddf3+0x138>
 8000586:	bf00      	nop

08000588 <__aeabi_f2d>:
 8000588:	0042      	lsls	r2, r0, #1
 800058a:	ea4f 01e2 	mov.w	r1, r2, asr #3
 800058e:	ea4f 0131 	mov.w	r1, r1, rrx
 8000592:	ea4f 7002 	mov.w	r0, r2, lsl #28
 8000596:	bf1f      	itttt	ne
 8000598:	f012 437f 	andsne.w	r3, r2, #4278190080	; 0xff000000
 800059c:	f093 4f7f 	teqne	r3, #4278190080	; 0xff000000
 80005a0:	f081 5160 	eorne.w	r1, r1, #939524096	; 0x38000000
 80005a4:	4770      	bxne	lr
 80005a6:	f032 427f 	bics.w	r2, r2, #4278190080	; 0xff000000
 80005aa:	bf08      	it	eq
 80005ac:	4770      	bxeq	lr
 80005ae:	f093 4f7f 	teq	r3, #4278190080	; 0xff000000
 80005b2:	bf04      	itt	eq
 80005b4:	f441 2100 	orreq.w	r1, r1, #524288	; 0x80000
 80005b8:	4770      	bxeq	lr
 80005ba:	b530      	push	{r4, r5, lr}
 80005bc:	f44f 7460 	mov.w	r4, #896	; 0x380
 80005c0:	f001 4500 	and.w	r5, r1, #2147483648	; 0x80000000
 80005c4:	f021 4100 	bic.w	r1, r1, #2147483648	; 0x80000000
 80005c8:	e71c      	b.n	8000404 <__adddf3+0x138>
 80005ca:	bf00      	nop

080005cc <__aeabi_ul2d>:
 80005cc:	ea50 0201 	orrs.w	r2, r0, r1
 80005d0:	bf08      	it	eq
 80005d2:	4770      	bxeq	lr
 80005d4:	b530      	push	{r4, r5, lr}
 80005d6:	f04f 0500 	mov.w	r5, #0
 80005da:	e00a      	b.n	80005f2 <__aeabi_l2d+0x16>

080005dc <__aeabi_l2d>:
 80005dc:	ea50 0201 	orrs.w	r2, r0, r1
 80005e0:	bf08      	it	eq
 80005e2:	4770      	bxeq	lr
 80005e4:	b530      	push	{r4, r5, lr}
 80005e6:	f011 4500 	ands.w	r5, r1, #2147483648	; 0x80000000
 80005ea:	d502      	bpl.n	80005f2 <__aeabi_l2d+0x16>
 80005ec:	4240      	negs	r0, r0
 80005ee:	eb61 0141 	sbc.w	r1, r1, r1, lsl #1
 80005f2:	f44f 6480 	mov.w	r4, #1024	; 0x400
 80005f6:	f104 0432 	add.w	r4, r4, #50	; 0x32
 80005fa:	ea5f 5c91 	movs.w	ip, r1, lsr #22
 80005fe:	f43f aed8 	beq.w	80003b2 <__adddf3+0xe6>
 8000602:	f04f 0203 	mov.w	r2, #3
 8000606:	ea5f 0cdc 	movs.w	ip, ip, lsr #3
 800060a:	bf18      	it	ne
 800060c:	3203      	addne	r2, #3
 800060e:	ea5f 0cdc 	movs.w	ip, ip, lsr #3
 8000612:	bf18      	it	ne
 8000614:	3203      	addne	r2, #3
 8000616:	eb02 02dc 	add.w	r2, r2, ip, lsr #3
 800061a:	f1c2 0320 	rsb	r3, r2, #32
 800061e:	fa00 fc03 	lsl.w	ip, r0, r3
 8000622:	fa20 f002 	lsr.w	r0, r0, r2
 8000626:	fa01 fe03 	lsl.w	lr, r1, r3
 800062a:	ea40 000e 	orr.w	r0, r0, lr
 800062e:	fa21 f102 	lsr.w	r1, r1, r2
 8000632:	4414      	add	r4, r2
 8000634:	e6bd      	b.n	80003b2 <__adddf3+0xe6>
 8000636:	bf00      	nop

08000638 <__aeabi_dmul>:
 8000638:	b570      	push	{r4, r5, r6, lr}
 800063a:	f04f 0cff 	mov.w	ip, #255	; 0xff
 800063e:	f44c 6ce0 	orr.w	ip, ip, #1792	; 0x700
 8000642:	ea1c 5411 	ands.w	r4, ip, r1, lsr #20
 8000646:	bf1d      	ittte	ne
 8000648:	ea1c 5513 	andsne.w	r5, ip, r3, lsr #20
 800064c:	ea94 0f0c 	teqne	r4, ip
 8000650:	ea95 0f0c 	teqne	r5, ip
 8000654:	f000 f8de 	bleq	8000814 <__aeabi_dmul+0x1dc>
 8000658:	442c      	add	r4, r5
 800065a:	ea81 0603 	eor.w	r6, r1, r3
 800065e:	ea21 514c 	bic.w	r1, r1, ip, lsl #21
 8000662:	ea23 534c 	bic.w	r3, r3, ip, lsl #21
 8000666:	ea50 3501 	orrs.w	r5, r0, r1, lsl #12
 800066a:	bf18      	it	ne
 800066c:	ea52 3503 	orrsne.w	r5, r2, r3, lsl #12
 8000670:	f441 1180 	orr.w	r1, r1, #1048576	; 0x100000
 8000674:	f443 1380 	orr.w	r3, r3, #1048576	; 0x100000
 8000678:	d038      	beq.n	80006ec <__aeabi_dmul+0xb4>
 800067a:	fba0 ce02 	umull	ip, lr, r0, r2
 800067e:	f04f 0500 	mov.w	r5, #0
 8000682:	fbe1 e502 	umlal	lr, r5, r1, r2
 8000686:	f006 4200 	and.w	r2, r6, #2147483648	; 0x80000000
 800068a:	fbe0 e503 	umlal	lr, r5, r0, r3
 800068e:	f04f 0600 	mov.w	r6, #0
 8000692:	fbe1 5603 	umlal	r5, r6, r1, r3
 8000696:	f09c 0f00 	teq	ip, #0
 800069a:	bf18      	it	ne
 800069c:	f04e 0e01 	orrne.w	lr, lr, #1
 80006a0:	f1a4 04ff 	sub.w	r4, r4, #255	; 0xff
 80006a4:	f5b6 7f00 	cmp.w	r6, #512	; 0x200
 80006a8:	f564 7440 	sbc.w	r4, r4, #768	; 0x300
 80006ac:	d204      	bcs.n	80006b8 <__aeabi_dmul+0x80>
 80006ae:	ea5f 0e4e 	movs.w	lr, lr, lsl #1
 80006b2:	416d      	adcs	r5, r5
 80006b4:	eb46 0606 	adc.w	r6, r6, r6
 80006b8:	ea42 21c6 	orr.w	r1, r2, r6, lsl #11
 80006bc:	ea41 5155 	orr.w	r1, r1, r5, lsr #21
 80006c0:	ea4f 20c5 	mov.w	r0, r5, lsl #11
 80006c4:	ea40 505e 	orr.w	r0, r0, lr, lsr #21
 80006c8:	ea4f 2ece 	mov.w	lr, lr, lsl #11
 80006cc:	f1b4 0cfd 	subs.w	ip, r4, #253	; 0xfd
 80006d0:	bf88      	it	hi
 80006d2:	f5bc 6fe0 	cmphi.w	ip, #1792	; 0x700
 80006d6:	d81e      	bhi.n	8000716 <__aeabi_dmul+0xde>
 80006d8:	f1be 4f00 	cmp.w	lr, #2147483648	; 0x80000000
 80006dc:	bf08      	it	eq
 80006de:	ea5f 0e50 	movseq.w	lr, r0, lsr #1
 80006e2:	f150 0000 	adcs.w	r0, r0, #0
 80006e6:	eb41 5104 	adc.w	r1, r1, r4, lsl #20
 80006ea:	bd70      	pop	{r4, r5, r6, pc}
 80006ec:	f006 4600 	and.w	r6, r6, #2147483648	; 0x80000000
 80006f0:	ea46 0101 	orr.w	r1, r6, r1
 80006f4:	ea40 0002 	orr.w	r0, r0, r2
 80006f8:	ea81 0103 	eor.w	r1, r1, r3
 80006fc:	ebb4 045c 	subs.w	r4, r4, ip, lsr #1
 8000700:	bfc2      	ittt	gt
 8000702:	ebd4 050c 	rsbsgt	r5, r4, ip
 8000706:	ea41 5104 	orrgt.w	r1, r1, r4, lsl #20
 800070a:	bd70      	popgt	{r4, r5, r6, pc}
 800070c:	f441 1180 	orr.w	r1, r1, #1048576	; 0x100000
 8000710:	f04f 0e00 	mov.w	lr, #0
 8000714:	3c01      	subs	r4, #1
 8000716:	f300 80ab 	bgt.w	8000870 <__aeabi_dmul+0x238>
 800071a:	f114 0f36 	cmn.w	r4, #54	; 0x36
 800071e:	bfde      	ittt	le
 8000720:	2000      	movle	r0, #0
 8000722:	f001 4100 	andle.w	r1, r1, #2147483648	; 0x80000000
 8000726:	bd70      	pople	{r4, r5, r6, pc}
 8000728:	f1c4 0400 	rsb	r4, r4, #0
 800072c:	3c20      	subs	r4, #32
 800072e:	da35      	bge.n	800079c <__aeabi_dmul+0x164>
 8000730:	340c      	adds	r4, #12
 8000732:	dc1b      	bgt.n	800076c <__aeabi_dmul+0x134>
 8000734:	f104 0414 	add.w	r4, r4, #20
 8000738:	f1c4 0520 	rsb	r5, r4, #32
 800073c:	fa00 f305 	lsl.w	r3, r0, r5
 8000740:	fa20 f004 	lsr.w	r0, r0, r4
 8000744:	fa01 f205 	lsl.w	r2, r1, r5
 8000748:	ea40 0002 	orr.w	r0, r0, r2
 800074c:	f001 4200 	and.w	r2, r1, #2147483648	; 0x80000000
 8000750:	f021 4100 	bic.w	r1, r1, #2147483648	; 0x80000000
 8000754:	eb10 70d3 	adds.w	r0, r0, r3, lsr #31
 8000758:	fa21 f604 	lsr.w	r6, r1, r4
 800075c:	eb42 0106 	adc.w	r1, r2, r6
 8000760:	ea5e 0e43 	orrs.w	lr, lr, r3, lsl #1
 8000764:	bf08      	it	eq
 8000766:	ea20 70d3 	biceq.w	r0, r0, r3, lsr #31
 800076a:	bd70      	pop	{r4, r5, r6, pc}
 800076c:	f1c4 040c 	rsb	r4, r4, #12
 8000770:	f1c4 0520 	rsb	r5, r4, #32
 8000774:	fa00 f304 	lsl.w	r3, r0, r4
 8000778:	fa20 f005 	lsr.w	r0, r0, r5
 800077c:	fa01 f204 	lsl.w	r2, r1, r4
 8000780:	ea40 0002 	orr.w	r0, r0, r2
 8000784:	f001 4100 	and.w	r1, r1, #2147483648	; 0x80000000
 8000788:	eb10 70d3 	adds.w	r0, r0, r3, lsr #31
 800078c:	f141 0100 	adc.w	r1, r1, #0
 8000790:	ea5e 0e43 	orrs.w	lr, lr, r3, lsl #1
 8000794:	bf08      	it	eq
 8000796:	ea20 70d3 	biceq.w	r0, r0, r3, lsr #31
 800079a:	bd70      	pop	{r4, r5, r6, pc}
 800079c:	f1c4 0520 	rsb	r5, r4, #32
 80007a0:	fa00 f205 	lsl.w	r2, r0, r5
 80007a4:	ea4e 0e02 	orr.w	lr, lr, r2
 80007a8:	fa20 f304 	lsr.w	r3, r0, r4
 80007ac:	fa01 f205 	lsl.w	r2, r1, r5
 80007b0:	ea43 0302 	orr.w	r3, r3, r2
 80007b4:	fa21 f004 	lsr.w	r0, r1, r4
 80007b8:	f001 4100 	and.w	r1, r1, #2147483648	; 0x80000000
 80007bc:	fa21 f204 	lsr.w	r2, r1, r4
 80007c0:	ea20 0002 	bic.w	r0, r0, r2
 80007c4:	eb00 70d3 	add.w	r0, r0, r3, lsr #31
 80007c8:	ea5e 0e43 	orrs.w	lr, lr, r3, lsl #1
 80007cc:	bf08      	it	eq
 80007ce:	ea20 70d3 	biceq.w	r0, r0, r3, lsr #31
 80007d2:	bd70      	pop	{r4, r5, r6, pc}
 80007d4:	f094 0f00 	teq	r4, #0
 80007d8:	d10f      	bne.n	80007fa <__aeabi_dmul+0x1c2>
 80007da:	f001 4600 	and.w	r6, r1, #2147483648	; 0x80000000
 80007de:	0040      	lsls	r0, r0, #1
 80007e0:	eb41 0101 	adc.w	r1, r1, r1
 80007e4:	f411 1f80 	tst.w	r1, #1048576	; 0x100000
 80007e8:	bf08      	it	eq
 80007ea:	3c01      	subeq	r4, #1
 80007ec:	d0f7      	beq.n	80007de <__aeabi_dmul+0x1a6>
 80007ee:	ea41 0106 	orr.w	r1, r1, r6
 80007f2:	f095 0f00 	teq	r5, #0
 80007f6:	bf18      	it	ne
 80007f8:	4770      	bxne	lr
 80007fa:	f003 4600 	and.w	r6, r3, #2147483648	; 0x80000000
 80007fe:	0052      	lsls	r2, r2, #1
 8000800:	eb43 0303 	adc.w	r3, r3, r3
 8000804:	f413 1f80 	tst.w	r3, #1048576	; 0x100000
 8000808:	bf08      	it	eq
 800080a:	3d01      	subeq	r5, #1
 800080c:	d0f7      	beq.n	80007fe <__aeabi_dmul+0x1c6>
 800080e:	ea43 0306 	orr.w	r3, r3, r6
 8000812:	4770      	bx	lr
 8000814:	ea94 0f0c 	teq	r4, ip
 8000818:	ea0c 5513 	and.w	r5, ip, r3, lsr #20
 800081c:	bf18      	it	ne
 800081e:	ea95 0f0c 	teqne	r5, ip
 8000822:	d00c      	beq.n	800083e <__aeabi_dmul+0x206>
 8000824:	ea50 0641 	orrs.w	r6, r0, r1, lsl #1
 8000828:	bf18      	it	ne
 800082a:	ea52 0643 	orrsne.w	r6, r2, r3, lsl #1
 800082e:	d1d1      	bne.n	80007d4 <__aeabi_dmul+0x19c>
 8000830:	ea81 0103 	eor.w	r1, r1, r3
 8000834:	f001 4100 	and.w	r1, r1, #2147483648	; 0x80000000
 8000838:	f04f 0000 	mov.w	r0, #0
 800083c:	bd70      	pop	{r4, r5, r6, pc}
 800083e:	ea50 0641 	orrs.w	r6, r0, r1, lsl #1
 8000842:	bf06      	itte	eq
 8000844:	4610      	moveq	r0, r2
 8000846:	4619      	moveq	r1, r3
 8000848:	ea52 0643 	orrsne.w	r6, r2, r3, lsl #1
 800084c:	d019      	beq.n	8000882 <__aeabi_dmul+0x24a>
 800084e:	ea94 0f0c 	teq	r4, ip
 8000852:	d102      	bne.n	800085a <__aeabi_dmul+0x222>
 8000854:	ea50 3601 	orrs.w	r6, r0, r1, lsl #12
 8000858:	d113      	bne.n	8000882 <__aeabi_dmul+0x24a>
 800085a:	ea95 0f0c 	teq	r5, ip
 800085e:	d105      	bne.n	800086c <__aeabi_dmul+0x234>
 8000860:	ea52 3603 	orrs.w	r6, r2, r3, lsl #12
 8000864:	bf1c      	itt	ne
 8000866:	4610      	movne	r0, r2
 8000868:	4619      	movne	r1, r3
 800086a:	d10a      	bne.n	8000882 <__aeabi_dmul+0x24a>
 800086c:	ea81 0103 	eor.w	r1, r1, r3
 8000870:	f001 4100 	and.w	r1, r1, #2147483648	; 0x80000000
 8000874:	f041 41fe 	orr.w	r1, r1, #2130706432	; 0x7f000000
 8000878:	f441 0170 	orr.w	r1, r1, #15728640	; 0xf00000
 800087c:	f04f 0000 	mov.w	r0, #0
 8000880:	bd70      	pop	{r4, r5, r6, pc}
 8000882:	f041 41fe 	orr.w	r1, r1, #2130706432	; 0x7f000000
 8000886:	f441 0178 	orr.w	r1, r1, #16252928	; 0xf80000
 800088a:	bd70      	pop	{r4, r5, r6, pc}

0800088c <__aeabi_ddiv>:
 800088c:	b570      	push	{r4, r5, r6, lr}
 800088e:	f04f 0cff 	mov.w	ip, #255	; 0xff
 8000892:	f44c 6ce0 	orr.w	ip, ip, #1792	; 0x700
 8000896:	ea1c 5411 	ands.w	r4, ip, r1, lsr #20
 800089a:	bf1d      	ittte	ne
 800089c:	ea1c 5513 	andsne.w	r5, ip, r3, lsr #20
 80008a0:	ea94 0f0c 	teqne	r4, ip
 80008a4:	ea95 0f0c 	teqne	r5, ip
 80008a8:	f000 f8a7 	bleq	80009fa <__aeabi_ddiv+0x16e>
 80008ac:	eba4 0405 	sub.w	r4, r4, r5
 80008b0:	ea81 0e03 	eor.w	lr, r1, r3
 80008b4:	ea52 3503 	orrs.w	r5, r2, r3, lsl #12
 80008b8:	ea4f 3101 	mov.w	r1, r1, lsl #12
 80008bc:	f000 8088 	beq.w	80009d0 <__aeabi_ddiv+0x144>
 80008c0:	ea4f 3303 	mov.w	r3, r3, lsl #12
 80008c4:	f04f 5580 	mov.w	r5, #268435456	; 0x10000000
 80008c8:	ea45 1313 	orr.w	r3, r5, r3, lsr #4
 80008cc:	ea43 6312 	orr.w	r3, r3, r2, lsr #24
 80008d0:	ea4f 2202 	mov.w	r2, r2, lsl #8
 80008d4:	ea45 1511 	orr.w	r5, r5, r1, lsr #4
 80008d8:	ea45 6510 	orr.w	r5, r5, r0, lsr #24
 80008dc:	ea4f 2600 	mov.w	r6, r0, lsl #8
 80008e0:	f00e 4100 	and.w	r1, lr, #2147483648	; 0x80000000
 80008e4:	429d      	cmp	r5, r3
 80008e6:	bf08      	it	eq
 80008e8:	4296      	cmpeq	r6, r2
 80008ea:	f144 04fd 	adc.w	r4, r4, #253	; 0xfd
 80008ee:	f504 7440 	add.w	r4, r4, #768	; 0x300
 80008f2:	d202      	bcs.n	80008fa <__aeabi_ddiv+0x6e>
 80008f4:	085b      	lsrs	r3, r3, #1
 80008f6:	ea4f 0232 	mov.w	r2, r2, rrx
 80008fa:	1ab6      	subs	r6, r6, r2
 80008fc:	eb65 0503 	sbc.w	r5, r5, r3
 8000900:	085b      	lsrs	r3, r3, #1
 8000902:	ea4f 0232 	mov.w	r2, r2, rrx
 8000906:	f44f 1080 	mov.w	r0, #1048576	; 0x100000
 800090a:	f44f 2c00 	mov.w	ip, #524288	; 0x80000
 800090e:	ebb6 0e02 	subs.w	lr, r6, r2
 8000912:	eb75 0e03 	sbcs.w	lr, r5, r3
 8000916:	bf22      	ittt	cs
 8000918:	1ab6      	subcs	r6, r6, r2
 800091a:	4675      	movcs	r5, lr
 800091c:	ea40 000c 	orrcs.w	r0, r0, ip
 8000920:	085b      	lsrs	r3, r3, #1
 8000922:	ea4f 0232 	mov.w	r2, r2, rrx
 8000926:	ebb6 0e02 	subs.w	lr, r6, r2
 800092a:	eb75 0e03 	sbcs.w	lr, r5, r3
 800092e:	bf22      	ittt	cs
 8000930:	1ab6      	subcs	r6, r6, r2
 8000932:	4675      	movcs	r5, lr
 8000934:	ea40 005c 	orrcs.w	r0, r0, ip, lsr #1
 8000938:	085b      	lsrs	r3, r3, #1
 800093a:	ea4f 0232 	mov.w	r2, r2, rrx
 800093e:	ebb6 0e02 	subs.w	lr, r6, r2
 8000942:	eb75 0e03 	sbcs.w	lr, r5, r3
 8000946:	bf22      	ittt	cs
 8000948:	1ab6      	subcs	r6, r6, r2
 800094a:	4675      	movcs	r5, lr
 800094c:	ea40 009c 	orrcs.w	r0, r0, ip, lsr #2
 8000950:	085b      	lsrs	r3, r3, #1
 8000952:	ea4f 0232 	mov.w	r2, r2, rrx
 8000956:	ebb6 0e02 	subs.w	lr, r6, r2
 800095a:	eb75 0e03 	sbcs.w	lr, r5, r3
 800095e:	bf22      	ittt	cs
 8000960:	1ab6      	subcs	r6, r6, r2
 8000962:	4675      	movcs	r5, lr
 8000964:	ea40 00dc 	orrcs.w	r0, r0, ip, lsr #3
 8000968:	ea55 0e06 	orrs.w	lr, r5, r6
 800096c:	d018      	beq.n	80009a0 <__aeabi_ddiv+0x114>
 800096e:	ea4f 1505 	mov.w	r5, r5, lsl #4
 8000972:	ea45 7516 	orr.w	r5, r5, r6, lsr #28
 8000976:	ea4f 1606 	mov.w	r6, r6, lsl #4
 800097a:	ea4f 03c3 	mov.w	r3, r3, lsl #3
 800097e:	ea43 7352 	orr.w	r3, r3, r2, lsr #29
 8000982:	ea4f 02c2 	mov.w	r2, r2, lsl #3
 8000986:	ea5f 1c1c 	movs.w	ip, ip, lsr #4
 800098a:	d1c0      	bne.n	800090e <__aeabi_ddiv+0x82>
 800098c:	f411 1f80 	tst.w	r1, #1048576	; 0x100000
 8000990:	d10b      	bne.n	80009aa <__aeabi_ddiv+0x11e>
 8000992:	ea41 0100 	orr.w	r1, r1, r0
 8000996:	f04f 0000 	mov.w	r0, #0
 800099a:	f04f 4c00 	mov.w	ip, #2147483648	; 0x80000000
 800099e:	e7b6      	b.n	800090e <__aeabi_ddiv+0x82>
 80009a0:	f411 1f80 	tst.w	r1, #1048576	; 0x100000
 80009a4:	bf04      	itt	eq
 80009a6:	4301      	orreq	r1, r0
 80009a8:	2000      	moveq	r0, #0
 80009aa:	f1b4 0cfd 	subs.w	ip, r4, #253	; 0xfd
 80009ae:	bf88      	it	hi
 80009b0:	f5bc 6fe0 	cmphi.w	ip, #1792	; 0x700
 80009b4:	f63f aeaf 	bhi.w	8000716 <__aeabi_dmul+0xde>
 80009b8:	ebb5 0c03 	subs.w	ip, r5, r3
 80009bc:	bf04      	itt	eq
 80009be:	ebb6 0c02 	subseq.w	ip, r6, r2
 80009c2:	ea5f 0c50 	movseq.w	ip, r0, lsr #1
 80009c6:	f150 0000 	adcs.w	r0, r0, #0
 80009ca:	eb41 5104 	adc.w	r1, r1, r4, lsl #20
 80009ce:	bd70      	pop	{r4, r5, r6, pc}
 80009d0:	f00e 4e00 	and.w	lr, lr, #2147483648	; 0x80000000
 80009d4:	ea4e 3111 	orr.w	r1, lr, r1, lsr #12
 80009d8:	eb14 045c 	adds.w	r4, r4, ip, lsr #1
 80009dc:	bfc2      	ittt	gt
 80009de:	ebd4 050c 	rsbsgt	r5, r4, ip
 80009e2:	ea41 5104 	orrgt.w	r1, r1, r4, lsl #20
 80009e6:	bd70      	popgt	{r4, r5, r6, pc}
 80009e8:	f441 1180 	orr.w	r1, r1, #1048576	; 0x100000
 80009ec:	f04f 0e00 	mov.w	lr, #0
 80009f0:	3c01      	subs	r4, #1
 80009f2:	e690      	b.n	8000716 <__aeabi_dmul+0xde>
 80009f4:	ea45 0e06 	orr.w	lr, r5, r6
 80009f8:	e68d      	b.n	8000716 <__aeabi_dmul+0xde>
 80009fa:	ea0c 5513 	and.w	r5, ip, r3, lsr #20
 80009fe:	ea94 0f0c 	teq	r4, ip
 8000a02:	bf08      	it	eq
 8000a04:	ea95 0f0c 	teqeq	r5, ip
 8000a08:	f43f af3b 	beq.w	8000882 <__aeabi_dmul+0x24a>
 8000a0c:	ea94 0f0c 	teq	r4, ip
 8000a10:	d10a      	bne.n	8000a28 <__aeabi_ddiv+0x19c>
 8000a12:	ea50 3401 	orrs.w	r4, r0, r1, lsl #12
 8000a16:	f47f af34 	bne.w	8000882 <__aeabi_dmul+0x24a>
 8000a1a:	ea95 0f0c 	teq	r5, ip
 8000a1e:	f47f af25 	bne.w	800086c <__aeabi_dmul+0x234>
 8000a22:	4610      	mov	r0, r2
 8000a24:	4619      	mov	r1, r3
 8000a26:	e72c      	b.n	8000882 <__aeabi_dmul+0x24a>
 8000a28:	ea95 0f0c 	teq	r5, ip
 8000a2c:	d106      	bne.n	8000a3c <__aeabi_ddiv+0x1b0>
 8000a2e:	ea52 3503 	orrs.w	r5, r2, r3, lsl #12
 8000a32:	f43f aefd 	beq.w	8000830 <__aeabi_dmul+0x1f8>
 8000a36:	4610      	mov	r0, r2
 8000a38:	4619      	mov	r1, r3
 8000a3a:	e722      	b.n	8000882 <__aeabi_dmul+0x24a>
 8000a3c:	ea50 0641 	orrs.w	r6, r0, r1, lsl #1
 8000a40:	bf18      	it	ne
 8000a42:	ea52 0643 	orrsne.w	r6, r2, r3, lsl #1
 8000a46:	f47f aec5 	bne.w	80007d4 <__aeabi_dmul+0x19c>
 8000a4a:	ea50 0441 	orrs.w	r4, r0, r1, lsl #1
 8000a4e:	f47f af0d 	bne.w	800086c <__aeabi_dmul+0x234>
 8000a52:	ea52 0543 	orrs.w	r5, r2, r3, lsl #1
 8000a56:	f47f aeeb 	bne.w	8000830 <__aeabi_dmul+0x1f8>
 8000a5a:	e712      	b.n	8000882 <__aeabi_dmul+0x24a>

08000a5c <__gedf2>:
 8000a5c:	f04f 3cff 	mov.w	ip, #4294967295
 8000a60:	e006      	b.n	8000a70 <__cmpdf2+0x4>
 8000a62:	bf00      	nop

08000a64 <__ledf2>:
 8000a64:	f04f 0c01 	mov.w	ip, #1
 8000a68:	e002      	b.n	8000a70 <__cmpdf2+0x4>
 8000a6a:	bf00      	nop

08000a6c <__cmpdf2>:
 8000a6c:	f04f 0c01 	mov.w	ip, #1
 8000a70:	f84d cd04 	str.w	ip, [sp, #-4]!
 8000a74:	ea4f 0c41 	mov.w	ip, r1, lsl #1
 8000a78:	ea7f 5c6c 	mvns.w	ip, ip, asr #21
 8000a7c:	ea4f 0c43 	mov.w	ip, r3, lsl #1
 8000a80:	bf18      	it	ne
 8000a82:	ea7f 5c6c 	mvnsne.w	ip, ip, asr #21
 8000a86:	d01b      	beq.n	8000ac0 <__cmpdf2+0x54>
 8000a88:	b001      	add	sp, #4
 8000a8a:	ea50 0c41 	orrs.w	ip, r0, r1, lsl #1
 8000a8e:	bf0c      	ite	eq
 8000a90:	ea52 0c43 	orrseq.w	ip, r2, r3, lsl #1
 8000a94:	ea91 0f03 	teqne	r1, r3
 8000a98:	bf02      	ittt	eq
 8000a9a:	ea90 0f02 	teqeq	r0, r2
 8000a9e:	2000      	moveq	r0, #0
 8000aa0:	4770      	bxeq	lr
 8000aa2:	f110 0f00 	cmn.w	r0, #0
 8000aa6:	ea91 0f03 	teq	r1, r3
 8000aaa:	bf58      	it	pl
 8000aac:	4299      	cmppl	r1, r3
 8000aae:	bf08      	it	eq
 8000ab0:	4290      	cmpeq	r0, r2
 8000ab2:	bf2c      	ite	cs
 8000ab4:	17d8      	asrcs	r0, r3, #31
 8000ab6:	ea6f 70e3 	mvncc.w	r0, r3, asr #31
 8000aba:	f040 0001 	orr.w	r0, r0, #1
 8000abe:	4770      	bx	lr
 8000ac0:	ea4f 0c41 	mov.w	ip, r1, lsl #1
 8000ac4:	ea7f 5c6c 	mvns.w	ip, ip, asr #21
 8000ac8:	d102      	bne.n	8000ad0 <__cmpdf2+0x64>
 8000aca:	ea50 3c01 	orrs.w	ip, r0, r1, lsl #12
 8000ace:	d107      	bne.n	8000ae0 <__cmpdf2+0x74>
 8000ad0:	ea4f 0c43 	mov.w	ip, r3, lsl #1
 8000ad4:	ea7f 5c6c 	mvns.w	ip, ip, asr #21
 8000ad8:	d1d6      	bne.n	8000a88 <__cmpdf2+0x1c>
 8000ada:	ea52 3c03 	orrs.w	ip, r2, r3, lsl #12
 8000ade:	d0d3      	beq.n	8000a88 <__cmpdf2+0x1c>
 8000ae0:	f85d 0b04 	ldr.w	r0, [sp], #4
 8000ae4:	4770      	bx	lr
 8000ae6:	bf00      	nop

08000ae8 <__aeabi_cdrcmple>:
 8000ae8:	4684      	mov	ip, r0
 8000aea:	4610      	mov	r0, r2
 8000aec:	4662      	mov	r2, ip
 8000aee:	468c      	mov	ip, r1
 8000af0:	4619      	mov	r1, r3
 8000af2:	4663      	mov	r3, ip
 8000af4:	e000      	b.n	8000af8 <__aeabi_cdcmpeq>
 8000af6:	bf00      	nop

08000af8 <__aeabi_cdcmpeq>:
 8000af8:	b501      	push	{r0, lr}
 8000afa:	f7ff ffb7 	bl	8000a6c <__cmpdf2>
 8000afe:	2800      	cmp	r0, #0
 8000b00:	bf48      	it	mi
 8000b02:	f110 0f00 	cmnmi.w	r0, #0
 8000b06:	bd01      	pop	{r0, pc}

08000b08 <__aeabi_dcmpeq>:
 8000b08:	f84d ed08 	str.w	lr, [sp, #-8]!
 8000b0c:	f7ff fff4 	bl	8000af8 <__aeabi_cdcmpeq>
 8000b10:	bf0c      	ite	eq
 8000b12:	2001      	moveq	r0, #1
 8000b14:	2000      	movne	r0, #0
 8000b16:	f85d fb08 	ldr.w	pc, [sp], #8
 8000b1a:	bf00      	nop

08000b1c <__aeabi_dcmplt>:
 8000b1c:	f84d ed08 	str.w	lr, [sp, #-8]!
 8000b20:	f7ff ffea 	bl	8000af8 <__aeabi_cdcmpeq>
 8000b24:	bf34      	ite	cc
 8000b26:	2001      	movcc	r0, #1
 8000b28:	2000      	movcs	r0, #0
 8000b2a:	f85d fb08 	ldr.w	pc, [sp], #8
 8000b2e:	bf00      	nop

08000b30 <__aeabi_dcmple>:
 8000b30:	f84d ed08 	str.w	lr, [sp, #-8]!
 8000b34:	f7ff ffe0 	bl	8000af8 <__aeabi_cdcmpeq>
 8000b38:	bf94      	ite	ls
 8000b3a:	2001      	movls	r0, #1
 8000b3c:	2000      	movhi	r0, #0
 8000b3e:	f85d fb08 	ldr.w	pc, [sp], #8
 8000b42:	bf00      	nop

08000b44 <__aeabi_dcmpge>:
 8000b44:	f84d ed08 	str.w	lr, [sp, #-8]!
 8000b48:	f7ff ffce 	bl	8000ae8 <__aeabi_cdrcmple>
 8000b4c:	bf94      	ite	ls
 8000b4e:	2001      	movls	r0, #1
 8000b50:	2000      	movhi	r0, #0
 8000b52:	f85d fb08 	ldr.w	pc, [sp], #8
 8000b56:	bf00      	nop

08000b58 <__aeabi_dcmpgt>:
 8000b58:	f84d ed08 	str.w	lr, [sp, #-8]!
 8000b5c:	f7ff ffc4 	bl	8000ae8 <__aeabi_cdrcmple>
 8000b60:	bf34      	ite	cc
 8000b62:	2001      	movcc	r0, #1
 8000b64:	2000      	movcs	r0, #0
 8000b66:	f85d fb08 	ldr.w	pc, [sp], #8
 8000b6a:	bf00      	nop

08000b6c <__aeabi_dcmpun>:
 8000b6c:	ea4f 0c41 	mov.w	ip, r1, lsl #1
 8000b70:	ea7f 5c6c 	mvns.w	ip, ip, asr #21
 8000b74:	d102      	bne.n	8000b7c <__aeabi_dcmpun+0x10>
 8000b76:	ea50 3c01 	orrs.w	ip, r0, r1, lsl #12
 8000b7a:	d10a      	bne.n	8000b92 <__aeabi_dcmpun+0x26>
 8000b7c:	ea4f 0c43 	mov.w	ip, r3, lsl #1
 8000b80:	ea7f 5c6c 	mvns.w	ip, ip, asr #21
 8000b84:	d102      	bne.n	8000b8c <__aeabi_dcmpun+0x20>
 8000b86:	ea52 3c03 	orrs.w	ip, r2, r3, lsl #12
 8000b8a:	d102      	bne.n	8000b92 <__aeabi_dcmpun+0x26>
 8000b8c:	f04f 0000 	mov.w	r0, #0
 8000b90:	4770      	bx	lr
 8000b92:	f04f 0001 	mov.w	r0, #1
 8000b96:	4770      	bx	lr

08000b98 <__aeabi_d2iz>:
 8000b98:	ea4f 0241 	mov.w	r2, r1, lsl #1
 8000b9c:	f512 1200 	adds.w	r2, r2, #2097152	; 0x200000
 8000ba0:	d215      	bcs.n	8000bce <__aeabi_d2iz+0x36>
 8000ba2:	d511      	bpl.n	8000bc8 <__aeabi_d2iz+0x30>
 8000ba4:	f46f 7378 	mvn.w	r3, #992	; 0x3e0
 8000ba8:	ebb3 5262 	subs.w	r2, r3, r2, asr #21
 8000bac:	d912      	bls.n	8000bd4 <__aeabi_d2iz+0x3c>
 8000bae:	ea4f 23c1 	mov.w	r3, r1, lsl #11
 8000bb2:	f043 4300 	orr.w	r3, r3, #2147483648	; 0x80000000
 8000bb6:	ea43 5350 	orr.w	r3, r3, r0, lsr #21
 8000bba:	f011 4f00 	tst.w	r1, #2147483648	; 0x80000000
 8000bbe:	fa23 f002 	lsr.w	r0, r3, r2
 8000bc2:	bf18      	it	ne
 8000bc4:	4240      	negne	r0, r0
 8000bc6:	4770      	bx	lr
 8000bc8:	f04f 0000 	mov.w	r0, #0
 8000bcc:	4770      	bx	lr
 8000bce:	ea50 3001 	orrs.w	r0, r0, r1, lsl #12
 8000bd2:	d105      	bne.n	8000be0 <__aeabi_d2iz+0x48>
 8000bd4:	f011 4000 	ands.w	r0, r1, #2147483648	; 0x80000000
 8000bd8:	bf08      	it	eq
 8000bda:	f06f 4000 	mvneq.w	r0, #2147483648	; 0x80000000
 8000bde:	4770      	bx	lr
 8000be0:	f04f 0000 	mov.w	r0, #0
 8000be4:	4770      	bx	lr
 8000be6:	bf00      	nop

08000be8 <__aeabi_uldivmod>:
 8000be8:	b953      	cbnz	r3, 8000c00 <__aeabi_uldivmod+0x18>
 8000bea:	b94a      	cbnz	r2, 8000c00 <__aeabi_uldivmod+0x18>
 8000bec:	2900      	cmp	r1, #0
 8000bee:	bf08      	it	eq
 8000bf0:	2800      	cmpeq	r0, #0
 8000bf2:	bf1c      	itt	ne
 8000bf4:	f04f 31ff 	movne.w	r1, #4294967295
 8000bf8:	f04f 30ff 	movne.w	r0, #4294967295
 8000bfc:	f000 b972 	b.w	8000ee4 <__aeabi_idiv0>
 8000c00:	f1ad 0c08 	sub.w	ip, sp, #8
 8000c04:	e96d ce04 	strd	ip, lr, [sp, #-16]!
 8000c08:	f000 f806 	bl	8000c18 <__udivmoddi4>
 8000c0c:	f8dd e004 	ldr.w	lr, [sp, #4]
 8000c10:	e9dd 2302 	ldrd	r2, r3, [sp, #8]
 8000c14:	b004      	add	sp, #16
 8000c16:	4770      	bx	lr

08000c18 <__udivmoddi4>:
 8000c18:	e92d 47f0 	stmdb	sp!, {r4, r5, r6, r7, r8, r9, sl, lr}
 8000c1c:	9e08      	ldr	r6, [sp, #32]
 8000c1e:	4604      	mov	r4, r0
 8000c20:	4688      	mov	r8, r1
 8000c22:	2b00      	cmp	r3, #0
 8000c24:	d14b      	bne.n	8000cbe <__udivmoddi4+0xa6>
 8000c26:	428a      	cmp	r2, r1
 8000c28:	4615      	mov	r5, r2
 8000c2a:	d967      	bls.n	8000cfc <__udivmoddi4+0xe4>
 8000c2c:	fab2 f282 	clz	r2, r2
 8000c30:	b14a      	cbz	r2, 8000c46 <__udivmoddi4+0x2e>
 8000c32:	f1c2 0720 	rsb	r7, r2, #32
 8000c36:	fa01 f302 	lsl.w	r3, r1, r2
 8000c3a:	fa20 f707 	lsr.w	r7, r0, r7
 8000c3e:	4095      	lsls	r5, r2
 8000c40:	ea47 0803 	orr.w	r8, r7, r3
 8000c44:	4094      	lsls	r4, r2
 8000c46:	ea4f 4e15 	mov.w	lr, r5, lsr #16
 8000c4a:	0c23      	lsrs	r3, r4, #16
 8000c4c:	fbb8 f7fe 	udiv	r7, r8, lr
 8000c50:	fa1f fc85 	uxth.w	ip, r5
 8000c54:	fb0e 8817 	mls	r8, lr, r7, r8
 8000c58:	ea43 4308 	orr.w	r3, r3, r8, lsl #16
 8000c5c:	fb07 f10c 	mul.w	r1, r7, ip
 8000c60:	4299      	cmp	r1, r3
 8000c62:	d909      	bls.n	8000c78 <__udivmoddi4+0x60>
 8000c64:	18eb      	adds	r3, r5, r3
 8000c66:	f107 30ff 	add.w	r0, r7, #4294967295
 8000c6a:	f080 811b 	bcs.w	8000ea4 <__udivmoddi4+0x28c>
 8000c6e:	4299      	cmp	r1, r3
 8000c70:	f240 8118 	bls.w	8000ea4 <__udivmoddi4+0x28c>
 8000c74:	3f02      	subs	r7, #2
 8000c76:	442b      	add	r3, r5
 8000c78:	1a5b      	subs	r3, r3, r1
 8000c7a:	b2a4      	uxth	r4, r4
 8000c7c:	fbb3 f0fe 	udiv	r0, r3, lr
 8000c80:	fb0e 3310 	mls	r3, lr, r0, r3
 8000c84:	ea44 4403 	orr.w	r4, r4, r3, lsl #16
 8000c88:	fb00 fc0c 	mul.w	ip, r0, ip
 8000c8c:	45a4      	cmp	ip, r4
 8000c8e:	d909      	bls.n	8000ca4 <__udivmoddi4+0x8c>
 8000c90:	192c      	adds	r4, r5, r4
 8000c92:	f100 33ff 	add.w	r3, r0, #4294967295
 8000c96:	f080 8107 	bcs.w	8000ea8 <__udivmoddi4+0x290>
 8000c9a:	45a4      	cmp	ip, r4
 8000c9c:	f240 8104 	bls.w	8000ea8 <__udivmoddi4+0x290>
 8000ca0:	3802      	subs	r0, #2
 8000ca2:	442c      	add	r4, r5
 8000ca4:	ea40 4007 	orr.w	r0, r0, r7, lsl #16
 8000ca8:	eba4 040c 	sub.w	r4, r4, ip
 8000cac:	2700      	movs	r7, #0
 8000cae:	b11e      	cbz	r6, 8000cb8 <__udivmoddi4+0xa0>
 8000cb0:	40d4      	lsrs	r4, r2
 8000cb2:	2300      	movs	r3, #0
 8000cb4:	e9c6 4300 	strd	r4, r3, [r6]
 8000cb8:	4639      	mov	r1, r7
 8000cba:	e8bd 87f0 	ldmia.w	sp!, {r4, r5, r6, r7, r8, r9, sl, pc}
 8000cbe:	428b      	cmp	r3, r1
 8000cc0:	d909      	bls.n	8000cd6 <__udivmoddi4+0xbe>
 8000cc2:	2e00      	cmp	r6, #0
 8000cc4:	f000 80eb 	beq.w	8000e9e <__udivmoddi4+0x286>
 8000cc8:	2700      	movs	r7, #0
 8000cca:	e9c6 0100 	strd	r0, r1, [r6]
 8000cce:	4638      	mov	r0, r7
 8000cd0:	4639      	mov	r1, r7
 8000cd2:	e8bd 87f0 	ldmia.w	sp!, {r4, r5, r6, r7, r8, r9, sl, pc}
 8000cd6:	fab3 f783 	clz	r7, r3
 8000cda:	2f00      	cmp	r7, #0
 8000cdc:	d147      	bne.n	8000d6e <__udivmoddi4+0x156>
 8000cde:	428b      	cmp	r3, r1
 8000ce0:	d302      	bcc.n	8000ce8 <__udivmoddi4+0xd0>
 8000ce2:	4282      	cmp	r2, r0
 8000ce4:	f200 80fa 	bhi.w	8000edc <__udivmoddi4+0x2c4>
 8000ce8:	1a84      	subs	r4, r0, r2
 8000cea:	eb61 0303 	sbc.w	r3, r1, r3
 8000cee:	2001      	movs	r0, #1
 8000cf0:	4698      	mov	r8, r3
 8000cf2:	2e00      	cmp	r6, #0
 8000cf4:	d0e0      	beq.n	8000cb8 <__udivmoddi4+0xa0>
 8000cf6:	e9c6 4800 	strd	r4, r8, [r6]
 8000cfa:	e7dd      	b.n	8000cb8 <__udivmoddi4+0xa0>
 8000cfc:	b902      	cbnz	r2, 8000d00 <__udivmoddi4+0xe8>
 8000cfe:	deff      	udf	#255	; 0xff
 8000d00:	fab2 f282 	clz	r2, r2
 8000d04:	2a00      	cmp	r2, #0
 8000d06:	f040 808f 	bne.w	8000e28 <__udivmoddi4+0x210>
 8000d0a:	1b49      	subs	r1, r1, r5
 8000d0c:	ea4f 4e15 	mov.w	lr, r5, lsr #16
 8000d10:	fa1f f885 	uxth.w	r8, r5
 8000d14:	2701      	movs	r7, #1
 8000d16:	fbb1 fcfe 	udiv	ip, r1, lr
 8000d1a:	0c23      	lsrs	r3, r4, #16
 8000d1c:	fb0e 111c 	mls	r1, lr, ip, r1
 8000d20:	ea43 4301 	orr.w	r3, r3, r1, lsl #16
 8000d24:	fb08 f10c 	mul.w	r1, r8, ip
 8000d28:	4299      	cmp	r1, r3
 8000d2a:	d907      	bls.n	8000d3c <__udivmoddi4+0x124>
 8000d2c:	18eb      	adds	r3, r5, r3
 8000d2e:	f10c 30ff 	add.w	r0, ip, #4294967295
 8000d32:	d202      	bcs.n	8000d3a <__udivmoddi4+0x122>
 8000d34:	4299      	cmp	r1, r3
 8000d36:	f200 80cd 	bhi.w	8000ed4 <__udivmoddi4+0x2bc>
 8000d3a:	4684      	mov	ip, r0
 8000d3c:	1a59      	subs	r1, r3, r1
 8000d3e:	b2a3      	uxth	r3, r4
 8000d40:	fbb1 f0fe 	udiv	r0, r1, lr
 8000d44:	fb0e 1410 	mls	r4, lr, r0, r1
 8000d48:	ea43 4404 	orr.w	r4, r3, r4, lsl #16
 8000d4c:	fb08 f800 	mul.w	r8, r8, r0
 8000d50:	45a0      	cmp	r8, r4
 8000d52:	d907      	bls.n	8000d64 <__udivmoddi4+0x14c>
 8000d54:	192c      	adds	r4, r5, r4
 8000d56:	f100 33ff 	add.w	r3, r0, #4294967295
 8000d5a:	d202      	bcs.n	8000d62 <__udivmoddi4+0x14a>
 8000d5c:	45a0      	cmp	r8, r4
 8000d5e:	f200 80b6 	bhi.w	8000ece <__udivmoddi4+0x2b6>
 8000d62:	4618      	mov	r0, r3
 8000d64:	eba4 0408 	sub.w	r4, r4, r8
 8000d68:	ea40 400c 	orr.w	r0, r0, ip, lsl #16
 8000d6c:	e79f      	b.n	8000cae <__udivmoddi4+0x96>
 8000d6e:	f1c7 0c20 	rsb	ip, r7, #32
 8000d72:	40bb      	lsls	r3, r7
 8000d74:	fa22 fe0c 	lsr.w	lr, r2, ip
 8000d78:	ea4e 0e03 	orr.w	lr, lr, r3
 8000d7c:	fa01 f407 	lsl.w	r4, r1, r7
 8000d80:	fa20 f50c 	lsr.w	r5, r0, ip
 8000d84:	fa21 f30c 	lsr.w	r3, r1, ip
 8000d88:	ea4f 481e 	mov.w	r8, lr, lsr #16
 8000d8c:	4325      	orrs	r5, r4
 8000d8e:	fbb3 f9f8 	udiv	r9, r3, r8
 8000d92:	0c2c      	lsrs	r4, r5, #16
 8000d94:	fb08 3319 	mls	r3, r8, r9, r3
 8000d98:	fa1f fa8e 	uxth.w	sl, lr
 8000d9c:	ea44 4303 	orr.w	r3, r4, r3, lsl #16
 8000da0:	fb09 f40a 	mul.w	r4, r9, sl
 8000da4:	429c      	cmp	r4, r3
 8000da6:	fa02 f207 	lsl.w	r2, r2, r7
 8000daa:	fa00 f107 	lsl.w	r1, r0, r7
 8000dae:	d90b      	bls.n	8000dc8 <__udivmoddi4+0x1b0>
 8000db0:	eb1e 0303 	adds.w	r3, lr, r3
 8000db4:	f109 30ff 	add.w	r0, r9, #4294967295
 8000db8:	f080 8087 	bcs.w	8000eca <__udivmoddi4+0x2b2>
 8000dbc:	429c      	cmp	r4, r3
 8000dbe:	f240 8084 	bls.w	8000eca <__udivmoddi4+0x2b2>
 8000dc2:	f1a9 0902 	sub.w	r9, r9, #2
 8000dc6:	4473      	add	r3, lr
 8000dc8:	1b1b      	subs	r3, r3, r4
 8000dca:	b2ad      	uxth	r5, r5
 8000dcc:	fbb3 f0f8 	udiv	r0, r3, r8
 8000dd0:	fb08 3310 	mls	r3, r8, r0, r3
 8000dd4:	ea45 4403 	orr.w	r4, r5, r3, lsl #16
 8000dd8:	fb00 fa0a 	mul.w	sl, r0, sl
 8000ddc:	45a2      	cmp	sl, r4
 8000dde:	d908      	bls.n	8000df2 <__udivmoddi4+0x1da>
 8000de0:	eb1e 0404 	adds.w	r4, lr, r4
 8000de4:	f100 33ff 	add.w	r3, r0, #4294967295
 8000de8:	d26b      	bcs.n	8000ec2 <__udivmoddi4+0x2aa>
 8000dea:	45a2      	cmp	sl, r4
 8000dec:	d969      	bls.n	8000ec2 <__udivmoddi4+0x2aa>
 8000dee:	3802      	subs	r0, #2
 8000df0:	4474      	add	r4, lr
 8000df2:	ea40 4009 	orr.w	r0, r0, r9, lsl #16
 8000df6:	fba0 8902 	umull	r8, r9, r0, r2
 8000dfa:	eba4 040a 	sub.w	r4, r4, sl
 8000dfe:	454c      	cmp	r4, r9
 8000e00:	46c2      	mov	sl, r8
 8000e02:	464b      	mov	r3, r9
 8000e04:	d354      	bcc.n	8000eb0 <__udivmoddi4+0x298>
 8000e06:	d051      	beq.n	8000eac <__udivmoddi4+0x294>
 8000e08:	2e00      	cmp	r6, #0
 8000e0a:	d069      	beq.n	8000ee0 <__udivmoddi4+0x2c8>
 8000e0c:	ebb1 050a 	subs.w	r5, r1, sl
 8000e10:	eb64 0403 	sbc.w	r4, r4, r3
 8000e14:	fa04 fc0c 	lsl.w	ip, r4, ip
 8000e18:	40fd      	lsrs	r5, r7
 8000e1a:	40fc      	lsrs	r4, r7
 8000e1c:	ea4c 0505 	orr.w	r5, ip, r5
 8000e20:	e9c6 5400 	strd	r5, r4, [r6]
 8000e24:	2700      	movs	r7, #0
 8000e26:	e747      	b.n	8000cb8 <__udivmoddi4+0xa0>
 8000e28:	f1c2 0320 	rsb	r3, r2, #32
 8000e2c:	fa20 f703 	lsr.w	r7, r0, r3
 8000e30:	4095      	lsls	r5, r2
 8000e32:	fa01 f002 	lsl.w	r0, r1, r2
 8000e36:	fa21 f303 	lsr.w	r3, r1, r3
 8000e3a:	ea4f 4e15 	mov.w	lr, r5, lsr #16
 8000e3e:	4338      	orrs	r0, r7
 8000e40:	0c01      	lsrs	r1, r0, #16
 8000e42:	fbb3 f7fe 	udiv	r7, r3, lr
 8000e46:	fa1f f885 	uxth.w	r8, r5
 8000e4a:	fb0e 3317 	mls	r3, lr, r7, r3
 8000e4e:	ea41 4103 	orr.w	r1, r1, r3, lsl #16
 8000e52:	fb07 f308 	mul.w	r3, r7, r8
 8000e56:	428b      	cmp	r3, r1
 8000e58:	fa04 f402 	lsl.w	r4, r4, r2
 8000e5c:	d907      	bls.n	8000e6e <__udivmoddi4+0x256>
 8000e5e:	1869      	adds	r1, r5, r1
 8000e60:	f107 3cff 	add.w	ip, r7, #4294967295
 8000e64:	d22f      	bcs.n	8000ec6 <__udivmoddi4+0x2ae>
 8000e66:	428b      	cmp	r3, r1
 8000e68:	d92d      	bls.n	8000ec6 <__udivmoddi4+0x2ae>
 8000e6a:	3f02      	subs	r7, #2
 8000e6c:	4429      	add	r1, r5
 8000e6e:	1acb      	subs	r3, r1, r3
 8000e70:	b281      	uxth	r1, r0
 8000e72:	fbb3 f0fe 	udiv	r0, r3, lr
 8000e76:	fb0e 3310 	mls	r3, lr, r0, r3
 8000e7a:	ea41 4103 	orr.w	r1, r1, r3, lsl #16
 8000e7e:	fb00 f308 	mul.w	r3, r0, r8
 8000e82:	428b      	cmp	r3, r1
 8000e84:	d907      	bls.n	8000e96 <__udivmoddi4+0x27e>
 8000e86:	1869      	adds	r1, r5, r1
 8000e88:	f100 3cff 	add.w	ip, r0, #4294967295
 8000e8c:	d217      	bcs.n	8000ebe <__udivmoddi4+0x2a6>
 8000e8e:	428b      	cmp	r3, r1
 8000e90:	d915      	bls.n	8000ebe <__udivmoddi4+0x2a6>
 8000e92:	3802      	subs	r0, #2
 8000e94:	4429      	add	r1, r5
 8000e96:	1ac9      	subs	r1, r1, r3
 8000e98:	ea40 4707 	orr.w	r7, r0, r7, lsl #16
 8000e9c:	e73b      	b.n	8000d16 <__udivmoddi4+0xfe>
 8000e9e:	4637      	mov	r7, r6
 8000ea0:	4630      	mov	r0, r6
 8000ea2:	e709      	b.n	8000cb8 <__udivmoddi4+0xa0>
 8000ea4:	4607      	mov	r7, r0
 8000ea6:	e6e7      	b.n	8000c78 <__udivmoddi4+0x60>
 8000ea8:	4618      	mov	r0, r3
 8000eaa:	e6fb      	b.n	8000ca4 <__udivmoddi4+0x8c>
 8000eac:	4541      	cmp	r1, r8
 8000eae:	d2ab      	bcs.n	8000e08 <__udivmoddi4+0x1f0>
 8000eb0:	ebb8 0a02 	subs.w	sl, r8, r2
 8000eb4:	eb69 020e 	sbc.w	r2, r9, lr
 8000eb8:	3801      	subs	r0, #1
 8000eba:	4613      	mov	r3, r2
 8000ebc:	e7a4      	b.n	8000e08 <__udivmoddi4+0x1f0>
 8000ebe:	4660      	mov	r0, ip
 8000ec0:	e7e9      	b.n	8000e96 <__udivmoddi4+0x27e>
 8000ec2:	4618      	mov	r0, r3
 8000ec4:	e795      	b.n	8000df2 <__udivmoddi4+0x1da>
 8000ec6:	4667      	mov	r7, ip
 8000ec8:	e7d1      	b.n	8000e6e <__udivmoddi4+0x256>
 8000eca:	4681      	mov	r9, r0
 8000ecc:	e77c      	b.n	8000dc8 <__udivmoddi4+0x1b0>
 8000ece:	3802      	subs	r0, #2
 8000ed0:	442c      	add	r4, r5
 8000ed2:	e747      	b.n	8000d64 <__udivmoddi4+0x14c>
 8000ed4:	f1ac 0c02 	sub.w	ip, ip, #2
 8000ed8:	442b      	add	r3, r5
 8000eda:	e72f      	b.n	8000d3c <__udivmoddi4+0x124>
 8000edc:	4638      	mov	r0, r7
 8000ede:	e708      	b.n	8000cf2 <__udivmoddi4+0xda>
 8000ee0:	4637      	mov	r7, r6
 8000ee2:	e6e9      	b.n	8000cb8 <__udivmoddi4+0xa0>

08000ee4 <__aeabi_idiv0>:
 8000ee4:	4770      	bx	lr
 8000ee6:	bf00      	nop

08000ee8 <SX1278_hw_init>:

//////////////////////////////////
// logic
//////////////////////////////////

__weak void SX1278_hw_init(SX1278_hw_t * hw) {
 8000ee8:	b580      	push	{r7, lr}
 8000eea:	b082      	sub	sp, #8
 8000eec:	af00      	add	r7, sp, #0
 8000eee:	6078      	str	r0, [r7, #4]
	SX1278_hw_SetNSS(hw, 1);
 8000ef0:	2101      	movs	r1, #1
 8000ef2:	6878      	ldr	r0, [r7, #4]
 8000ef4:	f000 f80d 	bl	8000f12 <SX1278_hw_SetNSS>
	HAL_GPIO_WritePin(hw->reset.port, hw->reset.pin, GPIO_PIN_SET);
 8000ef8:	687b      	ldr	r3, [r7, #4]
 8000efa:	6858      	ldr	r0, [r3, #4]
 8000efc:	687b      	ldr	r3, [r7, #4]
 8000efe:	681b      	ldr	r3, [r3, #0]
 8000f00:	b29b      	uxth	r3, r3
 8000f02:	2201      	movs	r2, #1
 8000f04:	4619      	mov	r1, r3
 8000f06:	f001 fc57 	bl	80027b8 <HAL_GPIO_WritePin>
}
 8000f0a:	bf00      	nop
 8000f0c:	3708      	adds	r7, #8
 8000f0e:	46bd      	mov	sp, r7
 8000f10:	bd80      	pop	{r7, pc}

08000f12 <SX1278_hw_SetNSS>:

__weak void SX1278_hw_SetNSS(SX1278_hw_t * hw, int value) {
 8000f12:	b580      	push	{r7, lr}
 8000f14:	b082      	sub	sp, #8
 8000f16:	af00      	add	r7, sp, #0
 8000f18:	6078      	str	r0, [r7, #4]
 8000f1a:	6039      	str	r1, [r7, #0]
	HAL_GPIO_WritePin(hw->nss.port, hw->nss.pin,
 8000f1c:	687b      	ldr	r3, [r7, #4]
 8000f1e:	6958      	ldr	r0, [r3, #20]
 8000f20:	687b      	ldr	r3, [r7, #4]
 8000f22:	691b      	ldr	r3, [r3, #16]
 8000f24:	b299      	uxth	r1, r3
 8000f26:	683b      	ldr	r3, [r7, #0]
 8000f28:	2b01      	cmp	r3, #1
 8000f2a:	bf0c      	ite	eq
 8000f2c:	2301      	moveq	r3, #1
 8000f2e:	2300      	movne	r3, #0
 8000f30:	b2db      	uxtb	r3, r3
 8000f32:	461a      	mov	r2, r3
 8000f34:	f001 fc40 	bl	80027b8 <HAL_GPIO_WritePin>
			(value == 1) ? GPIO_PIN_SET : GPIO_PIN_RESET);
}
 8000f38:	bf00      	nop
 8000f3a:	3708      	adds	r7, #8
 8000f3c:	46bd      	mov	sp, r7
 8000f3e:	bd80      	pop	{r7, pc}

08000f40 <SX1278_hw_Reset>:

__weak void SX1278_hw_Reset(SX1278_hw_t * hw) {
 8000f40:	b580      	push	{r7, lr}
 8000f42:	b082      	sub	sp, #8
 8000f44:	af00      	add	r7, sp, #0
 8000f46:	6078      	str	r0, [r7, #4]
	SX1278_hw_SetNSS(hw, 1);
 8000f48:	2101      	movs	r1, #1
 8000f4a:	6878      	ldr	r0, [r7, #4]
 8000f4c:	f7ff ffe1 	bl	8000f12 <SX1278_hw_SetNSS>
	HAL_GPIO_WritePin(hw->reset.port, hw->reset.pin, GPIO_PIN_RESET);
 8000f50:	687b      	ldr	r3, [r7, #4]
 8000f52:	6858      	ldr	r0, [r3, #4]
 8000f54:	687b      	ldr	r3, [r7, #4]
 8000f56:	681b      	ldr	r3, [r3, #0]
 8000f58:	b29b      	uxth	r3, r3
 8000f5a:	2200      	movs	r2, #0
 8000f5c:	4619      	mov	r1, r3
 8000f5e:	f001 fc2b 	bl	80027b8 <HAL_GPIO_WritePin>

	SX1278_hw_DelayMs(1);
 8000f62:	2001      	movs	r0, #1
 8000f64:	f000 f855 	bl	8001012 <SX1278_hw_DelayMs>

	HAL_GPIO_WritePin(hw->reset.port, hw->reset.pin, GPIO_PIN_SET);
 8000f68:	687b      	ldr	r3, [r7, #4]
 8000f6a:	6858      	ldr	r0, [r3, #4]
 8000f6c:	687b      	ldr	r3, [r7, #4]
 8000f6e:	681b      	ldr	r3, [r3, #0]
 8000f70:	b29b      	uxth	r3, r3
 8000f72:	2201      	movs	r2, #1
 8000f74:	4619      	mov	r1, r3
 8000f76:	f001 fc1f 	bl	80027b8 <HAL_GPIO_WritePin>

	SX1278_hw_DelayMs(100);
 8000f7a:	2064      	movs	r0, #100	; 0x64
 8000f7c:	f000 f849 	bl	8001012 <SX1278_hw_DelayMs>
}
 8000f80:	bf00      	nop
 8000f82:	3708      	adds	r7, #8
 8000f84:	46bd      	mov	sp, r7
 8000f86:	bd80      	pop	{r7, pc}

08000f88 <SX1278_hw_SPICommand>:

__weak void SX1278_hw_SPICommand(SX1278_hw_t * hw, uint8_t cmd) {
 8000f88:	b580      	push	{r7, lr}
 8000f8a:	b082      	sub	sp, #8
 8000f8c:	af00      	add	r7, sp, #0
 8000f8e:	6078      	str	r0, [r7, #4]
 8000f90:	460b      	mov	r3, r1
 8000f92:	70fb      	strb	r3, [r7, #3]
	SX1278_hw_SetNSS(hw, 0);
 8000f94:	2100      	movs	r1, #0
 8000f96:	6878      	ldr	r0, [r7, #4]
 8000f98:	f7ff ffbb 	bl	8000f12 <SX1278_hw_SetNSS>
	HAL_SPI_Transmit(hw->spi, &cmd, 1, 1000);
 8000f9c:	687b      	ldr	r3, [r7, #4]
 8000f9e:	6998      	ldr	r0, [r3, #24]
 8000fa0:	1cf9      	adds	r1, r7, #3
 8000fa2:	f44f 737a 	mov.w	r3, #1000	; 0x3e8
 8000fa6:	2201      	movs	r2, #1
 8000fa8:	f002 f8ac 	bl	8003104 <HAL_SPI_Transmit>
	while (HAL_SPI_GetState(hw->spi) != HAL_SPI_STATE_READY)
 8000fac:	bf00      	nop
 8000fae:	687b      	ldr	r3, [r7, #4]
 8000fb0:	699b      	ldr	r3, [r3, #24]
 8000fb2:	4618      	mov	r0, r3
 8000fb4:	f002 fb7c 	bl	80036b0 <HAL_SPI_GetState>
 8000fb8:	4603      	mov	r3, r0
 8000fba:	2b01      	cmp	r3, #1
 8000fbc:	d1f7      	bne.n	8000fae <SX1278_hw_SPICommand+0x26>
		;
}
 8000fbe:	bf00      	nop
 8000fc0:	3708      	adds	r7, #8
 8000fc2:	46bd      	mov	sp, r7
 8000fc4:	bd80      	pop	{r7, pc}

08000fc6 <SX1278_hw_SPIReadByte>:

__weak uint8_t SX1278_hw_SPIReadByte(SX1278_hw_t * hw) {
 8000fc6:	b580      	push	{r7, lr}
 8000fc8:	b086      	sub	sp, #24
 8000fca:	af02      	add	r7, sp, #8
 8000fcc:	6078      	str	r0, [r7, #4]
	uint8_t txByte = 0x00;
 8000fce:	2300      	movs	r3, #0
 8000fd0:	73fb      	strb	r3, [r7, #15]
	uint8_t rxByte = 0x00;
 8000fd2:	2300      	movs	r3, #0
 8000fd4:	73bb      	strb	r3, [r7, #14]

	SX1278_hw_SetNSS(hw, 0);
 8000fd6:	2100      	movs	r1, #0
 8000fd8:	6878      	ldr	r0, [r7, #4]
 8000fda:	f7ff ff9a 	bl	8000f12 <SX1278_hw_SetNSS>
	HAL_SPI_TransmitReceive(hw->spi, &txByte, &rxByte, 1, 1000);
 8000fde:	687b      	ldr	r3, [r7, #4]
 8000fe0:	6998      	ldr	r0, [r3, #24]
 8000fe2:	f107 020e 	add.w	r2, r7, #14
 8000fe6:	f107 010f 	add.w	r1, r7, #15
 8000fea:	f44f 737a 	mov.w	r3, #1000	; 0x3e8
 8000fee:	9300      	str	r3, [sp, #0]
 8000ff0:	2301      	movs	r3, #1
 8000ff2:	f002 f9bb 	bl	800336c <HAL_SPI_TransmitReceive>
	while (HAL_SPI_GetState(hw->spi) != HAL_SPI_STATE_READY)
 8000ff6:	bf00      	nop
 8000ff8:	687b      	ldr	r3, [r7, #4]
 8000ffa:	699b      	ldr	r3, [r3, #24]
 8000ffc:	4618      	mov	r0, r3
 8000ffe:	f002 fb57 	bl	80036b0 <HAL_SPI_GetState>
 8001002:	4603      	mov	r3, r0
 8001004:	2b01      	cmp	r3, #1
 8001006:	d1f7      	bne.n	8000ff8 <SX1278_hw_SPIReadByte+0x32>
		;
	return rxByte;
 8001008:	7bbb      	ldrb	r3, [r7, #14]
}
 800100a:	4618      	mov	r0, r3
 800100c:	3710      	adds	r7, #16
 800100e:	46bd      	mov	sp, r7
 8001010:	bd80      	pop	{r7, pc}

08001012 <SX1278_hw_DelayMs>:

__weak void SX1278_hw_DelayMs(uint32_t msec) {
 8001012:	b580      	push	{r7, lr}
 8001014:	b082      	sub	sp, #8
 8001016:	af00      	add	r7, sp, #0
 8001018:	6078      	str	r0, [r7, #4]
	HAL_Delay(msec);
 800101a:	6878      	ldr	r0, [r7, #4]
 800101c:	f001 f93a 	bl	8002294 <HAL_Delay>
}
 8001020:	bf00      	nop
 8001022:	3708      	adds	r7, #8
 8001024:	46bd      	mov	sp, r7
 8001026:	bd80      	pop	{r7, pc}

08001028 <SX1278_hw_GetDIO0>:

__weak int SX1278_hw_GetDIO0(SX1278_hw_t * hw) {
 8001028:	b580      	push	{r7, lr}
 800102a:	b082      	sub	sp, #8
 800102c:	af00      	add	r7, sp, #0
 800102e:	6078      	str	r0, [r7, #4]
	return (HAL_GPIO_ReadPin(hw->dio0.port, hw->dio0.pin) == GPIO_PIN_SET);
 8001030:	687b      	ldr	r3, [r7, #4]
 8001032:	68da      	ldr	r2, [r3, #12]
 8001034:	687b      	ldr	r3, [r7, #4]
 8001036:	689b      	ldr	r3, [r3, #8]
 8001038:	b29b      	uxth	r3, r3
 800103a:	4619      	mov	r1, r3
 800103c:	4610      	mov	r0, r2
 800103e:	f001 fba3 	bl	8002788 <HAL_GPIO_ReadPin>
 8001042:	4603      	mov	r3, r0
 8001044:	2b01      	cmp	r3, #1
 8001046:	bf0c      	ite	eq
 8001048:	2301      	moveq	r3, #1
 800104a:	2300      	movne	r3, #0
 800104c:	b2db      	uxtb	r3, r3
}
 800104e:	4618      	mov	r0, r3
 8001050:	3708      	adds	r7, #8
 8001052:	46bd      	mov	sp, r7
 8001054:	bd80      	pop	{r7, pc}

08001056 <SX1278_SPIRead>:

//////////////////////////////////
// logic
//////////////////////////////////

uint8_t SX1278_SPIRead(SX1278_t * module, uint8_t addr) {
 8001056:	b580      	push	{r7, lr}
 8001058:	b084      	sub	sp, #16
 800105a:	af00      	add	r7, sp, #0
 800105c:	6078      	str	r0, [r7, #4]
 800105e:	460b      	mov	r3, r1
 8001060:	70fb      	strb	r3, [r7, #3]
	uint8_t tmp;
	SX1278_hw_SPICommand(module->hw, addr);
 8001062:	687b      	ldr	r3, [r7, #4]
 8001064:	681b      	ldr	r3, [r3, #0]
 8001066:	78fa      	ldrb	r2, [r7, #3]
 8001068:	4611      	mov	r1, r2
 800106a:	4618      	mov	r0, r3
 800106c:	f7ff ff8c 	bl	8000f88 <SX1278_hw_SPICommand>
	tmp = SX1278_hw_SPIReadByte(module->hw);
 8001070:	687b      	ldr	r3, [r7, #4]
 8001072:	681b      	ldr	r3, [r3, #0]
 8001074:	4618      	mov	r0, r3
 8001076:	f7ff ffa6 	bl	8000fc6 <SX1278_hw_SPIReadByte>
 800107a:	4603      	mov	r3, r0
 800107c:	73fb      	strb	r3, [r7, #15]
	SX1278_hw_SetNSS(module->hw, 1);
 800107e:	687b      	ldr	r3, [r7, #4]
 8001080:	681b      	ldr	r3, [r3, #0]
 8001082:	2101      	movs	r1, #1
 8001084:	4618      	mov	r0, r3
 8001086:	f7ff ff44 	bl	8000f12 <SX1278_hw_SetNSS>
	return tmp;
 800108a:	7bfb      	ldrb	r3, [r7, #15]
}
 800108c:	4618      	mov	r0, r3
 800108e:	3710      	adds	r7, #16
 8001090:	46bd      	mov	sp, r7
 8001092:	bd80      	pop	{r7, pc}

08001094 <SX1278_SPIWrite>:

void SX1278_SPIWrite(SX1278_t * module, uint8_t addr, uint8_t cmd) {
 8001094:	b580      	push	{r7, lr}
 8001096:	b082      	sub	sp, #8
 8001098:	af00      	add	r7, sp, #0
 800109a:	6078      	str	r0, [r7, #4]
 800109c:	460b      	mov	r3, r1
 800109e:	70fb      	strb	r3, [r7, #3]
 80010a0:	4613      	mov	r3, r2
 80010a2:	70bb      	strb	r3, [r7, #2]
	SX1278_hw_SetNSS(module->hw, 0);
 80010a4:	687b      	ldr	r3, [r7, #4]
 80010a6:	681b      	ldr	r3, [r3, #0]
 80010a8:	2100      	movs	r1, #0
 80010aa:	4618      	mov	r0, r3
 80010ac:	f7ff ff31 	bl	8000f12 <SX1278_hw_SetNSS>
	SX1278_hw_SPICommand(module->hw, addr | 0x80);
 80010b0:	687b      	ldr	r3, [r7, #4]
 80010b2:	681a      	ldr	r2, [r3, #0]
 80010b4:	78fb      	ldrb	r3, [r7, #3]
 80010b6:	f063 037f 	orn	r3, r3, #127	; 0x7f
 80010ba:	b2db      	uxtb	r3, r3
 80010bc:	4619      	mov	r1, r3
 80010be:	4610      	mov	r0, r2
 80010c0:	f7ff ff62 	bl	8000f88 <SX1278_hw_SPICommand>
	SX1278_hw_SPICommand(module->hw, cmd);
 80010c4:	687b      	ldr	r3, [r7, #4]
 80010c6:	681b      	ldr	r3, [r3, #0]
 80010c8:	78ba      	ldrb	r2, [r7, #2]
 80010ca:	4611      	mov	r1, r2
 80010cc:	4618      	mov	r0, r3
 80010ce:	f7ff ff5b 	bl	8000f88 <SX1278_hw_SPICommand>
	SX1278_hw_SetNSS(module->hw, 1);
 80010d2:	687b      	ldr	r3, [r7, #4]
 80010d4:	681b      	ldr	r3, [r3, #0]
 80010d6:	2101      	movs	r1, #1
 80010d8:	4618      	mov	r0, r3
 80010da:	f7ff ff1a 	bl	8000f12 <SX1278_hw_SetNSS>
}
 80010de:	bf00      	nop
 80010e0:	3708      	adds	r7, #8
 80010e2:	46bd      	mov	sp, r7
 80010e4:	bd80      	pop	{r7, pc}

080010e6 <SX1278_SPIBurstRead>:

void SX1278_SPIBurstRead(SX1278_t * module, uint8_t addr, uint8_t* rxBuf,
		uint8_t length) {
 80010e6:	b590      	push	{r4, r7, lr}
 80010e8:	b087      	sub	sp, #28
 80010ea:	af00      	add	r7, sp, #0
 80010ec:	60f8      	str	r0, [r7, #12]
 80010ee:	607a      	str	r2, [r7, #4]
 80010f0:	461a      	mov	r2, r3
 80010f2:	460b      	mov	r3, r1
 80010f4:	72fb      	strb	r3, [r7, #11]
 80010f6:	4613      	mov	r3, r2
 80010f8:	72bb      	strb	r3, [r7, #10]
	uint8_t i;
	if (length <= 1) {
 80010fa:	7abb      	ldrb	r3, [r7, #10]
 80010fc:	2b01      	cmp	r3, #1
 80010fe:	d927      	bls.n	8001150 <SX1278_SPIBurstRead+0x6a>
		return;
	} else {
		SX1278_hw_SetNSS(module->hw, 0);
 8001100:	68fb      	ldr	r3, [r7, #12]
 8001102:	681b      	ldr	r3, [r3, #0]
 8001104:	2100      	movs	r1, #0
 8001106:	4618      	mov	r0, r3
 8001108:	f7ff ff03 	bl	8000f12 <SX1278_hw_SetNSS>
		SX1278_hw_SPICommand(module->hw, addr);
 800110c:	68fb      	ldr	r3, [r7, #12]
 800110e:	681b      	ldr	r3, [r3, #0]
 8001110:	7afa      	ldrb	r2, [r7, #11]
 8001112:	4611      	mov	r1, r2
 8001114:	4618      	mov	r0, r3
 8001116:	f7ff ff37 	bl	8000f88 <SX1278_hw_SPICommand>
		for (i = 0; i < length; i++) {
 800111a:	2300      	movs	r3, #0
 800111c:	75fb      	strb	r3, [r7, #23]
 800111e:	e00c      	b.n	800113a <SX1278_SPIBurstRead+0x54>
			*(rxBuf + i) = SX1278_hw_SPIReadByte(module->hw);
 8001120:	68fb      	ldr	r3, [r7, #12]
 8001122:	6819      	ldr	r1, [r3, #0]
 8001124:	7dfb      	ldrb	r3, [r7, #23]
 8001126:	687a      	ldr	r2, [r7, #4]
 8001128:	18d4      	adds	r4, r2, r3
 800112a:	4608      	mov	r0, r1
 800112c:	f7ff ff4b 	bl	8000fc6 <SX1278_hw_SPIReadByte>
 8001130:	4603      	mov	r3, r0
 8001132:	7023      	strb	r3, [r4, #0]
		for (i = 0; i < length; i++) {
 8001134:	7dfb      	ldrb	r3, [r7, #23]
 8001136:	3301      	adds	r3, #1
 8001138:	75fb      	strb	r3, [r7, #23]
 800113a:	7dfa      	ldrb	r2, [r7, #23]
 800113c:	7abb      	ldrb	r3, [r7, #10]
 800113e:	429a      	cmp	r2, r3
 8001140:	d3ee      	bcc.n	8001120 <SX1278_SPIBurstRead+0x3a>
		}
		SX1278_hw_SetNSS(module->hw, 1);
 8001142:	68fb      	ldr	r3, [r7, #12]
 8001144:	681b      	ldr	r3, [r3, #0]
 8001146:	2101      	movs	r1, #1
 8001148:	4618      	mov	r0, r3
 800114a:	f7ff fee2 	bl	8000f12 <SX1278_hw_SetNSS>
 800114e:	e000      	b.n	8001152 <SX1278_SPIBurstRead+0x6c>
		return;
 8001150:	bf00      	nop
	}
}
 8001152:	371c      	adds	r7, #28
 8001154:	46bd      	mov	sp, r7
 8001156:	bd90      	pop	{r4, r7, pc}

08001158 <SX1278_SPIBurstWrite>:

void SX1278_SPIBurstWrite(SX1278_t * module, uint8_t addr, uint8_t* txBuf,
		uint8_t length) {
 8001158:	b580      	push	{r7, lr}
 800115a:	b086      	sub	sp, #24
 800115c:	af00      	add	r7, sp, #0
 800115e:	60f8      	str	r0, [r7, #12]
 8001160:	607a      	str	r2, [r7, #4]
 8001162:	461a      	mov	r2, r3
 8001164:	460b      	mov	r3, r1
 8001166:	72fb      	strb	r3, [r7, #11]
 8001168:	4613      	mov	r3, r2
 800116a:	72bb      	strb	r3, [r7, #10]
	unsigned char i;
	if (length <= 1) {
 800116c:	7abb      	ldrb	r3, [r7, #10]
 800116e:	2b01      	cmp	r3, #1
 8001170:	d929      	bls.n	80011c6 <SX1278_SPIBurstWrite+0x6e>
		return;
	} else {
		SX1278_hw_SetNSS(module->hw, 0);
 8001172:	68fb      	ldr	r3, [r7, #12]
 8001174:	681b      	ldr	r3, [r3, #0]
 8001176:	2100      	movs	r1, #0
 8001178:	4618      	mov	r0, r3
 800117a:	f7ff feca 	bl	8000f12 <SX1278_hw_SetNSS>
		SX1278_hw_SPICommand(module->hw, addr | 0x80);
 800117e:	68fb      	ldr	r3, [r7, #12]
 8001180:	681a      	ldr	r2, [r3, #0]
 8001182:	7afb      	ldrb	r3, [r7, #11]
 8001184:	f063 037f 	orn	r3, r3, #127	; 0x7f
 8001188:	b2db      	uxtb	r3, r3
 800118a:	4619      	mov	r1, r3
 800118c:	4610      	mov	r0, r2
 800118e:	f7ff fefb 	bl	8000f88 <SX1278_hw_SPICommand>
		for (i = 0; i < length; i++) {
 8001192:	2300      	movs	r3, #0
 8001194:	75fb      	strb	r3, [r7, #23]
 8001196:	e00b      	b.n	80011b0 <SX1278_SPIBurstWrite+0x58>
			SX1278_hw_SPICommand(module->hw, *(txBuf + i));
 8001198:	68fb      	ldr	r3, [r7, #12]
 800119a:	6818      	ldr	r0, [r3, #0]
 800119c:	7dfb      	ldrb	r3, [r7, #23]
 800119e:	687a      	ldr	r2, [r7, #4]
 80011a0:	4413      	add	r3, r2
 80011a2:	781b      	ldrb	r3, [r3, #0]
 80011a4:	4619      	mov	r1, r3
 80011a6:	f7ff feef 	bl	8000f88 <SX1278_hw_SPICommand>
		for (i = 0; i < length; i++) {
 80011aa:	7dfb      	ldrb	r3, [r7, #23]
 80011ac:	3301      	adds	r3, #1
 80011ae:	75fb      	strb	r3, [r7, #23]
 80011b0:	7dfa      	ldrb	r2, [r7, #23]
 80011b2:	7abb      	ldrb	r3, [r7, #10]
 80011b4:	429a      	cmp	r2, r3
 80011b6:	d3ef      	bcc.n	8001198 <SX1278_SPIBurstWrite+0x40>
		}
		SX1278_hw_SetNSS(module->hw, 1);
 80011b8:	68fb      	ldr	r3, [r7, #12]
 80011ba:	681b      	ldr	r3, [r3, #0]
 80011bc:	2101      	movs	r1, #1
 80011be:	4618      	mov	r0, r3
 80011c0:	f7ff fea7 	bl	8000f12 <SX1278_hw_SetNSS>
 80011c4:	e000      	b.n	80011c8 <SX1278_SPIBurstWrite+0x70>
		return;
 80011c6:	bf00      	nop
	}
}
 80011c8:	3718      	adds	r7, #24
 80011ca:	46bd      	mov	sp, r7
 80011cc:	bd80      	pop	{r7, pc}

080011ce <SX1278_defaultConfig>:

void SX1278_defaultConfig(SX1278_t * module) {
 80011ce:	b580      	push	{r7, lr}
 80011d0:	b084      	sub	sp, #16
 80011d2:	af02      	add	r7, sp, #8
 80011d4:	6078      	str	r0, [r7, #4]
	SX1278_config(module, module->frequency, module->power, module->LoRa_Rate,
 80011d6:	687b      	ldr	r3, [r7, #4]
 80011d8:	7919      	ldrb	r1, [r3, #4]
 80011da:	687b      	ldr	r3, [r7, #4]
 80011dc:	795a      	ldrb	r2, [r3, #5]
 80011de:	687b      	ldr	r3, [r7, #4]
 80011e0:	7998      	ldrb	r0, [r3, #6]
 80011e2:	687b      	ldr	r3, [r7, #4]
 80011e4:	79db      	ldrb	r3, [r3, #7]
 80011e6:	9300      	str	r3, [sp, #0]
 80011e8:	4603      	mov	r3, r0
 80011ea:	6878      	ldr	r0, [r7, #4]
 80011ec:	f000 f804 	bl	80011f8 <SX1278_config>
			module->LoRa_BW);
}
 80011f0:	bf00      	nop
 80011f2:	3708      	adds	r7, #8
 80011f4:	46bd      	mov	sp, r7
 80011f6:	bd80      	pop	{r7, pc}

080011f8 <SX1278_config>:

void SX1278_config(SX1278_t * module, uint8_t frequency, uint8_t power,
		uint8_t LoRa_Rate, uint8_t LoRa_BW) {
 80011f8:	b580      	push	{r7, lr}
 80011fa:	b084      	sub	sp, #16
 80011fc:	af00      	add	r7, sp, #0
 80011fe:	6078      	str	r0, [r7, #4]
 8001200:	4608      	mov	r0, r1
 8001202:	4611      	mov	r1, r2
 8001204:	461a      	mov	r2, r3
 8001206:	4603      	mov	r3, r0
 8001208:	70fb      	strb	r3, [r7, #3]
 800120a:	460b      	mov	r3, r1
 800120c:	70bb      	strb	r3, [r7, #2]
 800120e:	4613      	mov	r3, r2
 8001210:	707b      	strb	r3, [r7, #1]
	SX1278_sleep(module); //Change modem mode Must in Sleep mode
 8001212:	6878      	ldr	r0, [r7, #4]
 8001214:	f000 f8aa 	bl	800136c <SX1278_sleep>
	SX1278_hw_DelayMs(15);
 8001218:	200f      	movs	r0, #15
 800121a:	f7ff fefa 	bl	8001012 <SX1278_hw_DelayMs>

	SX1278_entryLoRa(module);
 800121e:	6878      	ldr	r0, [r7, #4]
 8001220:	f000 f8b4 	bl	800138c <SX1278_entryLoRa>
	//SX1278_SPIWrite(module, 0x5904); //?? Change digital regulator form 1.6V to 1.47V: see errata note

	SX1278_SPIBurstWrite(module, LR_RegFrMsb,
			(uint8_t*) SX1278_Frequency[frequency], 3); //setting  frequency parameter
 8001224:	78fa      	ldrb	r2, [r7, #3]
 8001226:	4613      	mov	r3, r2
 8001228:	005b      	lsls	r3, r3, #1
 800122a:	4413      	add	r3, r2
 800122c:	4a43      	ldr	r2, [pc, #268]	; (800133c <SX1278_config+0x144>)
 800122e:	441a      	add	r2, r3
	SX1278_SPIBurstWrite(module, LR_RegFrMsb,
 8001230:	2303      	movs	r3, #3
 8001232:	2106      	movs	r1, #6
 8001234:	6878      	ldr	r0, [r7, #4]
 8001236:	f7ff ff8f 	bl	8001158 <SX1278_SPIBurstWrite>

	//setting base parameter
	SX1278_SPIWrite(module, LR_RegPaConfig, SX1278_Power[power]); //Setting output power parameter
 800123a:	78bb      	ldrb	r3, [r7, #2]
 800123c:	4a40      	ldr	r2, [pc, #256]	; (8001340 <SX1278_config+0x148>)
 800123e:	5cd3      	ldrb	r3, [r2, r3]
 8001240:	461a      	mov	r2, r3
 8001242:	2109      	movs	r1, #9
 8001244:	6878      	ldr	r0, [r7, #4]
 8001246:	f7ff ff25 	bl	8001094 <SX1278_SPIWrite>

	SX1278_SPIWrite(module, LR_RegOcp, 0x0B);			//RegOcp,Close Ocp
 800124a:	220b      	movs	r2, #11
 800124c:	210b      	movs	r1, #11
 800124e:	6878      	ldr	r0, [r7, #4]
 8001250:	f7ff ff20 	bl	8001094 <SX1278_SPIWrite>
	SX1278_SPIWrite(module, LR_RegLna, 0x23);		//RegLNA,High & LNA Enable
 8001254:	2223      	movs	r2, #35	; 0x23
 8001256:	210c      	movs	r1, #12
 8001258:	6878      	ldr	r0, [r7, #4]
 800125a:	f7ff ff1b 	bl	8001094 <SX1278_SPIWrite>
	if (SX1278_SpreadFactor[LoRa_Rate] == 6) {	//SFactor=6
 800125e:	787b      	ldrb	r3, [r7, #1]
 8001260:	4a38      	ldr	r2, [pc, #224]	; (8001344 <SX1278_config+0x14c>)
 8001262:	5cd3      	ldrb	r3, [r2, r3]
 8001264:	2b06      	cmp	r3, #6
 8001266:	d131      	bne.n	80012cc <SX1278_config+0xd4>
		uint8_t tmp;
		SX1278_SPIWrite(module,
		LR_RegModemConfig1,
				((SX1278_LoRaBandwidth[LoRa_BW] << 4) + (SX1278_CR << 1) + 0x01)); //Implicit Enable CRC Enable(0x02) & Error Coding rate 4/5(0x01), 4/6(0x02), 4/7(0x03), 4/8(0x04)
 8001268:	7e3b      	ldrb	r3, [r7, #24]
 800126a:	4a37      	ldr	r2, [pc, #220]	; (8001348 <SX1278_config+0x150>)
 800126c:	5cd3      	ldrb	r3, [r2, r3]
 800126e:	011b      	lsls	r3, r3, #4
 8001270:	b2db      	uxtb	r3, r3
		SX1278_SPIWrite(module,
 8001272:	3309      	adds	r3, #9
 8001274:	b2db      	uxtb	r3, r3
 8001276:	461a      	mov	r2, r3
 8001278:	211d      	movs	r1, #29
 800127a:	6878      	ldr	r0, [r7, #4]
 800127c:	f7ff ff0a 	bl	8001094 <SX1278_SPIWrite>

		SX1278_SPIWrite(module,
		LR_RegModemConfig2,
				((SX1278_SpreadFactor[LoRa_Rate] << 4) + (SX1278_CRC << 2)
 8001280:	787b      	ldrb	r3, [r7, #1]
 8001282:	4a30      	ldr	r2, [pc, #192]	; (8001344 <SX1278_config+0x14c>)
 8001284:	5cd3      	ldrb	r3, [r2, r3]
 8001286:	011b      	lsls	r3, r3, #4
 8001288:	b2db      	uxtb	r3, r3
		SX1278_SPIWrite(module,
 800128a:	3307      	adds	r3, #7
 800128c:	b2db      	uxtb	r3, r3
 800128e:	461a      	mov	r2, r3
 8001290:	211e      	movs	r1, #30
 8001292:	6878      	ldr	r0, [r7, #4]
 8001294:	f7ff fefe 	bl	8001094 <SX1278_SPIWrite>
						+ 0x03));

		tmp = SX1278_SPIRead(module, 0x31);
 8001298:	2131      	movs	r1, #49	; 0x31
 800129a:	6878      	ldr	r0, [r7, #4]
 800129c:	f7ff fedb 	bl	8001056 <SX1278_SPIRead>
 80012a0:	4603      	mov	r3, r0
 80012a2:	73fb      	strb	r3, [r7, #15]
		tmp &= 0xF8;
 80012a4:	7bfb      	ldrb	r3, [r7, #15]
 80012a6:	f023 0307 	bic.w	r3, r3, #7
 80012aa:	73fb      	strb	r3, [r7, #15]
		tmp |= 0x05;
 80012ac:	7bfb      	ldrb	r3, [r7, #15]
 80012ae:	f043 0305 	orr.w	r3, r3, #5
 80012b2:	73fb      	strb	r3, [r7, #15]
		SX1278_SPIWrite(module, 0x31, tmp);
 80012b4:	7bfb      	ldrb	r3, [r7, #15]
 80012b6:	461a      	mov	r2, r3
 80012b8:	2131      	movs	r1, #49	; 0x31
 80012ba:	6878      	ldr	r0, [r7, #4]
 80012bc:	f7ff feea 	bl	8001094 <SX1278_SPIWrite>
		SX1278_SPIWrite(module, 0x37, 0x0C);
 80012c0:	220c      	movs	r2, #12
 80012c2:	2137      	movs	r1, #55	; 0x37
 80012c4:	6878      	ldr	r0, [r7, #4]
 80012c6:	f7ff fee5 	bl	8001094 <SX1278_SPIWrite>
 80012ca:	e017      	b.n	80012fc <SX1278_config+0x104>
	} else {
		SX1278_SPIWrite(module,
		LR_RegModemConfig1,
				((SX1278_LoRaBandwidth[LoRa_BW] << 4) + (SX1278_CR << 1) + 0x02)); //Explicit Enable CRC Enable(0x02) & Error Coding rate 4/5(0x01), 4/6(0x02), 4/7(0x03), 4/8(0x04)
 80012cc:	7e3b      	ldrb	r3, [r7, #24]
 80012ce:	4a1e      	ldr	r2, [pc, #120]	; (8001348 <SX1278_config+0x150>)
 80012d0:	5cd3      	ldrb	r3, [r2, r3]
 80012d2:	011b      	lsls	r3, r3, #4
 80012d4:	b2db      	uxtb	r3, r3
		SX1278_SPIWrite(module,
 80012d6:	330a      	adds	r3, #10
 80012d8:	b2db      	uxtb	r3, r3
 80012da:	461a      	mov	r2, r3
 80012dc:	211d      	movs	r1, #29
 80012de:	6878      	ldr	r0, [r7, #4]
 80012e0:	f7ff fed8 	bl	8001094 <SX1278_SPIWrite>

		SX1278_SPIWrite(module,
		LR_RegModemConfig2,
				((SX1278_SpreadFactor[LoRa_Rate] << 4) + (SX1278_CRC << 2)
 80012e4:	787b      	ldrb	r3, [r7, #1]
 80012e6:	4a17      	ldr	r2, [pc, #92]	; (8001344 <SX1278_config+0x14c>)
 80012e8:	5cd3      	ldrb	r3, [r2, r3]
 80012ea:	011b      	lsls	r3, r3, #4
 80012ec:	b2db      	uxtb	r3, r3
		SX1278_SPIWrite(module,
 80012ee:	3307      	adds	r3, #7
 80012f0:	b2db      	uxtb	r3, r3
 80012f2:	461a      	mov	r2, r3
 80012f4:	211e      	movs	r1, #30
 80012f6:	6878      	ldr	r0, [r7, #4]
 80012f8:	f7ff fecc 	bl	8001094 <SX1278_SPIWrite>
						+ 0x03)); //SFactor &  LNA gain set by the internal AGC loop
	}

	SX1278_SPIWrite(module, LR_RegSymbTimeoutLsb, 0xFF); //RegSymbTimeoutLsb Timeout = 0x3FF(Max)
 80012fc:	22ff      	movs	r2, #255	; 0xff
 80012fe:	211f      	movs	r1, #31
 8001300:	6878      	ldr	r0, [r7, #4]
 8001302:	f7ff fec7 	bl	8001094 <SX1278_SPIWrite>
	SX1278_SPIWrite(module, LR_RegPreambleMsb, 0x00); //RegPreambleMsb
 8001306:	2200      	movs	r2, #0
 8001308:	2120      	movs	r1, #32
 800130a:	6878      	ldr	r0, [r7, #4]
 800130c:	f7ff fec2 	bl	8001094 <SX1278_SPIWrite>
	SX1278_SPIWrite(module, LR_RegPreambleLsb, 12); //RegPreambleLsb 8+4=12byte Preamble
 8001310:	220c      	movs	r2, #12
 8001312:	2121      	movs	r1, #33	; 0x21
 8001314:	6878      	ldr	r0, [r7, #4]
 8001316:	f7ff febd 	bl	8001094 <SX1278_SPIWrite>
	SX1278_SPIWrite(module, REG_LR_DIOMAPPING2, 0x01); //RegDioMapping2 DIO5=00, DIO4=01
 800131a:	2201      	movs	r2, #1
 800131c:	2141      	movs	r1, #65	; 0x41
 800131e:	6878      	ldr	r0, [r7, #4]
 8001320:	f7ff feb8 	bl	8001094 <SX1278_SPIWrite>
	module->readBytes = 0;
 8001324:	687b      	ldr	r3, [r7, #4]
 8001326:	2200      	movs	r2, #0
 8001328:	f883 210a 	strb.w	r2, [r3, #266]	; 0x10a
	SX1278_standby(module); //Entry standby mode
 800132c:	6878      	ldr	r0, [r7, #4]
 800132e:	f000 f80d 	bl	800134c <SX1278_standby>
}
 8001332:	bf00      	nop
 8001334:	3710      	adds	r7, #16
 8001336:	46bd      	mov	sp, r7
 8001338:	bd80      	pop	{r7, pc}
 800133a:	bf00      	nop
 800133c:	08006468 	.word	0x08006468
 8001340:	08006484 	.word	0x08006484
 8001344:	08006488 	.word	0x08006488
 8001348:	08006490 	.word	0x08006490

0800134c <SX1278_standby>:

void SX1278_standby(SX1278_t * module) {
 800134c:	b580      	push	{r7, lr}
 800134e:	b082      	sub	sp, #8
 8001350:	af00      	add	r7, sp, #0
 8001352:	6078      	str	r0, [r7, #4]
	SX1278_SPIWrite(module, LR_RegOpMode, 0x09);
 8001354:	2209      	movs	r2, #9
 8001356:	2101      	movs	r1, #1
 8001358:	6878      	ldr	r0, [r7, #4]
 800135a:	f7ff fe9b 	bl	8001094 <SX1278_SPIWrite>
	module->status = STANDBY;
 800135e:	687b      	ldr	r3, [r7, #4]
 8001360:	2201      	movs	r2, #1
 8001362:	725a      	strb	r2, [r3, #9]
}
 8001364:	bf00      	nop
 8001366:	3708      	adds	r7, #8
 8001368:	46bd      	mov	sp, r7
 800136a:	bd80      	pop	{r7, pc}

0800136c <SX1278_sleep>:

void SX1278_sleep(SX1278_t * module) {
 800136c:	b580      	push	{r7, lr}
 800136e:	b082      	sub	sp, #8
 8001370:	af00      	add	r7, sp, #0
 8001372:	6078      	str	r0, [r7, #4]
	SX1278_SPIWrite(module, LR_RegOpMode, 0x08);
 8001374:	2208      	movs	r2, #8
 8001376:	2101      	movs	r1, #1
 8001378:	6878      	ldr	r0, [r7, #4]
 800137a:	f7ff fe8b 	bl	8001094 <SX1278_SPIWrite>
	module->status = SLEEP;
 800137e:	687b      	ldr	r3, [r7, #4]
 8001380:	2200      	movs	r2, #0
 8001382:	725a      	strb	r2, [r3, #9]
}
 8001384:	bf00      	nop
 8001386:	3708      	adds	r7, #8
 8001388:	46bd      	mov	sp, r7
 800138a:	bd80      	pop	{r7, pc}

0800138c <SX1278_entryLoRa>:

void SX1278_entryLoRa(SX1278_t * module) {
 800138c:	b580      	push	{r7, lr}
 800138e:	b082      	sub	sp, #8
 8001390:	af00      	add	r7, sp, #0
 8001392:	6078      	str	r0, [r7, #4]
	SX1278_SPIWrite(module, LR_RegOpMode, 0x88);
 8001394:	2288      	movs	r2, #136	; 0x88
 8001396:	2101      	movs	r1, #1
 8001398:	6878      	ldr	r0, [r7, #4]
 800139a:	f7ff fe7b 	bl	8001094 <SX1278_SPIWrite>
}
 800139e:	bf00      	nop
 80013a0:	3708      	adds	r7, #8
 80013a2:	46bd      	mov	sp, r7
 80013a4:	bd80      	pop	{r7, pc}

080013a6 <SX1278_clearLoRaIrq>:

void SX1278_clearLoRaIrq(SX1278_t * module) {
 80013a6:	b580      	push	{r7, lr}
 80013a8:	b082      	sub	sp, #8
 80013aa:	af00      	add	r7, sp, #0
 80013ac:	6078      	str	r0, [r7, #4]
	SX1278_SPIWrite(module, LR_RegIrqFlags, 0xFF);
 80013ae:	22ff      	movs	r2, #255	; 0xff
 80013b0:	2112      	movs	r1, #18
 80013b2:	6878      	ldr	r0, [r7, #4]
 80013b4:	f7ff fe6e 	bl	8001094 <SX1278_SPIWrite>
}
 80013b8:	bf00      	nop
 80013ba:	3708      	adds	r7, #8
 80013bc:	46bd      	mov	sp, r7
 80013be:	bd80      	pop	{r7, pc}

080013c0 <SX1278_LoRaEntryRx>:

int SX1278_LoRaEntryRx(SX1278_t * module, uint8_t length, uint32_t timeout) {
 80013c0:	b580      	push	{r7, lr}
 80013c2:	b086      	sub	sp, #24
 80013c4:	af00      	add	r7, sp, #0
 80013c6:	60f8      	str	r0, [r7, #12]
 80013c8:	460b      	mov	r3, r1
 80013ca:	607a      	str	r2, [r7, #4]
 80013cc:	72fb      	strb	r3, [r7, #11]
	uint8_t addr;

	module->packetLength = length;
 80013ce:	68fb      	ldr	r3, [r7, #12]
 80013d0:	7afa      	ldrb	r2, [r7, #11]
 80013d2:	721a      	strb	r2, [r3, #8]

	SX1278_defaultConfig(module);		//Setting base parameter
 80013d4:	68f8      	ldr	r0, [r7, #12]
 80013d6:	f7ff fefa 	bl	80011ce <SX1278_defaultConfig>
	SX1278_SPIWrite(module, REG_LR_PADAC, 0x84);	//Normal and RX
 80013da:	2284      	movs	r2, #132	; 0x84
 80013dc:	214d      	movs	r1, #77	; 0x4d
 80013de:	68f8      	ldr	r0, [r7, #12]
 80013e0:	f7ff fe58 	bl	8001094 <SX1278_SPIWrite>
	SX1278_SPIWrite(module, LR_RegHopPeriod, 0xFF);	//No FHSS
 80013e4:	22ff      	movs	r2, #255	; 0xff
 80013e6:	2124      	movs	r1, #36	; 0x24
 80013e8:	68f8      	ldr	r0, [r7, #12]
 80013ea:	f7ff fe53 	bl	8001094 <SX1278_SPIWrite>
	SX1278_SPIWrite(module, REG_LR_DIOMAPPING1, 0x01);//DIO=00,DIO1=00,DIO2=00, DIO3=01
 80013ee:	2201      	movs	r2, #1
 80013f0:	2140      	movs	r1, #64	; 0x40
 80013f2:	68f8      	ldr	r0, [r7, #12]
 80013f4:	f7ff fe4e 	bl	8001094 <SX1278_SPIWrite>
	SX1278_SPIWrite(module, LR_RegIrqFlagsMask, 0x3F);//Open RxDone interrupt & Timeout
 80013f8:	223f      	movs	r2, #63	; 0x3f
 80013fa:	2111      	movs	r1, #17
 80013fc:	68f8      	ldr	r0, [r7, #12]
 80013fe:	f7ff fe49 	bl	8001094 <SX1278_SPIWrite>
	SX1278_clearLoRaIrq(module);
 8001402:	68f8      	ldr	r0, [r7, #12]
 8001404:	f7ff ffcf 	bl	80013a6 <SX1278_clearLoRaIrq>
	SX1278_SPIWrite(module, LR_RegPayloadLength, length);//Payload Length 21byte(this register must difine when the data long of one byte in SF is 6)
 8001408:	7afb      	ldrb	r3, [r7, #11]
 800140a:	461a      	mov	r2, r3
 800140c:	2122      	movs	r1, #34	; 0x22
 800140e:	68f8      	ldr	r0, [r7, #12]
 8001410:	f7ff fe40 	bl	8001094 <SX1278_SPIWrite>
	addr = SX1278_SPIRead(module, LR_RegFifoRxBaseAddr); //Read RxBaseAddr
 8001414:	210f      	movs	r1, #15
 8001416:	68f8      	ldr	r0, [r7, #12]
 8001418:	f7ff fe1d 	bl	8001056 <SX1278_SPIRead>
 800141c:	4603      	mov	r3, r0
 800141e:	75fb      	strb	r3, [r7, #23]
	SX1278_SPIWrite(module, LR_RegFifoAddrPtr, addr); //RxBaseAddr->FiFoAddrPtr
 8001420:	7dfb      	ldrb	r3, [r7, #23]
 8001422:	461a      	mov	r2, r3
 8001424:	210d      	movs	r1, #13
 8001426:	68f8      	ldr	r0, [r7, #12]
 8001428:	f7ff fe34 	bl	8001094 <SX1278_SPIWrite>
	SX1278_SPIWrite(module, LR_RegOpMode, 0x8d);	//Mode//Low Frequency Mode
 800142c:	228d      	movs	r2, #141	; 0x8d
 800142e:	2101      	movs	r1, #1
 8001430:	68f8      	ldr	r0, [r7, #12]
 8001432:	f7ff fe2f 	bl	8001094 <SX1278_SPIWrite>
	//SX1278_SPIWrite(module, LR_RegOpMode,0x05);	//Continuous Rx Mode //High Frequency Mode
	module->readBytes = 0;
 8001436:	68fb      	ldr	r3, [r7, #12]
 8001438:	2200      	movs	r2, #0
 800143a:	f883 210a 	strb.w	r2, [r3, #266]	; 0x10a

	while (1) {
		if ((SX1278_SPIRead(module, LR_RegModemStat) & 0x04) == 0x04) {	//Rx-on going RegModemStat
 800143e:	2118      	movs	r1, #24
 8001440:	68f8      	ldr	r0, [r7, #12]
 8001442:	f7ff fe08 	bl	8001056 <SX1278_SPIRead>
 8001446:	4603      	mov	r3, r0
 8001448:	f003 0304 	and.w	r3, r3, #4
 800144c:	2b04      	cmp	r3, #4
 800144e:	d104      	bne.n	800145a <SX1278_LoRaEntryRx+0x9a>
			module->status = RX;
 8001450:	68fb      	ldr	r3, [r7, #12]
 8001452:	2203      	movs	r2, #3
 8001454:	725a      	strb	r2, [r3, #9]
			return 1;
 8001456:	2301      	movs	r3, #1
 8001458:	e013      	b.n	8001482 <SX1278_LoRaEntryRx+0xc2>
		}
		if (--timeout == 0) {
 800145a:	687b      	ldr	r3, [r7, #4]
 800145c:	3b01      	subs	r3, #1
 800145e:	607b      	str	r3, [r7, #4]
 8001460:	687b      	ldr	r3, [r7, #4]
 8001462:	2b00      	cmp	r3, #0
 8001464:	d109      	bne.n	800147a <SX1278_LoRaEntryRx+0xba>
			SX1278_hw_Reset(module->hw);
 8001466:	68fb      	ldr	r3, [r7, #12]
 8001468:	681b      	ldr	r3, [r3, #0]
 800146a:	4618      	mov	r0, r3
 800146c:	f7ff fd68 	bl	8000f40 <SX1278_hw_Reset>
			SX1278_defaultConfig(module);
 8001470:	68f8      	ldr	r0, [r7, #12]
 8001472:	f7ff feac 	bl	80011ce <SX1278_defaultConfig>
			return 0;
 8001476:	2300      	movs	r3, #0
 8001478:	e003      	b.n	8001482 <SX1278_LoRaEntryRx+0xc2>
		}
		SX1278_hw_DelayMs(1);
 800147a:	2001      	movs	r0, #1
 800147c:	f7ff fdc9 	bl	8001012 <SX1278_hw_DelayMs>
		if ((SX1278_SPIRead(module, LR_RegModemStat) & 0x04) == 0x04) {	//Rx-on going RegModemStat
 8001480:	e7dd      	b.n	800143e <SX1278_LoRaEntryRx+0x7e>
	}
}
 8001482:	4618      	mov	r0, r3
 8001484:	3718      	adds	r7, #24
 8001486:	46bd      	mov	sp, r7
 8001488:	bd80      	pop	{r7, pc}

0800148a <SX1278_LoRaRxPacket>:

uint8_t SX1278_LoRaRxPacket(SX1278_t * module) {
 800148a:	b580      	push	{r7, lr}
 800148c:	b084      	sub	sp, #16
 800148e:	af00      	add	r7, sp, #0
 8001490:	6078      	str	r0, [r7, #4]
	unsigned char addr;
	unsigned char packet_size;

	if (SX1278_hw_GetDIO0(module->hw)) {
 8001492:	687b      	ldr	r3, [r7, #4]
 8001494:	681b      	ldr	r3, [r3, #0]
 8001496:	4618      	mov	r0, r3
 8001498:	f7ff fdc6 	bl	8001028 <SX1278_hw_GetDIO0>
 800149c:	4603      	mov	r3, r0
 800149e:	2b00      	cmp	r3, #0
 80014a0:	d030      	beq.n	8001504 <SX1278_LoRaRxPacket+0x7a>
		memset(module->rxBuffer, 0x00, SX1278_MAX_PACKET);
 80014a2:	687b      	ldr	r3, [r7, #4]
 80014a4:	330a      	adds	r3, #10
 80014a6:	f44f 7280 	mov.w	r2, #256	; 0x100
 80014aa:	2100      	movs	r1, #0
 80014ac:	4618      	mov	r0, r3
 80014ae:	f002 feb4 	bl	800421a <memset>

		addr = SX1278_SPIRead(module, LR_RegFifoRxCurrentaddr); //last packet addr
 80014b2:	2110      	movs	r1, #16
 80014b4:	6878      	ldr	r0, [r7, #4]
 80014b6:	f7ff fdce 	bl	8001056 <SX1278_SPIRead>
 80014ba:	4603      	mov	r3, r0
 80014bc:	73bb      	strb	r3, [r7, #14]
		SX1278_SPIWrite(module, LR_RegFifoAddrPtr, addr); //RxBaseAddr -> FiFoAddrPtr
 80014be:	7bbb      	ldrb	r3, [r7, #14]
 80014c0:	461a      	mov	r2, r3
 80014c2:	210d      	movs	r1, #13
 80014c4:	6878      	ldr	r0, [r7, #4]
 80014c6:	f7ff fde5 	bl	8001094 <SX1278_SPIWrite>

		if (module->LoRa_Rate == SX1278_LORA_SF_6) { //When SpreadFactor is six,will used Implicit Header mode(Excluding internal packet length)
 80014ca:	687b      	ldr	r3, [r7, #4]
 80014cc:	799b      	ldrb	r3, [r3, #6]
 80014ce:	2b00      	cmp	r3, #0
 80014d0:	d103      	bne.n	80014da <SX1278_LoRaRxPacket+0x50>
			packet_size = module->packetLength;
 80014d2:	687b      	ldr	r3, [r7, #4]
 80014d4:	7a1b      	ldrb	r3, [r3, #8]
 80014d6:	73fb      	strb	r3, [r7, #15]
 80014d8:	e005      	b.n	80014e6 <SX1278_LoRaRxPacket+0x5c>
		} else {
			packet_size = SX1278_SPIRead(module, LR_RegRxNbBytes); //Number for received bytes
 80014da:	2113      	movs	r1, #19
 80014dc:	6878      	ldr	r0, [r7, #4]
 80014de:	f7ff fdba 	bl	8001056 <SX1278_SPIRead>
 80014e2:	4603      	mov	r3, r0
 80014e4:	73fb      	strb	r3, [r7, #15]
		}

		SX1278_SPIBurstRead(module, 0x00, module->rxBuffer, packet_size);
 80014e6:	687b      	ldr	r3, [r7, #4]
 80014e8:	f103 020a 	add.w	r2, r3, #10
 80014ec:	7bfb      	ldrb	r3, [r7, #15]
 80014ee:	2100      	movs	r1, #0
 80014f0:	6878      	ldr	r0, [r7, #4]
 80014f2:	f7ff fdf8 	bl	80010e6 <SX1278_SPIBurstRead>
		module->readBytes = packet_size;
 80014f6:	687b      	ldr	r3, [r7, #4]
 80014f8:	7bfa      	ldrb	r2, [r7, #15]
 80014fa:	f883 210a 	strb.w	r2, [r3, #266]	; 0x10a
		SX1278_clearLoRaIrq(module);
 80014fe:	6878      	ldr	r0, [r7, #4]
 8001500:	f7ff ff51 	bl	80013a6 <SX1278_clearLoRaIrq>
	}
	return module->readBytes;
 8001504:	687b      	ldr	r3, [r7, #4]
 8001506:	f893 310a 	ldrb.w	r3, [r3, #266]	; 0x10a
}
 800150a:	4618      	mov	r0, r3
 800150c:	3710      	adds	r7, #16
 800150e:	46bd      	mov	sp, r7
 8001510:	bd80      	pop	{r7, pc}

08001512 <SX1278_LoRaEntryTx>:

int SX1278_LoRaEntryTx(SX1278_t * module, uint8_t length, uint32_t timeout) {
 8001512:	b580      	push	{r7, lr}
 8001514:	b086      	sub	sp, #24
 8001516:	af00      	add	r7, sp, #0
 8001518:	60f8      	str	r0, [r7, #12]
 800151a:	460b      	mov	r3, r1
 800151c:	607a      	str	r2, [r7, #4]
 800151e:	72fb      	strb	r3, [r7, #11]
	uint8_t addr;
	uint8_t temp;

	module->packetLength = length;
 8001520:	68fb      	ldr	r3, [r7, #12]
 8001522:	7afa      	ldrb	r2, [r7, #11]
 8001524:	721a      	strb	r2, [r3, #8]

	SX1278_defaultConfig(module); //setting base parameter
 8001526:	68f8      	ldr	r0, [r7, #12]
 8001528:	f7ff fe51 	bl	80011ce <SX1278_defaultConfig>
	SX1278_SPIWrite(module, REG_LR_PADAC, 0x87);	//Tx for 20dBm
 800152c:	2287      	movs	r2, #135	; 0x87
 800152e:	214d      	movs	r1, #77	; 0x4d
 8001530:	68f8      	ldr	r0, [r7, #12]
 8001532:	f7ff fdaf 	bl	8001094 <SX1278_SPIWrite>
	SX1278_SPIWrite(module, LR_RegHopPeriod, 0x00); //RegHopPeriod NO FHSS
 8001536:	2200      	movs	r2, #0
 8001538:	2124      	movs	r1, #36	; 0x24
 800153a:	68f8      	ldr	r0, [r7, #12]
 800153c:	f7ff fdaa 	bl	8001094 <SX1278_SPIWrite>
	SX1278_SPIWrite(module, REG_LR_DIOMAPPING1, 0x41); //DIO0=01, DIO1=00,DIO2=00, DIO3=01
 8001540:	2241      	movs	r2, #65	; 0x41
 8001542:	2140      	movs	r1, #64	; 0x40
 8001544:	68f8      	ldr	r0, [r7, #12]
 8001546:	f7ff fda5 	bl	8001094 <SX1278_SPIWrite>
	SX1278_clearLoRaIrq(module);
 800154a:	68f8      	ldr	r0, [r7, #12]
 800154c:	f7ff ff2b 	bl	80013a6 <SX1278_clearLoRaIrq>
	SX1278_SPIWrite(module, LR_RegIrqFlagsMask, 0xF7); //Open TxDone interrupt
 8001550:	22f7      	movs	r2, #247	; 0xf7
 8001552:	2111      	movs	r1, #17
 8001554:	68f8      	ldr	r0, [r7, #12]
 8001556:	f7ff fd9d 	bl	8001094 <SX1278_SPIWrite>
	SX1278_SPIWrite(module, LR_RegPayloadLength, length); //RegPayloadLength 21byte
 800155a:	7afb      	ldrb	r3, [r7, #11]
 800155c:	461a      	mov	r2, r3
 800155e:	2122      	movs	r1, #34	; 0x22
 8001560:	68f8      	ldr	r0, [r7, #12]
 8001562:	f7ff fd97 	bl	8001094 <SX1278_SPIWrite>
	addr = SX1278_SPIRead(module, LR_RegFifoTxBaseAddr); //RegFiFoTxBaseAddr
 8001566:	210e      	movs	r1, #14
 8001568:	68f8      	ldr	r0, [r7, #12]
 800156a:	f7ff fd74 	bl	8001056 <SX1278_SPIRead>
 800156e:	4603      	mov	r3, r0
 8001570:	75fb      	strb	r3, [r7, #23]
	SX1278_SPIWrite(module, LR_RegFifoAddrPtr, addr); //RegFifoAddrPtr
 8001572:	7dfb      	ldrb	r3, [r7, #23]
 8001574:	461a      	mov	r2, r3
 8001576:	210d      	movs	r1, #13
 8001578:	68f8      	ldr	r0, [r7, #12]
 800157a:	f7ff fd8b 	bl	8001094 <SX1278_SPIWrite>

	while (1) {
		temp = SX1278_SPIRead(module, LR_RegPayloadLength);
 800157e:	2122      	movs	r1, #34	; 0x22
 8001580:	68f8      	ldr	r0, [r7, #12]
 8001582:	f7ff fd68 	bl	8001056 <SX1278_SPIRead>
 8001586:	4603      	mov	r3, r0
 8001588:	75bb      	strb	r3, [r7, #22]
		if (temp == length) {
 800158a:	7dba      	ldrb	r2, [r7, #22]
 800158c:	7afb      	ldrb	r3, [r7, #11]
 800158e:	429a      	cmp	r2, r3
 8001590:	d104      	bne.n	800159c <SX1278_LoRaEntryTx+0x8a>
			module->status = TX;
 8001592:	68fb      	ldr	r3, [r7, #12]
 8001594:	2202      	movs	r2, #2
 8001596:	725a      	strb	r2, [r3, #9]
			return 1;
 8001598:	2301      	movs	r3, #1
 800159a:	e00e      	b.n	80015ba <SX1278_LoRaEntryTx+0xa8>
		}

		if (--timeout == 0) {
 800159c:	687b      	ldr	r3, [r7, #4]
 800159e:	3b01      	subs	r3, #1
 80015a0:	607b      	str	r3, [r7, #4]
 80015a2:	687b      	ldr	r3, [r7, #4]
 80015a4:	2b00      	cmp	r3, #0
 80015a6:	d1ea      	bne.n	800157e <SX1278_LoRaEntryTx+0x6c>
			SX1278_hw_Reset(module->hw);
 80015a8:	68fb      	ldr	r3, [r7, #12]
 80015aa:	681b      	ldr	r3, [r3, #0]
 80015ac:	4618      	mov	r0, r3
 80015ae:	f7ff fcc7 	bl	8000f40 <SX1278_hw_Reset>
			SX1278_defaultConfig(module);
 80015b2:	68f8      	ldr	r0, [r7, #12]
 80015b4:	f7ff fe0b 	bl	80011ce <SX1278_defaultConfig>
			return 0;
 80015b8:	2300      	movs	r3, #0
		}
	}
}
 80015ba:	4618      	mov	r0, r3
 80015bc:	3718      	adds	r7, #24
 80015be:	46bd      	mov	sp, r7
 80015c0:	bd80      	pop	{r7, pc}

080015c2 <SX1278_LoRaTxPacket>:

int SX1278_LoRaTxPacket(SX1278_t * module, uint8_t* txBuffer, uint8_t length,
		uint32_t timeout) {
 80015c2:	b580      	push	{r7, lr}
 80015c4:	b084      	sub	sp, #16
 80015c6:	af00      	add	r7, sp, #0
 80015c8:	60f8      	str	r0, [r7, #12]
 80015ca:	60b9      	str	r1, [r7, #8]
 80015cc:	603b      	str	r3, [r7, #0]
 80015ce:	4613      	mov	r3, r2
 80015d0:	71fb      	strb	r3, [r7, #7]
	SX1278_SPIBurstWrite(module, 0x00, txBuffer, length);
 80015d2:	79fb      	ldrb	r3, [r7, #7]
 80015d4:	68ba      	ldr	r2, [r7, #8]
 80015d6:	2100      	movs	r1, #0
 80015d8:	68f8      	ldr	r0, [r7, #12]
 80015da:	f7ff fdbd 	bl	8001158 <SX1278_SPIBurstWrite>
	SX1278_SPIWrite(module, LR_RegOpMode, 0x8b);	//Tx Mode
 80015de:	228b      	movs	r2, #139	; 0x8b
 80015e0:	2101      	movs	r1, #1
 80015e2:	68f8      	ldr	r0, [r7, #12]
 80015e4:	f7ff fd56 	bl	8001094 <SX1278_SPIWrite>
	while (1) {
		if (SX1278_hw_GetDIO0(module->hw)) { //if(Get_NIRQ()) //Packet send over
 80015e8:	68fb      	ldr	r3, [r7, #12]
 80015ea:	681b      	ldr	r3, [r3, #0]
 80015ec:	4618      	mov	r0, r3
 80015ee:	f7ff fd1b 	bl	8001028 <SX1278_hw_GetDIO0>
 80015f2:	4603      	mov	r3, r0
 80015f4:	2b00      	cmp	r3, #0
 80015f6:	d00b      	beq.n	8001610 <SX1278_LoRaTxPacket+0x4e>
			SX1278_SPIRead(module, LR_RegIrqFlags);
 80015f8:	2112      	movs	r1, #18
 80015fa:	68f8      	ldr	r0, [r7, #12]
 80015fc:	f7ff fd2b 	bl	8001056 <SX1278_SPIRead>
			SX1278_clearLoRaIrq(module); //Clear irq
 8001600:	68f8      	ldr	r0, [r7, #12]
 8001602:	f7ff fed0 	bl	80013a6 <SX1278_clearLoRaIrq>
			SX1278_standby(module); //Entry Standby mode
 8001606:	68f8      	ldr	r0, [r7, #12]
 8001608:	f7ff fea0 	bl	800134c <SX1278_standby>
			return 1;
 800160c:	2301      	movs	r3, #1
 800160e:	e013      	b.n	8001638 <SX1278_LoRaTxPacket+0x76>
		}

		if (--timeout == 0) {
 8001610:	683b      	ldr	r3, [r7, #0]
 8001612:	3b01      	subs	r3, #1
 8001614:	603b      	str	r3, [r7, #0]
 8001616:	683b      	ldr	r3, [r7, #0]
 8001618:	2b00      	cmp	r3, #0
 800161a:	d109      	bne.n	8001630 <SX1278_LoRaTxPacket+0x6e>
			SX1278_hw_Reset(module->hw);
 800161c:	68fb      	ldr	r3, [r7, #12]
 800161e:	681b      	ldr	r3, [r3, #0]
 8001620:	4618      	mov	r0, r3
 8001622:	f7ff fc8d 	bl	8000f40 <SX1278_hw_Reset>
			SX1278_defaultConfig(module);
 8001626:	68f8      	ldr	r0, [r7, #12]
 8001628:	f7ff fdd1 	bl	80011ce <SX1278_defaultConfig>
			return 0;
 800162c:	2300      	movs	r3, #0
 800162e:	e003      	b.n	8001638 <SX1278_LoRaTxPacket+0x76>
		}
		SX1278_hw_DelayMs(1);
 8001630:	2001      	movs	r0, #1
 8001632:	f7ff fcee 	bl	8001012 <SX1278_hw_DelayMs>
		if (SX1278_hw_GetDIO0(module->hw)) { //if(Get_NIRQ()) //Packet send over
 8001636:	e7d7      	b.n	80015e8 <SX1278_LoRaTxPacket+0x26>
	}
}
 8001638:	4618      	mov	r0, r3
 800163a:	3710      	adds	r7, #16
 800163c:	46bd      	mov	sp, r7
 800163e:	bd80      	pop	{r7, pc}

08001640 <SX1278_begin>:

void SX1278_begin(SX1278_t * module, uint8_t frequency, uint8_t power,
		uint8_t LoRa_Rate, uint8_t LoRa_BW, uint8_t packetLength) {
 8001640:	b580      	push	{r7, lr}
 8001642:	b082      	sub	sp, #8
 8001644:	af00      	add	r7, sp, #0
 8001646:	6078      	str	r0, [r7, #4]
 8001648:	4608      	mov	r0, r1
 800164a:	4611      	mov	r1, r2
 800164c:	461a      	mov	r2, r3
 800164e:	4603      	mov	r3, r0
 8001650:	70fb      	strb	r3, [r7, #3]
 8001652:	460b      	mov	r3, r1
 8001654:	70bb      	strb	r3, [r7, #2]
 8001656:	4613      	mov	r3, r2
 8001658:	707b      	strb	r3, [r7, #1]
	SX1278_hw_init(module->hw);
 800165a:	687b      	ldr	r3, [r7, #4]
 800165c:	681b      	ldr	r3, [r3, #0]
 800165e:	4618      	mov	r0, r3
 8001660:	f7ff fc42 	bl	8000ee8 <SX1278_hw_init>
	module->frequency = frequency;
 8001664:	687b      	ldr	r3, [r7, #4]
 8001666:	78fa      	ldrb	r2, [r7, #3]
 8001668:	711a      	strb	r2, [r3, #4]
	module->power = power;
 800166a:	687b      	ldr	r3, [r7, #4]
 800166c:	78ba      	ldrb	r2, [r7, #2]
 800166e:	715a      	strb	r2, [r3, #5]
	module->LoRa_Rate = LoRa_Rate;
 8001670:	687b      	ldr	r3, [r7, #4]
 8001672:	787a      	ldrb	r2, [r7, #1]
 8001674:	719a      	strb	r2, [r3, #6]
	module->LoRa_BW = LoRa_BW;
 8001676:	687b      	ldr	r3, [r7, #4]
 8001678:	7c3a      	ldrb	r2, [r7, #16]
 800167a:	71da      	strb	r2, [r3, #7]
	module->packetLength = packetLength;
 800167c:	687b      	ldr	r3, [r7, #4]
 800167e:	7d3a      	ldrb	r2, [r7, #20]
 8001680:	721a      	strb	r2, [r3, #8]
	SX1278_defaultConfig(module);
 8001682:	6878      	ldr	r0, [r7, #4]
 8001684:	f7ff fda3 	bl	80011ce <SX1278_defaultConfig>
}
 8001688:	bf00      	nop
 800168a:	3708      	adds	r7, #8
 800168c:	46bd      	mov	sp, r7
 800168e:	bd80      	pop	{r7, pc}

08001690 <SX1278_read>:

uint8_t SX1278_available(SX1278_t * module) {
	return SX1278_LoRaRxPacket(module);
}

uint8_t SX1278_read(SX1278_t * module, uint8_t* rxBuf, uint8_t length) {
 8001690:	b580      	push	{r7, lr}
 8001692:	b084      	sub	sp, #16
 8001694:	af00      	add	r7, sp, #0
 8001696:	60f8      	str	r0, [r7, #12]
 8001698:	60b9      	str	r1, [r7, #8]
 800169a:	4613      	mov	r3, r2
 800169c:	71fb      	strb	r3, [r7, #7]
	if (length != module->readBytes)
 800169e:	68fb      	ldr	r3, [r7, #12]
 80016a0:	f893 310a 	ldrb.w	r3, [r3, #266]	; 0x10a
 80016a4:	79fa      	ldrb	r2, [r7, #7]
 80016a6:	429a      	cmp	r2, r3
 80016a8:	d003      	beq.n	80016b2 <SX1278_read+0x22>
		length = module->readBytes;
 80016aa:	68fb      	ldr	r3, [r7, #12]
 80016ac:	f893 310a 	ldrb.w	r3, [r3, #266]	; 0x10a
 80016b0:	71fb      	strb	r3, [r7, #7]
	memcpy(rxBuf, module->rxBuffer, length);
 80016b2:	68fb      	ldr	r3, [r7, #12]
 80016b4:	330a      	adds	r3, #10
 80016b6:	79fa      	ldrb	r2, [r7, #7]
 80016b8:	4619      	mov	r1, r3
 80016ba:	68b8      	ldr	r0, [r7, #8]
 80016bc:	f002 fda2 	bl	8004204 <memcpy>
	rxBuf[length] = '\0';
 80016c0:	79fb      	ldrb	r3, [r7, #7]
 80016c2:	68ba      	ldr	r2, [r7, #8]
 80016c4:	4413      	add	r3, r2
 80016c6:	2200      	movs	r2, #0
 80016c8:	701a      	strb	r2, [r3, #0]
	module->readBytes = 0;
 80016ca:	68fb      	ldr	r3, [r7, #12]
 80016cc:	2200      	movs	r2, #0
 80016ce:	f883 210a 	strb.w	r2, [r3, #266]	; 0x10a
	return length;
 80016d2:	79fb      	ldrb	r3, [r7, #7]
}
 80016d4:	4618      	mov	r0, r3
 80016d6:	3710      	adds	r7, #16
 80016d8:	46bd      	mov	sp, r7
 80016da:	bd80      	pop	{r7, pc}

080016dc <MX_USART6_UART_Init>:
  * @brief USART6 Initialization Function
  * @param None
  * @retval None
  */
void MX_USART6_UART_Init(void)
{
 80016dc:	b580      	push	{r7, lr}
 80016de:	af00      	add	r7, sp, #0
  /* USER CODE END USART6_Init 0 */

  /* USER CODE BEGIN USART6_Init 1 */

  /* USER CODE END USART6_Init 1 */
  huart6.Instance = USART6;
 80016e0:	4b11      	ldr	r3, [pc, #68]	; (8001728 <MX_USART6_UART_Init+0x4c>)
 80016e2:	4a12      	ldr	r2, [pc, #72]	; (800172c <MX_USART6_UART_Init+0x50>)
 80016e4:	601a      	str	r2, [r3, #0]
  huart6.Init.BaudRate = 9600;
 80016e6:	4b10      	ldr	r3, [pc, #64]	; (8001728 <MX_USART6_UART_Init+0x4c>)
 80016e8:	f44f 5216 	mov.w	r2, #9600	; 0x2580
 80016ec:	605a      	str	r2, [r3, #4]
  huart6.Init.WordLength = UART_WORDLENGTH_8B;
 80016ee:	4b0e      	ldr	r3, [pc, #56]	; (8001728 <MX_USART6_UART_Init+0x4c>)
 80016f0:	2200      	movs	r2, #0
 80016f2:	609a      	str	r2, [r3, #8]
  huart6.Init.StopBits = UART_STOPBITS_1;
 80016f4:	4b0c      	ldr	r3, [pc, #48]	; (8001728 <MX_USART6_UART_Init+0x4c>)
 80016f6:	2200      	movs	r2, #0
 80016f8:	60da      	str	r2, [r3, #12]
  huart6.Init.Parity = UART_PARITY_NONE;
 80016fa:	4b0b      	ldr	r3, [pc, #44]	; (8001728 <MX_USART6_UART_Init+0x4c>)
 80016fc:	2200      	movs	r2, #0
 80016fe:	611a      	str	r2, [r3, #16]
  huart6.Init.Mode = UART_MODE_TX_RX;
 8001700:	4b09      	ldr	r3, [pc, #36]	; (8001728 <MX_USART6_UART_Init+0x4c>)
 8001702:	220c      	movs	r2, #12
 8001704:	615a      	str	r2, [r3, #20]
  huart6.Init.HwFlowCtl = UART_HWCONTROL_NONE;
 8001706:	4b08      	ldr	r3, [pc, #32]	; (8001728 <MX_USART6_UART_Init+0x4c>)
 8001708:	2200      	movs	r2, #0
 800170a:	619a      	str	r2, [r3, #24]
  huart6.Init.OverSampling = UART_OVERSAMPLING_16;
 800170c:	4b06      	ldr	r3, [pc, #24]	; (8001728 <MX_USART6_UART_Init+0x4c>)
 800170e:	2200      	movs	r2, #0
 8001710:	61da      	str	r2, [r3, #28]
  if (HAL_UART_Init(&huart6) != HAL_OK)
 8001712:	4805      	ldr	r0, [pc, #20]	; (8001728 <MX_USART6_UART_Init+0x4c>)
 8001714:	f002 f886 	bl	8003824 <HAL_UART_Init>
 8001718:	4603      	mov	r3, r0
 800171a:	2b00      	cmp	r3, #0
 800171c:	d001      	beq.n	8001722 <MX_USART6_UART_Init+0x46>
  {
    Error_Handler();
 800171e:	f000 fbed 	bl	8001efc <Error_Handler>
  }
  /* USER CODE BEGIN USART6_Init 2 */

  /* USER CODE END USART6_Init 2 */

}
 8001722:	bf00      	nop
 8001724:	bd80      	pop	{r7, pc}
 8001726:	bf00      	nop
 8001728:	20000208 	.word	0x20000208
 800172c:	40011400 	.word	0x40011400

08001730 <debugCharPrint>:

void debugCharPrint(char sendMessage[])
{
 8001730:	b580      	push	{r7, lr}
 8001732:	b082      	sub	sp, #8
 8001734:	af00      	add	r7, sp, #0
 8001736:	6078      	str	r0, [r7, #4]
	//char newline[2] = "\r\n";
	HAL_UART_Transmit(&huart6, (uint8_t*) sendMessage, strlen(sendMessage), HAL_MAX_DELAY);
 8001738:	6878      	ldr	r0, [r7, #4]
 800173a:	f7fe fd69 	bl	8000210 <strlen>
 800173e:	4603      	mov	r3, r0
 8001740:	b29a      	uxth	r2, r3
 8001742:	f04f 33ff 	mov.w	r3, #4294967295
 8001746:	6879      	ldr	r1, [r7, #4]
 8001748:	4803      	ldr	r0, [pc, #12]	; (8001758 <debugCharPrint+0x28>)
 800174a:	f002 f8b8 	bl	80038be <HAL_UART_Transmit>
	//HAL_UART_Transmit(&huart6, (uint8_t*) newline, 2, HAL_MAX_DELAY);
}
 800174e:	bf00      	nop
 8001750:	3708      	adds	r7, #8
 8001752:	46bd      	mov	sp, r7
 8001754:	bd80      	pop	{r7, pc}
 8001756:	bf00      	nop
 8001758:	20000208 	.word	0x20000208

0800175c <debugIntPrint>:


void debugIntPrint(int message)
{
 800175c:	b580      	push	{r7, lr}
 800175e:	b088      	sub	sp, #32
 8001760:	af00      	add	r7, sp, #0
 8001762:	6078      	str	r0, [r7, #4]
	char buffer[20] = {0};
 8001764:	f107 030c 	add.w	r3, r7, #12
 8001768:	2200      	movs	r2, #0
 800176a:	601a      	str	r2, [r3, #0]
 800176c:	605a      	str	r2, [r3, #4]
 800176e:	609a      	str	r2, [r3, #8]
 8001770:	60da      	str	r2, [r3, #12]
 8001772:	611a      	str	r2, [r3, #16]
	itoa(message,buffer,10);
 8001774:	f107 030c 	add.w	r3, r7, #12
 8001778:	220a      	movs	r2, #10
 800177a:	4619      	mov	r1, r3
 800177c:	6878      	ldr	r0, [r7, #4]
 800177e:	f002 fd3f 	bl	8004200 <itoa>
	debugCharPrint(buffer);
 8001782:	f107 030c 	add.w	r3, r7, #12
 8001786:	4618      	mov	r0, r3
 8001788:	f7ff ffd2 	bl	8001730 <debugCharPrint>
}
 800178c:	bf00      	nop
 800178e:	3720      	adds	r7, #32
 8001790:	46bd      	mov	sp, r7
 8001792:	bd80      	pop	{r7, pc}

08001794 <debugPrintEnter>:

void debugPrintEnter(void)
{
 8001794:	b580      	push	{r7, lr}
 8001796:	b082      	sub	sp, #8
 8001798:	af00      	add	r7, sp, #0
	char newline[2] = "\r\n";
 800179a:	f640 230d 	movw	r3, #2573	; 0xa0d
 800179e:	80bb      	strh	r3, [r7, #4]
	HAL_UART_Transmit(&huart6, (uint8_t*) newline, 2, HAL_MAX_DELAY);
 80017a0:	1d39      	adds	r1, r7, #4
 80017a2:	f04f 33ff 	mov.w	r3, #4294967295
 80017a6:	2202      	movs	r2, #2
 80017a8:	4803      	ldr	r0, [pc, #12]	; (80017b8 <debugPrintEnter+0x24>)
 80017aa:	f002 f888 	bl	80038be <HAL_UART_Transmit>
}
 80017ae:	bf00      	nop
 80017b0:	3708      	adds	r7, #8
 80017b2:	46bd      	mov	sp, r7
 80017b4:	bd80      	pop	{r7, pc}
 80017b6:	bf00      	nop
 80017b8:	20000208 	.word	0x20000208

080017bc <main>:
char payloadString[100];

/* USER CODE END 0 */

int main(void)
{
 80017bc:	b580      	push	{r7, lr}
 80017be:	af00      	add	r7, sp, #0
  /* USER CODE END 1 */

  /* MCU Configuration----------------------------------------------------------*/

  /* Reset of all peripherals, Initializes the Flash interface and the Systick. */
	HAL_Init();
 80017c0:	f000 fcf6 	bl	80021b0 <HAL_Init>
  /* USER CODE BEGIN Init */

  /* USER CODE END Init */

  /* Configure the system clock */
  SystemClock_Config();
 80017c4:	f000 fa7c 	bl	8001cc0 <SystemClock_Config>
  /* USER CODE BEGIN SysInit */

  /* USER CODE END SysInit */

  /* Initialize all configured peripherals */
  MX_GPIO_Init();
 80017c8:	f000 fb0e 	bl	8001de8 <MX_GPIO_Init>
  MX_SPI1_Init();
 80017cc:	f000 fad6 	bl	8001d7c <MX_SPI1_Init>
  MX_USART6_UART_Init();
 80017d0:	f7ff ff84 	bl	80016dc <MX_USART6_UART_Init>

  /* USER CODE BEGIN 2 */

  initLora();
 80017d4:	f000 f854 	bl	8001880 <initLora>
if (LoraType == Receiver)
 80017d8:	4b20      	ldr	r3, [pc, #128]	; (800185c <main+0xa0>)
 80017da:	781b      	ldrb	r3, [r3, #0]
 80017dc:	2b00      	cmp	r3, #0
 80017de:	d101      	bne.n	80017e4 <main+0x28>
{
	initReceive();
 80017e0:	f000 f88c 	bl	80018fc <initReceive>
}
	//Use these in your own code. Struct is in main.h
	payload.distance = 1234;
 80017e4:	4b1e      	ldr	r3, [pc, #120]	; (8001860 <main+0xa4>)
 80017e6:	f240 42d2 	movw	r2, #1234	; 0x4d2
 80017ea:	801a      	strh	r2, [r3, #0]
	payload.bearing = 16;
 80017ec:	4b1c      	ldr	r3, [pc, #112]	; (8001860 <main+0xa4>)
 80017ee:	2210      	movs	r2, #16
 80017f0:	709a      	strb	r2, [r3, #2]
	payload.cog = 2;
 80017f2:	4b1b      	ldr	r3, [pc, #108]	; (8001860 <main+0xa4>)
 80017f4:	2202      	movs	r2, #2
 80017f6:	70da      	strb	r2, [r3, #3]
	payload.lat = 52.017593400;
 80017f8:	4b19      	ldr	r3, [pc, #100]	; (8001860 <main+0xa4>)
 80017fa:	4a1a      	ldr	r2, [pc, #104]	; (8001864 <main+0xa8>)
 80017fc:	605a      	str	r2, [r3, #4]
	payload.lon = 4.421973230;
 80017fe:	4b18      	ldr	r3, [pc, #96]	; (8001860 <main+0xa4>)
 8001800:	4a19      	ldr	r2, [pc, #100]	; (8001868 <main+0xac>)
 8001802:	609a      	str	r2, [r3, #8]

	payload.PTerm = 0.453;
 8001804:	4b16      	ldr	r3, [pc, #88]	; (8001860 <main+0xa4>)
 8001806:	4a19      	ldr	r2, [pc, #100]	; (800186c <main+0xb0>)
 8001808:	60da      	str	r2, [r3, #12]
	payload.ITerm = 12.5;
 800180a:	4b15      	ldr	r3, [pc, #84]	; (8001860 <main+0xa4>)
 800180c:	4a18      	ldr	r2, [pc, #96]	; (8001870 <main+0xb4>)
 800180e:	611a      	str	r2, [r3, #16]
	payload.DTerm = 12;
 8001810:	4b13      	ldr	r3, [pc, #76]	; (8001860 <main+0xa4>)
 8001812:	4a18      	ldr	r2, [pc, #96]	; (8001874 <main+0xb8>)
 8001814:	615a      	str	r2, [r3, #20]

	payload.newError = 12;
 8001816:	4b12      	ldr	r3, [pc, #72]	; (8001860 <main+0xa4>)
 8001818:	4a16      	ldr	r2, [pc, #88]	; (8001874 <main+0xb8>)
 800181a:	619a      	str	r2, [r3, #24]
	payload.newTime = 12.5;
 800181c:	4b10      	ldr	r3, [pc, #64]	; (8001860 <main+0xa4>)
 800181e:	4a14      	ldr	r2, [pc, #80]	; (8001870 <main+0xb4>)
 8001820:	61da      	str	r2, [r3, #28]
	payload.PIDperc = 0.453;
 8001822:	4b0f      	ldr	r3, [pc, #60]	; (8001860 <main+0xa4>)
 8001824:	4a11      	ldr	r2, [pc, #68]	; (800186c <main+0xb0>)
 8001826:	621a      	str	r2, [r3, #32]
	payload.PWMperc = 50.3;
 8001828:	4b0d      	ldr	r3, [pc, #52]	; (8001860 <main+0xa4>)
 800182a:	4a13      	ldr	r2, [pc, #76]	; (8001878 <main+0xbc>)
 800182c:	625a      	str	r2, [r3, #36]	; 0x24

  /* Infinite loop */
  /* USER CODE BEGIN WHILE */
  while (1)
  {
	  HAL_Delay(1000);
 800182e:	f44f 707a 	mov.w	r0, #1000	; 0x3e8
 8001832:	f000 fd2f 	bl	8002294 <HAL_Delay>
	  if (LoraType == Receiver)
 8001836:	4b09      	ldr	r3, [pc, #36]	; (800185c <main+0xa0>)
 8001838:	781b      	ldrb	r3, [r3, #0]
 800183a:	2b00      	cmp	r3, #0
 800183c:	d102      	bne.n	8001844 <main+0x88>
	  {
		  //check of module has any pending messages
		  receiveString(); //returns char * to char []
 800183e:	f000 f86f 	bl	8001920 <receiveString>
 8001842:	e7f4      	b.n	800182e <main+0x72>
	  }
	  else if (LoraType == Sender)
 8001844:	4b05      	ldr	r3, [pc, #20]	; (800185c <main+0xa0>)
 8001846:	781b      	ldrb	r3, [r3, #0]
 8001848:	2b01      	cmp	r3, #1
 800184a:	d1f0      	bne.n	800182e <main+0x72>
	  {
		  //sendString("123456789101112131415161718192021222324252627282930313233343536373839404142344454647484950");	//take char [] as input
		  payload2string(&payload); //convert the payload struct to a string. both are global
 800184c:	4804      	ldr	r0, [pc, #16]	; (8001860 <main+0xa4>)
 800184e:	f000 f933 	bl	8001ab8 <payload2string>
		  sendString(payloadString); //send the payload over lora
 8001852:	480a      	ldr	r0, [pc, #40]	; (800187c <main+0xc0>)
 8001854:	f000 f8d0 	bl	80019f8 <sendString>
	  HAL_Delay(1000);
 8001858:	e7e9      	b.n	800182e <main+0x72>
 800185a:	bf00      	nop
 800185c:	20000000 	.word	0x20000000
 8001860:	20000314 	.word	0x20000314
 8001864:	42501204 	.word	0x42501204
 8001868:	408d80ce 	.word	0x408d80ce
 800186c:	3ee7ef9e 	.word	0x3ee7ef9e
 8001870:	41480000 	.word	0x41480000
 8001874:	41400000 	.word	0x41400000
 8001878:	42493333 	.word	0x42493333
 800187c:	2000024c 	.word	0x2000024c

08001880 <initLora>:
  }
  /* USER CODE END 3 */

}
void initLora(void)
{
 8001880:	b580      	push	{r7, lr}
 8001882:	b082      	sub	sp, #8
 8001884:	af02      	add	r7, sp, #8
	SX1278_hw.dio0.port = DIO0_GPIO_Port;
 8001886:	4b16      	ldr	r3, [pc, #88]	; (80018e0 <initLora+0x60>)
 8001888:	4a16      	ldr	r2, [pc, #88]	; (80018e4 <initLora+0x64>)
 800188a:	60da      	str	r2, [r3, #12]
	SX1278_hw.dio0.pin = DIO0_Pin;
 800188c:	4b14      	ldr	r3, [pc, #80]	; (80018e0 <initLora+0x60>)
 800188e:	f44f 7200 	mov.w	r2, #512	; 0x200
 8001892:	609a      	str	r2, [r3, #8]
	SX1278_hw.nss.port = NSS_GPIO_Port;
 8001894:	4b12      	ldr	r3, [pc, #72]	; (80018e0 <initLora+0x60>)
 8001896:	4a14      	ldr	r2, [pc, #80]	; (80018e8 <initLora+0x68>)
 8001898:	615a      	str	r2, [r3, #20]
	SX1278_hw.nss.pin = NSS_Pin;
 800189a:	4b11      	ldr	r3, [pc, #68]	; (80018e0 <initLora+0x60>)
 800189c:	2210      	movs	r2, #16
 800189e:	611a      	str	r2, [r3, #16]
	SX1278_hw.reset.port = RESET_LORA_GPIO_Port;
 80018a0:	4b0f      	ldr	r3, [pc, #60]	; (80018e0 <initLora+0x60>)
 80018a2:	4a10      	ldr	r2, [pc, #64]	; (80018e4 <initLora+0x64>)
 80018a4:	605a      	str	r2, [r3, #4]
	SX1278_hw.reset.pin = RESET_LORA_Pin;
 80018a6:	4b0e      	ldr	r3, [pc, #56]	; (80018e0 <initLora+0x60>)
 80018a8:	2210      	movs	r2, #16
 80018aa:	601a      	str	r2, [r3, #0]
	SX1278_hw.spi = &hspi1;
 80018ac:	4b0c      	ldr	r3, [pc, #48]	; (80018e0 <initLora+0x60>)
 80018ae:	4a0f      	ldr	r2, [pc, #60]	; (80018ec <initLora+0x6c>)
 80018b0:	619a      	str	r2, [r3, #24]

	SX1278.hw = &SX1278_hw;
 80018b2:	4b0f      	ldr	r3, [pc, #60]	; (80018f0 <initLora+0x70>)
 80018b4:	4a0a      	ldr	r2, [pc, #40]	; (80018e0 <initLora+0x60>)
 80018b6:	601a      	str	r2, [r3, #0]

	debugCharPrint("Configuring LoRa module\r\n");
 80018b8:	480e      	ldr	r0, [pc, #56]	; (80018f4 <initLora+0x74>)
 80018ba:	f7ff ff39 	bl	8001730 <debugCharPrint>
	SX1278_begin(&SX1278, SX1278_868_5MHZ, SX1278_POWER_17DBM, SX1278_LORA_SF_10, SX1278_LORA_BW_125KHZ,100);
 80018be:	2364      	movs	r3, #100	; 0x64
 80018c0:	9301      	str	r3, [sp, #4]
 80018c2:	2307      	movs	r3, #7
 80018c4:	9300      	str	r3, [sp, #0]
 80018c6:	2304      	movs	r3, #4
 80018c8:	2201      	movs	r2, #1
 80018ca:	2103      	movs	r1, #3
 80018cc:	4808      	ldr	r0, [pc, #32]	; (80018f0 <initLora+0x70>)
 80018ce:	f7ff feb7 	bl	8001640 <SX1278_begin>
	debugCharPrint("Done configuring LoRaModule\r\n");
 80018d2:	4809      	ldr	r0, [pc, #36]	; (80018f8 <initLora+0x78>)
 80018d4:	f7ff ff2c 	bl	8001730 <debugCharPrint>
}
 80018d8:	bf00      	nop
 80018da:	46bd      	mov	sp, r7
 80018dc:	bd80      	pop	{r7, pc}
 80018de:	bf00      	nop
 80018e0:	200004a4 	.word	0x200004a4
 80018e4:	40020800 	.word	0x40020800
 80018e8:	40020000 	.word	0x40020000
 80018ec:	2000033c 	.word	0x2000033c
 80018f0:	20000394 	.word	0x20000394
 80018f4:	08006348 	.word	0x08006348
 80018f8:	08006364 	.word	0x08006364

080018fc <initReceive>:

void initReceive(void)
{
 80018fc:	b580      	push	{r7, lr}
 80018fe:	af00      	add	r7, sp, #0
	ret = SX1278_LoRaEntryRx(&SX1278, 100, 2000);
 8001900:	f44f 62fa 	mov.w	r2, #2000	; 0x7d0
 8001904:	2164      	movs	r1, #100	; 0x64
 8001906:	4804      	ldr	r0, [pc, #16]	; (8001918 <initReceive+0x1c>)
 8001908:	f7ff fd5a 	bl	80013c0 <SX1278_LoRaEntryRx>
 800190c:	4602      	mov	r2, r0
 800190e:	4b03      	ldr	r3, [pc, #12]	; (800191c <initReceive+0x20>)
 8001910:	601a      	str	r2, [r3, #0]
}
 8001912:	bf00      	nop
 8001914:	bd80      	pop	{r7, pc}
 8001916:	bf00      	nop
 8001918:	20000394 	.word	0x20000394
 800191c:	200004a0 	.word	0x200004a0

08001920 <receiveString>:

char* receiveString(void)
{
 8001920:	b580      	push	{r7, lr}
 8001922:	b082      	sub	sp, #8
 8001924:	af00      	add	r7, sp, #0
	HAL_Delay(1000);
 8001926:	f44f 707a 	mov.w	r0, #1000	; 0x3e8
 800192a:	f000 fcb3 	bl	8002294 <HAL_Delay>

	ret = SX1278_LoRaRxPacket(&SX1278);
 800192e:	4829      	ldr	r0, [pc, #164]	; (80019d4 <receiveString+0xb4>)
 8001930:	f7ff fdab 	bl	800148a <SX1278_LoRaRxPacket>
 8001934:	4603      	mov	r3, r0
 8001936:	461a      	mov	r2, r3
 8001938:	4b27      	ldr	r3, [pc, #156]	; (80019d8 <receiveString+0xb8>)
 800193a:	601a      	str	r2, [r3, #0]

	if (ret > 0)
 800193c:	4b26      	ldr	r3, [pc, #152]	; (80019d8 <receiveString+0xb8>)
 800193e:	681b      	ldr	r3, [r3, #0]
 8001940:	2b00      	cmp	r3, #0
 8001942:	dd41      	ble.n	80019c8 <receiveString+0xa8>
	{
		debugCharPrint("Package received ...");
 8001944:	4825      	ldr	r0, [pc, #148]	; (80019dc <receiveString+0xbc>)
 8001946:	f7ff fef3 	bl	8001730 <debugCharPrint>
		debugPrintEnter();
 800194a:	f7ff ff23 	bl	8001794 <debugPrintEnter>
		SX1278_read(&SX1278, (uint8_t*) buffer, ret);
 800194e:	4b22      	ldr	r3, [pc, #136]	; (80019d8 <receiveString+0xb8>)
 8001950:	681b      	ldr	r3, [r3, #0]
 8001952:	b2db      	uxtb	r3, r3
 8001954:	461a      	mov	r2, r3
 8001956:	4922      	ldr	r1, [pc, #136]	; (80019e0 <receiveString+0xc0>)
 8001958:	481e      	ldr	r0, [pc, #120]	; (80019d4 <receiveString+0xb4>)
 800195a:	f7ff fe99 	bl	8001690 <SX1278_read>
		debugCharPrint("Bytes received: ");
 800195e:	4821      	ldr	r0, [pc, #132]	; (80019e4 <receiveString+0xc4>)
 8001960:	f7ff fee6 	bl	8001730 <debugCharPrint>
		debugIntPrint(ret);
 8001964:	4b1c      	ldr	r3, [pc, #112]	; (80019d8 <receiveString+0xb8>)
 8001966:	681b      	ldr	r3, [r3, #0]
 8001968:	4618      	mov	r0, r3
 800196a:	f7ff fef7 	bl	800175c <debugIntPrint>
		debugPrintEnter();
 800196e:	f7ff ff11 	bl	8001794 <debugPrintEnter>
		debugCharPrint("Content            : ");
 8001972:	481d      	ldr	r0, [pc, #116]	; (80019e8 <receiveString+0xc8>)
 8001974:	f7ff fedc 	bl	8001730 <debugCharPrint>

		debugCharPrint(buffer);
 8001978:	4819      	ldr	r0, [pc, #100]	; (80019e0 <receiveString+0xc0>)
 800197a:	f7ff fed9 	bl	8001730 <debugCharPrint>

		HAL_GPIO_TogglePin(LED_D1_GPIO_Port, LED_D1_Pin);
 800197e:	f44f 5180 	mov.w	r1, #4096	; 0x1000
 8001982:	481a      	ldr	r0, [pc, #104]	; (80019ec <receiveString+0xcc>)
 8001984:	f000 ff31 	bl	80027ea <HAL_GPIO_TogglePin>

		//check the CRC
		if (SX1278_SPIRead(&SX1278, LR_RegHopChannel) && 0x20) //if a message with crc is received
 8001988:	211c      	movs	r1, #28
 800198a:	4812      	ldr	r0, [pc, #72]	; (80019d4 <receiveString+0xb4>)
 800198c:	f7ff fb63 	bl	8001056 <SX1278_SPIRead>
 8001990:	4603      	mov	r3, r0
 8001992:	2b00      	cmp	r3, #0
 8001994:	d018      	beq.n	80019c8 <receiveString+0xa8>
		{
			if (SX1278_SPIRead(&SX1278, LR_RegIrqFlags) && 0x20) //if the PayloadCrcError is high
 8001996:	2112      	movs	r1, #18
 8001998:	480e      	ldr	r0, [pc, #56]	; (80019d4 <receiveString+0xb4>)
 800199a:	f7ff fb5c 	bl	8001056 <SX1278_SPIRead>
 800199e:	4603      	mov	r3, r0
 80019a0:	2b00      	cmp	r3, #0
 80019a2:	d008      	beq.n	80019b6 <receiveString+0x96>
			{
				debugCharPrint("  , CRC_ERROR");
 80019a4:	4812      	ldr	r0, [pc, #72]	; (80019f0 <receiveString+0xd0>)
 80019a6:	f7ff fec3 	bl	8001730 <debugCharPrint>
				SX1278_SPIWrite(&SX1278, LR_RegIrqFlags, 0x20); //clear the flag
 80019aa:	2220      	movs	r2, #32
 80019ac:	2112      	movs	r1, #18
 80019ae:	4809      	ldr	r0, [pc, #36]	; (80019d4 <receiveString+0xb4>)
 80019b0:	f7ff fb70 	bl	8001094 <SX1278_SPIWrite>
 80019b4:	e002      	b.n	80019bc <receiveString+0x9c>
			}
			else
			{
				debugCharPrint("  , CRC_GOOD");
 80019b6:	480f      	ldr	r0, [pc, #60]	; (80019f4 <receiveString+0xd4>)
 80019b8:	f7ff feba 	bl	8001730 <debugCharPrint>
			}
			debugPrintEnter();
 80019bc:	f7ff feea 	bl	8001794 <debugPrintEnter>
			char *ptr = buffer;
 80019c0:	4b07      	ldr	r3, [pc, #28]	; (80019e0 <receiveString+0xc0>)
 80019c2:	607b      	str	r3, [r7, #4]
			return ptr;
 80019c4:	687b      	ldr	r3, [r7, #4]
 80019c6:	e000      	b.n	80019ca <receiveString+0xaa>
		}
	}
	return 0;
 80019c8:	2300      	movs	r3, #0
}
 80019ca:	4618      	mov	r0, r3
 80019cc:	3708      	adds	r7, #8
 80019ce:	46bd      	mov	sp, r7
 80019d0:	bd80      	pop	{r7, pc}
 80019d2:	bf00      	nop
 80019d4:	20000394 	.word	0x20000394
 80019d8:	200004a0 	.word	0x200004a0
 80019dc:	08006384 	.word	0x08006384
 80019e0:	200002b0 	.word	0x200002b0
 80019e4:	0800639c 	.word	0x0800639c
 80019e8:	080063b0 	.word	0x080063b0
 80019ec:	40020400 	.word	0x40020400
 80019f0:	080063c8 	.word	0x080063c8
 80019f4:	080063d8 	.word	0x080063d8

080019f8 <sendString>:
void sendString(char message[])
{
 80019f8:	b580      	push	{r7, lr}
 80019fa:	b082      	sub	sp, #8
 80019fc:	af00      	add	r7, sp, #0
 80019fe:	6078      	str	r0, [r7, #4]
			debugCharPrint("Master ...");
 8001a00:	4822      	ldr	r0, [pc, #136]	; (8001a8c <sendString+0x94>)
 8001a02:	f7ff fe95 	bl	8001730 <debugCharPrint>
			HAL_Delay(2500);
 8001a06:	f640 10c4 	movw	r0, #2500	; 0x9c4
 8001a0a:	f000 fc43 	bl	8002294 <HAL_Delay>
			debugCharPrint("Sending package...");
 8001a0e:	4820      	ldr	r0, [pc, #128]	; (8001a90 <sendString+0x98>)
 8001a10:	f7ff fe8e 	bl	8001730 <debugCharPrint>

			message_length = sprintf(buffer, message);
 8001a14:	6879      	ldr	r1, [r7, #4]
 8001a16:	481f      	ldr	r0, [pc, #124]	; (8001a94 <sendString+0x9c>)
 8001a18:	f003 f864 	bl	8004ae4 <siprintf>
 8001a1c:	4602      	mov	r2, r0
 8001a1e:	4b1e      	ldr	r3, [pc, #120]	; (8001a98 <sendString+0xa0>)
 8001a20:	601a      	str	r2, [r3, #0]
			ret = SX1278_LoRaEntryTx(&SX1278, message_length, timeOut);
 8001a22:	4b1d      	ldr	r3, [pc, #116]	; (8001a98 <sendString+0xa0>)
 8001a24:	681b      	ldr	r3, [r3, #0]
 8001a26:	b2db      	uxtb	r3, r3
 8001a28:	f44f 62fa 	mov.w	r2, #2000	; 0x7d0
 8001a2c:	4619      	mov	r1, r3
 8001a2e:	481b      	ldr	r0, [pc, #108]	; (8001a9c <sendString+0xa4>)
 8001a30:	f7ff fd6f 	bl	8001512 <SX1278_LoRaEntryTx>
 8001a34:	4602      	mov	r2, r0
 8001a36:	4b1a      	ldr	r3, [pc, #104]	; (8001aa0 <sendString+0xa8>)
 8001a38:	601a      	str	r2, [r3, #0]
			debugCharPrint("Entry: ");
 8001a3a:	481a      	ldr	r0, [pc, #104]	; (8001aa4 <sendString+0xac>)
 8001a3c:	f7ff fe78 	bl	8001730 <debugCharPrint>
			debugCharPrint("Sending ");
 8001a40:	4819      	ldr	r0, [pc, #100]	; (8001aa8 <sendString+0xb0>)
 8001a42:	f7ff fe75 	bl	8001730 <debugCharPrint>
			debugCharPrint(buffer);
 8001a46:	4813      	ldr	r0, [pc, #76]	; (8001a94 <sendString+0x9c>)
 8001a48:	f7ff fe72 	bl	8001730 <debugCharPrint>

			ret = SX1278_LoRaTxPacket(&SX1278, (uint8_t *) buffer, message_length, timeOut);
 8001a4c:	4b12      	ldr	r3, [pc, #72]	; (8001a98 <sendString+0xa0>)
 8001a4e:	681b      	ldr	r3, [r3, #0]
 8001a50:	b2da      	uxtb	r2, r3
 8001a52:	f44f 63fa 	mov.w	r3, #2000	; 0x7d0
 8001a56:	490f      	ldr	r1, [pc, #60]	; (8001a94 <sendString+0x9c>)
 8001a58:	4810      	ldr	r0, [pc, #64]	; (8001a9c <sendString+0xa4>)
 8001a5a:	f7ff fdb2 	bl	80015c2 <SX1278_LoRaTxPacket>
 8001a5e:	4602      	mov	r2, r0
 8001a60:	4b0f      	ldr	r3, [pc, #60]	; (8001aa0 <sendString+0xa8>)
 8001a62:	601a      	str	r2, [r3, #0]


			if (ret)
 8001a64:	4b0e      	ldr	r3, [pc, #56]	; (8001aa0 <sendString+0xa8>)
 8001a66:	681b      	ldr	r3, [r3, #0]
 8001a68:	2b00      	cmp	r3, #0
 8001a6a:	d008      	beq.n	8001a7e <sendString+0x86>
			{
				debugCharPrint("Transmission successful...");
 8001a6c:	480f      	ldr	r0, [pc, #60]	; (8001aac <sendString+0xb4>)
 8001a6e:	f7ff fe5f 	bl	8001730 <debugCharPrint>
				HAL_GPIO_TogglePin(LED_D1_GPIO_Port, LED_D1_Pin);
 8001a72:	f44f 5180 	mov.w	r1, #4096	; 0x1000
 8001a76:	480e      	ldr	r0, [pc, #56]	; (8001ab0 <sendString+0xb8>)
 8001a78:	f000 feb7 	bl	80027ea <HAL_GPIO_TogglePin>
			else
			{
				debugCharPrint("Transmission failed...");

			}
}
 8001a7c:	e002      	b.n	8001a84 <sendString+0x8c>
				debugCharPrint("Transmission failed...");
 8001a7e:	480d      	ldr	r0, [pc, #52]	; (8001ab4 <sendString+0xbc>)
 8001a80:	f7ff fe56 	bl	8001730 <debugCharPrint>
}
 8001a84:	bf00      	nop
 8001a86:	3708      	adds	r7, #8
 8001a88:	46bd      	mov	sp, r7
 8001a8a:	bd80      	pop	{r7, pc}
 8001a8c:	080063e8 	.word	0x080063e8
 8001a90:	080063f4 	.word	0x080063f4
 8001a94:	200002b0 	.word	0x200002b0
 8001a98:	20000248 	.word	0x20000248
 8001a9c:	20000394 	.word	0x20000394
 8001aa0:	200004a0 	.word	0x200004a0
 8001aa4:	08006408 	.word	0x08006408
 8001aa8:	08006410 	.word	0x08006410
 8001aac:	0800641c 	.word	0x0800641c
 8001ab0:	40020400 	.word	0x40020400
 8001ab4:	08006438 	.word	0x08006438

08001ab8 <payload2string>:

void payload2string(payloadTag *payload)
{
 8001ab8:	b590      	push	{r4, r7, lr}
 8001aba:	b089      	sub	sp, #36	; 0x24
 8001abc:	af00      	add	r7, sp, #0
 8001abe:	6078      	str	r0, [r7, #4]
	char tmpstr[20];
	memset(&payloadString[0], 0, sizeof(payloadString));
 8001ac0:	2264      	movs	r2, #100	; 0x64
 8001ac2:	2100      	movs	r1, #0
 8001ac4:	4879      	ldr	r0, [pc, #484]	; (8001cac <payload2string+0x1f4>)
 8001ac6:	f002 fba8 	bl	800421a <memset>

	sprintf(tmpstr, "%d ", payload->distance);
 8001aca:	687b      	ldr	r3, [r7, #4]
 8001acc:	881b      	ldrh	r3, [r3, #0]
 8001ace:	461a      	mov	r2, r3
 8001ad0:	f107 030c 	add.w	r3, r7, #12
 8001ad4:	4976      	ldr	r1, [pc, #472]	; (8001cb0 <payload2string+0x1f8>)
 8001ad6:	4618      	mov	r0, r3
 8001ad8:	f003 f804 	bl	8004ae4 <siprintf>
	strcat(payloadString, tmpstr);
 8001adc:	f107 030c 	add.w	r3, r7, #12
 8001ae0:	4619      	mov	r1, r3
 8001ae2:	4872      	ldr	r0, [pc, #456]	; (8001cac <payload2string+0x1f4>)
 8001ae4:	f003 f81e 	bl	8004b24 <strcat>
	sprintf(tmpstr, "%d ", payload->bearing);
 8001ae8:	687b      	ldr	r3, [r7, #4]
 8001aea:	789b      	ldrb	r3, [r3, #2]
 8001aec:	461a      	mov	r2, r3
 8001aee:	f107 030c 	add.w	r3, r7, #12
 8001af2:	496f      	ldr	r1, [pc, #444]	; (8001cb0 <payload2string+0x1f8>)
 8001af4:	4618      	mov	r0, r3
 8001af6:	f002 fff5 	bl	8004ae4 <siprintf>
	strcat(payloadString, tmpstr);
 8001afa:	f107 030c 	add.w	r3, r7, #12
 8001afe:	4619      	mov	r1, r3
 8001b00:	486a      	ldr	r0, [pc, #424]	; (8001cac <payload2string+0x1f4>)
 8001b02:	f003 f80f 	bl	8004b24 <strcat>
	sprintf(tmpstr, "%d ", payload->cog);
 8001b06:	687b      	ldr	r3, [r7, #4]
 8001b08:	78db      	ldrb	r3, [r3, #3]
 8001b0a:	461a      	mov	r2, r3
 8001b0c:	f107 030c 	add.w	r3, r7, #12
 8001b10:	4967      	ldr	r1, [pc, #412]	; (8001cb0 <payload2string+0x1f8>)
 8001b12:	4618      	mov	r0, r3
 8001b14:	f002 ffe6 	bl	8004ae4 <siprintf>
	strcat(payloadString, tmpstr);
 8001b18:	f107 030c 	add.w	r3, r7, #12
 8001b1c:	4619      	mov	r1, r3
 8001b1e:	4863      	ldr	r0, [pc, #396]	; (8001cac <payload2string+0x1f4>)
 8001b20:	f003 f800 	bl	8004b24 <strcat>

	sprintf(tmpstr, "%.09f ", payload->lat);
 8001b24:	687b      	ldr	r3, [r7, #4]
 8001b26:	685b      	ldr	r3, [r3, #4]
 8001b28:	4618      	mov	r0, r3
 8001b2a:	f7fe fd2d 	bl	8000588 <__aeabi_f2d>
 8001b2e:	4603      	mov	r3, r0
 8001b30:	460c      	mov	r4, r1
 8001b32:	f107 000c 	add.w	r0, r7, #12
 8001b36:	461a      	mov	r2, r3
 8001b38:	4623      	mov	r3, r4
 8001b3a:	495e      	ldr	r1, [pc, #376]	; (8001cb4 <payload2string+0x1fc>)
 8001b3c:	f002 ffd2 	bl	8004ae4 <siprintf>
	strcat(payloadString, tmpstr);
 8001b40:	f107 030c 	add.w	r3, r7, #12
 8001b44:	4619      	mov	r1, r3
 8001b46:	4859      	ldr	r0, [pc, #356]	; (8001cac <payload2string+0x1f4>)
 8001b48:	f002 ffec 	bl	8004b24 <strcat>
	sprintf(tmpstr, "%.09f ", payload->lon);
 8001b4c:	687b      	ldr	r3, [r7, #4]
 8001b4e:	689b      	ldr	r3, [r3, #8]
 8001b50:	4618      	mov	r0, r3
 8001b52:	f7fe fd19 	bl	8000588 <__aeabi_f2d>
 8001b56:	4603      	mov	r3, r0
 8001b58:	460c      	mov	r4, r1
 8001b5a:	f107 000c 	add.w	r0, r7, #12
 8001b5e:	461a      	mov	r2, r3
 8001b60:	4623      	mov	r3, r4
 8001b62:	4954      	ldr	r1, [pc, #336]	; (8001cb4 <payload2string+0x1fc>)
 8001b64:	f002 ffbe 	bl	8004ae4 <siprintf>
	strcat(payloadString, tmpstr);
 8001b68:	f107 030c 	add.w	r3, r7, #12
 8001b6c:	4619      	mov	r1, r3
 8001b6e:	484f      	ldr	r0, [pc, #316]	; (8001cac <payload2string+0x1f4>)
 8001b70:	f002 ffd8 	bl	8004b24 <strcat>

	sprintf(tmpstr, "%.03f ", payload->PTerm);
 8001b74:	687b      	ldr	r3, [r7, #4]
 8001b76:	68db      	ldr	r3, [r3, #12]
 8001b78:	4618      	mov	r0, r3
 8001b7a:	f7fe fd05 	bl	8000588 <__aeabi_f2d>
 8001b7e:	4603      	mov	r3, r0
 8001b80:	460c      	mov	r4, r1
 8001b82:	f107 000c 	add.w	r0, r7, #12
 8001b86:	461a      	mov	r2, r3
 8001b88:	4623      	mov	r3, r4
 8001b8a:	494b      	ldr	r1, [pc, #300]	; (8001cb8 <payload2string+0x200>)
 8001b8c:	f002 ffaa 	bl	8004ae4 <siprintf>
	strcat(payloadString, tmpstr);
 8001b90:	f107 030c 	add.w	r3, r7, #12
 8001b94:	4619      	mov	r1, r3
 8001b96:	4845      	ldr	r0, [pc, #276]	; (8001cac <payload2string+0x1f4>)
 8001b98:	f002 ffc4 	bl	8004b24 <strcat>
	sprintf(tmpstr, "%.03f ", payload->ITerm);
 8001b9c:	687b      	ldr	r3, [r7, #4]
 8001b9e:	691b      	ldr	r3, [r3, #16]
 8001ba0:	4618      	mov	r0, r3
 8001ba2:	f7fe fcf1 	bl	8000588 <__aeabi_f2d>
 8001ba6:	4603      	mov	r3, r0
 8001ba8:	460c      	mov	r4, r1
 8001baa:	f107 000c 	add.w	r0, r7, #12
 8001bae:	461a      	mov	r2, r3
 8001bb0:	4623      	mov	r3, r4
 8001bb2:	4941      	ldr	r1, [pc, #260]	; (8001cb8 <payload2string+0x200>)
 8001bb4:	f002 ff96 	bl	8004ae4 <siprintf>
	strcat(payloadString, tmpstr);
 8001bb8:	f107 030c 	add.w	r3, r7, #12
 8001bbc:	4619      	mov	r1, r3
 8001bbe:	483b      	ldr	r0, [pc, #236]	; (8001cac <payload2string+0x1f4>)
 8001bc0:	f002 ffb0 	bl	8004b24 <strcat>
	sprintf(tmpstr, "%.03f ", payload->DTerm);
 8001bc4:	687b      	ldr	r3, [r7, #4]
 8001bc6:	695b      	ldr	r3, [r3, #20]
 8001bc8:	4618      	mov	r0, r3
 8001bca:	f7fe fcdd 	bl	8000588 <__aeabi_f2d>
 8001bce:	4603      	mov	r3, r0
 8001bd0:	460c      	mov	r4, r1
 8001bd2:	f107 000c 	add.w	r0, r7, #12
 8001bd6:	461a      	mov	r2, r3
 8001bd8:	4623      	mov	r3, r4
 8001bda:	4937      	ldr	r1, [pc, #220]	; (8001cb8 <payload2string+0x200>)
 8001bdc:	f002 ff82 	bl	8004ae4 <siprintf>
	strcat(payloadString, tmpstr);
 8001be0:	f107 030c 	add.w	r3, r7, #12
 8001be4:	4619      	mov	r1, r3
 8001be6:	4831      	ldr	r0, [pc, #196]	; (8001cac <payload2string+0x1f4>)
 8001be8:	f002 ff9c 	bl	8004b24 <strcat>
	sprintf(tmpstr, "%.03f ", payload->newError);
 8001bec:	687b      	ldr	r3, [r7, #4]
 8001bee:	699b      	ldr	r3, [r3, #24]
 8001bf0:	4618      	mov	r0, r3
 8001bf2:	f7fe fcc9 	bl	8000588 <__aeabi_f2d>
 8001bf6:	4603      	mov	r3, r0
 8001bf8:	460c      	mov	r4, r1
 8001bfa:	f107 000c 	add.w	r0, r7, #12
 8001bfe:	461a      	mov	r2, r3
 8001c00:	4623      	mov	r3, r4
 8001c02:	492d      	ldr	r1, [pc, #180]	; (8001cb8 <payload2string+0x200>)
 8001c04:	f002 ff6e 	bl	8004ae4 <siprintf>
	strcat(payloadString, tmpstr);
 8001c08:	f107 030c 	add.w	r3, r7, #12
 8001c0c:	4619      	mov	r1, r3
 8001c0e:	4827      	ldr	r0, [pc, #156]	; (8001cac <payload2string+0x1f4>)
 8001c10:	f002 ff88 	bl	8004b24 <strcat>
	sprintf(tmpstr, "%.03f ", payload->newTime);
 8001c14:	687b      	ldr	r3, [r7, #4]
 8001c16:	69db      	ldr	r3, [r3, #28]
 8001c18:	4618      	mov	r0, r3
 8001c1a:	f7fe fcb5 	bl	8000588 <__aeabi_f2d>
 8001c1e:	4603      	mov	r3, r0
 8001c20:	460c      	mov	r4, r1
 8001c22:	f107 000c 	add.w	r0, r7, #12
 8001c26:	461a      	mov	r2, r3
 8001c28:	4623      	mov	r3, r4
 8001c2a:	4923      	ldr	r1, [pc, #140]	; (8001cb8 <payload2string+0x200>)
 8001c2c:	f002 ff5a 	bl	8004ae4 <siprintf>
	strcat(payloadString, tmpstr);
 8001c30:	f107 030c 	add.w	r3, r7, #12
 8001c34:	4619      	mov	r1, r3
 8001c36:	481d      	ldr	r0, [pc, #116]	; (8001cac <payload2string+0x1f4>)
 8001c38:	f002 ff74 	bl	8004b24 <strcat>
	sprintf(tmpstr, "%.03f ", payload->PIDperc);
 8001c3c:	687b      	ldr	r3, [r7, #4]
 8001c3e:	6a1b      	ldr	r3, [r3, #32]
 8001c40:	4618      	mov	r0, r3
 8001c42:	f7fe fca1 	bl	8000588 <__aeabi_f2d>
 8001c46:	4603      	mov	r3, r0
 8001c48:	460c      	mov	r4, r1
 8001c4a:	f107 000c 	add.w	r0, r7, #12
 8001c4e:	461a      	mov	r2, r3
 8001c50:	4623      	mov	r3, r4
 8001c52:	4919      	ldr	r1, [pc, #100]	; (8001cb8 <payload2string+0x200>)
 8001c54:	f002 ff46 	bl	8004ae4 <siprintf>
	strcat(payloadString, tmpstr);
 8001c58:	f107 030c 	add.w	r3, r7, #12
 8001c5c:	4619      	mov	r1, r3
 8001c5e:	4813      	ldr	r0, [pc, #76]	; (8001cac <payload2string+0x1f4>)
 8001c60:	f002 ff60 	bl	8004b24 <strcat>
	sprintf(tmpstr, "%.03f ", payload->PWMperc);
 8001c64:	687b      	ldr	r3, [r7, #4]
 8001c66:	6a5b      	ldr	r3, [r3, #36]	; 0x24
 8001c68:	4618      	mov	r0, r3
 8001c6a:	f7fe fc8d 	bl	8000588 <__aeabi_f2d>
 8001c6e:	4603      	mov	r3, r0
 8001c70:	460c      	mov	r4, r1
 8001c72:	f107 000c 	add.w	r0, r7, #12
 8001c76:	461a      	mov	r2, r3
 8001c78:	4623      	mov	r3, r4
 8001c7a:	490f      	ldr	r1, [pc, #60]	; (8001cb8 <payload2string+0x200>)
 8001c7c:	f002 ff32 	bl	8004ae4 <siprintf>
	strcat(payloadString, tmpstr);
 8001c80:	f107 030c 	add.w	r3, r7, #12
 8001c84:	4619      	mov	r1, r3
 8001c86:	4809      	ldr	r0, [pc, #36]	; (8001cac <payload2string+0x1f4>)
 8001c88:	f002 ff4c 	bl	8004b24 <strcat>
	strcat(payloadString, "X");
 8001c8c:	4807      	ldr	r0, [pc, #28]	; (8001cac <payload2string+0x1f4>)
 8001c8e:	f7fe fabf 	bl	8000210 <strlen>
 8001c92:	4603      	mov	r3, r0
 8001c94:	461a      	mov	r2, r3
 8001c96:	4b05      	ldr	r3, [pc, #20]	; (8001cac <payload2string+0x1f4>)
 8001c98:	4413      	add	r3, r2
 8001c9a:	4908      	ldr	r1, [pc, #32]	; (8001cbc <payload2string+0x204>)
 8001c9c:	461a      	mov	r2, r3
 8001c9e:	460b      	mov	r3, r1
 8001ca0:	881b      	ldrh	r3, [r3, #0]
 8001ca2:	8013      	strh	r3, [r2, #0]

}
 8001ca4:	bf00      	nop
 8001ca6:	3724      	adds	r7, #36	; 0x24
 8001ca8:	46bd      	mov	sp, r7
 8001caa:	bd90      	pop	{r4, r7, pc}
 8001cac:	2000024c 	.word	0x2000024c
 8001cb0:	08006450 	.word	0x08006450
 8001cb4:	08006454 	.word	0x08006454
 8001cb8:	0800645c 	.word	0x0800645c
 8001cbc:	08006464 	.word	0x08006464

08001cc0 <SystemClock_Config>:
/**
  * @brief System Clock Configuration
  * @retval None
  */
void SystemClock_Config(void)
{
 8001cc0:	b580      	push	{r7, lr}
 8001cc2:	b094      	sub	sp, #80	; 0x50
 8001cc4:	af00      	add	r7, sp, #0
  RCC_OscInitTypeDef RCC_OscInitStruct = {0};
 8001cc6:	f107 031c 	add.w	r3, r7, #28
 8001cca:	2234      	movs	r2, #52	; 0x34
 8001ccc:	2100      	movs	r1, #0
 8001cce:	4618      	mov	r0, r3
 8001cd0:	f002 faa3 	bl	800421a <memset>
  RCC_ClkInitTypeDef RCC_ClkInitStruct = {0};
 8001cd4:	f107 0308 	add.w	r3, r7, #8
 8001cd8:	2200      	movs	r2, #0
 8001cda:	601a      	str	r2, [r3, #0]
 8001cdc:	605a      	str	r2, [r3, #4]
 8001cde:	609a      	str	r2, [r3, #8]
 8001ce0:	60da      	str	r2, [r3, #12]
 8001ce2:	611a      	str	r2, [r3, #16]

  /** Configure the main internal regulator output voltage 
  */
  __HAL_RCC_PWR_CLK_ENABLE();
 8001ce4:	2300      	movs	r3, #0
 8001ce6:	607b      	str	r3, [r7, #4]
 8001ce8:	4b22      	ldr	r3, [pc, #136]	; (8001d74 <SystemClock_Config+0xb4>)
 8001cea:	6c1b      	ldr	r3, [r3, #64]	; 0x40
 8001cec:	4a21      	ldr	r2, [pc, #132]	; (8001d74 <SystemClock_Config+0xb4>)
 8001cee:	f043 5380 	orr.w	r3, r3, #268435456	; 0x10000000
 8001cf2:	6413      	str	r3, [r2, #64]	; 0x40
 8001cf4:	4b1f      	ldr	r3, [pc, #124]	; (8001d74 <SystemClock_Config+0xb4>)
 8001cf6:	6c1b      	ldr	r3, [r3, #64]	; 0x40
 8001cf8:	f003 5380 	and.w	r3, r3, #268435456	; 0x10000000
 8001cfc:	607b      	str	r3, [r7, #4]
 8001cfe:	687b      	ldr	r3, [r7, #4]
  __HAL_PWR_VOLTAGESCALING_CONFIG(PWR_REGULATOR_VOLTAGE_SCALE1);
 8001d00:	2300      	movs	r3, #0
 8001d02:	603b      	str	r3, [r7, #0]
 8001d04:	4b1c      	ldr	r3, [pc, #112]	; (8001d78 <SystemClock_Config+0xb8>)
 8001d06:	681b      	ldr	r3, [r3, #0]
 8001d08:	4a1b      	ldr	r2, [pc, #108]	; (8001d78 <SystemClock_Config+0xb8>)
 8001d0a:	f443 4340 	orr.w	r3, r3, #49152	; 0xc000
 8001d0e:	6013      	str	r3, [r2, #0]
 8001d10:	4b19      	ldr	r3, [pc, #100]	; (8001d78 <SystemClock_Config+0xb8>)
 8001d12:	681b      	ldr	r3, [r3, #0]
 8001d14:	f403 4340 	and.w	r3, r3, #49152	; 0xc000
 8001d18:	603b      	str	r3, [r7, #0]
 8001d1a:	683b      	ldr	r3, [r7, #0]
  /** Initializes the CPU, AHB and APB busses clocks 
  */
  RCC_OscInitStruct.OscillatorType = RCC_OSCILLATORTYPE_HSI;
 8001d1c:	2302      	movs	r3, #2
 8001d1e:	61fb      	str	r3, [r7, #28]
  RCC_OscInitStruct.HSIState = RCC_HSI_ON;
 8001d20:	2301      	movs	r3, #1
 8001d22:	62bb      	str	r3, [r7, #40]	; 0x28
  RCC_OscInitStruct.HSICalibrationValue = RCC_HSICALIBRATION_DEFAULT;
 8001d24:	2310      	movs	r3, #16
 8001d26:	62fb      	str	r3, [r7, #44]	; 0x2c
  RCC_OscInitStruct.PLL.PLLState = RCC_PLL_NONE;
 8001d28:	2300      	movs	r3, #0
 8001d2a:	637b      	str	r3, [r7, #52]	; 0x34
  if (HAL_RCC_OscConfig(&RCC_OscInitStruct) != HAL_OK)
 8001d2c:	f107 031c 	add.w	r3, r7, #28
 8001d30:	4618      	mov	r0, r3
 8001d32:	f000 ff41 	bl	8002bb8 <HAL_RCC_OscConfig>
 8001d36:	4603      	mov	r3, r0
 8001d38:	2b00      	cmp	r3, #0
 8001d3a:	d001      	beq.n	8001d40 <SystemClock_Config+0x80>
  {
    Error_Handler();
 8001d3c:	f000 f8de 	bl	8001efc <Error_Handler>
  }
  /** Initializes the CPU, AHB and APB busses clocks 
  */
  RCC_ClkInitStruct.ClockType = RCC_CLOCKTYPE_HCLK|RCC_CLOCKTYPE_SYSCLK
 8001d40:	230f      	movs	r3, #15
 8001d42:	60bb      	str	r3, [r7, #8]
                              |RCC_CLOCKTYPE_PCLK1|RCC_CLOCKTYPE_PCLK2;
  RCC_ClkInitStruct.SYSCLKSource = RCC_SYSCLKSOURCE_HSI;
 8001d44:	2300      	movs	r3, #0
 8001d46:	60fb      	str	r3, [r7, #12]
  RCC_ClkInitStruct.AHBCLKDivider = RCC_SYSCLK_DIV1;
 8001d48:	2300      	movs	r3, #0
 8001d4a:	613b      	str	r3, [r7, #16]
  RCC_ClkInitStruct.APB1CLKDivider = RCC_HCLK_DIV1;
 8001d4c:	2300      	movs	r3, #0
 8001d4e:	617b      	str	r3, [r7, #20]
  RCC_ClkInitStruct.APB2CLKDivider = RCC_HCLK_DIV1;
 8001d50:	2300      	movs	r3, #0
 8001d52:	61bb      	str	r3, [r7, #24]

  if (HAL_RCC_ClockConfig(&RCC_ClkInitStruct, FLASH_LATENCY_0) != HAL_OK)
 8001d54:	f107 0308 	add.w	r3, r7, #8
 8001d58:	2100      	movs	r1, #0
 8001d5a:	4618      	mov	r0, r3
 8001d5c:	f000 fd60 	bl	8002820 <HAL_RCC_ClockConfig>
 8001d60:	4603      	mov	r3, r0
 8001d62:	2b00      	cmp	r3, #0
 8001d64:	d001      	beq.n	8001d6a <SystemClock_Config+0xaa>
  {
    Error_Handler();
 8001d66:	f000 f8c9 	bl	8001efc <Error_Handler>
  }
}
 8001d6a:	bf00      	nop
 8001d6c:	3750      	adds	r7, #80	; 0x50
 8001d6e:	46bd      	mov	sp, r7
 8001d70:	bd80      	pop	{r7, pc}
 8001d72:	bf00      	nop
 8001d74:	40023800 	.word	0x40023800
 8001d78:	40007000 	.word	0x40007000

08001d7c <MX_SPI1_Init>:
  * @brief SPI1 Initialization Function
  * @param None
  * @retval None
  */
 void MX_SPI1_Init(void)
{
 8001d7c:	b580      	push	{r7, lr}
 8001d7e:	af00      	add	r7, sp, #0

  /* USER CODE BEGIN SPI1_Init 1 */

  /* USER CODE END SPI1_Init 1 */
  /* SPI1 parameter configuration*/
  hspi1.Instance = SPI1;
 8001d80:	4b17      	ldr	r3, [pc, #92]	; (8001de0 <MX_SPI1_Init+0x64>)
 8001d82:	4a18      	ldr	r2, [pc, #96]	; (8001de4 <MX_SPI1_Init+0x68>)
 8001d84:	601a      	str	r2, [r3, #0]
  hspi1.Init.Mode = SPI_MODE_MASTER;
 8001d86:	4b16      	ldr	r3, [pc, #88]	; (8001de0 <MX_SPI1_Init+0x64>)
 8001d88:	f44f 7282 	mov.w	r2, #260	; 0x104
 8001d8c:	605a      	str	r2, [r3, #4]
  hspi1.Init.Direction = SPI_DIRECTION_2LINES;
 8001d8e:	4b14      	ldr	r3, [pc, #80]	; (8001de0 <MX_SPI1_Init+0x64>)
 8001d90:	2200      	movs	r2, #0
 8001d92:	609a      	str	r2, [r3, #8]
  hspi1.Init.DataSize = SPI_DATASIZE_8BIT;
 8001d94:	4b12      	ldr	r3, [pc, #72]	; (8001de0 <MX_SPI1_Init+0x64>)
 8001d96:	2200      	movs	r2, #0
 8001d98:	60da      	str	r2, [r3, #12]
  hspi1.Init.CLKPolarity = SPI_POLARITY_LOW;
 8001d9a:	4b11      	ldr	r3, [pc, #68]	; (8001de0 <MX_SPI1_Init+0x64>)
 8001d9c:	2200      	movs	r2, #0
 8001d9e:	611a      	str	r2, [r3, #16]
  hspi1.Init.CLKPhase = SPI_PHASE_1EDGE;
 8001da0:	4b0f      	ldr	r3, [pc, #60]	; (8001de0 <MX_SPI1_Init+0x64>)
 8001da2:	2200      	movs	r2, #0
 8001da4:	615a      	str	r2, [r3, #20]
  hspi1.Init.NSS = SPI_NSS_SOFT;
 8001da6:	4b0e      	ldr	r3, [pc, #56]	; (8001de0 <MX_SPI1_Init+0x64>)
 8001da8:	f44f 7200 	mov.w	r2, #512	; 0x200
 8001dac:	619a      	str	r2, [r3, #24]
  hspi1.Init.BaudRatePrescaler = SPI_BAUDRATEPRESCALER_4;
 8001dae:	4b0c      	ldr	r3, [pc, #48]	; (8001de0 <MX_SPI1_Init+0x64>)
 8001db0:	2208      	movs	r2, #8
 8001db2:	61da      	str	r2, [r3, #28]
  hspi1.Init.FirstBit = SPI_FIRSTBIT_MSB;
 8001db4:	4b0a      	ldr	r3, [pc, #40]	; (8001de0 <MX_SPI1_Init+0x64>)
 8001db6:	2200      	movs	r2, #0
 8001db8:	621a      	str	r2, [r3, #32]
  hspi1.Init.TIMode = SPI_TIMODE_DISABLE;
 8001dba:	4b09      	ldr	r3, [pc, #36]	; (8001de0 <MX_SPI1_Init+0x64>)
 8001dbc:	2200      	movs	r2, #0
 8001dbe:	625a      	str	r2, [r3, #36]	; 0x24
  hspi1.Init.CRCCalculation = SPI_CRCCALCULATION_DISABLE;
 8001dc0:	4b07      	ldr	r3, [pc, #28]	; (8001de0 <MX_SPI1_Init+0x64>)
 8001dc2:	2200      	movs	r2, #0
 8001dc4:	629a      	str	r2, [r3, #40]	; 0x28
  hspi1.Init.CRCPolynomial = 15;
 8001dc6:	4b06      	ldr	r3, [pc, #24]	; (8001de0 <MX_SPI1_Init+0x64>)
 8001dc8:	220f      	movs	r2, #15
 8001dca:	62da      	str	r2, [r3, #44]	; 0x2c
  if (HAL_SPI_Init(&hspi1) != HAL_OK)
 8001dcc:	4804      	ldr	r0, [pc, #16]	; (8001de0 <MX_SPI1_Init+0x64>)
 8001dce:	f001 f935 	bl	800303c <HAL_SPI_Init>
 8001dd2:	4603      	mov	r3, r0
 8001dd4:	2b00      	cmp	r3, #0
 8001dd6:	d001      	beq.n	8001ddc <MX_SPI1_Init+0x60>
  {
    Error_Handler();
 8001dd8:	f000 f890 	bl	8001efc <Error_Handler>
  }
  /* USER CODE BEGIN SPI1_Init 2 */

  /* USER CODE END SPI1_Init 2 */

}
 8001ddc:	bf00      	nop
 8001dde:	bd80      	pop	{r7, pc}
 8001de0:	2000033c 	.word	0x2000033c
 8001de4:	40013000 	.word	0x40013000

08001de8 <MX_GPIO_Init>:
  * @brief GPIO Initialization Function
  * @param None
  * @retval None
  */
 void MX_GPIO_Init(void)
 {
 8001de8:	b580      	push	{r7, lr}
 8001dea:	b088      	sub	sp, #32
 8001dec:	af00      	add	r7, sp, #0
   GPIO_InitTypeDef GPIO_InitStruct = {0};
 8001dee:	f107 030c 	add.w	r3, r7, #12
 8001df2:	2200      	movs	r2, #0
 8001df4:	601a      	str	r2, [r3, #0]
 8001df6:	605a      	str	r2, [r3, #4]
 8001df8:	609a      	str	r2, [r3, #8]
 8001dfa:	60da      	str	r2, [r3, #12]
 8001dfc:	611a      	str	r2, [r3, #16]

   /* GPIO Ports Clock Enable */
   __HAL_RCC_GPIOA_CLK_ENABLE();
 8001dfe:	2300      	movs	r3, #0
 8001e00:	60bb      	str	r3, [r7, #8]
 8001e02:	4b3a      	ldr	r3, [pc, #232]	; (8001eec <MX_GPIO_Init+0x104>)
 8001e04:	6b1b      	ldr	r3, [r3, #48]	; 0x30
 8001e06:	4a39      	ldr	r2, [pc, #228]	; (8001eec <MX_GPIO_Init+0x104>)
 8001e08:	f043 0301 	orr.w	r3, r3, #1
 8001e0c:	6313      	str	r3, [r2, #48]	; 0x30
 8001e0e:	4b37      	ldr	r3, [pc, #220]	; (8001eec <MX_GPIO_Init+0x104>)
 8001e10:	6b1b      	ldr	r3, [r3, #48]	; 0x30
 8001e12:	f003 0301 	and.w	r3, r3, #1
 8001e16:	60bb      	str	r3, [r7, #8]
 8001e18:	68bb      	ldr	r3, [r7, #8]
   __HAL_RCC_GPIOC_CLK_ENABLE();
 8001e1a:	2300      	movs	r3, #0
 8001e1c:	607b      	str	r3, [r7, #4]
 8001e1e:	4b33      	ldr	r3, [pc, #204]	; (8001eec <MX_GPIO_Init+0x104>)
 8001e20:	6b1b      	ldr	r3, [r3, #48]	; 0x30
 8001e22:	4a32      	ldr	r2, [pc, #200]	; (8001eec <MX_GPIO_Init+0x104>)
 8001e24:	f043 0304 	orr.w	r3, r3, #4
 8001e28:	6313      	str	r3, [r2, #48]	; 0x30
 8001e2a:	4b30      	ldr	r3, [pc, #192]	; (8001eec <MX_GPIO_Init+0x104>)
 8001e2c:	6b1b      	ldr	r3, [r3, #48]	; 0x30
 8001e2e:	f003 0304 	and.w	r3, r3, #4
 8001e32:	607b      	str	r3, [r7, #4]
 8001e34:	687b      	ldr	r3, [r7, #4]
   __HAL_RCC_GPIOB_CLK_ENABLE();
 8001e36:	2300      	movs	r3, #0
 8001e38:	603b      	str	r3, [r7, #0]
 8001e3a:	4b2c      	ldr	r3, [pc, #176]	; (8001eec <MX_GPIO_Init+0x104>)
 8001e3c:	6b1b      	ldr	r3, [r3, #48]	; 0x30
 8001e3e:	4a2b      	ldr	r2, [pc, #172]	; (8001eec <MX_GPIO_Init+0x104>)
 8001e40:	f043 0302 	orr.w	r3, r3, #2
 8001e44:	6313      	str	r3, [r2, #48]	; 0x30
 8001e46:	4b29      	ldr	r3, [pc, #164]	; (8001eec <MX_GPIO_Init+0x104>)
 8001e48:	6b1b      	ldr	r3, [r3, #48]	; 0x30
 8001e4a:	f003 0302 	and.w	r3, r3, #2
 8001e4e:	603b      	str	r3, [r7, #0]
 8001e50:	683b      	ldr	r3, [r7, #0]

   /*Configure GPIO pin Output Level */
   HAL_GPIO_WritePin(NSS_GPIO_Port, NSS_Pin, GPIO_PIN_RESET);
 8001e52:	2200      	movs	r2, #0
 8001e54:	2110      	movs	r1, #16
 8001e56:	4826      	ldr	r0, [pc, #152]	; (8001ef0 <MX_GPIO_Init+0x108>)
 8001e58:	f000 fcae 	bl	80027b8 <HAL_GPIO_WritePin>

   /*Configure GPIO pin Output Level */
   HAL_GPIO_WritePin(RESET_LORA_GPIO_Port, RESET_LORA_Pin, GPIO_PIN_RESET);
 8001e5c:	2200      	movs	r2, #0
 8001e5e:	2110      	movs	r1, #16
 8001e60:	4824      	ldr	r0, [pc, #144]	; (8001ef4 <MX_GPIO_Init+0x10c>)
 8001e62:	f000 fca9 	bl	80027b8 <HAL_GPIO_WritePin>

   /*Configure GPIO pin Output Level */
   HAL_GPIO_WritePin(LED_D1_GPIO_Port, LED_D1_Pin, GPIO_PIN_RESET);
 8001e66:	2200      	movs	r2, #0
 8001e68:	f44f 5180 	mov.w	r1, #4096	; 0x1000
 8001e6c:	4822      	ldr	r0, [pc, #136]	; (8001ef8 <MX_GPIO_Init+0x110>)
 8001e6e:	f000 fca3 	bl	80027b8 <HAL_GPIO_WritePin>

   /*Configure GPIO pin : NSS_Pin */
   GPIO_InitStruct.Pin = NSS_Pin;
 8001e72:	2310      	movs	r3, #16
 8001e74:	60fb      	str	r3, [r7, #12]
   GPIO_InitStruct.Mode = GPIO_MODE_OUTPUT_PP;
 8001e76:	2301      	movs	r3, #1
 8001e78:	613b      	str	r3, [r7, #16]
   GPIO_InitStruct.Pull = GPIO_NOPULL;
 8001e7a:	2300      	movs	r3, #0
 8001e7c:	617b      	str	r3, [r7, #20]
   GPIO_InitStruct.Speed = GPIO_SPEED_FREQ_LOW;
 8001e7e:	2300      	movs	r3, #0
 8001e80:	61bb      	str	r3, [r7, #24]
   HAL_GPIO_Init(NSS_GPIO_Port, &GPIO_InitStruct);
 8001e82:	f107 030c 	add.w	r3, r7, #12
 8001e86:	4619      	mov	r1, r3
 8001e88:	4819      	ldr	r0, [pc, #100]	; (8001ef0 <MX_GPIO_Init+0x108>)
 8001e8a:	f000 fb0b 	bl	80024a4 <HAL_GPIO_Init>

   /*Configure GPIO pin : RESET_LORA_Pin */
   GPIO_InitStruct.Pin = RESET_LORA_Pin;
 8001e8e:	2310      	movs	r3, #16
 8001e90:	60fb      	str	r3, [r7, #12]
   GPIO_InitStruct.Mode = GPIO_MODE_OUTPUT_PP;
 8001e92:	2301      	movs	r3, #1
 8001e94:	613b      	str	r3, [r7, #16]
   GPIO_InitStruct.Pull = GPIO_NOPULL;
 8001e96:	2300      	movs	r3, #0
 8001e98:	617b      	str	r3, [r7, #20]
   GPIO_InitStruct.Speed = GPIO_SPEED_FREQ_LOW;
 8001e9a:	2300      	movs	r3, #0
 8001e9c:	61bb      	str	r3, [r7, #24]
   HAL_GPIO_Init(RESET_LORA_GPIO_Port, &GPIO_InitStruct);
 8001e9e:	f107 030c 	add.w	r3, r7, #12
 8001ea2:	4619      	mov	r1, r3
 8001ea4:	4813      	ldr	r0, [pc, #76]	; (8001ef4 <MX_GPIO_Init+0x10c>)
 8001ea6:	f000 fafd 	bl	80024a4 <HAL_GPIO_Init>

   /*Configure GPIO pin : LED_D1_Pin */
   GPIO_InitStruct.Pin = LED_D1_Pin;
 8001eaa:	f44f 5380 	mov.w	r3, #4096	; 0x1000
 8001eae:	60fb      	str	r3, [r7, #12]
   GPIO_InitStruct.Mode = GPIO_MODE_OUTPUT_PP;
 8001eb0:	2301      	movs	r3, #1
 8001eb2:	613b      	str	r3, [r7, #16]
   GPIO_InitStruct.Pull = GPIO_NOPULL;
 8001eb4:	2300      	movs	r3, #0
 8001eb6:	617b      	str	r3, [r7, #20]
   GPIO_InitStruct.Speed = GPIO_SPEED_FREQ_LOW;
 8001eb8:	2300      	movs	r3, #0
 8001eba:	61bb      	str	r3, [r7, #24]
   HAL_GPIO_Init(LED_D1_GPIO_Port, &GPIO_InitStruct);
 8001ebc:	f107 030c 	add.w	r3, r7, #12
 8001ec0:	4619      	mov	r1, r3
 8001ec2:	480d      	ldr	r0, [pc, #52]	; (8001ef8 <MX_GPIO_Init+0x110>)
 8001ec4:	f000 faee 	bl	80024a4 <HAL_GPIO_Init>

   /*Configure GPIO pin : DIO0_Pin */
   GPIO_InitStruct.Pin = DIO0_Pin;
 8001ec8:	f44f 7300 	mov.w	r3, #512	; 0x200
 8001ecc:	60fb      	str	r3, [r7, #12]
   GPIO_InitStruct.Mode = GPIO_MODE_INPUT;
 8001ece:	2300      	movs	r3, #0
 8001ed0:	613b      	str	r3, [r7, #16]
   GPIO_InitStruct.Pull = GPIO_NOPULL;
 8001ed2:	2300      	movs	r3, #0
 8001ed4:	617b      	str	r3, [r7, #20]
   HAL_GPIO_Init(DIO0_GPIO_Port, &GPIO_InitStruct);
 8001ed6:	f107 030c 	add.w	r3, r7, #12
 8001eda:	4619      	mov	r1, r3
 8001edc:	4805      	ldr	r0, [pc, #20]	; (8001ef4 <MX_GPIO_Init+0x10c>)
 8001ede:	f000 fae1 	bl	80024a4 <HAL_GPIO_Init>

 }
 8001ee2:	bf00      	nop
 8001ee4:	3720      	adds	r7, #32
 8001ee6:	46bd      	mov	sp, r7
 8001ee8:	bd80      	pop	{r7, pc}
 8001eea:	bf00      	nop
 8001eec:	40023800 	.word	0x40023800
 8001ef0:	40020000 	.word	0x40020000
 8001ef4:	40020800 	.word	0x40020800
 8001ef8:	40020400 	.word	0x40020400

08001efc <Error_Handler>:
/**
  * @brief  This function is executed in case of error occurrence.
  * @retval None
  */
void Error_Handler(void)
{
 8001efc:	b480      	push	{r7}
 8001efe:	af00      	add	r7, sp, #0
  /* USER CODE BEGIN Error_Handler_Debug */
  /* User can add his own implementation to report the HAL error return state */

  /* USER CODE END Error_Handler_Debug */
}
 8001f00:	bf00      	nop
 8001f02:	46bd      	mov	sp, r7
 8001f04:	f85d 7b04 	ldr.w	r7, [sp], #4
 8001f08:	4770      	bx	lr
	...

08001f0c <HAL_MspInit>:
/* USER CODE END 0 */
/**
  * Initializes the Global MSP.
  */
void HAL_MspInit(void)
{
 8001f0c:	b480      	push	{r7}
 8001f0e:	b083      	sub	sp, #12
 8001f10:	af00      	add	r7, sp, #0
  /* USER CODE BEGIN MspInit 0 */

  /* USER CODE END MspInit 0 */

  __HAL_RCC_SYSCFG_CLK_ENABLE();
 8001f12:	2300      	movs	r3, #0
 8001f14:	607b      	str	r3, [r7, #4]
 8001f16:	4b10      	ldr	r3, [pc, #64]	; (8001f58 <HAL_MspInit+0x4c>)
 8001f18:	6c5b      	ldr	r3, [r3, #68]	; 0x44
 8001f1a:	4a0f      	ldr	r2, [pc, #60]	; (8001f58 <HAL_MspInit+0x4c>)
 8001f1c:	f443 4380 	orr.w	r3, r3, #16384	; 0x4000
 8001f20:	6453      	str	r3, [r2, #68]	; 0x44
 8001f22:	4b0d      	ldr	r3, [pc, #52]	; (8001f58 <HAL_MspInit+0x4c>)
 8001f24:	6c5b      	ldr	r3, [r3, #68]	; 0x44
 8001f26:	f403 4380 	and.w	r3, r3, #16384	; 0x4000
 8001f2a:	607b      	str	r3, [r7, #4]
 8001f2c:	687b      	ldr	r3, [r7, #4]
  __HAL_RCC_PWR_CLK_ENABLE();
 8001f2e:	2300      	movs	r3, #0
 8001f30:	603b      	str	r3, [r7, #0]
 8001f32:	4b09      	ldr	r3, [pc, #36]	; (8001f58 <HAL_MspInit+0x4c>)
 8001f34:	6c1b      	ldr	r3, [r3, #64]	; 0x40
 8001f36:	4a08      	ldr	r2, [pc, #32]	; (8001f58 <HAL_MspInit+0x4c>)
 8001f38:	f043 5380 	orr.w	r3, r3, #268435456	; 0x10000000
 8001f3c:	6413      	str	r3, [r2, #64]	; 0x40
 8001f3e:	4b06      	ldr	r3, [pc, #24]	; (8001f58 <HAL_MspInit+0x4c>)
 8001f40:	6c1b      	ldr	r3, [r3, #64]	; 0x40
 8001f42:	f003 5380 	and.w	r3, r3, #268435456	; 0x10000000
 8001f46:	603b      	str	r3, [r7, #0]
 8001f48:	683b      	ldr	r3, [r7, #0]
  /* System interrupt init*/

  /* USER CODE BEGIN MspInit 1 */

  /* USER CODE END MspInit 1 */
}
 8001f4a:	bf00      	nop
 8001f4c:	370c      	adds	r7, #12
 8001f4e:	46bd      	mov	sp, r7
 8001f50:	f85d 7b04 	ldr.w	r7, [sp], #4
 8001f54:	4770      	bx	lr
 8001f56:	bf00      	nop
 8001f58:	40023800 	.word	0x40023800

08001f5c <HAL_SPI_MspInit>:
* This function configures the hardware resources used in this example
* @param hspi: SPI handle pointer
* @retval None
*/
void HAL_SPI_MspInit(SPI_HandleTypeDef* hspi)
{
 8001f5c:	b580      	push	{r7, lr}
 8001f5e:	b08a      	sub	sp, #40	; 0x28
 8001f60:	af00      	add	r7, sp, #0
 8001f62:	6078      	str	r0, [r7, #4]
  GPIO_InitTypeDef GPIO_InitStruct = {0};
 8001f64:	f107 0314 	add.w	r3, r7, #20
 8001f68:	2200      	movs	r2, #0
 8001f6a:	601a      	str	r2, [r3, #0]
 8001f6c:	605a      	str	r2, [r3, #4]
 8001f6e:	609a      	str	r2, [r3, #8]
 8001f70:	60da      	str	r2, [r3, #12]
 8001f72:	611a      	str	r2, [r3, #16]
  if(hspi->Instance==SPI1)
 8001f74:	687b      	ldr	r3, [r7, #4]
 8001f76:	681b      	ldr	r3, [r3, #0]
 8001f78:	4a19      	ldr	r2, [pc, #100]	; (8001fe0 <HAL_SPI_MspInit+0x84>)
 8001f7a:	4293      	cmp	r3, r2
 8001f7c:	d12b      	bne.n	8001fd6 <HAL_SPI_MspInit+0x7a>
  {
  /* USER CODE BEGIN SPI1_MspInit 0 */

  /* USER CODE END SPI1_MspInit 0 */
    /* Peripheral clock enable */
    __HAL_RCC_SPI1_CLK_ENABLE();
 8001f7e:	2300      	movs	r3, #0
 8001f80:	613b      	str	r3, [r7, #16]
 8001f82:	4b18      	ldr	r3, [pc, #96]	; (8001fe4 <HAL_SPI_MspInit+0x88>)
 8001f84:	6c5b      	ldr	r3, [r3, #68]	; 0x44
 8001f86:	4a17      	ldr	r2, [pc, #92]	; (8001fe4 <HAL_SPI_MspInit+0x88>)
 8001f88:	f443 5380 	orr.w	r3, r3, #4096	; 0x1000
 8001f8c:	6453      	str	r3, [r2, #68]	; 0x44
 8001f8e:	4b15      	ldr	r3, [pc, #84]	; (8001fe4 <HAL_SPI_MspInit+0x88>)
 8001f90:	6c5b      	ldr	r3, [r3, #68]	; 0x44
 8001f92:	f403 5380 	and.w	r3, r3, #4096	; 0x1000
 8001f96:	613b      	str	r3, [r7, #16]
 8001f98:	693b      	ldr	r3, [r7, #16]
  
    __HAL_RCC_GPIOA_CLK_ENABLE();
 8001f9a:	2300      	movs	r3, #0
 8001f9c:	60fb      	str	r3, [r7, #12]
 8001f9e:	4b11      	ldr	r3, [pc, #68]	; (8001fe4 <HAL_SPI_MspInit+0x88>)
 8001fa0:	6b1b      	ldr	r3, [r3, #48]	; 0x30
 8001fa2:	4a10      	ldr	r2, [pc, #64]	; (8001fe4 <HAL_SPI_MspInit+0x88>)
 8001fa4:	f043 0301 	orr.w	r3, r3, #1
 8001fa8:	6313      	str	r3, [r2, #48]	; 0x30
 8001faa:	4b0e      	ldr	r3, [pc, #56]	; (8001fe4 <HAL_SPI_MspInit+0x88>)
 8001fac:	6b1b      	ldr	r3, [r3, #48]	; 0x30
 8001fae:	f003 0301 	and.w	r3, r3, #1
 8001fb2:	60fb      	str	r3, [r7, #12]
 8001fb4:	68fb      	ldr	r3, [r7, #12]
    /**SPI1 GPIO Configuration    
    PA5     ------> SPI1_SCK
    PA6     ------> SPI1_MISO
    PA7     ------> SPI1_MOSI 
    */
    GPIO_InitStruct.Pin = GPIO_PIN_5|GPIO_PIN_6|GPIO_PIN_7;
 8001fb6:	23e0      	movs	r3, #224	; 0xe0
 8001fb8:	617b      	str	r3, [r7, #20]
    GPIO_InitStruct.Mode = GPIO_MODE_AF_PP;
 8001fba:	2302      	movs	r3, #2
 8001fbc:	61bb      	str	r3, [r7, #24]
    GPIO_InitStruct.Pull = GPIO_NOPULL;
 8001fbe:	2300      	movs	r3, #0
 8001fc0:	61fb      	str	r3, [r7, #28]
    GPIO_InitStruct.Speed = GPIO_SPEED_FREQ_VERY_HIGH;
 8001fc2:	2303      	movs	r3, #3
 8001fc4:	623b      	str	r3, [r7, #32]
    GPIO_InitStruct.Alternate = GPIO_AF5_SPI1;
 8001fc6:	2305      	movs	r3, #5
 8001fc8:	627b      	str	r3, [r7, #36]	; 0x24
    HAL_GPIO_Init(GPIOA, &GPIO_InitStruct);
 8001fca:	f107 0314 	add.w	r3, r7, #20
 8001fce:	4619      	mov	r1, r3
 8001fd0:	4805      	ldr	r0, [pc, #20]	; (8001fe8 <HAL_SPI_MspInit+0x8c>)
 8001fd2:	f000 fa67 	bl	80024a4 <HAL_GPIO_Init>
  /* USER CODE BEGIN SPI1_MspInit 1 */

  /* USER CODE END SPI1_MspInit 1 */
  }

}
 8001fd6:	bf00      	nop
 8001fd8:	3728      	adds	r7, #40	; 0x28
 8001fda:	46bd      	mov	sp, r7
 8001fdc:	bd80      	pop	{r7, pc}
 8001fde:	bf00      	nop
 8001fe0:	40013000 	.word	0x40013000
 8001fe4:	40023800 	.word	0x40023800
 8001fe8:	40020000 	.word	0x40020000

08001fec <HAL_UART_MspInit>:
* This function configures the hardware resources used in this example
* @param huart: UART handle pointer
* @retval None
*/
void HAL_UART_MspInit(UART_HandleTypeDef* huart)
{
 8001fec:	b580      	push	{r7, lr}
 8001fee:	b08a      	sub	sp, #40	; 0x28
 8001ff0:	af00      	add	r7, sp, #0
 8001ff2:	6078      	str	r0, [r7, #4]
  GPIO_InitTypeDef GPIO_InitStruct = {0};
 8001ff4:	f107 0314 	add.w	r3, r7, #20
 8001ff8:	2200      	movs	r2, #0
 8001ffa:	601a      	str	r2, [r3, #0]
 8001ffc:	605a      	str	r2, [r3, #4]
 8001ffe:	609a      	str	r2, [r3, #8]
 8002000:	60da      	str	r2, [r3, #12]
 8002002:	611a      	str	r2, [r3, #16]
  if(huart->Instance==USART6)
 8002004:	687b      	ldr	r3, [r7, #4]
 8002006:	681b      	ldr	r3, [r3, #0]
 8002008:	4a19      	ldr	r2, [pc, #100]	; (8002070 <HAL_UART_MspInit+0x84>)
 800200a:	4293      	cmp	r3, r2
 800200c:	d12b      	bne.n	8002066 <HAL_UART_MspInit+0x7a>
  {
  /* USER CODE BEGIN USART6_MspInit 0 */

  /* USER CODE END USART6_MspInit 0 */
    /* Peripheral clock enable */
    __HAL_RCC_USART6_CLK_ENABLE();
 800200e:	2300      	movs	r3, #0
 8002010:	613b      	str	r3, [r7, #16]
 8002012:	4b18      	ldr	r3, [pc, #96]	; (8002074 <HAL_UART_MspInit+0x88>)
 8002014:	6c5b      	ldr	r3, [r3, #68]	; 0x44
 8002016:	4a17      	ldr	r2, [pc, #92]	; (8002074 <HAL_UART_MspInit+0x88>)
 8002018:	f043 0320 	orr.w	r3, r3, #32
 800201c:	6453      	str	r3, [r2, #68]	; 0x44
 800201e:	4b15      	ldr	r3, [pc, #84]	; (8002074 <HAL_UART_MspInit+0x88>)
 8002020:	6c5b      	ldr	r3, [r3, #68]	; 0x44
 8002022:	f003 0320 	and.w	r3, r3, #32
 8002026:	613b      	str	r3, [r7, #16]
 8002028:	693b      	ldr	r3, [r7, #16]
  
    __HAL_RCC_GPIOC_CLK_ENABLE();
 800202a:	2300      	movs	r3, #0
 800202c:	60fb      	str	r3, [r7, #12]
 800202e:	4b11      	ldr	r3, [pc, #68]	; (8002074 <HAL_UART_MspInit+0x88>)
 8002030:	6b1b      	ldr	r3, [r3, #48]	; 0x30
 8002032:	4a10      	ldr	r2, [pc, #64]	; (8002074 <HAL_UART_MspInit+0x88>)
 8002034:	f043 0304 	orr.w	r3, r3, #4
 8002038:	6313      	str	r3, [r2, #48]	; 0x30
 800203a:	4b0e      	ldr	r3, [pc, #56]	; (8002074 <HAL_UART_MspInit+0x88>)
 800203c:	6b1b      	ldr	r3, [r3, #48]	; 0x30
 800203e:	f003 0304 	and.w	r3, r3, #4
 8002042:	60fb      	str	r3, [r7, #12]
 8002044:	68fb      	ldr	r3, [r7, #12]
    /**USART6 GPIO Configuration    
    PC6     ------> USART6_TX
    PC7     ------> USART6_RX 
    */
    GPIO_InitStruct.Pin = GPIO_PIN_6|GPIO_PIN_7;
 8002046:	23c0      	movs	r3, #192	; 0xc0
 8002048:	617b      	str	r3, [r7, #20]
    GPIO_InitStruct.Mode = GPIO_MODE_AF_PP;
 800204a:	2302      	movs	r3, #2
 800204c:	61bb      	str	r3, [r7, #24]
    GPIO_InitStruct.Pull = GPIO_PULLUP;
 800204e:	2301      	movs	r3, #1
 8002050:	61fb      	str	r3, [r7, #28]
    GPIO_InitStruct.Speed = GPIO_SPEED_FREQ_VERY_HIGH;
 8002052:	2303      	movs	r3, #3
 8002054:	623b      	str	r3, [r7, #32]
    GPIO_InitStruct.Alternate = GPIO_AF8_USART6;
 8002056:	2308      	movs	r3, #8
 8002058:	627b      	str	r3, [r7, #36]	; 0x24
    HAL_GPIO_Init(GPIOC, &GPIO_InitStruct);
 800205a:	f107 0314 	add.w	r3, r7, #20
 800205e:	4619      	mov	r1, r3
 8002060:	4805      	ldr	r0, [pc, #20]	; (8002078 <HAL_UART_MspInit+0x8c>)
 8002062:	f000 fa1f 	bl	80024a4 <HAL_GPIO_Init>
  /* USER CODE BEGIN USART6_MspInit 1 */

  /* USER CODE END USART6_MspInit 1 */
  }

}
 8002066:	bf00      	nop
 8002068:	3728      	adds	r7, #40	; 0x28
 800206a:	46bd      	mov	sp, r7
 800206c:	bd80      	pop	{r7, pc}
 800206e:	bf00      	nop
 8002070:	40011400 	.word	0x40011400
 8002074:	40023800 	.word	0x40023800
 8002078:	40020800 	.word	0x40020800

0800207c <NMI_Handler>:
/******************************************************************************/
/**
  * @brief This function handles Non maskable interrupt.
  */
void NMI_Handler(void)
{
 800207c:	b480      	push	{r7}
 800207e:	af00      	add	r7, sp, #0

  /* USER CODE END NonMaskableInt_IRQn 0 */
  /* USER CODE BEGIN NonMaskableInt_IRQn 1 */

  /* USER CODE END NonMaskableInt_IRQn 1 */
}
 8002080:	bf00      	nop
 8002082:	46bd      	mov	sp, r7
 8002084:	f85d 7b04 	ldr.w	r7, [sp], #4
 8002088:	4770      	bx	lr

0800208a <HardFault_Handler>:

/**
  * @brief This function handles Hard fault interrupt.
  */
void HardFault_Handler(void)
{
 800208a:	b480      	push	{r7}
 800208c:	af00      	add	r7, sp, #0
  /* USER CODE BEGIN HardFault_IRQn 0 */

  /* USER CODE END HardFault_IRQn 0 */
  while (1)
 800208e:	e7fe      	b.n	800208e <HardFault_Handler+0x4>

08002090 <MemManage_Handler>:

/**
  * @brief This function handles Memory management fault.
  */
void MemManage_Handler(void)
{
 8002090:	b480      	push	{r7}
 8002092:	af00      	add	r7, sp, #0
  /* USER CODE BEGIN MemoryManagement_IRQn 0 */

  /* USER CODE END MemoryManagement_IRQn 0 */
  while (1)
 8002094:	e7fe      	b.n	8002094 <MemManage_Handler+0x4>

08002096 <BusFault_Handler>:

/**
  * @brief This function handles Pre-fetch fault, memory access fault.
  */
void BusFault_Handler(void)
{
 8002096:	b480      	push	{r7}
 8002098:	af00      	add	r7, sp, #0
  /* USER CODE BEGIN BusFault_IRQn 0 */

  /* USER CODE END BusFault_IRQn 0 */
  while (1)
 800209a:	e7fe      	b.n	800209a <BusFault_Handler+0x4>

0800209c <UsageFault_Handler>:

/**
  * @brief This function handles Undefined instruction or illegal state.
  */
void UsageFault_Handler(void)
{
 800209c:	b480      	push	{r7}
 800209e:	af00      	add	r7, sp, #0
  /* USER CODE BEGIN UsageFault_IRQn 0 */

  /* USER CODE END UsageFault_IRQn 0 */
  while (1)
 80020a0:	e7fe      	b.n	80020a0 <UsageFault_Handler+0x4>

080020a2 <SVC_Handler>:

/**
  * @brief This function handles System service call via SWI instruction.
  */
void SVC_Handler(void)
{
 80020a2:	b480      	push	{r7}
 80020a4:	af00      	add	r7, sp, #0

  /* USER CODE END SVCall_IRQn 0 */
  /* USER CODE BEGIN SVCall_IRQn 1 */

  /* USER CODE END SVCall_IRQn 1 */
}
 80020a6:	bf00      	nop
 80020a8:	46bd      	mov	sp, r7
 80020aa:	f85d 7b04 	ldr.w	r7, [sp], #4
 80020ae:	4770      	bx	lr

080020b0 <DebugMon_Handler>:

/**
  * @brief This function handles Debug monitor.
  */
void DebugMon_Handler(void)
{
 80020b0:	b480      	push	{r7}
 80020b2:	af00      	add	r7, sp, #0

  /* USER CODE END DebugMonitor_IRQn 0 */
  /* USER CODE BEGIN DebugMonitor_IRQn 1 */

  /* USER CODE END DebugMonitor_IRQn 1 */
}
 80020b4:	bf00      	nop
 80020b6:	46bd      	mov	sp, r7
 80020b8:	f85d 7b04 	ldr.w	r7, [sp], #4
 80020bc:	4770      	bx	lr

080020be <PendSV_Handler>:

/**
  * @brief This function handles Pendable request for system service.
  */
void PendSV_Handler(void)
{
 80020be:	b480      	push	{r7}
 80020c0:	af00      	add	r7, sp, #0

  /* USER CODE END PendSV_IRQn 0 */
  /* USER CODE BEGIN PendSV_IRQn 1 */

  /* USER CODE END PendSV_IRQn 1 */
}
 80020c2:	bf00      	nop
 80020c4:	46bd      	mov	sp, r7
 80020c6:	f85d 7b04 	ldr.w	r7, [sp], #4
 80020ca:	4770      	bx	lr

080020cc <SysTick_Handler>:

/**
  * @brief This function handles System tick timer.
  */
void SysTick_Handler(void)
{
 80020cc:	b580      	push	{r7, lr}
 80020ce:	af00      	add	r7, sp, #0
  /* USER CODE BEGIN SysTick_IRQn 0 */

  /* USER CODE END SysTick_IRQn 0 */
  HAL_IncTick();
 80020d0:	f000 f8c0 	bl	8002254 <HAL_IncTick>
  /* USER CODE BEGIN SysTick_IRQn 1 */

  /* USER CODE END SysTick_IRQn 1 */
}
 80020d4:	bf00      	nop
 80020d6:	bd80      	pop	{r7, pc}

080020d8 <_sbrk>:
/**
 _sbrk
 Increase program data space. Malloc and related functions depend on this
**/
caddr_t _sbrk(int incr)
{
 80020d8:	b580      	push	{r7, lr}
 80020da:	b084      	sub	sp, #16
 80020dc:	af00      	add	r7, sp, #0
 80020de:	6078      	str	r0, [r7, #4]
	extern char end asm("end");
	static char *heap_end;
	char *prev_heap_end;

	if (heap_end == 0)
 80020e0:	4b11      	ldr	r3, [pc, #68]	; (8002128 <_sbrk+0x50>)
 80020e2:	681b      	ldr	r3, [r3, #0]
 80020e4:	2b00      	cmp	r3, #0
 80020e6:	d102      	bne.n	80020ee <_sbrk+0x16>
		heap_end = &end;
 80020e8:	4b0f      	ldr	r3, [pc, #60]	; (8002128 <_sbrk+0x50>)
 80020ea:	4a10      	ldr	r2, [pc, #64]	; (800212c <_sbrk+0x54>)
 80020ec:	601a      	str	r2, [r3, #0]

	prev_heap_end = heap_end;
 80020ee:	4b0e      	ldr	r3, [pc, #56]	; (8002128 <_sbrk+0x50>)
 80020f0:	681b      	ldr	r3, [r3, #0]
 80020f2:	60fb      	str	r3, [r7, #12]
	if (heap_end + incr > stack_ptr)
 80020f4:	4b0c      	ldr	r3, [pc, #48]	; (8002128 <_sbrk+0x50>)
 80020f6:	681a      	ldr	r2, [r3, #0]
 80020f8:	687b      	ldr	r3, [r7, #4]
 80020fa:	4413      	add	r3, r2
 80020fc:	466a      	mov	r2, sp
 80020fe:	4293      	cmp	r3, r2
 8002100:	d907      	bls.n	8002112 <_sbrk+0x3a>
	{
		errno = ENOMEM;
 8002102:	f002 f83b 	bl	800417c <__errno>
 8002106:	4602      	mov	r2, r0
 8002108:	230c      	movs	r3, #12
 800210a:	6013      	str	r3, [r2, #0]
		return (caddr_t) -1;
 800210c:	f04f 33ff 	mov.w	r3, #4294967295
 8002110:	e006      	b.n	8002120 <_sbrk+0x48>
	}

	heap_end += incr;
 8002112:	4b05      	ldr	r3, [pc, #20]	; (8002128 <_sbrk+0x50>)
 8002114:	681a      	ldr	r2, [r3, #0]
 8002116:	687b      	ldr	r3, [r7, #4]
 8002118:	4413      	add	r3, r2
 800211a:	4a03      	ldr	r2, [pc, #12]	; (8002128 <_sbrk+0x50>)
 800211c:	6013      	str	r3, [r2, #0]

	return (caddr_t) prev_heap_end;
 800211e:	68fb      	ldr	r3, [r7, #12]
}
 8002120:	4618      	mov	r0, r3
 8002122:	3710      	adds	r7, #16
 8002124:	46bd      	mov	sp, r7
 8002126:	bd80      	pop	{r7, pc}
 8002128:	200001fc 	.word	0x200001fc
 800212c:	200004c8 	.word	0x200004c8

08002130 <SystemInit>:
  *         configuration.
  * @param  None
  * @retval None
  */
void SystemInit(void)
{
 8002130:	b480      	push	{r7}
 8002132:	af00      	add	r7, sp, #0
  /* FPU settings ------------------------------------------------------------*/
  #if (__FPU_PRESENT == 1) && (__FPU_USED == 1)
    SCB->CPACR |= ((3UL << 10*2)|(3UL << 11*2));  /* set CP10 and CP11 Full Access */
 8002134:	4b08      	ldr	r3, [pc, #32]	; (8002158 <SystemInit+0x28>)
 8002136:	f8d3 3088 	ldr.w	r3, [r3, #136]	; 0x88
 800213a:	4a07      	ldr	r2, [pc, #28]	; (8002158 <SystemInit+0x28>)
 800213c:	f443 0370 	orr.w	r3, r3, #15728640	; 0xf00000
 8002140:	f8c2 3088 	str.w	r3, [r2, #136]	; 0x88

  /* Configure the Vector Table location add offset address ------------------*/
#ifdef VECT_TAB_SRAM
  SCB->VTOR = SRAM_BASE | VECT_TAB_OFFSET; /* Vector Table Relocation in Internal SRAM */
#else
  SCB->VTOR = FLASH_BASE | VECT_TAB_OFFSET; /* Vector Table Relocation in Internal FLASH */
 8002144:	4b04      	ldr	r3, [pc, #16]	; (8002158 <SystemInit+0x28>)
 8002146:	f04f 6200 	mov.w	r2, #134217728	; 0x8000000
 800214a:	609a      	str	r2, [r3, #8]
#endif
}
 800214c:	bf00      	nop
 800214e:	46bd      	mov	sp, r7
 8002150:	f85d 7b04 	ldr.w	r7, [sp], #4
 8002154:	4770      	bx	lr
 8002156:	bf00      	nop
 8002158:	e000ed00 	.word	0xe000ed00

0800215c <Reset_Handler>:

    .section  .text.Reset_Handler
  .weak  Reset_Handler
  .type  Reset_Handler, %function
Reset_Handler:  
  ldr   sp, =_estack       /* set stack pointer */
 800215c:	f8df d034 	ldr.w	sp, [pc, #52]	; 8002194 <LoopFillZerobss+0x14>

/* Copy the data segment initializers from flash to SRAM */
  movs  r1, #0
 8002160:	2100      	movs	r1, #0
  b  LoopCopyDataInit
 8002162:	e003      	b.n	800216c <LoopCopyDataInit>

08002164 <CopyDataInit>:

CopyDataInit:
  ldr  r3, =_sidata
 8002164:	4b0c      	ldr	r3, [pc, #48]	; (8002198 <LoopFillZerobss+0x18>)
  ldr  r3, [r3, r1]
 8002166:	585b      	ldr	r3, [r3, r1]
  str  r3, [r0, r1]
 8002168:	5043      	str	r3, [r0, r1]
  adds  r1, r1, #4
 800216a:	3104      	adds	r1, #4

0800216c <LoopCopyDataInit>:
    
LoopCopyDataInit:
  ldr  r0, =_sdata
 800216c:	480b      	ldr	r0, [pc, #44]	; (800219c <LoopFillZerobss+0x1c>)
  ldr  r3, =_edata
 800216e:	4b0c      	ldr	r3, [pc, #48]	; (80021a0 <LoopFillZerobss+0x20>)
  adds  r2, r0, r1
 8002170:	1842      	adds	r2, r0, r1
  cmp  r2, r3
 8002172:	429a      	cmp	r2, r3
  bcc  CopyDataInit
 8002174:	d3f6      	bcc.n	8002164 <CopyDataInit>
  ldr  r2, =_sbss
 8002176:	4a0b      	ldr	r2, [pc, #44]	; (80021a4 <LoopFillZerobss+0x24>)
  b  LoopFillZerobss
 8002178:	e002      	b.n	8002180 <LoopFillZerobss>

0800217a <FillZerobss>:
/* Zero fill the bss segment. */
FillZerobss:
  movs  r3, #0
 800217a:	2300      	movs	r3, #0
  str  r3, [r2], #4
 800217c:	f842 3b04 	str.w	r3, [r2], #4

08002180 <LoopFillZerobss>:
    
LoopFillZerobss:
  ldr  r3, = _ebss
 8002180:	4b09      	ldr	r3, [pc, #36]	; (80021a8 <LoopFillZerobss+0x28>)
  cmp  r2, r3
 8002182:	429a      	cmp	r2, r3
  bcc  FillZerobss
 8002184:	d3f9      	bcc.n	800217a <FillZerobss>

/* Call the clock system intitialization function.*/
  bl  SystemInit   
 8002186:	f7ff ffd3 	bl	8002130 <SystemInit>
/* Call static constructors */
    bl __libc_init_array
 800218a:	f001 fffd 	bl	8004188 <__libc_init_array>
/* Call the application's entry point.*/
  bl  main
 800218e:	f7ff fb15 	bl	80017bc <main>
  bx  lr    
 8002192:	4770      	bx	lr
  ldr   sp, =_estack       /* set stack pointer */
 8002194:	20008000 	.word	0x20008000
  ldr  r3, =_sidata
 8002198:	08006748 	.word	0x08006748
  ldr  r0, =_sdata
 800219c:	20000000 	.word	0x20000000
  ldr  r3, =_edata
 80021a0:	200001e0 	.word	0x200001e0
  ldr  r2, =_sbss
 80021a4:	200001e0 	.word	0x200001e0
  ldr  r3, = _ebss
 80021a8:	200004c8 	.word	0x200004c8

080021ac <ADC_IRQHandler>:
 * @retval None       
*/
    .section  .text.Default_Handler,"ax",%progbits
Default_Handler:
Infinite_Loop:
  b  Infinite_Loop
 80021ac:	e7fe      	b.n	80021ac <ADC_IRQHandler>
	...

080021b0 <HAL_Init>:
  *         need to ensure that the SysTick time base is always set to 1 millisecond
  *         to have correct HAL operation.
  * @retval HAL status
  */
HAL_StatusTypeDef HAL_Init(void)
{
 80021b0:	b580      	push	{r7, lr}
 80021b2:	af00      	add	r7, sp, #0
  /* Configure Flash prefetch, Instruction cache, Data cache */ 
#if (INSTRUCTION_CACHE_ENABLE != 0U)
  __HAL_FLASH_INSTRUCTION_CACHE_ENABLE();
 80021b4:	4b0e      	ldr	r3, [pc, #56]	; (80021f0 <HAL_Init+0x40>)
 80021b6:	681b      	ldr	r3, [r3, #0]
 80021b8:	4a0d      	ldr	r2, [pc, #52]	; (80021f0 <HAL_Init+0x40>)
 80021ba:	f443 7300 	orr.w	r3, r3, #512	; 0x200
 80021be:	6013      	str	r3, [r2, #0]
#endif /* INSTRUCTION_CACHE_ENABLE */

#if (DATA_CACHE_ENABLE != 0U)
  __HAL_FLASH_DATA_CACHE_ENABLE();
 80021c0:	4b0b      	ldr	r3, [pc, #44]	; (80021f0 <HAL_Init+0x40>)
 80021c2:	681b      	ldr	r3, [r3, #0]
 80021c4:	4a0a      	ldr	r2, [pc, #40]	; (80021f0 <HAL_Init+0x40>)
 80021c6:	f443 6380 	orr.w	r3, r3, #1024	; 0x400
 80021ca:	6013      	str	r3, [r2, #0]
#endif /* DATA_CACHE_ENABLE */

#if (PREFETCH_ENABLE != 0U)
  __HAL_FLASH_PREFETCH_BUFFER_ENABLE();
 80021cc:	4b08      	ldr	r3, [pc, #32]	; (80021f0 <HAL_Init+0x40>)
 80021ce:	681b      	ldr	r3, [r3, #0]
 80021d0:	4a07      	ldr	r2, [pc, #28]	; (80021f0 <HAL_Init+0x40>)
 80021d2:	f443 7380 	orr.w	r3, r3, #256	; 0x100
 80021d6:	6013      	str	r3, [r2, #0]
#endif /* PREFETCH_ENABLE */

  /* Set Interrupt Group Priority */
  HAL_NVIC_SetPriorityGrouping(NVIC_PRIORITYGROUP_4);
 80021d8:	2003      	movs	r0, #3
 80021da:	f000 f92f 	bl	800243c <HAL_NVIC_SetPriorityGrouping>

  /* Use systick as time base source and configure 1ms tick (default clock after Reset is HSI) */
  HAL_InitTick(TICK_INT_PRIORITY);
 80021de:	2000      	movs	r0, #0
 80021e0:	f000 f808 	bl	80021f4 <HAL_InitTick>

  /* Init the low level hardware */
  HAL_MspInit();
 80021e4:	f7ff fe92 	bl	8001f0c <HAL_MspInit>

  /* Return function status */
  return HAL_OK;
 80021e8:	2300      	movs	r3, #0
}
 80021ea:	4618      	mov	r0, r3
 80021ec:	bd80      	pop	{r7, pc}
 80021ee:	bf00      	nop
 80021f0:	40023c00 	.word	0x40023c00

080021f4 <HAL_InitTick>:
  *       implementation  in user file.
  * @param TickPriority Tick interrupt priority.
  * @retval HAL status
  */
__weak HAL_StatusTypeDef HAL_InitTick(uint32_t TickPriority)
{
 80021f4:	b580      	push	{r7, lr}
 80021f6:	b082      	sub	sp, #8
 80021f8:	af00      	add	r7, sp, #0
 80021fa:	6078      	str	r0, [r7, #4]
  /* Configure the SysTick to have interrupt in 1ms time basis*/
  if (HAL_SYSTICK_Config(SystemCoreClock / (1000U / uwTickFreq)) > 0U)
 80021fc:	4b12      	ldr	r3, [pc, #72]	; (8002248 <HAL_InitTick+0x54>)
 80021fe:	681a      	ldr	r2, [r3, #0]
 8002200:	4b12      	ldr	r3, [pc, #72]	; (800224c <HAL_InitTick+0x58>)
 8002202:	781b      	ldrb	r3, [r3, #0]
 8002204:	4619      	mov	r1, r3
 8002206:	f44f 737a 	mov.w	r3, #1000	; 0x3e8
 800220a:	fbb3 f3f1 	udiv	r3, r3, r1
 800220e:	fbb2 f3f3 	udiv	r3, r2, r3
 8002212:	4618      	mov	r0, r3
 8002214:	f000 f939 	bl	800248a <HAL_SYSTICK_Config>
 8002218:	4603      	mov	r3, r0
 800221a:	2b00      	cmp	r3, #0
 800221c:	d001      	beq.n	8002222 <HAL_InitTick+0x2e>
  {
    return HAL_ERROR;
 800221e:	2301      	movs	r3, #1
 8002220:	e00e      	b.n	8002240 <HAL_InitTick+0x4c>
  }

  /* Configure the SysTick IRQ priority */
  if (TickPriority < (1UL << __NVIC_PRIO_BITS))
 8002222:	687b      	ldr	r3, [r7, #4]
 8002224:	2b0f      	cmp	r3, #15
 8002226:	d80a      	bhi.n	800223e <HAL_InitTick+0x4a>
  {
    HAL_NVIC_SetPriority(SysTick_IRQn, TickPriority, 0U);
 8002228:	2200      	movs	r2, #0
 800222a:	6879      	ldr	r1, [r7, #4]
 800222c:	f04f 30ff 	mov.w	r0, #4294967295
 8002230:	f000 f90f 	bl	8002452 <HAL_NVIC_SetPriority>
    uwTickPrio = TickPriority;
 8002234:	4a06      	ldr	r2, [pc, #24]	; (8002250 <HAL_InitTick+0x5c>)
 8002236:	687b      	ldr	r3, [r7, #4]
 8002238:	6013      	str	r3, [r2, #0]
  {
    return HAL_ERROR;
  }

  /* Return function status */
  return HAL_OK;
 800223a:	2300      	movs	r3, #0
 800223c:	e000      	b.n	8002240 <HAL_InitTick+0x4c>
    return HAL_ERROR;
 800223e:	2301      	movs	r3, #1
}
 8002240:	4618      	mov	r0, r3
 8002242:	3708      	adds	r7, #8
 8002244:	46bd      	mov	sp, r7
 8002246:	bd80      	pop	{r7, pc}
 8002248:	20000004 	.word	0x20000004
 800224c:	2000000c 	.word	0x2000000c
 8002250:	20000008 	.word	0x20000008

08002254 <HAL_IncTick>:
 * @note This function is declared as __weak to be overwritten in case of other 
  *      implementations in user file.
  * @retval None
  */
__weak void HAL_IncTick(void)
{
 8002254:	b480      	push	{r7}
 8002256:	af00      	add	r7, sp, #0
  uwTick += uwTickFreq;
 8002258:	4b06      	ldr	r3, [pc, #24]	; (8002274 <HAL_IncTick+0x20>)
 800225a:	781b      	ldrb	r3, [r3, #0]
 800225c:	461a      	mov	r2, r3
 800225e:	4b06      	ldr	r3, [pc, #24]	; (8002278 <HAL_IncTick+0x24>)
 8002260:	681b      	ldr	r3, [r3, #0]
 8002262:	4413      	add	r3, r2
 8002264:	4a04      	ldr	r2, [pc, #16]	; (8002278 <HAL_IncTick+0x24>)
 8002266:	6013      	str	r3, [r2, #0]
}
 8002268:	bf00      	nop
 800226a:	46bd      	mov	sp, r7
 800226c:	f85d 7b04 	ldr.w	r7, [sp], #4
 8002270:	4770      	bx	lr
 8002272:	bf00      	nop
 8002274:	2000000c 	.word	0x2000000c
 8002278:	200004c0 	.word	0x200004c0

0800227c <HAL_GetTick>:
  * @note This function is declared as __weak to be overwritten in case of other 
  *       implementations in user file.
  * @retval tick value
  */
__weak uint32_t HAL_GetTick(void)
{
 800227c:	b480      	push	{r7}
 800227e:	af00      	add	r7, sp, #0
  return uwTick;
 8002280:	4b03      	ldr	r3, [pc, #12]	; (8002290 <HAL_GetTick+0x14>)
 8002282:	681b      	ldr	r3, [r3, #0]
}
 8002284:	4618      	mov	r0, r3
 8002286:	46bd      	mov	sp, r7
 8002288:	f85d 7b04 	ldr.w	r7, [sp], #4
 800228c:	4770      	bx	lr
 800228e:	bf00      	nop
 8002290:	200004c0 	.word	0x200004c0

08002294 <HAL_Delay>:
  *       implementations in user file.
  * @param Delay specifies the delay time length, in milliseconds.
  * @retval None
  */
__weak void HAL_Delay(uint32_t Delay)
{
 8002294:	b580      	push	{r7, lr}
 8002296:	b084      	sub	sp, #16
 8002298:	af00      	add	r7, sp, #0
 800229a:	6078      	str	r0, [r7, #4]
  uint32_t tickstart = HAL_GetTick();
 800229c:	f7ff ffee 	bl	800227c <HAL_GetTick>
 80022a0:	60b8      	str	r0, [r7, #8]
  uint32_t wait = Delay;
 80022a2:	687b      	ldr	r3, [r7, #4]
 80022a4:	60fb      	str	r3, [r7, #12]

  /* Add a freq to guarantee minimum wait */
  if (wait < HAL_MAX_DELAY)
 80022a6:	68fb      	ldr	r3, [r7, #12]
 80022a8:	f1b3 3fff 	cmp.w	r3, #4294967295
 80022ac:	d005      	beq.n	80022ba <HAL_Delay+0x26>
  {
    wait += (uint32_t)(uwTickFreq);
 80022ae:	4b09      	ldr	r3, [pc, #36]	; (80022d4 <HAL_Delay+0x40>)
 80022b0:	781b      	ldrb	r3, [r3, #0]
 80022b2:	461a      	mov	r2, r3
 80022b4:	68fb      	ldr	r3, [r7, #12]
 80022b6:	4413      	add	r3, r2
 80022b8:	60fb      	str	r3, [r7, #12]
  }

  while((HAL_GetTick() - tickstart) < wait)
 80022ba:	bf00      	nop
 80022bc:	f7ff ffde 	bl	800227c <HAL_GetTick>
 80022c0:	4602      	mov	r2, r0
 80022c2:	68bb      	ldr	r3, [r7, #8]
 80022c4:	1ad3      	subs	r3, r2, r3
 80022c6:	68fa      	ldr	r2, [r7, #12]
 80022c8:	429a      	cmp	r2, r3
 80022ca:	d8f7      	bhi.n	80022bc <HAL_Delay+0x28>
  {
  }
}
 80022cc:	bf00      	nop
 80022ce:	3710      	adds	r7, #16
 80022d0:	46bd      	mov	sp, r7
 80022d2:	bd80      	pop	{r7, pc}
 80022d4:	2000000c 	.word	0x2000000c

080022d8 <__NVIC_SetPriorityGrouping>:
           In case of a conflict between priority grouping and available
           priority bits (__NVIC_PRIO_BITS), the smallest possible priority group is set.
  \param [in]      PriorityGroup  Priority grouping field.
 */
__STATIC_INLINE void __NVIC_SetPriorityGrouping(uint32_t PriorityGroup)
{
 80022d8:	b480      	push	{r7}
 80022da:	b085      	sub	sp, #20
 80022dc:	af00      	add	r7, sp, #0
 80022de:	6078      	str	r0, [r7, #4]
  uint32_t reg_value;
  uint32_t PriorityGroupTmp = (PriorityGroup & (uint32_t)0x07UL);             /* only values 0..7 are used          */
 80022e0:	687b      	ldr	r3, [r7, #4]
 80022e2:	f003 0307 	and.w	r3, r3, #7
 80022e6:	60fb      	str	r3, [r7, #12]

  reg_value  =  SCB->AIRCR;                                                   /* read old register configuration    */
 80022e8:	4b0c      	ldr	r3, [pc, #48]	; (800231c <__NVIC_SetPriorityGrouping+0x44>)
 80022ea:	68db      	ldr	r3, [r3, #12]
 80022ec:	60bb      	str	r3, [r7, #8]
  reg_value &= ~((uint32_t)(SCB_AIRCR_VECTKEY_Msk | SCB_AIRCR_PRIGROUP_Msk)); /* clear bits to change               */
 80022ee:	68ba      	ldr	r2, [r7, #8]
 80022f0:	f64f 03ff 	movw	r3, #63743	; 0xf8ff
 80022f4:	4013      	ands	r3, r2
 80022f6:	60bb      	str	r3, [r7, #8]
  reg_value  =  (reg_value                                   |
                ((uint32_t)0x5FAUL << SCB_AIRCR_VECTKEY_Pos) |
                (PriorityGroupTmp << SCB_AIRCR_PRIGROUP_Pos)  );              /* Insert write key and priority group */
 80022f8:	68fb      	ldr	r3, [r7, #12]
 80022fa:	021a      	lsls	r2, r3, #8
                ((uint32_t)0x5FAUL << SCB_AIRCR_VECTKEY_Pos) |
 80022fc:	68bb      	ldr	r3, [r7, #8]
 80022fe:	4313      	orrs	r3, r2
  reg_value  =  (reg_value                                   |
 8002300:	f043 63bf 	orr.w	r3, r3, #100139008	; 0x5f80000
 8002304:	f443 3300 	orr.w	r3, r3, #131072	; 0x20000
 8002308:	60bb      	str	r3, [r7, #8]
  SCB->AIRCR =  reg_value;
 800230a:	4a04      	ldr	r2, [pc, #16]	; (800231c <__NVIC_SetPriorityGrouping+0x44>)
 800230c:	68bb      	ldr	r3, [r7, #8]
 800230e:	60d3      	str	r3, [r2, #12]
}
 8002310:	bf00      	nop
 8002312:	3714      	adds	r7, #20
 8002314:	46bd      	mov	sp, r7
 8002316:	f85d 7b04 	ldr.w	r7, [sp], #4
 800231a:	4770      	bx	lr
 800231c:	e000ed00 	.word	0xe000ed00

08002320 <__NVIC_GetPriorityGrouping>:
  \brief   Get Priority Grouping
  \details Reads the priority grouping field from the NVIC Interrupt Controller.
  \return                Priority grouping field (SCB->AIRCR [10:8] PRIGROUP field).
 */
__STATIC_INLINE uint32_t __NVIC_GetPriorityGrouping(void)
{
 8002320:	b480      	push	{r7}
 8002322:	af00      	add	r7, sp, #0
  return ((uint32_t)((SCB->AIRCR & SCB_AIRCR_PRIGROUP_Msk) >> SCB_AIRCR_PRIGROUP_Pos));
 8002324:	4b04      	ldr	r3, [pc, #16]	; (8002338 <__NVIC_GetPriorityGrouping+0x18>)
 8002326:	68db      	ldr	r3, [r3, #12]
 8002328:	0a1b      	lsrs	r3, r3, #8
 800232a:	f003 0307 	and.w	r3, r3, #7
}
 800232e:	4618      	mov	r0, r3
 8002330:	46bd      	mov	sp, r7
 8002332:	f85d 7b04 	ldr.w	r7, [sp], #4
 8002336:	4770      	bx	lr
 8002338:	e000ed00 	.word	0xe000ed00

0800233c <__NVIC_SetPriority>:
  \param [in]      IRQn  Interrupt number.
  \param [in]  priority  Priority to set.
  \note    The priority cannot be set for every processor exception.
 */
__STATIC_INLINE void __NVIC_SetPriority(IRQn_Type IRQn, uint32_t priority)
{
 800233c:	b480      	push	{r7}
 800233e:	b083      	sub	sp, #12
 8002340:	af00      	add	r7, sp, #0
 8002342:	4603      	mov	r3, r0
 8002344:	6039      	str	r1, [r7, #0]
 8002346:	71fb      	strb	r3, [r7, #7]
  if ((int32_t)(IRQn) >= 0)
 8002348:	f997 3007 	ldrsb.w	r3, [r7, #7]
 800234c:	2b00      	cmp	r3, #0
 800234e:	db0a      	blt.n	8002366 <__NVIC_SetPriority+0x2a>
  {
    NVIC->IP[((uint32_t)IRQn)]               = (uint8_t)((priority << (8U - __NVIC_PRIO_BITS)) & (uint32_t)0xFFUL);
 8002350:	683b      	ldr	r3, [r7, #0]
 8002352:	b2da      	uxtb	r2, r3
 8002354:	490c      	ldr	r1, [pc, #48]	; (8002388 <__NVIC_SetPriority+0x4c>)
 8002356:	f997 3007 	ldrsb.w	r3, [r7, #7]
 800235a:	0112      	lsls	r2, r2, #4
 800235c:	b2d2      	uxtb	r2, r2
 800235e:	440b      	add	r3, r1
 8002360:	f883 2300 	strb.w	r2, [r3, #768]	; 0x300
  }
  else
  {
    SCB->SHP[(((uint32_t)IRQn) & 0xFUL)-4UL] = (uint8_t)((priority << (8U - __NVIC_PRIO_BITS)) & (uint32_t)0xFFUL);
  }
}
 8002364:	e00a      	b.n	800237c <__NVIC_SetPriority+0x40>
    SCB->SHP[(((uint32_t)IRQn) & 0xFUL)-4UL] = (uint8_t)((priority << (8U - __NVIC_PRIO_BITS)) & (uint32_t)0xFFUL);
 8002366:	683b      	ldr	r3, [r7, #0]
 8002368:	b2da      	uxtb	r2, r3
 800236a:	4908      	ldr	r1, [pc, #32]	; (800238c <__NVIC_SetPriority+0x50>)
 800236c:	79fb      	ldrb	r3, [r7, #7]
 800236e:	f003 030f 	and.w	r3, r3, #15
 8002372:	3b04      	subs	r3, #4
 8002374:	0112      	lsls	r2, r2, #4
 8002376:	b2d2      	uxtb	r2, r2
 8002378:	440b      	add	r3, r1
 800237a:	761a      	strb	r2, [r3, #24]
}
 800237c:	bf00      	nop
 800237e:	370c      	adds	r7, #12
 8002380:	46bd      	mov	sp, r7
 8002382:	f85d 7b04 	ldr.w	r7, [sp], #4
 8002386:	4770      	bx	lr
 8002388:	e000e100 	.word	0xe000e100
 800238c:	e000ed00 	.word	0xe000ed00

08002390 <NVIC_EncodePriority>:
  \param [in]   PreemptPriority  Preemptive priority value (starting from 0).
  \param [in]       SubPriority  Subpriority value (starting from 0).
  \return                        Encoded priority. Value can be used in the function \ref NVIC_SetPriority().
 */
__STATIC_INLINE uint32_t NVIC_EncodePriority (uint32_t PriorityGroup, uint32_t PreemptPriority, uint32_t SubPriority)
{
 8002390:	b480      	push	{r7}
 8002392:	b089      	sub	sp, #36	; 0x24
 8002394:	af00      	add	r7, sp, #0
 8002396:	60f8      	str	r0, [r7, #12]
 8002398:	60b9      	str	r1, [r7, #8]
 800239a:	607a      	str	r2, [r7, #4]
  uint32_t PriorityGroupTmp = (PriorityGroup & (uint32_t)0x07UL);   /* only values 0..7 are used          */
 800239c:	68fb      	ldr	r3, [r7, #12]
 800239e:	f003 0307 	and.w	r3, r3, #7
 80023a2:	61fb      	str	r3, [r7, #28]
  uint32_t PreemptPriorityBits;
  uint32_t SubPriorityBits;

  PreemptPriorityBits = ((7UL - PriorityGroupTmp) > (uint32_t)(__NVIC_PRIO_BITS)) ? (uint32_t)(__NVIC_PRIO_BITS) : (uint32_t)(7UL - PriorityGroupTmp);
 80023a4:	69fb      	ldr	r3, [r7, #28]
 80023a6:	f1c3 0307 	rsb	r3, r3, #7
 80023aa:	2b04      	cmp	r3, #4
 80023ac:	bf28      	it	cs
 80023ae:	2304      	movcs	r3, #4
 80023b0:	61bb      	str	r3, [r7, #24]
  SubPriorityBits     = ((PriorityGroupTmp + (uint32_t)(__NVIC_PRIO_BITS)) < (uint32_t)7UL) ? (uint32_t)0UL : (uint32_t)((PriorityGroupTmp - 7UL) + (uint32_t)(__NVIC_PRIO_BITS));
 80023b2:	69fb      	ldr	r3, [r7, #28]
 80023b4:	3304      	adds	r3, #4
 80023b6:	2b06      	cmp	r3, #6
 80023b8:	d902      	bls.n	80023c0 <NVIC_EncodePriority+0x30>
 80023ba:	69fb      	ldr	r3, [r7, #28]
 80023bc:	3b03      	subs	r3, #3
 80023be:	e000      	b.n	80023c2 <NVIC_EncodePriority+0x32>
 80023c0:	2300      	movs	r3, #0
 80023c2:	617b      	str	r3, [r7, #20]

  return (
           ((PreemptPriority & (uint32_t)((1UL << (PreemptPriorityBits)) - 1UL)) << SubPriorityBits) |
 80023c4:	f04f 32ff 	mov.w	r2, #4294967295
 80023c8:	69bb      	ldr	r3, [r7, #24]
 80023ca:	fa02 f303 	lsl.w	r3, r2, r3
 80023ce:	43da      	mvns	r2, r3
 80023d0:	68bb      	ldr	r3, [r7, #8]
 80023d2:	401a      	ands	r2, r3
 80023d4:	697b      	ldr	r3, [r7, #20]
 80023d6:	409a      	lsls	r2, r3
           ((SubPriority     & (uint32_t)((1UL << (SubPriorityBits    )) - 1UL)))
 80023d8:	f04f 31ff 	mov.w	r1, #4294967295
 80023dc:	697b      	ldr	r3, [r7, #20]
 80023de:	fa01 f303 	lsl.w	r3, r1, r3
 80023e2:	43d9      	mvns	r1, r3
 80023e4:	687b      	ldr	r3, [r7, #4]
 80023e6:	400b      	ands	r3, r1
           ((PreemptPriority & (uint32_t)((1UL << (PreemptPriorityBits)) - 1UL)) << SubPriorityBits) |
 80023e8:	4313      	orrs	r3, r2
         );
}
 80023ea:	4618      	mov	r0, r3
 80023ec:	3724      	adds	r7, #36	; 0x24
 80023ee:	46bd      	mov	sp, r7
 80023f0:	f85d 7b04 	ldr.w	r7, [sp], #4
 80023f4:	4770      	bx	lr
	...

080023f8 <SysTick_Config>:
  \note    When the variable <b>__Vendor_SysTickConfig</b> is set to 1, then the
           function <b>SysTick_Config</b> is not included. In this case, the file <b><i>device</i>.h</b>
           must contain a vendor-specific implementation of this function.
 */
__STATIC_INLINE uint32_t SysTick_Config(uint32_t ticks)
{
 80023f8:	b580      	push	{r7, lr}
 80023fa:	b082      	sub	sp, #8
 80023fc:	af00      	add	r7, sp, #0
 80023fe:	6078      	str	r0, [r7, #4]
  if ((ticks - 1UL) > SysTick_LOAD_RELOAD_Msk)
 8002400:	687b      	ldr	r3, [r7, #4]
 8002402:	3b01      	subs	r3, #1
 8002404:	f1b3 7f80 	cmp.w	r3, #16777216	; 0x1000000
 8002408:	d301      	bcc.n	800240e <SysTick_Config+0x16>
  {
    return (1UL);                                                   /* Reload value impossible */
 800240a:	2301      	movs	r3, #1
 800240c:	e00f      	b.n	800242e <SysTick_Config+0x36>
  }

  SysTick->LOAD  = (uint32_t)(ticks - 1UL);                         /* set reload register */
 800240e:	4a0a      	ldr	r2, [pc, #40]	; (8002438 <SysTick_Config+0x40>)
 8002410:	687b      	ldr	r3, [r7, #4]
 8002412:	3b01      	subs	r3, #1
 8002414:	6053      	str	r3, [r2, #4]
  NVIC_SetPriority (SysTick_IRQn, (1UL << __NVIC_PRIO_BITS) - 1UL); /* set Priority for Systick Interrupt */
 8002416:	210f      	movs	r1, #15
 8002418:	f04f 30ff 	mov.w	r0, #4294967295
 800241c:	f7ff ff8e 	bl	800233c <__NVIC_SetPriority>
  SysTick->VAL   = 0UL;                                             /* Load the SysTick Counter Value */
 8002420:	4b05      	ldr	r3, [pc, #20]	; (8002438 <SysTick_Config+0x40>)
 8002422:	2200      	movs	r2, #0
 8002424:	609a      	str	r2, [r3, #8]
  SysTick->CTRL  = SysTick_CTRL_CLKSOURCE_Msk |
 8002426:	4b04      	ldr	r3, [pc, #16]	; (8002438 <SysTick_Config+0x40>)
 8002428:	2207      	movs	r2, #7
 800242a:	601a      	str	r2, [r3, #0]
                   SysTick_CTRL_TICKINT_Msk   |
                   SysTick_CTRL_ENABLE_Msk;                         /* Enable SysTick IRQ and SysTick Timer */
  return (0UL);                                                     /* Function successful */
 800242c:	2300      	movs	r3, #0
}
 800242e:	4618      	mov	r0, r3
 8002430:	3708      	adds	r7, #8
 8002432:	46bd      	mov	sp, r7
 8002434:	bd80      	pop	{r7, pc}
 8002436:	bf00      	nop
 8002438:	e000e010 	.word	0xe000e010

0800243c <HAL_NVIC_SetPriorityGrouping>:
  * @note   When the NVIC_PriorityGroup_0 is selected, IRQ preemption is no more possible. 
  *         The pending IRQ priority will be managed only by the subpriority. 
  * @retval None
  */
void HAL_NVIC_SetPriorityGrouping(uint32_t PriorityGroup)
{
 800243c:	b580      	push	{r7, lr}
 800243e:	b082      	sub	sp, #8
 8002440:	af00      	add	r7, sp, #0
 8002442:	6078      	str	r0, [r7, #4]
  /* Check the parameters */
  assert_param(IS_NVIC_PRIORITY_GROUP(PriorityGroup));
  
  /* Set the PRIGROUP[10:8] bits according to the PriorityGroup parameter value */
  NVIC_SetPriorityGrouping(PriorityGroup);
 8002444:	6878      	ldr	r0, [r7, #4]
 8002446:	f7ff ff47 	bl	80022d8 <__NVIC_SetPriorityGrouping>
}
 800244a:	bf00      	nop
 800244c:	3708      	adds	r7, #8
 800244e:	46bd      	mov	sp, r7
 8002450:	bd80      	pop	{r7, pc}

08002452 <HAL_NVIC_SetPriority>:
  *         This parameter can be a value between 0 and 15
  *         A lower priority value indicates a higher priority.          
  * @retval None
  */
void HAL_NVIC_SetPriority(IRQn_Type IRQn, uint32_t PreemptPriority, uint32_t SubPriority)
{ 
 8002452:	b580      	push	{r7, lr}
 8002454:	b086      	sub	sp, #24
 8002456:	af00      	add	r7, sp, #0
 8002458:	4603      	mov	r3, r0
 800245a:	60b9      	str	r1, [r7, #8]
 800245c:	607a      	str	r2, [r7, #4]
 800245e:	73fb      	strb	r3, [r7, #15]
  uint32_t prioritygroup = 0x00U;
 8002460:	2300      	movs	r3, #0
 8002462:	617b      	str	r3, [r7, #20]
  
  /* Check the parameters */
  assert_param(IS_NVIC_SUB_PRIORITY(SubPriority));
  assert_param(IS_NVIC_PREEMPTION_PRIORITY(PreemptPriority));
  
  prioritygroup = NVIC_GetPriorityGrouping();
 8002464:	f7ff ff5c 	bl	8002320 <__NVIC_GetPriorityGrouping>
 8002468:	6178      	str	r0, [r7, #20]
  
  NVIC_SetPriority(IRQn, NVIC_EncodePriority(prioritygroup, PreemptPriority, SubPriority));
 800246a:	687a      	ldr	r2, [r7, #4]
 800246c:	68b9      	ldr	r1, [r7, #8]
 800246e:	6978      	ldr	r0, [r7, #20]
 8002470:	f7ff ff8e 	bl	8002390 <NVIC_EncodePriority>
 8002474:	4602      	mov	r2, r0
 8002476:	f997 300f 	ldrsb.w	r3, [r7, #15]
 800247a:	4611      	mov	r1, r2
 800247c:	4618      	mov	r0, r3
 800247e:	f7ff ff5d 	bl	800233c <__NVIC_SetPriority>
}
 8002482:	bf00      	nop
 8002484:	3718      	adds	r7, #24
 8002486:	46bd      	mov	sp, r7
 8002488:	bd80      	pop	{r7, pc}

0800248a <HAL_SYSTICK_Config>:
  * @param  TicksNumb Specifies the ticks Number of ticks between two interrupts.
  * @retval status:  - 0  Function succeeded.
  *                  - 1  Function failed.
  */
uint32_t HAL_SYSTICK_Config(uint32_t TicksNumb)
{
 800248a:	b580      	push	{r7, lr}
 800248c:	b082      	sub	sp, #8
 800248e:	af00      	add	r7, sp, #0
 8002490:	6078      	str	r0, [r7, #4]
   return SysTick_Config(TicksNumb);
 8002492:	6878      	ldr	r0, [r7, #4]
 8002494:	f7ff ffb0 	bl	80023f8 <SysTick_Config>
 8002498:	4603      	mov	r3, r0
}
 800249a:	4618      	mov	r0, r3
 800249c:	3708      	adds	r7, #8
 800249e:	46bd      	mov	sp, r7
 80024a0:	bd80      	pop	{r7, pc}
	...

080024a4 <HAL_GPIO_Init>:
  * @param  GPIO_Init pointer to a GPIO_InitTypeDef structure that contains
  *         the configuration information for the specified GPIO peripheral.
  * @retval None
  */
void HAL_GPIO_Init(GPIO_TypeDef  *GPIOx, GPIO_InitTypeDef *GPIO_Init)
{
 80024a4:	b480      	push	{r7}
 80024a6:	b089      	sub	sp, #36	; 0x24
 80024a8:	af00      	add	r7, sp, #0
 80024aa:	6078      	str	r0, [r7, #4]
 80024ac:	6039      	str	r1, [r7, #0]
  uint32_t position;
  uint32_t ioposition = 0x00U;
 80024ae:	2300      	movs	r3, #0
 80024b0:	617b      	str	r3, [r7, #20]
  uint32_t iocurrent = 0x00U;
 80024b2:	2300      	movs	r3, #0
 80024b4:	613b      	str	r3, [r7, #16]
  uint32_t temp = 0x00U;
 80024b6:	2300      	movs	r3, #0
 80024b8:	61bb      	str	r3, [r7, #24]
  assert_param(IS_GPIO_PIN(GPIO_Init->Pin));
  assert_param(IS_GPIO_MODE(GPIO_Init->Mode));
  assert_param(IS_GPIO_PULL(GPIO_Init->Pull));

  /* Configure the port pins */
  for(position = 0U; position < GPIO_NUMBER; position++)
 80024ba:	2300      	movs	r3, #0
 80024bc:	61fb      	str	r3, [r7, #28]
 80024be:	e14d      	b.n	800275c <HAL_GPIO_Init+0x2b8>
  {
    /* Get the IO position */
    ioposition = 0x01U << position;
 80024c0:	2201      	movs	r2, #1
 80024c2:	69fb      	ldr	r3, [r7, #28]
 80024c4:	fa02 f303 	lsl.w	r3, r2, r3
 80024c8:	617b      	str	r3, [r7, #20]
    /* Get the current IO position */
    iocurrent = (uint32_t)(GPIO_Init->Pin) & ioposition;
 80024ca:	683b      	ldr	r3, [r7, #0]
 80024cc:	681b      	ldr	r3, [r3, #0]
 80024ce:	697a      	ldr	r2, [r7, #20]
 80024d0:	4013      	ands	r3, r2
 80024d2:	613b      	str	r3, [r7, #16]

    if(iocurrent == ioposition)
 80024d4:	693a      	ldr	r2, [r7, #16]
 80024d6:	697b      	ldr	r3, [r7, #20]
 80024d8:	429a      	cmp	r2, r3
 80024da:	f040 813c 	bne.w	8002756 <HAL_GPIO_Init+0x2b2>
    {
      /*--------------------- GPIO Mode Configuration ------------------------*/
      /* In case of Output or Alternate function mode selection */
      if((GPIO_Init->Mode == GPIO_MODE_OUTPUT_PP) || (GPIO_Init->Mode == GPIO_MODE_AF_PP) ||
 80024de:	683b      	ldr	r3, [r7, #0]
 80024e0:	685b      	ldr	r3, [r3, #4]
 80024e2:	2b01      	cmp	r3, #1
 80024e4:	d00b      	beq.n	80024fe <HAL_GPIO_Init+0x5a>
 80024e6:	683b      	ldr	r3, [r7, #0]
 80024e8:	685b      	ldr	r3, [r3, #4]
 80024ea:	2b02      	cmp	r3, #2
 80024ec:	d007      	beq.n	80024fe <HAL_GPIO_Init+0x5a>
         (GPIO_Init->Mode == GPIO_MODE_OUTPUT_OD) || (GPIO_Init->Mode == GPIO_MODE_AF_OD))
 80024ee:	683b      	ldr	r3, [r7, #0]
 80024f0:	685b      	ldr	r3, [r3, #4]
      if((GPIO_Init->Mode == GPIO_MODE_OUTPUT_PP) || (GPIO_Init->Mode == GPIO_MODE_AF_PP) ||
 80024f2:	2b11      	cmp	r3, #17
 80024f4:	d003      	beq.n	80024fe <HAL_GPIO_Init+0x5a>
         (GPIO_Init->Mode == GPIO_MODE_OUTPUT_OD) || (GPIO_Init->Mode == GPIO_MODE_AF_OD))
 80024f6:	683b      	ldr	r3, [r7, #0]
 80024f8:	685b      	ldr	r3, [r3, #4]
 80024fa:	2b12      	cmp	r3, #18
 80024fc:	d130      	bne.n	8002560 <HAL_GPIO_Init+0xbc>
      {
        /* Check the Speed parameter */
        assert_param(IS_GPIO_SPEED(GPIO_Init->Speed));
        /* Configure the IO Speed */
        temp = GPIOx->OSPEEDR; 
 80024fe:	687b      	ldr	r3, [r7, #4]
 8002500:	689b      	ldr	r3, [r3, #8]
 8002502:	61bb      	str	r3, [r7, #24]
        temp &= ~(GPIO_OSPEEDER_OSPEEDR0 << (position * 2U));
 8002504:	69fb      	ldr	r3, [r7, #28]
 8002506:	005b      	lsls	r3, r3, #1
 8002508:	2203      	movs	r2, #3
 800250a:	fa02 f303 	lsl.w	r3, r2, r3
 800250e:	43db      	mvns	r3, r3
 8002510:	69ba      	ldr	r2, [r7, #24]
 8002512:	4013      	ands	r3, r2
 8002514:	61bb      	str	r3, [r7, #24]
        temp |= (GPIO_Init->Speed << (position * 2U));
 8002516:	683b      	ldr	r3, [r7, #0]
 8002518:	68da      	ldr	r2, [r3, #12]
 800251a:	69fb      	ldr	r3, [r7, #28]
 800251c:	005b      	lsls	r3, r3, #1
 800251e:	fa02 f303 	lsl.w	r3, r2, r3
 8002522:	69ba      	ldr	r2, [r7, #24]
 8002524:	4313      	orrs	r3, r2
 8002526:	61bb      	str	r3, [r7, #24]
        GPIOx->OSPEEDR = temp;
 8002528:	687b      	ldr	r3, [r7, #4]
 800252a:	69ba      	ldr	r2, [r7, #24]
 800252c:	609a      	str	r2, [r3, #8]

        /* Configure the IO Output Type */
        temp = GPIOx->OTYPER;
 800252e:	687b      	ldr	r3, [r7, #4]
 8002530:	685b      	ldr	r3, [r3, #4]
 8002532:	61bb      	str	r3, [r7, #24]
        temp &= ~(GPIO_OTYPER_OT_0 << position) ;
 8002534:	2201      	movs	r2, #1
 8002536:	69fb      	ldr	r3, [r7, #28]
 8002538:	fa02 f303 	lsl.w	r3, r2, r3
 800253c:	43db      	mvns	r3, r3
 800253e:	69ba      	ldr	r2, [r7, #24]
 8002540:	4013      	ands	r3, r2
 8002542:	61bb      	str	r3, [r7, #24]
        temp |= (((GPIO_Init->Mode & GPIO_OUTPUT_TYPE) >> 4U) << position);
 8002544:	683b      	ldr	r3, [r7, #0]
 8002546:	685b      	ldr	r3, [r3, #4]
 8002548:	091b      	lsrs	r3, r3, #4
 800254a:	f003 0201 	and.w	r2, r3, #1
 800254e:	69fb      	ldr	r3, [r7, #28]
 8002550:	fa02 f303 	lsl.w	r3, r2, r3
 8002554:	69ba      	ldr	r2, [r7, #24]
 8002556:	4313      	orrs	r3, r2
 8002558:	61bb      	str	r3, [r7, #24]
        GPIOx->OTYPER = temp;
 800255a:	687b      	ldr	r3, [r7, #4]
 800255c:	69ba      	ldr	r2, [r7, #24]
 800255e:	605a      	str	r2, [r3, #4]
       }

      /* Activate the Pull-up or Pull down resistor for the current IO */
      temp = GPIOx->PUPDR;
 8002560:	687b      	ldr	r3, [r7, #4]
 8002562:	68db      	ldr	r3, [r3, #12]
 8002564:	61bb      	str	r3, [r7, #24]
      temp &= ~(GPIO_PUPDR_PUPDR0 << (position * 2U));
 8002566:	69fb      	ldr	r3, [r7, #28]
 8002568:	005b      	lsls	r3, r3, #1
 800256a:	2203      	movs	r2, #3
 800256c:	fa02 f303 	lsl.w	r3, r2, r3
 8002570:	43db      	mvns	r3, r3
 8002572:	69ba      	ldr	r2, [r7, #24]
 8002574:	4013      	ands	r3, r2
 8002576:	61bb      	str	r3, [r7, #24]
      temp |= ((GPIO_Init->Pull) << (position * 2U));
 8002578:	683b      	ldr	r3, [r7, #0]
 800257a:	689a      	ldr	r2, [r3, #8]
 800257c:	69fb      	ldr	r3, [r7, #28]
 800257e:	005b      	lsls	r3, r3, #1
 8002580:	fa02 f303 	lsl.w	r3, r2, r3
 8002584:	69ba      	ldr	r2, [r7, #24]
 8002586:	4313      	orrs	r3, r2
 8002588:	61bb      	str	r3, [r7, #24]
      GPIOx->PUPDR = temp;
 800258a:	687b      	ldr	r3, [r7, #4]
 800258c:	69ba      	ldr	r2, [r7, #24]
 800258e:	60da      	str	r2, [r3, #12]

      /* In case of Alternate function mode selection */
      if((GPIO_Init->Mode == GPIO_MODE_AF_PP) || (GPIO_Init->Mode == GPIO_MODE_AF_OD))
 8002590:	683b      	ldr	r3, [r7, #0]
 8002592:	685b      	ldr	r3, [r3, #4]
 8002594:	2b02      	cmp	r3, #2
 8002596:	d003      	beq.n	80025a0 <HAL_GPIO_Init+0xfc>
 8002598:	683b      	ldr	r3, [r7, #0]
 800259a:	685b      	ldr	r3, [r3, #4]
 800259c:	2b12      	cmp	r3, #18
 800259e:	d123      	bne.n	80025e8 <HAL_GPIO_Init+0x144>
      {
        /* Check the Alternate function parameter */
        assert_param(IS_GPIO_AF(GPIO_Init->Alternate));
        /* Configure Alternate function mapped with the current IO */
        temp = GPIOx->AFR[position >> 3U];
 80025a0:	69fb      	ldr	r3, [r7, #28]
 80025a2:	08da      	lsrs	r2, r3, #3
 80025a4:	687b      	ldr	r3, [r7, #4]
 80025a6:	3208      	adds	r2, #8
 80025a8:	f853 3022 	ldr.w	r3, [r3, r2, lsl #2]
 80025ac:	61bb      	str	r3, [r7, #24]
        temp &= ~(0xFU << ((uint32_t)(position & 0x07U) * 4U)) ;
 80025ae:	69fb      	ldr	r3, [r7, #28]
 80025b0:	f003 0307 	and.w	r3, r3, #7
 80025b4:	009b      	lsls	r3, r3, #2
 80025b6:	220f      	movs	r2, #15
 80025b8:	fa02 f303 	lsl.w	r3, r2, r3
 80025bc:	43db      	mvns	r3, r3
 80025be:	69ba      	ldr	r2, [r7, #24]
 80025c0:	4013      	ands	r3, r2
 80025c2:	61bb      	str	r3, [r7, #24]
        temp |= ((uint32_t)(GPIO_Init->Alternate) << (((uint32_t)position & 0x07U) * 4U));
 80025c4:	683b      	ldr	r3, [r7, #0]
 80025c6:	691a      	ldr	r2, [r3, #16]
 80025c8:	69fb      	ldr	r3, [r7, #28]
 80025ca:	f003 0307 	and.w	r3, r3, #7
 80025ce:	009b      	lsls	r3, r3, #2
 80025d0:	fa02 f303 	lsl.w	r3, r2, r3
 80025d4:	69ba      	ldr	r2, [r7, #24]
 80025d6:	4313      	orrs	r3, r2
 80025d8:	61bb      	str	r3, [r7, #24]
        GPIOx->AFR[position >> 3U] = temp;
 80025da:	69fb      	ldr	r3, [r7, #28]
 80025dc:	08da      	lsrs	r2, r3, #3
 80025de:	687b      	ldr	r3, [r7, #4]
 80025e0:	3208      	adds	r2, #8
 80025e2:	69b9      	ldr	r1, [r7, #24]
 80025e4:	f843 1022 	str.w	r1, [r3, r2, lsl #2]
      }

      /* Configure IO Direction mode (Input, Output, Alternate or Analog) */
      temp = GPIOx->MODER;
 80025e8:	687b      	ldr	r3, [r7, #4]
 80025ea:	681b      	ldr	r3, [r3, #0]
 80025ec:	61bb      	str	r3, [r7, #24]
      temp &= ~(GPIO_MODER_MODER0 << (position * 2U));
 80025ee:	69fb      	ldr	r3, [r7, #28]
 80025f0:	005b      	lsls	r3, r3, #1
 80025f2:	2203      	movs	r2, #3
 80025f4:	fa02 f303 	lsl.w	r3, r2, r3
 80025f8:	43db      	mvns	r3, r3
 80025fa:	69ba      	ldr	r2, [r7, #24]
 80025fc:	4013      	ands	r3, r2
 80025fe:	61bb      	str	r3, [r7, #24]
      temp |= ((GPIO_Init->Mode & GPIO_MODE) << (position * 2U));
 8002600:	683b      	ldr	r3, [r7, #0]
 8002602:	685b      	ldr	r3, [r3, #4]
 8002604:	f003 0203 	and.w	r2, r3, #3
 8002608:	69fb      	ldr	r3, [r7, #28]
 800260a:	005b      	lsls	r3, r3, #1
 800260c:	fa02 f303 	lsl.w	r3, r2, r3
 8002610:	69ba      	ldr	r2, [r7, #24]
 8002612:	4313      	orrs	r3, r2
 8002614:	61bb      	str	r3, [r7, #24]
      GPIOx->MODER = temp;
 8002616:	687b      	ldr	r3, [r7, #4]
 8002618:	69ba      	ldr	r2, [r7, #24]
 800261a:	601a      	str	r2, [r3, #0]

      /*--------------------- EXTI Mode Configuration ------------------------*/
      /* Configure the External Interrupt or event for the current IO */
      if((GPIO_Init->Mode & EXTI_MODE) == EXTI_MODE)
 800261c:	683b      	ldr	r3, [r7, #0]
 800261e:	685b      	ldr	r3, [r3, #4]
 8002620:	f003 5380 	and.w	r3, r3, #268435456	; 0x10000000
 8002624:	2b00      	cmp	r3, #0
 8002626:	f000 8096 	beq.w	8002756 <HAL_GPIO_Init+0x2b2>
      {
        /* Enable SYSCFG Clock */
        __HAL_RCC_SYSCFG_CLK_ENABLE();
 800262a:	2300      	movs	r3, #0
 800262c:	60fb      	str	r3, [r7, #12]
 800262e:	4b50      	ldr	r3, [pc, #320]	; (8002770 <HAL_GPIO_Init+0x2cc>)
 8002630:	6c5b      	ldr	r3, [r3, #68]	; 0x44
 8002632:	4a4f      	ldr	r2, [pc, #316]	; (8002770 <HAL_GPIO_Init+0x2cc>)
 8002634:	f443 4380 	orr.w	r3, r3, #16384	; 0x4000
 8002638:	6453      	str	r3, [r2, #68]	; 0x44
 800263a:	4b4d      	ldr	r3, [pc, #308]	; (8002770 <HAL_GPIO_Init+0x2cc>)
 800263c:	6c5b      	ldr	r3, [r3, #68]	; 0x44
 800263e:	f403 4380 	and.w	r3, r3, #16384	; 0x4000
 8002642:	60fb      	str	r3, [r7, #12]
 8002644:	68fb      	ldr	r3, [r7, #12]

        temp = SYSCFG->EXTICR[position >> 2U];
 8002646:	4a4b      	ldr	r2, [pc, #300]	; (8002774 <HAL_GPIO_Init+0x2d0>)
 8002648:	69fb      	ldr	r3, [r7, #28]
 800264a:	089b      	lsrs	r3, r3, #2
 800264c:	3302      	adds	r3, #2
 800264e:	f852 3023 	ldr.w	r3, [r2, r3, lsl #2]
 8002652:	61bb      	str	r3, [r7, #24]
        temp &= ~(0x0FU << (4U * (position & 0x03U)));
 8002654:	69fb      	ldr	r3, [r7, #28]
 8002656:	f003 0303 	and.w	r3, r3, #3
 800265a:	009b      	lsls	r3, r3, #2
 800265c:	220f      	movs	r2, #15
 800265e:	fa02 f303 	lsl.w	r3, r2, r3
 8002662:	43db      	mvns	r3, r3
 8002664:	69ba      	ldr	r2, [r7, #24]
 8002666:	4013      	ands	r3, r2
 8002668:	61bb      	str	r3, [r7, #24]
        temp |= ((uint32_t)(GPIO_GET_INDEX(GPIOx)) << (4U * (position & 0x03U)));
 800266a:	687b      	ldr	r3, [r7, #4]
 800266c:	4a42      	ldr	r2, [pc, #264]	; (8002778 <HAL_GPIO_Init+0x2d4>)
 800266e:	4293      	cmp	r3, r2
 8002670:	d00d      	beq.n	800268e <HAL_GPIO_Init+0x1ea>
 8002672:	687b      	ldr	r3, [r7, #4]
 8002674:	4a41      	ldr	r2, [pc, #260]	; (800277c <HAL_GPIO_Init+0x2d8>)
 8002676:	4293      	cmp	r3, r2
 8002678:	d007      	beq.n	800268a <HAL_GPIO_Init+0x1e6>
 800267a:	687b      	ldr	r3, [r7, #4]
 800267c:	4a40      	ldr	r2, [pc, #256]	; (8002780 <HAL_GPIO_Init+0x2dc>)
 800267e:	4293      	cmp	r3, r2
 8002680:	d101      	bne.n	8002686 <HAL_GPIO_Init+0x1e2>
 8002682:	2302      	movs	r3, #2
 8002684:	e004      	b.n	8002690 <HAL_GPIO_Init+0x1ec>
 8002686:	2307      	movs	r3, #7
 8002688:	e002      	b.n	8002690 <HAL_GPIO_Init+0x1ec>
 800268a:	2301      	movs	r3, #1
 800268c:	e000      	b.n	8002690 <HAL_GPIO_Init+0x1ec>
 800268e:	2300      	movs	r3, #0
 8002690:	69fa      	ldr	r2, [r7, #28]
 8002692:	f002 0203 	and.w	r2, r2, #3
 8002696:	0092      	lsls	r2, r2, #2
 8002698:	4093      	lsls	r3, r2
 800269a:	69ba      	ldr	r2, [r7, #24]
 800269c:	4313      	orrs	r3, r2
 800269e:	61bb      	str	r3, [r7, #24]
        SYSCFG->EXTICR[position >> 2U] = temp;
 80026a0:	4934      	ldr	r1, [pc, #208]	; (8002774 <HAL_GPIO_Init+0x2d0>)
 80026a2:	69fb      	ldr	r3, [r7, #28]
 80026a4:	089b      	lsrs	r3, r3, #2
 80026a6:	3302      	adds	r3, #2
 80026a8:	69ba      	ldr	r2, [r7, #24]
 80026aa:	f841 2023 	str.w	r2, [r1, r3, lsl #2]

        /* Clear EXTI line configuration */
        temp = EXTI->IMR;
 80026ae:	4b35      	ldr	r3, [pc, #212]	; (8002784 <HAL_GPIO_Init+0x2e0>)
 80026b0:	681b      	ldr	r3, [r3, #0]
 80026b2:	61bb      	str	r3, [r7, #24]
        temp &= ~((uint32_t)iocurrent);
 80026b4:	693b      	ldr	r3, [r7, #16]
 80026b6:	43db      	mvns	r3, r3
 80026b8:	69ba      	ldr	r2, [r7, #24]
 80026ba:	4013      	ands	r3, r2
 80026bc:	61bb      	str	r3, [r7, #24]
        if((GPIO_Init->Mode & GPIO_MODE_IT) == GPIO_MODE_IT)
 80026be:	683b      	ldr	r3, [r7, #0]
 80026c0:	685b      	ldr	r3, [r3, #4]
 80026c2:	f403 3380 	and.w	r3, r3, #65536	; 0x10000
 80026c6:	2b00      	cmp	r3, #0
 80026c8:	d003      	beq.n	80026d2 <HAL_GPIO_Init+0x22e>
        {
          temp |= iocurrent;
 80026ca:	69ba      	ldr	r2, [r7, #24]
 80026cc:	693b      	ldr	r3, [r7, #16]
 80026ce:	4313      	orrs	r3, r2
 80026d0:	61bb      	str	r3, [r7, #24]
        }
        EXTI->IMR = temp;
 80026d2:	4a2c      	ldr	r2, [pc, #176]	; (8002784 <HAL_GPIO_Init+0x2e0>)
 80026d4:	69bb      	ldr	r3, [r7, #24]
 80026d6:	6013      	str	r3, [r2, #0]

        temp = EXTI->EMR;
 80026d8:	4b2a      	ldr	r3, [pc, #168]	; (8002784 <HAL_GPIO_Init+0x2e0>)
 80026da:	685b      	ldr	r3, [r3, #4]
 80026dc:	61bb      	str	r3, [r7, #24]
        temp &= ~((uint32_t)iocurrent);
 80026de:	693b      	ldr	r3, [r7, #16]
 80026e0:	43db      	mvns	r3, r3
 80026e2:	69ba      	ldr	r2, [r7, #24]
 80026e4:	4013      	ands	r3, r2
 80026e6:	61bb      	str	r3, [r7, #24]
        if((GPIO_Init->Mode & GPIO_MODE_EVT) == GPIO_MODE_EVT)
 80026e8:	683b      	ldr	r3, [r7, #0]
 80026ea:	685b      	ldr	r3, [r3, #4]
 80026ec:	f403 3300 	and.w	r3, r3, #131072	; 0x20000
 80026f0:	2b00      	cmp	r3, #0
 80026f2:	d003      	beq.n	80026fc <HAL_GPIO_Init+0x258>
        {
          temp |= iocurrent;
 80026f4:	69ba      	ldr	r2, [r7, #24]
 80026f6:	693b      	ldr	r3, [r7, #16]
 80026f8:	4313      	orrs	r3, r2
 80026fa:	61bb      	str	r3, [r7, #24]
        }
        EXTI->EMR = temp;
 80026fc:	4a21      	ldr	r2, [pc, #132]	; (8002784 <HAL_GPIO_Init+0x2e0>)
 80026fe:	69bb      	ldr	r3, [r7, #24]
 8002700:	6053      	str	r3, [r2, #4]

        /* Clear Rising Falling edge configuration */
        temp = EXTI->RTSR;
 8002702:	4b20      	ldr	r3, [pc, #128]	; (8002784 <HAL_GPIO_Init+0x2e0>)
 8002704:	689b      	ldr	r3, [r3, #8]
 8002706:	61bb      	str	r3, [r7, #24]
        temp &= ~((uint32_t)iocurrent);
 8002708:	693b      	ldr	r3, [r7, #16]
 800270a:	43db      	mvns	r3, r3
 800270c:	69ba      	ldr	r2, [r7, #24]
 800270e:	4013      	ands	r3, r2
 8002710:	61bb      	str	r3, [r7, #24]
        if((GPIO_Init->Mode & RISING_EDGE) == RISING_EDGE)
 8002712:	683b      	ldr	r3, [r7, #0]
 8002714:	685b      	ldr	r3, [r3, #4]
 8002716:	f403 1380 	and.w	r3, r3, #1048576	; 0x100000
 800271a:	2b00      	cmp	r3, #0
 800271c:	d003      	beq.n	8002726 <HAL_GPIO_Init+0x282>
        {
          temp |= iocurrent;
 800271e:	69ba      	ldr	r2, [r7, #24]
 8002720:	693b      	ldr	r3, [r7, #16]
 8002722:	4313      	orrs	r3, r2
 8002724:	61bb      	str	r3, [r7, #24]
        }
        EXTI->RTSR = temp;
 8002726:	4a17      	ldr	r2, [pc, #92]	; (8002784 <HAL_GPIO_Init+0x2e0>)
 8002728:	69bb      	ldr	r3, [r7, #24]
 800272a:	6093      	str	r3, [r2, #8]

        temp = EXTI->FTSR;
 800272c:	4b15      	ldr	r3, [pc, #84]	; (8002784 <HAL_GPIO_Init+0x2e0>)
 800272e:	68db      	ldr	r3, [r3, #12]
 8002730:	61bb      	str	r3, [r7, #24]
        temp &= ~((uint32_t)iocurrent);
 8002732:	693b      	ldr	r3, [r7, #16]
 8002734:	43db      	mvns	r3, r3
 8002736:	69ba      	ldr	r2, [r7, #24]
 8002738:	4013      	ands	r3, r2
 800273a:	61bb      	str	r3, [r7, #24]
        if((GPIO_Init->Mode & FALLING_EDGE) == FALLING_EDGE)
 800273c:	683b      	ldr	r3, [r7, #0]
 800273e:	685b      	ldr	r3, [r3, #4]
 8002740:	f403 1300 	and.w	r3, r3, #2097152	; 0x200000
 8002744:	2b00      	cmp	r3, #0
 8002746:	d003      	beq.n	8002750 <HAL_GPIO_Init+0x2ac>
        {
          temp |= iocurrent;
 8002748:	69ba      	ldr	r2, [r7, #24]
 800274a:	693b      	ldr	r3, [r7, #16]
 800274c:	4313      	orrs	r3, r2
 800274e:	61bb      	str	r3, [r7, #24]
        }
        EXTI->FTSR = temp;
 8002750:	4a0c      	ldr	r2, [pc, #48]	; (8002784 <HAL_GPIO_Init+0x2e0>)
 8002752:	69bb      	ldr	r3, [r7, #24]
 8002754:	60d3      	str	r3, [r2, #12]
  for(position = 0U; position < GPIO_NUMBER; position++)
 8002756:	69fb      	ldr	r3, [r7, #28]
 8002758:	3301      	adds	r3, #1
 800275a:	61fb      	str	r3, [r7, #28]
 800275c:	69fb      	ldr	r3, [r7, #28]
 800275e:	2b0f      	cmp	r3, #15
 8002760:	f67f aeae 	bls.w	80024c0 <HAL_GPIO_Init+0x1c>
      }
    }
  }
}
 8002764:	bf00      	nop
 8002766:	3724      	adds	r7, #36	; 0x24
 8002768:	46bd      	mov	sp, r7
 800276a:	f85d 7b04 	ldr.w	r7, [sp], #4
 800276e:	4770      	bx	lr
 8002770:	40023800 	.word	0x40023800
 8002774:	40013800 	.word	0x40013800
 8002778:	40020000 	.word	0x40020000
 800277c:	40020400 	.word	0x40020400
 8002780:	40020800 	.word	0x40020800
 8002784:	40013c00 	.word	0x40013c00

08002788 <HAL_GPIO_ReadPin>:
  * @param  GPIO_Pin specifies the port bit to read.
  *         This parameter can be GPIO_PIN_x where x can be (0..15).
  * @retval The input port pin value.
  */
GPIO_PinState HAL_GPIO_ReadPin(GPIO_TypeDef* GPIOx, uint16_t GPIO_Pin)
{
 8002788:	b480      	push	{r7}
 800278a:	b085      	sub	sp, #20
 800278c:	af00      	add	r7, sp, #0
 800278e:	6078      	str	r0, [r7, #4]
 8002790:	460b      	mov	r3, r1
 8002792:	807b      	strh	r3, [r7, #2]
  GPIO_PinState bitstatus;

  /* Check the parameters */
  assert_param(IS_GPIO_PIN(GPIO_Pin));

  if((GPIOx->IDR & GPIO_Pin) != (uint32_t)GPIO_PIN_RESET)
 8002794:	687b      	ldr	r3, [r7, #4]
 8002796:	691a      	ldr	r2, [r3, #16]
 8002798:	887b      	ldrh	r3, [r7, #2]
 800279a:	4013      	ands	r3, r2
 800279c:	2b00      	cmp	r3, #0
 800279e:	d002      	beq.n	80027a6 <HAL_GPIO_ReadPin+0x1e>
  {
    bitstatus = GPIO_PIN_SET;
 80027a0:	2301      	movs	r3, #1
 80027a2:	73fb      	strb	r3, [r7, #15]
 80027a4:	e001      	b.n	80027aa <HAL_GPIO_ReadPin+0x22>
  }
  else
  {
    bitstatus = GPIO_PIN_RESET;
 80027a6:	2300      	movs	r3, #0
 80027a8:	73fb      	strb	r3, [r7, #15]
  }
  return bitstatus;
 80027aa:	7bfb      	ldrb	r3, [r7, #15]
}
 80027ac:	4618      	mov	r0, r3
 80027ae:	3714      	adds	r7, #20
 80027b0:	46bd      	mov	sp, r7
 80027b2:	f85d 7b04 	ldr.w	r7, [sp], #4
 80027b6:	4770      	bx	lr

080027b8 <HAL_GPIO_WritePin>:
  *            @arg GPIO_PIN_RESET: to clear the port pin
  *            @arg GPIO_PIN_SET: to set the port pin
  * @retval None
  */
void HAL_GPIO_WritePin(GPIO_TypeDef* GPIOx, uint16_t GPIO_Pin, GPIO_PinState PinState)
{
 80027b8:	b480      	push	{r7}
 80027ba:	b083      	sub	sp, #12
 80027bc:	af00      	add	r7, sp, #0
